:020000040800F2
:1000000000500020250A0008C1090008C90900089D
:10001000D1090008D9090008E10900080000000022
:10002000000000000000000000000000E9090008D6
:10003000F509000800000000010A00080D0A000888
:100040006D0A00086D0A00086D0A00086D0A0008B4
:100050006D0A00086D0A00086D0A00086D0A0008A4
:100060006D0A00086D0A00086D0A00086D0A000894
:100070006D0A00086D0A00086D0A00086D0A000884
:100080006D0A00086D0A00086D0A00086D0A000874
:100090006D0A00086D0A00086D0A00086D0A000864
:1000A0006D0A00086D0A00086D0A00086D0A000854
:1000B0006D0A00086D0A00086D0A00086D0A000844
:1000C0006D0A00086D0A00086D0A00086D0A000834
:1000D0006D0A00086D0A00086D0A00086D0A000824
:1000E0006D0A00086D0A00086D0A00080000000093
:1000F0000000000000000000000000000000000000
:0C01000000000000000000005FF808F1A3
:10010C0010B5054C237833B9044B13B10448AFF345
:10011C0000800123237010BD0C00002000000000A3
:10012C00B41F000808B5034B1BB103490348AFF3D8
:10013C00008008BD0000000010000020B41F000863
:10014C0080B582B000AF00F08DFC00F012F800F02A
:10015C00ADF800F049F800F07FF800F025FA002324
:10016C007B6000F0FFFA4FF4FA7000F0DDFC00BF8A
:10017C00F7E780B590B000AF07F1180328220021F3
:10018C00184601F0E5FE3B1D00221A605A609A6089
:10019C00DA601A610223BB610123BB621023FB628C
:1001AC0000237B6307F11803184600F061FF034638
:1001BC00002B01D000F0C6F80F237B600023BB603E
:1001CC000023FB6000233B6100237B613B1D00216E
:1001DC00184601F0CFF90346002B01D000F0B2F81D
:1001EC0000BF4037BD4680BD80B500AF184B194AE3
:1001FC001A60174B4FF482725A60154B4FF4004241
:10020C009A60134B0022DA60114B00221A61104BDA
:10021C0000225A610E4B4FF400729A610C4B102263
:10022C00DA610B4B00221A62094B00225A62084B0E
:10023C0000229A62064B0A22DA62054801F028FB7A
:10024C000346002B01D000F07DF800BF80BD00BF3D
:10025C00280000200030014080B500AF114B124A3D
:10026C001A60104B4FF4E1325A600E4B00229A6028
:10027C000C4B0022DA600B4B00221A61094B0C224A
:10028C005A61084B00229A61064B0022DA6105483C
:10029C0001F07FFD0346002B01D000F053F800BFA6
:1002AC0080BD00BF800000200038014080B588B0C0
:1002BC0000AF07F1100300221A605A609A60DA60EE
:1002CC001E4B9B691D4A43F0200393611B4B9B699A
:1002DC0003F02003FB60FB68184B9B69174A43F043
:1002EC0004039361154B9B6903F00403BB60BB686B
:1002FC00124B9B69114A43F0080393610F4B9B69A6
:10030C0003F008037B607B6800224FF460710C489B
:10031C0000F096FE4FF460733B6101237B61002378
:10032C00BB610223FB6107F110031946044800F07E
:10033C0003FD00BF2037BD4680BD00BF001002404A
:10034C00000C014080B400AF72B600BF00BFFDE7E7
:10035C0080B584B000AF0346FB71FB799BB2FB8187
:10036C00002280210C4800F06BFE00224FF400713B
:10037C00094800F065FE07F10E014FF0FF33012232
:10038C00064801F009FB01228021034800F058FEC9
:10039C0000BF1037BD4680BD000C01402800002076
:1003AC0080B584B000AF786039600022802121488C
:1003BC0000F046FE01224FF400711E4800F040FE92
:1003CC002CE03B68B3F5805F28BF4FF480537B81F2
:1003DC000023FB600FE0FB687A6813441B781BB2A8
:1003EC0043F480731BB299B2134AFB6822F81310C2
:1003FC00FB680133FB607B89FA689A42EBDB7A89F4
:10040C004FF0FF330C490D4801F0C6FA7B897A682E
:10041C0013447B607B893A68D31A3B603B68002BA2
:10042C00CFD101228021034800F00AFE00BF103713
:10043C00BD4680BD000C0140C800002028000020F3
:10044C0080B584B000AF0346FB71FB791BB243F45B
:10045C0080731BB29BB2FB81002280210C4800F000
:10046C00EFFD01224FF40071094800F0E9FD07F19E
:10047C000E014FF0FF330122064801F08DFA0122E4
:10048C008021034800F0DCFD00BF1037BD4680BD65
:10049C00000C01402800002080B582B000AF03465C
:1004AC00FB713620FFF754FFFB79032B1AD801A2FE
:1004BC0052F823F0D1040008D9040008E104000824
:1004CC00E9040008C020FFF7BBFF0CE0A020FFF7F9
:1004DC00B7FF08E00020FFF7B3FF04E06020FFF750
:1004EC00AFFF00E000BF00BF0837BD4680BD00BFB6
:1004FC0090B587B000AF0446084611461A4623460D
:10050C00FB800346BB800B467B8013463B8000225E
:10051C008021244800F094FDFB88FB827B88BB8201
:10052C00BB887B823B883B822A20FFF711FFFB8A2A
:10053C001B0A9BB2DBB23B73FB8ADBB27B73BB8ABD
:10054C001B0A9BB2DBB2BB73BB8ADBB2FB7307F13A
:10055C000C0304211846FFF723FF2B20FFF7F8FEAE
:10056C007B8A1B0A9BB2DBB23B727B8ADBB27B724F
:10057C003B8A1B0A9BB2DBB2BB723B8ADBB2FB72BF
:10058C0007F1080304211846FFF70AFF2C20FFF798
:10059C00DFFE01228021034800F052FD00BF1C3712
:1005AC00BD4690BD000C014090B58BB000AF19203A
:1005BC0000F0BAFA00224FF48071474800F040FD79
:1005CC00192000F0B1FA01224FF48071424800F07A
:1005DC0037FD322000F0A8FA3A20FFF7B9FE55207B
:1005EC00FFF72EFFB220FFF7B3FE3C4A07F12003C2
:1005FC0092E8030018600433197007F120030521F9
:10060C001846FFF7CDFE0120FFF746FFB720FFF796
:10061C009FFE3520FFF714FFBB20FFF799FE192032
:10062C00FFF70EFFC020FFF793FE2C20FFF708FF0B
:10063C00C220FFF78DFE0120FFF702FFC320FFF75A
:10064C0087FE1220FFF7FCFEC420FFF781FE20205E
:10065C00FFF7F6FEC620FFF77BFE0F20FFF7F0FE3C
:10066C00D020FFF775FEA420FFF7EAFEA120FFF7CC
:10067C00E7FEE020FFF76CFE194B07F110040FCBDF
:10068C0007C4238007F110030E211846FFF788FEDC
:10069C00E120FFF75DFE134B3C460FCB07C42380D4
:1006AC003B460E211846FFF77BFE2120FFF750FE3C
:1006BC001120FFF74DFE1320FFF74AFE2920FFF70C
:1006CC0047FE322000F030FA002000F00DF800BF99
:1006DC002C37BD4690BD00BF000C0140CC1F00085C
:1006EC00D41F0008E41F000880B584B000AF034697
:1006FC00FB80EF2340F23F1200210020FFF7F8FEB1
:10070C0000228021164800F09BFC0023FB8119E09D
:10071C000023BB8110E0FB881B0A9BB2DBB23B724F
:10072C00FB88DBB27B7207F1080302211846FFF746
:10073C0037FEBB890133BB81BB89EF2BEBD9FB891E
:10074C000133FB81FB89B3F5A07FE1D3012280212A
:10075C00034800F075FC00BF1037BD4680BD00BFDC
:10076C00000C014080B500AF4FF6FF70FFF7BCFFE7
:10077C004FF47A7000F0D8F947F6FF70FFF7B4FF2A
:10078C004FF4FA7000F0D0F94FF47840FFF7ACFF5B
:10079C004FF4FA7000F0C8F91F20FFF7A5FF4FF4D3
:1007AC00FA7000F0C1F94FF4FC60FFF79DFF4FF4B5
:1007BC00FA7000F0B9F94FF6E070FFF795FF4FF4BF
:1007CC00FA7000F0B1F94BF64040FFF78DFF4FF493
:1007DC00FA7000F0A9F940F2CF10FFF785FF4FF443
:1007EC00FA7000F0A1F94FF61F00FFF77DFF4FF4F0
:1007FC00FA7000F099F948F21F40FFF775FF4FF4BB
:10080C00FA7000F091F94CF21860FFF76DFF4FF49D
:10081C00FA7000F089F942F61230FFF765FF4FF4D9
:10082C00FA7000F081F94FF6FF70FFF75DFF4FF49F
:10083C00FA7000F079F900BF80BD000080B485B07B
:10084C0000AF154B9B69144A43F001039361124BA3
:10085C009B6903F00103BB60BB680F4BDB690E4A5D
:10086C0043F08053D3610C4BDB6903F080537B6006
:10087C007B680A4B5B68FB60FB6823F0E063FB6002
:10088C00FB6843F00073FB60044AFB68536000BFD5
:10089C001437BD4680BC7047001002400000014078
:1008AC0080B588B000AF786007F1100300221A60A1
:1008BC005A609A60DA607B681B68154A934223D1B0
:1008CC00144B9B69134A43F480539361114B9B69FE
:1008DC0003F48053FB60FB680E4B9B690D4A43F09D
:1008EC00040393610B4B9B6903F00403BB60BB686F
:1008FC00A0233B6102237B610323FB6107F11003FF
:10090C001946054800F018FA00BF2037BD4680BDD7
:10091C0000300140001002400008014080B588B052
:10092C0000AF786007F1100300221A605A609A60D9
:10093C00DA607B681B681C4A934231D11B4B9B6964
:10094C001A4A43F480439361184B9B6903F4804328
:10095C00FB60FB68154B9B69144A43F004039361DD
:10096C00124B9B6903F00403BB60BB684FF400732C
:10097C003B6102237B610323FB6107F110031946E2
:10098C000B4800F0D9F94FF480633B6100237B6185
:10099C000023BB6107F110031946054800F0CCF9A0
:1009AC0000BF2037BD4680BD00380140001002401A
:1009BC000008014080B400AF00BFFDE780B400AF79
:1009CC0000BFFDE780B400AF00BFFDE780B400AF0F
:1009DC0000BFFDE780B400AF00BFFDE780B400AFFF
:1009EC0000BFBD4680BC704780B400AF00BFBD46A1
:1009FC0080BC704780B400AF00BFBD4680BC704760
:100A0C0080B500AF00F074F800BF80BD80B400AFBB
:100A1C0000BFBD4680BC7047FFF7F8FF0B480C4980
:100A2C000C4A002302E0D458C4500433C4188C423E
:100A3C00F9D3094A094C002301E013600432A242A5
:100A4C00FBD301F08DFAFFF77BFB70470000002011
:100A5C000C000020282000080C000020CC200020D6
:100A6C00FEE7000080B500AF084B1B68074A43F057
:100A7C0010031360032000F02BF90F2000F008F88E
:100A8C00FFF7DCFE0023184680BD00BF00200240AB
:100A9C0080B582B000AF7860124B1A68124B1B788D
:100AAC0019464FF47A73B3FBF1F3B2FBF3F3184628
:100ABC0000F035F90346002B01D001230EE07B68D2
:100ACC000F2B0AD8002279684FF0FF3000F00BF999
:100ADC00064A7B681360002300E0012318460837A0
:100AEC00BD4680BD0000002008000020040000204E
:100AFC0080B400AF054B1B781A46054B1B6813449A
:100B0C00034A136000BFBD4680BC7047080000203C
:100B1C00C820002080B400AF024B1B681846BD46AD
:100B2C0080BC7047C820002080B584B000AF7860CE
:100B3C00FFF7F0FFB8607B68FB60FB68B3F1FF3F29
:100B4C0005D00A4B1B781A46FB681344FB6000BFA8
:100B5C00FFF7E0FF0246BB68D31AFA689A42F7D84F
:100B6C0000BF00BF1037BD4680BD00BF080000208D
:100B7C0080B485B000AF78607B6803F00703FB603E
:100B8C000C4BDB68BB60BA684FF6FF031340BB60CD
:100B9C00FB681A02BB68134343F0BF6343F4003392
:100BAC00BB60044ABB68D36000BF1437BD4680BC31
:100BBC00704700BF00ED00E080B400AF044BDB6871
:100BCC001B0A03F007031846BD4680BC704700BFE4
:100BDC0000ED00E080B483B000AF03463960FB71D8
:100BEC0097F90730002B0ADB3B68DAB20C4997F90E
:100BFC0007301201D2B20B4483F800230AE03B68A1
:100C0C00DAB20849FB7903F00F03043B1201D2B2AC
:100C1C000B441A7600BF0C37BD4680BC704700BF32
:100C2C0000E100E000ED00E080B489B000AFF860B6
:100C3C00B9607A60FB6803F00703FB61FB69C3F1E1
:100C4C000703042B28BF0423BB61FB690433062B69
:100C5C0002D9FB69033B00E000237B614FF0FF32BC
:100C6C00BB6902FA03F3DA43BB681A407B699A400A
:100C7C004FF0FF317B6901FA03F3D9437B680B40DA
:100C8C00134318462437BD4680BC704780B582B0EC
:100C9C0000AF78607B68013BB3F1807F01D3012307
:100CAC000FE00A4A7B68013B53600F214FF0FF3085
:100CBC00FFF790FF054B00229A60044B07221A6045
:100CCC00002318460837BD4680BD00BF10E000E089
:100CDC0080B582B000AF78607868FFF749FF00BF3D
:100CEC000837BD4680BD80B586B000AF0346B960FD
:100CFC007A60FB7300237B61FFF75EFF78617A6893
:100D0C00B9687869FFF790FF024697F90F301146E2
:100D1C001846FFF75FFF00BF1837BD4680BD80B592
:100D2C0082B000AF78607868FFF7B0FF03461846D2
:100D3C000837BD4680BD000080B48BB000AF786032
:100D4C00396000237B6200233B6269E101227B6AEC
:100D5C0002FA03F3FB613B681B68FA691340BB6141
:100D6C00BA69FB699A4240F058813B685B689A4AC1
:100D7C0093425ED0984A934275D8984A934258D081
:100D8C00964A93426FD8964A934252D0944A9342D1
:100D9C0069D8944A93424CD0924A934263D8924A6F
:100DAC00934246D0904A93425DD8122B2AD8122BEC
:100DBC0059D801A252F823F03F0E0008190E000872
:100DCC002B0E00086D0E0008730E0008730E000841
:100DDC00730E0008730E0008730E0008730E0008E3
:100DEC00730E0008730E0008730E0008730E0008D3
:100DFC00730E0008730E0008730E0008210E000815
:100E0C00350E0008794A934213D02CE03B68DB681E
:100E1C003B6229E03B68DB6804333B6224E03B68BF
:100E2C00DB6808333B621FE03B68DB680C333B62DA
:100E3C001AE03B689B68002B02D104233B6213E051
:100E4C003B689B68012B05D108233B627B68FA69E0
:100E5C001A6109E008233B627B68FA695A6103E076
:100E6C0000233B6200E000BFBB69FF2B01D87B680D
:100E7C0001E07B6804337B61BB69FF2B02D87B6A82
:100E8C009B0002E07B6A083B9B003B617B691A6814
:100E9C000F213B6901FA03F3DB431A40396A3B69C2
:100EAC0001FA03F31A437B691A603B685B6803F031
:100EBC008053002B00F0B1804D4B9B694C4A43F0A2
:100ECC00010393614A4B9B6903F00103BB60BB6850
:100EDC00484A7B6A9B08023352F82330FB607B6ADA
:100EEC0003F003039B000F2202FA03F3DB43FA68BF
:100EFC001340FB607B68404A934213D07B683F4AA7
:100F0C0093420DD07B683E4A934207D07B683D4AA2
:100F1C00934201D1032306E0042304E0022302E000
:100F2C00012300E000237A6A02F00302920093404E
:100F3C00FA681343FB602F497B6A9B080233FA68FB
:100F4C0041F823203B685B6803F48013002B06D028
:100F5C002D4B9A682C49BB6913438B6006E02A4BD6
:100F6C009A68BB69DB43284913408B603B685B681C
:100F7C0003F40013002B06D0234BDA682249BB691B
:100F8C001343CB6006E0204BDA68BB69DB431E4998
:100F9C001340CB603B685B6803F40033002B06D036
:100FAC00194B5A681849BB6913434B6006E0164B42
:100FBC005A68BB69DB43144913404B603B685B6860
:100FCC0003F48033002B21D00F4B1A680E49BB69F8
:100FDC0013430B6021E000BF000032100000311001
:100FEC00000022100000211000001210000011104F
:100FFC00001002400000014000080140000C0140BC
:10100C000010014000140140000401400B4B1A6811
:10101C00BB69DB43094913400B607B6A01337B627C
:10102C003B681A687B6A22FA03F3002B7FF48EAEBE
:10103C0000BF00BF2C37BD4680BC70470004014088
:10104C0080B483B000AF78600B467B8013467B7016
:10105C007B78002B03D07A887B681A6103E07B884D
:10106C001A047B681A6100BF0C37BD4680BC704700
:10107C0080B586B000AF78607B68002B01D101236E
:10108C0072E27B681B6803F00103002B00F0878081
:10109C00924B5B6803F00C03042B0CD08F4B5B68FA
:1010AC0003F00C03082B12D18C4B5B6803F48033D8
:1010BC00B3F5803F0BD1894B1B6803F40033002B35
:1010CC006CD07B685B68002B68D101234CE27B6899
:1010DC005B68B3F5803F06D1804B1B687F4A43F4B5
:1010EC00803313602EE07B685B68002B0CD17B4B4C
:1010FC001B687A4A23F480331360784B1B68774A59
:10110C0023F4802313601DE07B685B68B3F5A02F8C
:10111C000CD1724B1B68714A43F4802313606F4BE4
:10112C001B686E4A43F4803313600BE06B4B1B68F7
:10113C006A4A23F480331360684B1B68674A23F4B4
:10114C00802313607B685B68002B13D0FFF7E2FCF5
:10115C00386108E0FFF7DEFC02463B69D31A642BCA
:10116C0001D9032300E25D4B1B6803F40033002B11
:10117C00F0D014E0FFF7CEFC386108E0FFF7CAFCB2
:10118C0002463B69D31A642B01D90323ECE1534B80
:10119C001B6803F40033002BF0D100E000BF7B6828
:1011AC001B6803F00203002B63D04C4B5B6803F00D
:1011BC000C03002B0BD0494B5B6803F00C03082B82
:1011CC001CD1464B5B6803F48033002B16D1434B88
:1011DC001B6803F00203002B05D07B681B69012BF5
:1011EC0001D00123C0E13D4B1B6823F0F8027B6862
:1011FC005B69DB00394913430B603AE07B681B6980
:10120C00002B20D0364B01221A60FFF783FC38618B
:10121C0008E0FFF77FFC02463B69D31A022B01D989
:10122C000323A1E12D4B1B6803F00203002BF0D02C
:10123C002A4B1B6823F0F8027B685B69DB002749AB
:10124C0013430B6015E0264B00221A60FFF762FC7B
:10125C00386108E0FFF75EFC02463B69D31A022BAB
:10126C0001D9032380E11D4B1B6803F00203002B03
:10127C00F0D17B681B6803F00803002B3AD07B6825
:10128C009B69002B19D0174B01221A60FFF742FC07
:10129C00386108E0FFF73EFC02463B69D31A022B8B
:1012AC0001D9032360E10D4B5B6A03F00203002BB1
:1012BC00F0D0012000F0CEFA1CE00A4B00221A609C
:1012CC00FFF728FC38610FE0FFF724FC02463B696E
:1012DC00D31A022B08D9032346E100BF00100240A9
:1012EC000000424280044242924B5B6A03F00203CC
:1012FC00002BE9D17B681B6803F00403002B00F082
:10130C00A6800023FB758B4BDB6903F08053002B0D
:10131C000DD1884BDB69874A43F08053D361854BF1
:10132C00DB6903F08053BB60BB680123FB75824B08
:10133C001B6803F48073002B18D17F4B1B687E4A0B
:10134C0043F480731360FFF7E5FB386108E0FFF7A7
:10135C00E1FB02463B69D31A642B01D9032303E159
:10136C00754B1B6803F48073002BF0D07B68DB6833
:10137C00012B06D16F4B1B6A6E4A43F001031362BB
:10138C002DE07B68DB68002B0CD16A4B1B6A694A29
:10139C0023F001031362674B1B6A664A23F00403B4
:1013AC0013621CE07B68DB68052B0CD1614B1B6A5C
:1013BC00604A43F0040313625E4B1B6A5D4A43F0C0
:1013CC00010313620BE05B4B1B6A5A4A23F00103C7
:1013DC001362584B1B6A574A23F0040313627B6851
:1013EC00DB68002B15D0FFF795FB38610AE0FFF79F
:1013FC0091FB02463B69D31A41F28832934201D9E0
:10140C000323B1E04B4B1B6A03F00203002BEED01D
:10141C0014E0FFF77FFB38610AE0FFF77BFB024625
:10142C003B69D31A41F28832934201D903239BE0E2
:10143C00404B1B6A03F00203002BEED1FB7D012B0A
:10144C0005D13C4BDB693B4A23F08053D3617B686D
:10145C00DB69002B00F08780364B5B6803F00C03D4
:10146C00082B61D07B68DB69022B46D1334B002201
:10147C001A60FFF74FFB386108E0FFF74BFB0246A1
:10148C003B69D31A022B01D903236DE0294B1B684E
:10149C0003F00073002BF0D17B681B6AB3F5803F1F
:1014AC0008D1244B5B6823F400327B689B6821498C
:1014BC0013434B601F4B5B6823F474127B68196AEF
:1014CC007B685B6A0B431B4913434B601B4B01222C
:1014DC001A60FFF71FFB386108E0FFF71BFB0246A1
:1014EC003B69D31A022B01D903233DE0114B1B6836
:1014FC0003F00073002BF0D035E0104B00221A6083
:10150C00FFF708FB386108E0FFF704FB02463B6974
:10151C00D31A022B01D9032326E0064B1B6803F0D8
:10152C000073002BF0D11EE07B68DB69012B07D127
:10153C00012319E00010024000700040600042429C
:10154C000B4B5B68FB60FB6803F480327B681B6AA7
:10155C009A4206D1FB6803F470127B685B6A9A426C
:10156C0001D0012300E0002318461837BD4680BD8A
:10157C000010024080B584B000AF786039607B68A1
:10158C00002B01D10123D0E06A4B1B6803F0070349
:10159C003A689A4210D9674B1B6823F007026549D9
:1015AC003B6813430B60634B1B6803F007033A68FB
:1015BC009A4201D00123B8E07B681B6803F0020358
:1015CC00002B20D07B681B6803F00403002B05D094
:1015DC00594B5B68584A43F4E06353607B681B6863
:1015EC0003F00803002B05D0534B5B68524A43F4BD
:1015FC0060535360504B5B6823F0F0027B689B6830
:10160C004D4913434B607B681B6803F00103002BAF
:10161C0040D07B685B68012B07D1474B1B6803F4F8
:10162C000033002B15D101237FE07B685B68022B14
:10163C0007D1414B1B6803F00073002B09D1012328
:10164C0073E03D4B1B6803F00203002B01D1012317
:10165C006BE0394B5B6823F003027B685B683649AF
:10166C0013434B60FFF756FAF8600AE0FFF752FAA3
:10167C000246FB68D31A41F28832934201D9032304
:10168C0053E02D4B5B6803F00C027B685B689B009E
:10169C009A42EBD1274B1B6803F007033A689A4236
:1016AC0010D2244B1B6823F0070222493B681343DA
:1016BC000B60204B1B6803F007033A689A4201D079
:1016CC00012332E07B681B6803F00403002B08D075
:1016DC00194B5B6823F4E0627B68DB6816491343A3
:1016EC004B607B681B6803F00803002B09D0124B7E
:1016FC005B6823F460527B681B69DB000E49134363
:10170C004B6000F021F802460B4B5B681B0903F0A1
:10171C000F030A49CB5C22FA03F3094A1360094B05
:10172C001B681846FFF7B4F9002318461037BD465E
:10173C0080BD00BF0020024000100240F41F0008D2
:10174C00000000200400002080B487B000AF00230C
:10175C00FB600023BB6000237B6100237B600023C4
:10176C003B611E4B5B68FB60FB6803F00C03042BB6
:10177C0002D0082B03D027E0194B3B6127E0FB6814
:10178C009B0C03F00F03174AD35C7B60FB6803F4DC
:10179C008033002B10D0114B5B685B0C03F0010302
:1017AC00114AD35CBB607B680D4A03FB02F2BB6839
:1017BC00B2FBF3F37B6104E07B680C4A02FB03F39E
:1017CC007B617B693B6102E0054B3B6100BF3B6980
:1017DC0018461C37BD4680BC704700BF0010024045
:1017EC0000127A000C2000081C20000800093D00A3
:1017FC0080B400AF024B1B681846BD4680BC7047D6
:10180C000000002080B500AFFFF7F2FF0246054B49
:10181C005B681B0A03F007030349CB5C22FA03F352
:10182C00184680BD001002400420000880B500AFAF
:10183C00FFF7DEFF0246054B5B68DB0A03F007038C
:10184C000349CB5C22FA03F3184680BD001002401A
:10185C000420000880B485B000AF78600A4B1B6888
:10186C000A4AA2FB03235B0A7A6802FB03F3FB60C0
:10187C0000BFFB685A1EFA60002BF9D100BF00BFF5
:10188C001437BD4680BC704700000020D34D621059
:10189C0080B582B000AF78607B68002B01D101234A
:1018AC0076E07B685B6A002B08D17B685B68B3F5DC
:1018BC00827F09D07B680022DA6105E07B68002218
:1018CC001A617B6800225A617B6800229A627B68ED
:1018DC0093F85130DBB2002B06D17B68002283F8E1
:1018EC0050207868FEF7DCFF7B68022283F85120D9
:1018FC007B681B681A687B681B6822F040021A60C0
:10190C007B685B6803F482727B689B6803F4044316
:10191C001A437B68DB6803F400631A437B681B691A
:10192C0003F002031A437B685B6903F001031A435B
:10193C007B689B6903F400731A437B68DB6903F0D3
:10194C0038031A437B681B6A03F0800342EA0301E5
:10195C007B689B6A03F400527B681B680A431A601D
:10196C007B689B691A0C7B681B6802F004025A6046
:10197C007B681B68DA697B681B6822F40062DA6199
:10198C007B6800225A657B68012283F85120002372
:10199C0018460837BD4680BD80B588B000AFF860EA
:1019AC00B9603B601346FB80FFF7B4F8F861FB8825
:1019BC007B83FB6893F85130DBB2012B01D00223FF
:1019CC002AE1BB68002B02D0FB88002B01D101233C
:1019DC0022E1FB6893F85030012B01D102231BE16B
:1019EC00FB68012283F85020FB68032283F8512006
:1019FC00FB6800225A65FB68BA681A63FB68FA88B0
:101A0C009A86FB68FA88DA86FB6800229A63FB6880
:101A1C0000229A87FB680022DA87FB6800225A644E
:101A2C00FB6800221A64FB689B68B3F5004F0FD16A
:101A3C00FB681B681A68FB681B6822F040021A607E
:101A4C00FB681B681A68FB681B6842F480421A60CA
:101A5C00FB681B681B6803F04003402B07D0FB6836
:101A6C001B681A68FB681B6842F040021A60FB682E
:101A7C00DB68B3F5006F52D1FB685B68002B02D0BA
:101A8C007B8B012B45D1FB681B6B1A88FB681B6891
:101A9C00DA60FB681B6B9A1CFB681A63FB68DB8EB5
:101AAC009BB2013B9AB2FB68DA8632E0FB681B689A
:101ABC009B6803F00203022B12D1FB681B6B1A8884
:101ACC00FB681B68DA60FB681B6B9A1CFB681A636B
:101ADC00FB68DB8E9BB2013B9AB2FB68DA8618E09E
:101AEC00FFF718F80246FB69D31A3A689A4203D8F2
:101AFC003B68B3F1FF3F02D13B68002B09D1FB6877
:101B0C00012283F85120FB68002283F85020032324
:101B1C0082E0FB68DB8E9BB2002BC7D153E0FB68E5
:101B2C005B68002B02D07B8B012B47D1FB681A6BB7
:101B3C00FB681B680C3312781A70FB681B6B5A1C01
:101B4C00FB681A63FB68DB8E9BB2013B9AB2FB68A5
:101B5C00DA8633E0FB681B689B6803F00203022BF8
:101B6C0013D1FB681A6BFB681B680C3312781A7064
:101B7C00FB681B6B5A1CFB681A63FB68DB8E9BB201
:101B8C00013B9AB2FB68DA8618E0FEF7C3FF024607
:101B9C00FB69D31A3A689A4203D83B68B3F1FF3F0A
:101BAC0002D13B68002B09D1FB68012283F851203C
:101BBC00FB68002283F8502003232DE0FB68DB8EAA
:101BCC009BB2002BC6D1FA693968F86800F0B0F8FE
:101BDC000346002B02D0FB6820225A65FB689B68E9
:101BEC00002B0AD100237B61FB681B68DB687B61DF
:101BFC00FB681B689B687B617B69FB68012283F82F
:101C0C005120FB68002283F85020FB685B6D002B91
:101C1C0001D0012300E0002318462037BD4680BDCB
:101C2C0080B588B000AFF860B9603B601346FB71BB
:101C3C00FEF770FF0246BB6A9B1A3A681344FB61BD
:101C4C00FEF768FFB861394B1B685B011B0DFA6925
:101C5C0002FB03F37B6154E03B68B3F1FF3F50D0D0
:101C6C00FEF758FF0246BB69D31AFA699A4202D9A9
:101C7C00FB69002B3DD1FB681B685A68FB681B682D
:101C8C0022F0E0025A60FB685B68B3F5827F11D1E9
:101C9C00FB689B68B3F5004F04D0FB689B68B3F5F9
:101CAC00806F07D1FB681B681A68FB681B6822F001
:101CBC0040021A60FB689B6AB3F5005F0FD1FB68AA
:101CCC001B681A68FB681B6822F400521A60FB68D8
:101CDC001B681A68FB681B6842F400521A60FB68A8
:101CEC00012283F85120FB68002283F85020032343
:101CFC0017E07B69002B01D10023FB617B69013B61
:101D0C007B61FB681B689A68BB681340BA689A428F
:101D1C000CBF01230023DBB21A46FB799A429BD1FC
:101D2C00002318462037BD4680BD00BF00000020B0
:101D3C0080B586B002AFF860B9607A607B680093BA
:101D4C00BB6801220221F868FFF76AFF0346002BEB
:101D5C0007D0FB685B6D43F02002FB685A650323D8
:101D6C0013E07B680093BB6800228021F868FFF7C2
:101D7C0057FF0346002B07D0FB685B6D43F0200236
:101D8C00FB685A65032300E0002318461037BD4654
:101D9C0080BD80B582B000AF78607B68002B01D12C
:101DAC00012342E07B6893F84130DBB2002B06D173
:101DBC007B68002283F840207868FEF7AFFD7B68D3
:101DCC00242283F841207B681B68DA687B681B68D7
:101DDC0022F40052DA60786800F02CF87B681B68FB
:101DEC001A697B681B6822F490421A617B681B6835
:101DFC005A697B681B6822F02A025A617B681B684F
:101E0C00DA687B681B6842F40052DA607B68002257
:101E1C005A647B68202283F841207B68202283F857
:101E2C0042207B6800225A63002318460837BD46BF
:101E3C0080BD000080B584B000AF78607B681B6803
:101E4C001B6923F440517B68DA687B681B680A4382
:101E5C001A617B689A687B681B691A437B685B69AB
:101E6C001343BB607B681B68DB6823F4B05323F01F
:101E7C000C037A681268B9680B43D3607B681B68E3
:101E8C005B6923F440717B689A697B681B680A4321
:101E9C005A617B681B682C4A934203D1FFF7C6FC3E
:101EAC00F86002E0FFF7AEFCF860FA6813469B009E
:101EBC0013449A001A447B685B689B00B2FBF3F3F3
:101ECC00224AA2FB03235B091901FA6813469B0003
:101EDC0013449A001A447B685B689B00B2FBF3F2D4
:101EEC001A4BA3FB02035B09642000FB03F3D31A18
:101EFC001B013233154AA2FB03235B0903F0F003E9
:101F0C001944FA6813469B0013449A001A447B68E0
:101F1C005B689B00B2FBF3F20C4BA3FB02035B0967
:101F2C00642000FB03F3D31A1B013233074AA2FBD4
:101F3C0003235B0903F00F027B681B680A449A6059
:101F4C0000BF1037BD4680BD003801401F85EB51E6
:101F5C0003460244934200D1704703F8011BF9E792
:101F6C0070B500260C4D0D4C641BA410A64209D173
:101F7C0000F01AF800260A4D0A4C641BA410A64265
:101F8C0005D170BD55F8043B98470136EEE755F87E
:101F9C00043B98470136F2E7202000082020000877
:101FAC002020000824200008F8B500BFF8BC08BCAD
:101FBC009E467047F8B500BFF8BC08BC9E467047FB
:101FCC000C0C003333000000D0040D11132B3F54C4
:101FDC004C180D0B1F230000D0040C11132C3F4484
:101FEC00512F1F1F202300000000000000000000E4
:101FFC0001020304060708090000000001020304A3
:10200C0002030405060708090A0B0C0D0E0F10102D
:04201C0001020000BD
:042020003101000882
:042024000D010008A2
:0C20280000127A0010000000010000000F
:0400000508000A25C0
:00000001FF
