:020000040800F2
:1000000000000220E12A0008852800088D28000849
:10001000952800089D280008A52800080000000079
:10002000000000000000000000000000AD280008F3
:10003000BB28000800000000C9280008D7280008D5
:10004000312B0008312B0008312B0008312B000820
:10005000312B0008312B0008312B0008312B000810
:10006000312B0008312B0008312B0008312B000800
:10007000312B0008312B0008312B0008312B0008F0
:10008000312B0008312B0008312B0008312B0008E0
:10009000E5280008312B0008312B0008312B00081F
:1000A000312B0008312B0008312B0008F9280008FB
:1000B000312B00080D290008312B0008312B0008D6
:1000C000312B0008312B0008312B0008312B0008A0
:1000D000312B0008312B000821290008312B0008A2
:1000E000312B0008312B0008312B0008312B000880
:1000F000312B0008312B0008312B0008312B000870
:10010000312B0008312B0008312B0008312B00085F
:10011000312B000835290008312B0008312B00084D
:10012000312B0008312B0008312B0008312B00083F
:10013000312B00080000000000000000312B0008F7
:10014000312B0008312B0008312B0008312B00081F
:10015000312B0008312B0008312B0008312B00080F
:10016000312B0008312B0008312B0008312B0008FF
:10017000312B0008312B0008312B00080000000053
:1001800000000000312B000800000000000000000B
:10019000312B00080000000000000000312B000897
:1001A000000000000000000000000000312B0008EB
:1001B000312B0008312B0008312B0008312B0008AF
:0401C000312B0008D7
:1001D00010B5054C237833B9044B13B10448AFF381
:1001E00000800123237010BD6C000020000000007F
:1001F000B48B000808B5034B1BB103490348AFF3A8
:10020000008008BD0000000070000020B48B0008D2
:10021000034613F8012B002AFBD1181A0138704746
:1002200001F0FF01102A2BDB10F0070F08D010F8A7
:10023000013B013A8B422DD010F0070F42B3F6D1AB
:10024000F0B441EA012141EA014122F007047FF0C4
:1002500000070023F0E80256083C85EA010586EA1B
:10026000010685FA47F5A3FA87F586FA47F6A5FA57
:1002700087F68EB9EED1F0BC01F0FF0102F0070263
:1002800032B110F8013B013A83EA010313B1F8D10E
:100290000020704701387047002D06BF35460338EF
:1002A000073815F0010F07D1013015F4807F02BF28
:1002B000013015F4C03F0130F0BC0138704700BF79
:1002C00053B94AB9002908BF00281CBF4FF0FF31BD
:1002D0004FF0FF3000F06AB9ADF1080C6DE904CEC3
:1002E00000F006F8DDF804E0DDE9022304B0704711
:1002F0002DE9F047089D0C46002B4ED194468C45C5
:100300008646B2FA82F262D94AB1C2F12003914024
:1003100020FA03F30CFA02FC194300FA02FE4FEA3A
:100320001C471FFA8CF6B1FBF7F44FEA1E4307FB9C
:10033000141143EA014304FB06F199420AD91CEB6C
:10034000030304F1FF3080F01281994240F20F81E3
:10035000023C6344591A1FFA8EF3B1FBF7F007FB16
:10036000101143EA014300FB06F69E420AD91CEB3A
:10037000030300F1FF3180F0FC809E4240F2F980DF
:10038000634402389B1B40EA044000211DB1D34066
:100390000022C5E90032BDE8F0878B4205D90DB1D6
:1003A000C5E9000100210846F5E7B3FA83F1002909
:1003B00046D1A34202D39042C0F0F080861A64EB8B
:1003C00003030120002DE6D0C5E90063E3E7002A1E
:1003D00040F09080A1EB0C044FEA1C481FFA8CF708
:1003E0000121B4FBF8F64FEA1E4308FB164443EA2A
:1003F000044307FB06F0984208D91CEB030306F1FF
:10040000FF3402D2984200F2CD8026461C1A1FFA11
:100410008EF3B4FBF8F008FB104443EA044300FBFE
:1004200007F79F4208D91CEB030300F1FF3402D207
:100430009F4200F2B0802046DB1B40EA0640A5E761
:10044000C1F120068B4022FA06F71F4320FA06FC72
:1004500004FA01F343EA0C03F44000FA01F8380C03
:100460004FEA1349B4FBF0FE1FFA87FC00FB1E4461
:1004700049EA04440EFB0CF9A14502FA01F20AD93B
:100480003C190EF1FF3A80F08480A14540F2818052
:10049000AEF1020E3C44A4EB09041FFA83F9B4FB4D
:1004A000F0F300FB134449EA044403FB0CFCA445AD
:1004B00007D93C1903F1FF3067D2A44565D9023B47
:1004C0003C4443EA0E40A0FB0293A4EB0C049C4284
:1004D000CE469C4651D34ED055B1B8EB0E0364EBDB
:1004E0000C0404FA06F6CB401E43CC40C5E9006478
:1004F000002150E7C2F1200320FA03F10CFA02FCBC
:1005000024FA03F394400C434FEA1C4800FA02FE1D
:100510001FFA8CF7B3FBF8F008FB1031230C43EA09
:10052000014300FB07F1994208D91CEB030300F1DA
:10053000FF362CD299422AD9023863445B1AA4B2FE
:10054000B3FBF8F108FB113344EA034401FB07F362
:10055000A34208D91CEB040401F1FF3613D2A342D5
:1005600011D902396444E41A41EA004139E70446EA
:10057000F0E6084606E7C845AED2B9EB020E63EBDB
:10058000070C0138A8E73146EDE7034699E7304606
:10059000D4E7D6467FE7634402384DE70646234654
:1005A00008460FE7023E634430E700BF704700BFD4
:1005B00080B584B000AF786002F022FBF860FA6882
:1005C0007B689A4203D3FA687B68D31A03E0FA681F
:1005D0007B68D31A013B18461037BD4680BD00002A
:1005E00080B582B000AF7860391D4FF6FF730122ED
:1005F000034806F039F97B6818460837BD4680BDC8
:10060000BC04002080B400AF0D4BDB680C4A43F003
:100610008073D3600B4B00225A600A4B1B68094A57
:1006200043F001031360084B1B68084AA2FB032335
:100630009B0C074A136000BFBD465DF8047B704702
:10064000F0ED00E0001000E00400002083DE1B431A
:100650008800002080B485B000AF78600B4B5B68E9
:10066000FB600B4B1A687B6802FB03F3BB6000BFA7
:10067000064B5A68FB68D31ABA689A42F8D800BF8A
:1006800000BF1437BD465DF8047B7047001000E0E2
:100690008800002080B500AF01220549054806F01A
:1006A0006EF901220449054806F069F900BF80BDD2
:1006B0008C000020BC0400201101002074040020E4
:1006C00080B582B000AF78607B681B681B4A93429C
:1006D00015D11B4B1B781A461A4B19781A4B995493
:1006E000174B1B780133DBB203F07F03DAB2144BF4
:1006F0001A7001221349154806F041F919E07B6888
:100700001B68134A934214D1124B1B781A46124BA2
:100710001978124B99540F4B1B780133DBB203F05D
:100720007F03DAB20B4B1A7001220B490C4806F01A
:1007300026F900BF0837BD4680BD00BF0044004019
:10074000100100208C00002090000020BC0400203C
:1007500000500040940100201101002014010020ED
:100760007404002080B58CB000AF786007F10803F6
:1007700007F110020021786802F049FF0346002BC0
:100780001AD13B6919460E4807F036F90023FB627F
:100790000BE007F10802FB6A13441B78194609486D
:1007A00007F02AF9FB6A0133FB623A6AFB6A9A4254
:1007B000EFD8054807F090F900BF3037BD4680BD3F
:1007C000CC8B0008E88B0008F08B000880B582B065
:1007D00000AF78607B681B68204A934239D17B6800
:1007E0001B7F042B35D11D4B1B6A03F40073002BB8
:1007F00017D10821786805F0D5FA0346184A136026
:100800007B681B681A6A7B681B6822F420621A6284
:100810007B681B681A6A7B681B6842F400721A6264
:1008200017E00821786805F0BDFA03460D4A136009
:100830007B681B681A6A7B681B6822F420621A6254
:100840007B681A687B681B68126A1A62064B012271
:100850001A7000BF0837BD4680BD00BF00000140D0
:10086000980100209C0100209501002080B500AF78
:1008700001228021074803F053FD0A20FFF7EAFE1A
:1008800000228021034803F04BFD0A20FFF7E2FE1F
:1008900000BF80BD0008024080B582B000AF0346B3
:1008A000FB71FB7903F00103DBB21A4620211648E5
:1008B00003F036FDFB795B10DBB203F00103DBB222
:1008C0001A461021104803F02BFDFB799B10DBB278
:1008D00003F00103DBB21A464FF480610A4803F0CB
:1008E0001FFDFB79DB10DBB203F00103DBB21A461C
:1008F0004FF48071054803F013FDFFF7B7FF00BF09
:100900000837BD4680BD00BF000402400000024021
:1009100080B582B000AF0346FB7100224FF4007136
:10092000094803F0FDFCFB791B09DBB21846FFF711
:10093000B3FFFB7903F00F03DBB21846FFF7ACFF00
:1009400000BF0837BD4680BD0000024080B582B0C0
:1009500000AF0346FB7101224FF40071094803F018
:10096000DFFCFB791B09DBB21846FFF795FFFB792B
:1009700003F00F03DBB21846FFF78EFF00BF083706
:10098000BD4680BD0000024080B500AF2820FFF7C3
:10099000BFFF0C20FFF7BCFF0620FFF7B9FF0120C7
:1009A000FFF7B6FF052002F037F900BF80BD80B524
:1009B00084B000AF03460A46FB711346BB71FB7956
:1009C000002B03D1BB79803BDBB202E0BB79403B1B
:1009D000DBB2FB73FB7B1846FFF79AFF00BF1037B3
:1009E000BD4680BD80B584B000AF7860396078685E
:1009F000FFF70EFC0346FB723868FFF709FC03465D
:100A0000BB720023FB60FB7AFA689A4203DBBB7A75
:100A1000FA689A421FDAFB7AFA689A4204DAFB68AB
:100A20007A6813441B7800E000237B72BB7AFA6873
:100A30009A4204DAFB683A6813441B7800E000230A
:100A40003B727A7A3B7A9A4201D0012305E0FB6837
:100A50000133FB60D7E700BF002318461037BD46BF
:100A600080BD000080B584B000AF78607868FFF783
:100A7000CFFB0346FB720023FB601BE0FB7AFA68A6
:100A80009A420FDAFB687A6813441B78002B09D06E
:100A9000FB687A68134419780A4AFB6813440A46CB
:100AA0001A7004E0074AFB68134400221A70FB68BE
:100AB0000133FB60FB68102BE0D900BF00BF10378B
:100AC000BD4680BDA001002080B584B000AF786035
:100AD0007868FFF79DFB0346FB720023FB601BE079
:100AE000FB7AFA689A420FDAFB687A6813441B783B
:100AF000002B09D0FB687A68134419780A4AFB680E
:100B000013440A461A7004E0074AFB6813440022A3
:100B10001A70FB680133FB60FB68102BE0D900BF43
:100B200000BF1037BD4680BDB401002080B582B043
:100B300000AF786079680848FFF754FF0346002B40
:100B400005D07868FFF78EFF044B01221A7000BFB2
:100B50000837BD4680BD00BFA0010020C5010020B0
:100B600080B582B000AF786079680848FFF73AFF37
:100B70000346002B05D07868FFF7A6FF044B01223F
:100B80001A7000BF0837BD4680BD00BFB401002009
:100B9000C601002080B582B000AF1A4B1B78002B35
:100BA00003D1194B1B78002B28D0164B00221A704A
:100BB000154B00221A70FFF7E7FE144B7B6006E02E
:100BC0007B685A1C7A601B781846FFF7BFFE7B686B
:100BD0001B78002BF4D100210120FFF7E8FE0C4B1D
:100BE0007B6006E07B685A1C7A601B781846FFF72A
:100BF000ADFE7B681B78002BF4D100E000BF083706
:100C0000BD4680BDC5010020C6010020A001002016
:100C1000B401002080B500AF074802F065F84FF03E
:100C2000FF31054802F032F9034802F0BAF90346F1
:100C30009BB2184680BD00BFDC01002080B582B0A9
:100C400000AFFFF7E7FF0346FB80FB88632B01D86B
:100C5000032317E0FB88C72B01D8042312E0FB888D
:100C6000B3F5C87F01D205230CE0FB88B3F5167FEE
:100C700001D2022306E0FB88B3F5487F01D20123AD
:100C800000E0002318460837BD4680BD80B500AFA0
:100C9000FFF77AFE00210020FFF789FE00BF80BD2C
:100CA00080B586B000AF374B1B78002B11D1364B87
:100CB0001B681846FFF77CFC0346B3F57A7F08D320
:100CC000304B01221A703148FFF730FF3048FFF7F0
:100CD00047FF304B1B681846FFF76AFC0346642B3E
:100CE00049D901F08DFF03462A4A1360FFF7A6FF9A
:100CF0000346FB75284B1B78FA7D9A423BD0264A67
:100D0000FB7D137000237B6007F1080300221A604B
:100D10005A609A601A73FB7D022B05D13B1D1F4957
:100D2000184606F0E1FE22E0FB7D032B05D13B1DBA
:100D30001B49184606F0D8FE19E0FB7D042B05D1AF
:100D40003B1D1849184606F0CFFE10E0FB7D052B31
:100D500005D13B1D1449184606F0C6FE07E0FB7D91
:100D6000012B04D13B1D1149184606F0BDFE3B1D69
:100D70001846FFF7DBFEFFF70DFF00BF1837BD4633
:100D800080BD00BFD4010020D0010020FC8B0008F2
:100D9000048C0008C8010020CC0100200C8C000845
:100DA000148C00081C8C0008208C0008288C00087B
:100DB00080B500AF4FF40071024803F0CAFA00BFDB
:100DC00080BD00BF0004024080B500AF094B1B6826
:100DD0001846FFF7EDFB0246074B1B689A4206D305
:100DE00001F00EFF0346034A1360FFF7E1FF00BF67
:100DF00080BD00BFD80100200000002080B500AFFA
:100E0000FFF7E2FF00BF80BD80B500AF01F092FEAA
:100E100000F01EF800F080FB00F054FB00F062FAD6
:100E200000F0AEFA00F09EF900F0C4F800F00EFAFF
:100E300000F06EF800F0F4F800F01AFB00F026F96C
:100E400000F05AF901F036FE01F040FEFCE7000028
:100E500080B594B000AF07F11C033422002118467E
:100E600006F03AFF07F1080300221A605A609A6000
:100E7000DA601A6100237B60234B1B6C224A43F02B
:100E800080531364204B1B6C03F080537B607B68A2
:100E900000233B601D4B1B6823F440431B4A43F473
:100EA00080431360194B1B6803F440433B603B686D
:100EB0000223FB610123BB621023FB6200237B63DF
:100EC00007F11C03184603F0A9FD0346002B01D0CF
:100ED00000F0CCFB0F23BB600023FB6000233B61D1
:100EE00000237B610023BB6107F108030021184642
:100EF00003F04AFA0346002B01D000F0B7FB00BF15
:100F00005037BD4680BD00BF003802400070004031
:100F100080B584B000AF3B4600221A605A609A60E8
:100F2000DA60214B214A1A601F4B00225A601E4B87
:100F30004FF080729A601C4B00221A611A4B0022FB
:100F40001A76194B002283F82020174B0022DA6210
:100F5000154B174A9A62144B0022DA60124B012299
:100F6000DA61114B002283F830200F4B01225A61C5
:100F70000D4801F075FE0346002B01D000F076FB12
:100F800000233B6001237B600023BB603B46194686
:100F9000054802F013F80346002B01D000F066FB71
:100FA00000BF1037BD4680BDDC010020002001409D
:100FB0000100000F80B500AF174B184A1A60164B9E
:100FC00002225A60144B00229A60134B0022DA600E
:100FD000114B4FF440221A610F4B4FF480125A61AB
:100FE0000D4B00221A760C4B00225A760A4B002237
:100FF0009A76094B0122DA76074B00221A77064BC4
:1010000000225A77044802F007FA0346002B01D069
:1010100000F02CFB00BF80BD2402002000640040D3
:1010200080B500AF174B184A1A60164B4FF4827206
:101030005A60144B00229A60124B0022DA60114B66
:1010400000221A610F4B00225A610E4B4FF40072BE
:101050009A610C4B1822DA610A4B80221A62094B02
:1010600000225A62074B00229A62064B0A22DA6279
:10107000044803F071FF0346002B01D000F0F6FA9C
:1010800000BF80BD4C0200200030014080B500AFA1
:10109000174B184A1A60164B4FF482725A60144B61
:1010A00000229A60124B0022DA60114B00221A6172
:1010B0000F4B00225A610E4B4FF400729A610C4B99
:1010C0001822DA610A4B00221A62094B00225A6286
:1010D000074B00229A62064B0A22DA62044803F0A8
:1010E0003BFF0346002B01D000F0C0FA00BF80BDDB
:1010F000A40200200038004080B500AF174B184A0A
:101100001A60164B4FF482725A60144B00229A6098
:10111000124B0022DA60114B00221A610F4B0022A1
:101120005A610E4B4FF400729A610C4B1822DA612F
:101130000A4B00221A62094B00225A62074B002216
:101140009A62064B0A22DA62044803F005FF03465E
:10115000002B01D000F08AFA00BF80BDFC02002005
:10116000003C004080B58AB000AF07F118030022B0
:101170001A605A609A60DA6007F1100300221A6060
:101180005A603B4600221A605A609A60DA602D4B22
:101190002D4A1A602B4B0F225A602A4B00229A606C
:1011A000284B4FF6FF72DA60264B00221A61254B5E
:1011B00000225A61234B00229A61224804F0DAF996
:1011C0000346002B01D000F051FA4FF48053BB616D
:1011D00007F1180319461B4804F01CFD0346002BB9
:1011E00001D000F043FA174804F06CFA0346002BD4
:1011F00001D000F03BFA00233B6100237B6107F143
:10120000100319460F4805F04FFA0346002B01D092
:1012100000F02CFA00233B6001237B600023BB60BD
:101220000023FB603B4608221946064804F093FB66
:101230000346002B01D000F019FA00BF2837BD4645
:1012400080BD00BF540300200000014080B586B07F
:1012500000AF07F1080300221A605A609A60DA6052
:101260003B4600221A605A601D4B4FF080421A60C4
:101270001B4B0F225A601A4B00229A60184B4FF0FA
:10128000FF32DA60164B00221A61154B00229A6178
:10129000134804F06FF90346002B01D000F0E6F983
:1012A0004FF48053BB6007F1080319460C4804F063
:1012B000B1FC0346002B01D000F0D8F900233B60BD
:1012C00000237B603B461946054805F0EDF90346CF
:1012D000002B01D000F0CAF900BF1837BD4680BD11
:1012E0009C03002080B586B000AF07F10803002200
:1012F0001A605A609A60DA603B4600221A605A60AF
:101300001D4B1E4A1A601C4B0F225A601A4B0022BA
:101310009A60194B40F2E732DA60174B00221A61EB
:10132000154B00229A61144804F024F90346002B5F
:1013300001D000F09BF94FF48053BB6007F1080324
:1013400019460D4804F066FC0346002B01D000F05E
:101350008DF900233B6000237B603B46194606481D
:1013600005F0A2F90346002B01D000F07FF900BF81
:101370001837BD4680BD00BFE403002000040040D4
:1013800080B58EB000AF07F1280300221A605A60C2
:101390009A60DA6007F1200300221A605A603B1D50
:1013A00000221A605A609A60DA601A615A619A6182
:1013B0002D4B2E4A1A602C4B0F225A602A4B0022CA
:1013C0009A60294B44F61F62DA60274B00221A61AB
:1013D000254B00229A61244804F0CCF80346002BE8
:1013E00001D000F043F94FF48053BB6207F12803AA
:1013F00019461D4804F00EFC0346002B01D000F0F6
:1014000035F9194804F005F90346002B01D000F026
:101410002DF900233B6200237B6207F1200319466C
:10142000114805F041F90346002B01D000F01EF9E8
:1014300060237B6040F2DB53BB600023FB60002332
:101440007B613B1D00221946074804F021FB03463F
:10145000002B01D000F00AF9034801F02BF900BF7E
:101460003837BD4680BD00BF2C0400200008004076
:1014700080B500AF114B124A1A60104B4FF4E132A5
:101480005A600E4B00229A600C4B0022DA600B4B24
:1014900000221A61094B0C225A61084B00229A6102
:1014A000064B0022DA61054805F08EF90346002B51
:1014B00001D000F0DBF800BF80BD00BF7404002045
:1014C0000050004080B500AF114B124A1A60104B1B
:1014D0004FF4E1325A600E4B00229A600C4B00220E
:1014E000DA600B4B00221A61094B0C225A61084B3F
:1014F00000229A61064B0022DA61054805F064F982
:101500000346002B01D000F0B1F800BF80BD00BF42
:10151000BC0400200044004080B58AB000AF07F151
:10152000140300221A605A609A60DA601A6100237C
:101530003B614A4B1B6B494A43F004031363474B1F
:101540001B6B03F004033B613B690023FB60434BCF
:101550001B6B424A43F080031363404B1B6B03F049
:101560008003FB60FB680023BB603C4B1B6B3B4A6A
:1015700043F001031363394B1B6B03F00103BB60A2
:10158000BB6800237B60354B1B6B344A43F002037E
:101590001363324B1B6B03F002037B607B680023F9
:1015A0003B602E4B1B6B2D4A43F0080313632B4B00
:1015B0001B6B03F008033B603B68002240F236716E
:1015C000274802F0ADFE00224FF42071254802F0BA
:1015D000A7FE00224FF44071234802F0A1FE4FF411
:1015E00000537B610023BB610023FB6107F11403FF
:1015F00019461C4802F000FD40F236737B6101235E
:10160000BB610023FB6100233B6207F11403194611
:10161000134802F0F1FC4FF420737B610123BB619E
:101620000023FB6100233B6207F1140319460D48B8
:1016300002F0E2FC4FF440737B610123BB610023A5
:10164000FB6100233B6207F114031946064802F0D0
:10165000D3FC00BF2837BD4680BD00BF0038024024
:1016600000040240000802400000024080B400AFC5
:1016700072B600BF00BFFDE780B5C8B000AF07F588
:101680009073A3F58A73186007F59073A3F58C73B4
:10169000196007F59073A3F58D731A8007F59073A1
:1016A000A3F58D731B88FF2B06D807F59073A3F560
:1016B0008D731B88002B02D14FF0FF33AAE000236B
:1016C00087F81F3107F59073A3F5867300221A700F
:1016D00007F59073A3F5867300225A7007F590738F
:1016E000A3F58673FF229A70002387F81E3110E05D
:1016F00097F81E3107F59072A2F58672D25C97F8C2
:101700001F31134487F81F3197F81E31013387F8D2
:101710001E3197F81E31022BEAD907F59073A3F515
:101720008D731B88DAB207F59073A3F58673DA70B0
:1017300007F59073A3F58D731B88DBB25B42DAB2B9
:1017400007F59073A3F586731A71002387F81D318E
:1017500023E097F81D3107F59072A2F58C7212689C
:101760001A4497F81D310533117807F59072A2F5E8
:101770008672D15497F81D3107F59072A2F58C72DC
:10178000126813441A7897F81F31134487F81F31F1
:1017900097F81D31013387F81D3197F81D319BB241
:1017A00007F59072A2F58D7212889A42D1D807F58A
:1017B0009073A3F58D731B88053397F81F21D243CF
:1017C000D1B207F59072A2F58672D15407F59073E5
:1017D000A3F58D731B88063307F59072A2F5867208
:1017E0000021D15407F59073A3F58A731B689B6899
:1017F00007F59072A2F58D721288073291B207F147
:101800001402104698470346002B02D04FF0FF33D6
:1018100000E00023184607F59077BD4680BD000024
:1018200080B5C8B000AF07F59073A3F58A73186050
:1018300007F59073A3F58C73196007F59073A3F502
:101840008D731A80002387F81F3107F59073A3F575
:101850008A731B685B6807F59072A2F58D72128817
:10186000073291B207F1140210469847002387F817
:101870001E3119E097F81E31013387F81E3107F544
:101880009073A3F58D731B88DA1D97F81E319A4269
:101890000ADA07F59073A3F58A731B685B695B48E6
:1018A00098474FF0FF33ABE097F81E3107F5907281
:1018B000A2F58672D35C002BDCD097F81E3107F5B9
:1018C0009072A2F58672D35CFF2B0AD007F5907355
:1018D000A3F58A731B685B694C4898474FF0FF3348
:1018E0008EE097F81E31013387F81E3107F59073AB
:1018F000A3F58D731B88DA1D97F81E319A420ADA18
:1019000007F59073A3F58A731B685B694048984795
:101910004FF0FF3374E097F81E3107F59072A2F58F
:101920008672D35C87F81B3197F81E31013307F5B7
:101930009072A2F58672D25C97F81B311344DBB229
:10194000002B0AD007F59073A3F58A731B685B69B7
:10195000304898474FF0FF3352E0002387F81D319D
:1019600014E097F81E319A1C97F81D31134407F5BF
:101970009072A2F58672D25C97F81F31134487F8F3
:101980001F3197F81D31013387F81D3197F81B215E
:1019900097F81D319A42E4D297F81F31002B0AD0F4
:1019A00007F59073A3F58A731B685B691A4898471B
:1019B0004FF0FF3324E0002387F81C3118E097F83C
:1019C0001E319A1C97F81C311A4497F81C3107F500
:1019D0009071A1F58C7109680B4407F59071A1F520
:1019E00086718A5C1A7097F81C31013387F81C31B4
:1019F00097F81C2197F81B319A42E0D397F81B31D6
:101A0000184607F59077BD4680BD00BF308C0008B2
:101A1000648C0008808C0008B08C000890B5C7B0BA
:101A200000AF07F58C74A4F586742060084607F5AE
:101A30008C71A1F58A710A60194607F58C73A3F2BF
:101A40000D1302461A7007F58C73A3F588730A46C6
:101A50001A8007F58C73A3F58473D4221A7007F5E6
:101A60008C73A3F5847307F58C72A2F20D121278B1
:101A70005A70002387F8173112E097F81731D7F81A
:101A800028211A4497F817310233117807F58C7220
:101A9000A2F58472D15497F81731013387F81731C2
:101AA00097F817319BB2B7F82C219A42E5D8B7F8CE
:101AB0002C3102339AB207F1100107F58C73A3F5AC
:101AC00086731868FFF7D8FD0346002B11D007F581
:101AD0008C73A3F586731B681B69984707F58C7395
:101AE000A3F586731B685B695B4898474FF0FF332B
:101AF000ACE007F58C73A3F586731B68DB68D7F839
:101B000030019847034683F00103DBB2002B02D07B
:101B10004FF0FF339AE007F58C73A3F586731B68CB
:101B20005B6807F11002062110469847002387F8EA
:101B300016311CE097F81631484AD25C97F81631F6
:101B400007F58C71A1F58471CB5C9A420AD007F538
:101B50008C73A3F586731B685B69414898474FF007
:101B6000FF3373E097F81631013387F8163197F891
:101B70001631052BDED907F58C73A3F586731B6828
:101B8000DB68D7F830019847034683F00103DBB2E6
:101B9000002B02D04FF0FF3358E007F58C73A3F50C
:101BA00088731B8802339AB207F1100107F58C7312
:101BB000A3F586731868FFF733FEC7F8100107F521
:101BC0008C73A3F584731B78D52B0DD107F58C731B
:101BD000A3F584735B781A4607F58C73A3F20D1393
:101BE0001B7801339A420AD007F58C73A3F58673EC
:101BF0001B685B691B4898474FF0FF3326E00023C2
:101C000087F8153115E097F815319A1C97F81531BA
:101C100007F58C71A1F58A7109680B4407F58C7181
:101C2000A1F584718A5C1A7097F81531013387F831
:101C3000153197F815319BB207F58C72A2F58872B1
:101C400012889A42DFD8D7F81031023B184607F5C0
:101C50008E77BD4690BD00BFE48C0008348E00082E
:101C6000F88C0008248D000880B586B004AF786039
:101C700039604FF4FA730293002301930023009319
:101C800004233A6802217868FFF7C8FE0346B3F1DF
:101C9000FF3F06D17B685B69044898474FF0FF33EC
:101CA00000E0002318460837BD4680BD4C8D000873
:101CB00080B588B004AF78600D4A07F10C03126854
:101CC000114619800233120C1A704FF47A73029382
:101CD0000323019307F10C03009300230022142136
:101CE0007868FFF79BFE002318461037BD4680BD7D
:101CF000688D000880B590B004AFF860B9603B60B3
:101D00001346FB71012387F82430FB7987F82530CF
:101D100007F110023B6802930223019307F12403A9
:101D2000009313234A21F868FFF778FEB862BB6A74
:101D3000002B02DA4FF0FF332EE03B7C012B06D064
:101D4000FB685B69164898474FF0FF3324E07B7DC2
:101D5000072B06D9FB685B69124898474FF0FF33A1
:101D60001AE0002387F82F3010E097F82F309A1DE3
:101D700097F82F30B9680B4430323A4412F8202CCF
:101D80001A7097F82F30013387F82F307B7D97F842
:101D90002F209A42E9D37B7D18463037BD4680BD5F
:101DA0006C8D00088C8D000880B500AF01224FF4C7
:101DB00000710E4802F0B4FA642000F02DFF0022FA
:101DC0004FF40071094802F0ABFA4FF4FA7000F0DA
:101DD00023FF01224FF40071044802F0A1FA6420AD
:101DE00000F01AFF0023184680BD00BF0008024023
:101DF00080B582B000AF78607968034805F0FCFDDB
:101E000000BF0837BD4680BDB48D000880B584B0E2
:101E100002AF78600B46FB7000224FF480710E48D1
:101E200002F07EFA012000F0F7FEFB789BB20A2256
:101E300000927A687968094803F017F9012000F0E8
:101E4000EBFE01224FF48071034802F069FA00BFF3
:101E50000837BD4680BD00BF000402404C02002090
:101E60002DE9F04387B000AF78600B467B806B466E
:101E70001E467B88591C4B1E3B610A460023904638
:101E800099464FF000024FF000034FEAC90343EABE
:101E900058734FEAC8020A46002314461D464FF005
:101EA00000024FF00003EB0043EA5473E2000B46DC
:101EB0000733DB08DB00ADEB030D6B460033FB6043
:101EC000FB6803221A70052000F0A6FE7B88DBB2B7
:101ED0000133DBB21946F868FFF798FF0023FB7562
:101EE0000AE0FB7D5A1CFB7D79680B44F9688A5C2B
:101EF0001A70FB7D0133FB75FB7D9BB27A889A4299
:101F0000EFD80023B54618461C37BD46BDE8F08320
:101F10002DE9F04387B000AF78600B467B806B46BD
:101F20001E467B88591C4B1E3B610A460023904687
:101F300099464FF000024FF000034FEAC90343EA0D
:101F400058734FEAC8020A46002314461D464FF054
:101F500000024FF00003EB0043EA5473E2000B462B
:101F60000733DB08DB00ADEB030D6B460033FB6092
:101F7000FB6801221A700023FB750AE0FB7D7A687A
:101F80001A44FB7D01331178FA68D154FB7D01338B
:101F9000FB75FB7D9BB27A889A42EFD87B88DBB2D7
:101FA0000133DBB21946F868FFF730FF0023B5466E
:101FB00018461C37BD46BDE8F08380B584B000AF3D
:101FC000786002233B8100F01BFEF86010E00A20DD
:101FD00000F022FE07F1080302211846FFF716FF62
:101FE0007B7A012B01D101230BE0052000F014FEC8
:101FF00000F006FE0246FB68D31A7A689A42E6D8D9
:10200000002318461037BD4680BD000080B582B061
:1020100000AF00233B714FF47A7000F0FDFD002209
:102020004FF48071094802F07BF9022000F0F4FDC2
:102030003B1D01211846FFF7E9FE4FF47A7000F0CE
:10204000EBFD002318460837BD4680BD0004024062
:1020500080B582B000AF78607B680C4A1A607B68FC
:102060000B4A5A607B680B4A9A607B680A4ADA60BE
:102070007B680A4A1A617B68094A5A617B681B6956
:10208000984700BF0837BD4680BD00BFA91D0008A6
:10209000611E0008111F0008BB1F00080D2000086A
:1020A000F11D000880B500AF114805F015FD11487D
:1020B000FFF7CEFF10490F48FFF7D6FD0E490D4838
:1020C000FFF7D2FD0346002B0FD10B4B5B7819466F
:1020D000094B9B781A46094805F08EFC0548FFF726
:1020E000E7FD074805F0F8FC00E000BF80BD00BF39
:1020F000BC8D0008040500201C050020C48D0008CC
:10210000F08D000880B582B000AF4FF47A730022E2
:1021100015491648FFF7EEFD0346154A1360144BA8
:102120001B68B3F1FF3F03D12E2005F077FC17E0C9
:10213000104805F061FC0023FB7109E0FB790A4AB5
:10214000D35C19460C4805F057FCFB790133FB7151
:10215000FA79074B1B689A42F0DB084805F0BCFC93
:1021600000BF0837BD4680BD1C06002004050020C6
:1021700028060020108E0008288E0008308E0008E7
:1021800080B582B000AF7860164A7B6812F82330C1
:102190001A462021144802F0C3F8124A7B689B00BB
:1021A00013445B781A4640210F4802F0B9F80D4AF3
:1021B0007B689B0013449B781A464FF480710A4851
:1021C00002F0AEF8074A7B689B001344DB781A469E
:1021D0004FF40071044802F0A3F800BF0837BD4671
:1021E00080BD00BF3C8E00080008024080B584B06E
:1021F00000AF7860104B1A68104B1B689A4217D2D8
:102200000D4B1B685A1C0C490A60FB600C4B1B7879
:10221000012B06D1FB6803F007031846FFF7B0FF58
:1022200006E0FB68DB4303F007031846FFF7A8FF4F
:1022300000BF1037BD4680BD3406002030060020A8
:102240002C06002080B483B000AF00237B60104BCD
:102250005B6C0F4A43F4804353640D4B5B6C03F497
:1022600080437B607B6800233B60094B1B6C084A02
:1022700043F080531364064B1B6C03F080533B60A8
:102280003B6800BF0C37BD465DF8047B704700BF5C
:102290000038024080B58AB000AF786007F11403BF
:1022A00000221A605A609A60DA601A617B681B68C3
:1022B000174A934227D100233B61164B5B6C154AAA
:1022C00043F480735364134B5B6C03F480733B6182
:1022D0003B690023FB600F4B1B6B0E4A43F001036D
:1022E00013630C4B1B6B03F00103FB60FB680123C2
:1022F0007B610323BB610023FB6107F114031946D3
:10230000054801F079FE00BF2837BD4680BD00BFFB
:1023100000200140003802400000024080B58AB031
:1023200000AF786007F1140300221A605A609A60C7
:10233000DA601A617B681B681D4A934234D100231E
:102340003B611C4B1B6C1B4A43F000731364194B1D
:102350001B6C03F000733B613B690023FB60154B72
:102360001B6B144A43F001031363124B1B6B03F006
:102370000103FB60FB684FF4C0537B610223BB6128
:102380000023FB6103233B6209237B6207F11403F3
:102390001946094801F030FE00220021142001F006
:1023A00062FD142001F07BFD00BF2837BD4680BDD3
:1023B00000640040003802400000024080B58EB04A
:1023C00000AF786007F1240300221A605A609A6017
:1023D000DA601A617B681B68634A93422CD1002340
:1023E0003B62624B5B6C614A43F4805353645F4BC6
:1023F0005B6C03F480533B623B6A0023FB615B4BE5
:102400001B6B5A4A43F001031363584B1B6B03F0D9
:102410000103FB61FB69E0237B620223BB620023B3
:10242000FB6203233B6305237B6307F12403194607
:102430004F4801F0E1FD92E07B681B684D4A9342F2
:102440004BD10023BB61494B1B6C484A43F480438A
:102450001364464B1B6C03F48043BB61BB690023D0
:102460007B61424B1B6B414A43F0040313633F4BB8
:102470001B6B03F004037B617B6900233B613B4BD7
:102480001B6B3A4A43F002031363384B1B6B03F098
:1024900002033B613B690C237B620223BB62002386
:1024A000FB6203233B6305237B6307F12403194687
:1024B000314801F0A1FD4FF400537B620223BB625F
:1024C0000023FB6203233B6305237B6307F12403A3
:1024D00019462A4801F090FD41E07B681B68284AB4
:1024E00093423CD10023FB60204B1B6C1F4A43F4FA
:1024F000004313641D4B1B6C03F40043FB60FB683B
:102500000023BB60194B1B6B184A43F00403136391
:10251000164B1B6B03F00403BB60BB6802237B629A
:102520000223BB620023FB6203233B6305237B631F
:1025300007F124031946104801F05EFD4FF4406393
:102540007B620223BB620023FB6203233B630623FF
:102550007B6307F124031946074801F04DFD00BFD6
:102560003837BD4680BD00BF003001400038024012
:102570000000024000380040000802400004024011
:10258000003C004080B58CB000AF786007F11C03C0
:1025900000221A605A609A60DA601A617B681B68D0
:1025A0003F4A934235D10023BB613E4B5B6C3D4AB1
:1025B00043F0010353643B4B5B6C03F00103BB61CD
:1025C000BB6900237B61374B1B6B364A43F0010329
:1025D0001363344B1B6B03F001037B617B694FF486
:1025E0008063FB6102233B6200237B620023BB62AA
:1025F0000123FB6207F11C0319462B4801F0FCFC88
:10260000002200211B2001F02EFC1B2001F047FCC2
:1026100042E07B681B68B3F1804F0ED100233B6121
:10262000204B1B6C1F4A43F0010313641D4B1B6CB2
:1026300003F001033B613B692EE07B681B681B4A8A
:10264000934216D10023FB60164B1B6C154A43F0D6
:1026500002031364134B1B6C03F00203FB60FB6863
:10266000002200211D2001F0FEFB1D2001F017FCBF
:1026700012E07B681B680E4A93420DD10023BB60B9
:10268000084B1B6C074A43F004031364054B1B6C97
:1026900003F00403BB60BB6800BF3037BD4680BD9C
:1026A00000000140003802400000024000040040E9
:1026B0000008004080B588B000AF786007F10C03D7
:1026C00000221A605A609A60DA601A617B681B689F
:1026D000124A93421DD10023BB60114B1B6B104A61
:1026E00043F0020313630E4B1B6B03F00203BB604A
:1026F000BB684023FB6002233B6100237B61002316
:10270000BB610223FB6107F10C031946054801F088
:1027100073FC00BF2037BD4680BD00BF00080040ED
:10272000003802400004024080B58CB000AF7860F1
:1027300007F11C0300221A605A609A60DA601A617D
:102740007B681B68494A934253D10023BB61484BC5
:102750001B6C474A43F480131364454B1B6C03F412
:102760008013BB61BB6900237B61414B1B6B404AFB
:1027700043F0040313633E4B1B6B03F004037B61C4
:102780007B6900233B613A4B1B6B394A43F00803DA
:102790001363374B1B6B03F008033B613B694FF43A
:1027A0008053FB6102233B6200237B620323BB62F5
:1027B0000823FB6207F11C0319462E4801F01CFC9C
:1027C0000423FB6102233B6200237B620323BB6281
:1027D0000823FB6207F11C031946274801F00CFC93
:1027E00000220021352001F03EFB352001F057FB8F
:1027F00038E07B681B68214A934233D10023FB6099
:102800001B4B1B6C1A4A43F400331364184B1B6CAC
:1028100003F40033FB60FB680023BB60144B1B6BAD
:10282000134A43F001031363114B1B6B03F00103C5
:10283000BB60BB680C23FB6102233B6200237B620D
:102840000323BB620723FB6207F11C0319460C48F4
:1028500001F0D2FB00220021262001F004FB2620FB
:1028600001F01DFB00BF3037BD4680BD0050004069
:102870000038024000080240000C024000440040C2
:102880000000024080B400AF00BFFDE780B400AF9D
:1028900000BFFDE780B400AF00BFFDE780B400AF2C
:1028A00000BFFDE780B400AF00BFFDE780B400AF1C
:1028B00000BFBD465DF8047B704780B400AF00BF29
:1028C000BD465DF8047B704780B400AF00BFBD46D5
:1028D0005DF8047B704780B500AF00F07DF900BF64
:1028E00080BD000080B500AF024800F0B2FF00BF1D
:1028F00080BD00BF2402002080B500AF024802F076
:102900003AFF00BF80BD00BF5403002080B500AF78
:10291000024802F030FF00BF80BD00BFE40300208A
:1029200080B500AF024804F04FF800BF80BD00BF83
:10293000BC04002080B500AF024804F045F800BF99
:1029400080BD00BF7404002080B586B000AFF86081
:10295000B9607A6000237B610AE0AFF30080014632
:10296000BB685A1CBA60CAB21A707B6901337B61BA
:102970007A697B689A42F0DB7B6818461837BD4657
:1029800080BD80B586B000AFF860B9607A60002382
:102990007B6109E0BB685A1CBA601B781846FDF7DA
:1029A0001FFE7B6901337B617A697B689A42F1DBA8
:1029B0007B6818461837BD4680BD80B483B000AF31
:1029C00078604FF0FF3318460C37BD465DF8047B46
:1029D000704780B483B000AF786039603B684FF4D3
:1029E00000525A60002318460C37BD465DF8047B40
:1029F000704780B483B000AF7860012318460C376D
:102A0000BD465DF8047B704780B485B000AFF860C8
:102A1000B9607A60002318461437BD465DF8047B20
:102A20007047000080B586B000AF7860144A154B3F
:102A3000D31A7B617B693B61134B1B68002B02D16E
:102A4000114B124A1A60104B1A687B6813443A699A
:102A50009A4207D205F08EF903460C221A604FF015
:102A6000FF3309E0084B1B68FB60074B1A687B6863
:102A70001344054A1360FB6818461837BD4680BDED
:102A8000000002200004000038060020900700200B
:102A900080B400AF064BD3F88830054A43F4700386
:102AA000C2F8883000BFBD465DF8047B704700BFA8
:102AB00000ED00E080B500AFFDF7A4FDFDF7EAFDF5
:102AC000FEF7E4F8FFF7EEFA00BF80BD80B500AF77
:102AD000FEF794F9FEF7E4F8FFF714FB00BF80BDA2
:102AE000DFF834D0FFF7D4FF0C480D490D4A00231E
:102AF00002E0D458C4500433C4188C42F9D30A4AB3
:102B00000A4C002301E013600432A242FBD305F01B
:102B100037F9FEF779F97047000002200000002025
:102B20006C000020B88E00086C0000208C0700208C
:102B3000FEE7000080B500AF0E4B1B680D4A43F462
:102B4000007313600B4B1B680A4A43F480631360E5
:102B5000084B1B68074A43F480731360032001F09D
:102B600077F90F2000F008F8FFF76CFB00231846F8
:102B700080BD00BF003C024080B582B000AF7860ED
:102B8000124B1A68124B1B7819464FF47A73B3FB39
:102B9000F1F3B2FBF3F3184601F08FF90346002B73
:102BA00001D001230EE07B680F2B0AD80022796840
:102BB0004FF0FF3001F057F9064A7B68136000239D
:102BC00000E0012318460837BD4680BD0400002000
:102BD0000C0000200800002080B400AF064B1B78DA
:102BE0001A46064B1B681344044A136000BFBD46D7
:102BF0005DF8047B704700BF0C0000203C060020FD
:102C000080B400AF034B1B681846BD465DF8047BDB
:102C1000704700BF3C06002080B584B000AF7860EC
:102C2000FFF7EEFFB8607B68FB60FB68B3F1FF3F26
:102C300005D00A4B1B781A46FB681344FB6000BFA3
:102C4000FFF7DEFF0246BB68D31AFA689A42F7D84C
:102C500000BF00BF1037BD4680BD00BF0C00002084
:102C600080B584B000AF78600023FB737B68002BD5
:102C700001D1012333E07B681B6C002B09D17868FC
:102C8000FFF708FB7B6800225A647B68002283F808
:102C90003C207B681B6C03F01003002B18D17B6871
:102CA0001B6C23F4885323F0020343F002027B6879
:102CB0001A64786800F0B4FA7B6800225A647B6872
:102CC0001B6C23F0030343F001027B681A6401E0EC
:102CD0000123FB737B68002283F83C20FB7B1846B2
:102CE0001037BD4680BD000080B485B000AF78606D
:102CF0000023BB607B6893F83C30012B01D1022399
:102D0000B2E07B68012283F83C207B681B689B68EB
:102D100003F00103012B18D07B681B689A687B685D
:102D20001B6842F001029A60524B1B68524AA2FB98
:102D300003239A0C13465B001344BB6002E0BB689C
:102D4000013BBB60BB68002BF9D17B681B689B68AB
:102D500003F00103012B7AD17B681B6C23F4E06341
:102D600023F0010343F480727B681A647B681B685C
:102D70005B6803F48063002B07D07B681B6C23F433
:102D8000405343F480527B681A647B681B6C03F4E5
:102D90008053B3F5805F06D17B685B6C23F006023D
:102DA0007B685A6402E07B6800225A647B680022D8
:102DB00083F83C20314BFB607B681B686FF022027C
:102DC0001A60FB685B6803F01F03002B2AD17B6845
:102DD0001B682B4A934215D07B681B68294A934293
:102DE00005D1264B5B6803F01F03002B0AD07B68DC
:102DF0001B68254A934236D1204B5B6803F01003D1
:102E0000002B30D17B681B689B6803F04053002B7C
:102E100029D17B681B689A687B681B6842F08042F6
:102E20009A6020E07B681B68154A93421BD17B683F
:102E30001B689B6803F04053002B14D17B681B6810
:102E40009A687B681B6842F080429A600BE07B685E
:102E50001B6C43F010027B681A647B685B6C43F068
:102E600001027B685A64002318461437BD465DF89A
:102E7000047B70470400002083DE1B4300230140D5
:102E800000200140002101400022014080B584B0B3
:102E900000AF786039600023FB607B681B689B682B
:102EA00003F48063B3F5806F13D17B681B689B6864
:102EB00003F48073B3F5807F0BD17B681B6C43F008
:102EC00020027B681A647B68002283F83C2001237F
:102ED00063E0FFF795FEF86021E03B68B3F1FF3F48
:102EE0001DD03B68002B07D0FFF78AFE0246FB6827
:102EF000D31A3A689A4212D27B681B681B6803F0A7
:102F00000203022B0BD07B681B6C43F004027B682E
:102F10001A647B68002283F83C2003233DE07B6831
:102F20001B681B6803F00203022BD6D17B681B6869
:102F30006FF012021A607B681B6C43F400727B68AE
:102F40001A647B681B689B6803F04053002B23D1F5
:102F50007B681B7E002B1FD17B681B68DB6A03F438
:102F60007003002B06D07B681B689B6803F48063AA
:102F7000002B11D17B681B6C23F480727B681A6470
:102F80007B681B6C03F48053002B05D17B681B6CA2
:102F900043F001027B681A64002318461037BD46CF
:102FA00080BD80B483B000AF78607B681B68DB6C49
:102FB00018460C37BD465DF8047B704780B485B079
:102FC00000AF786039600023BB607B6893F83C30C9
:102FD000012B01D1022313E17B68012283F83C20FD
:102FE0003B681B68092B25D97B681B68D9683B683F
:102FF0001B689BB21A4613465B0013441E3B072214
:1030000002FA03F3DA437B681B680A40DA607B68E4
:103010001B68D9683B689A683B681B689BB2184676
:1030200003465B0003441E3B9A407B681B680A43CF
:10303000DA6022E07B681B6819693B681B689BB2F9
:103040001A4613465B001344072202FA03F3DA43DD
:103050007B681B680A401A617B681B6819693B68BA
:103060009A683B681B689BB2184603465B000344A2
:103070009A407B681B680A431A613B685B68062BB1
:1030800024D87B681B68596B3B685A6813469B00C1
:103090001344053B1F2202FA03F3DA437B681B68E3
:1030A0000A405A637B681B68596B3B681B689BB27C
:1030B00018463B685A6813469B001344053B00FAC8
:1030C00003F27B681B680A435A634CE03B685B6809
:1030D0000C2B24D87B681B68196B3B685A68134615
:1030E0009B001344233B1F2202FA03F3DA437B685D
:1030F0001B680A401A637B681B68196B3B681B6876
:103100009BB218463B685A6813469B001344233B06
:1031100000FA03F27B681B680A431A6323E07B68AA
:103120001B68D96A3B685A6813469B001344413BAD
:103130001F2202FA03F3DA437B681B680A40DA6253
:103140007B681B68D96A3B681B689BB218463B6862
:103150005A6813469B001344413B00FA03F27B6814
:103160001B680A43DA62294BFB607B681B68284AAC
:1031700093420FD13B681B68122B0BD1FB685B6835
:1031800023F40002FB685A60FB685B6843F480022A
:10319000FB685A607B681B681D4A93422BD13B68D1
:1031A0001B681C4A934203D03B681B68112B22D139
:1031B000FB685B6823F48002FB685A60FB685B680D
:1031C00043F40002FB685A603B681B68114A934253
:1031D00011D1114B1B68114AA2FB03239A0C134611
:1031E0009B0013445B00BB6002E0BB68013BBB601B
:1031F000BB68002BF9D17B68002283F83C200023B8
:1032000018461437BD465DF8047B70470023014023
:1032100000200140120000100400002083DE1B4348
:1032200080B485B000AF7860794BFB60FB685B6869
:1032300023F44032FB685A60FB685A687B685B681D
:103240001A43FB685A607B681B685A687B681B6876
:1032500022F480725A607B681B6859687B681B691E
:103260001A027B681B680A435A607B681B685A68AD
:103270007B681B6822F040725A607B681B68596843
:103280007B689A687B681B680A435A607B681B6886
:103290009A687B681B6822F400629A607B681B68EE
:1032A00099687B68DA687B681B680A439A607B6868
:1032B0009B6A584A934222D07B681B689A687B6855
:1032C0001B6822F070629A607B681B6899687B6853
:1032D0009A6A7B681B680A439A607B681B689A68D5
:1032E0007B681B6822F040529A607B681B68996873
:1032F0007B68DA6A7B681B680A439A600FE07B6828
:103300001B689A687B681B6822F070629A607B6811
:103310001B689A687B681B6822F040529A607B6841
:103320001B689A687B681B6822F002029A607B68BF
:103330001B6899687B681B7E5A007B681B680A4380
:103340009A607B6893F82030002B1BD07B681B6849
:103350005A687B681B6842F400625A607B681B688D
:103360005A687B681B6822F460425A607B681B685D
:1033700059687B685B6A013B5A037B681B680A4398
:103380005A6007E07B681B685A687B681B6822F4F8
:1033900000625A607B681B68DA6A7B681B6822F4EB
:1033A0007002DA627B681B68D96A7B68DB69013B63
:1033B0001A057B681B680A43DA627B681B689A6897
:1033C0007B681B6822F400729A607B681B689968AE
:1033D0007B6893F830305A027B681B680A439A6016
:1033E0007B681B689A687B681B6822F480629A601D
:1033F0007B681B6899687B685B699A027B681B68BD
:103400000A439A6000BF1437BD465DF8047B7047DD
:10341000002301400100000F80B584B000AF786048
:103420007B68002B01D10123EDE07B6893F820300D
:10343000DBB2002B02D17868FEF770FF7B681B6857
:103440001A687B681B6842F001021A60FFF7D8FB1C
:10345000F86012E0FFF7D4FB0246FB68D31A0A2B90
:103460000BD97B685B6A43F400327B685A627B68E5
:10347000052283F820200123C5E07B681B685B6878
:1034800003F00103002BE5D07B681B681A687B689A
:103490001B6822F002021A60FFF7B2FBF86012E02C
:1034A000FFF7AEFB0246FB68D31A0A2B0BD97B68E9
:1034B0005B6A43F400327B685A627B68052283F8BA
:1034C000202001239FE07B681B685B6803F00203F8
:1034D000002BE5D17B681B7E012B08D17B681B6824
:1034E0001A687B681B6842F080021A6007E07B68FC
:1034F0001B681A687B681B6822F080021A607B6870
:103500005B7E012B08D17B681B681A687B681B688F
:1035100042F040021A6007E07B681B681A687B680B
:103520001B6822F040021A607B689B7E012B08D149
:103530007B681B681A687B681B6842F020021A606F
:1035400007E07B681B681A687B681B6822F0200212
:103550001A607B68DB7E012B08D17B681B681A68C8
:103560007B681B6822F010021A6007E07B681B680A
:103570001A687B681B6842F010021A607B681B7F28
:10358000012B08D17B681B681A687B681B6842F0B6
:1035900008021A6007E07B681B681A687B681B6872
:1035A00022F008021A607B685B7F012B08D17B68E0
:1035B0001B681A687B681B6842F004021A6007E007
:1035C0007B681B681A687B681B6822F004021A601B
:1035D0007B689A687B68DB681A437B681B691A43BF
:1035E0007B685B6942EA03017B685B685A1E7B6803
:1035F0001B680A43DA617B6800225A627B680122F9
:1036000083F82020002318461037BD4680BD80B4C3
:1036100087B000AFF860B9607A603B60FB6893F8F0
:103620002030FB75FB7D012B03D0FB7D022B40F08E
:103630000381BB68002B0ED1FB681B68DB6803F0BD
:103640000303002B16D1FB685B6A43F40012FB688E
:103650005A620123F7E0FB681B681B6903F0030350
:10366000002B07D1FB685B6A43F40012FB685A62C7
:103670000123E8E0FB681A68BB681B331B01134495
:103680001B6803F004027B689A607B689B68002BD0
:103690000CD1FB681A68BB681B331B0113441B6801
:1036A0005B0DC3F30A027B681A600BE0FB681A68C3
:1036B000BB681B331B0113441B68DB0823F060420B
:1036C0007B685A60FB681A68BB681B331B01134494
:1036D0001B6803F002027B68DA60FB681A68BB684B
:1036E0001B331B01134404331B6803F00803002B36
:1036F00003D07B6808221A610BE0FB681A68BB687C
:103700001B331B01134404331B6803F00F027B6857
:103710001A61FB681A68BB681B331B01134404332E
:103720001B681B0ADAB27B689A61FB681A68BB687F
:103730001B331B01134404331B681B0C9AB27B68B8
:103740005A61FB681A68BB681B01134403F5DC73FC
:103750001B68DAB23B681A70FB681A68BB681B0109
:10376000134403F5DC731B681A0A3B680133D2B2B9
:103770001A70FB681A68BB681B01134403F5DC73FD
:103780001B681A0C3B680233D2B21A70FB681A68C5
:10379000BB681B01134403F5DC731B681A0E3B68FE
:1037A0000333D2B21A70FB681A68BB681B0113445A
:1037B00003F5DE731A683B680433D2B21A70FB68F3
:1037C0001A68BB681B01134403F5DE731B681A0AF1
:1037D0003B680533D2B21A70FB681A68BB681B01DC
:1037E000134403F5DE731B681A0C3B680633D2B230
:1037F0001A70FB681A68BB681B01134403F5DE737B
:103800001B681A0E3B680733D2B21A70BB68002BD4
:1038100008D1FB681B68DA68FB681B6842F020026D
:10382000DA6007E0FB681B681A69FB681B6842F0F6
:1038300020021A61002306E0FB685B6A43F48022E1
:10384000FB685A62012318461C37BD465DF8047BAD
:10385000704780B58AB000AF786000237B627B68D8
:103860001B685B693B627B681B685B68FB617B680C
:103870001B689B68BB617B681B68DB687B617B683E
:103880001B681B693B617B681B689B69FB603B6A2B
:1038900003F00103002B7CD0BB6903F00103002B74
:1038A00023D07B681B6801229A60BB6903F0020386
:1038B000002B03D0786800F083F916E0BB6903F0B1
:1038C0000403002B04D07B6A43F400637B620CE0AA
:1038D000BB6903F00803002B04D07B6A43F48053D8
:1038E0007B6202E0786800F089F9BB6903F48073B9
:1038F000002B24D07B681B684FF480729A60BB69F0
:1039000003F40073002B03D0786800F063F916E02D
:10391000BB6903F48063002B04D07B6A43F400533B
:103920007B620CE0BB6903F40063002B04D07B6A6C
:1039300043F480437B6202E0786800F069F9BB6978
:1039400003F48033002B24D07B681B684FF4803253
:103950009A60BB6903F40033002B03D0786800F051
:1039600043F916E0BB6903F48023002B04D07B6A83
:1039700043F400437B620CE0BB6903F40023002B9B
:1039800004D07B6A43F480337B6202E0786800F005
:1039900049F93B6A03F00803002B0CD07B6903F064
:1039A0001003002B07D07B6A43F400737B627B68B3
:1039B0001B681022DA603B6A03F00403002B0BD073
:1039C0007B6903F00803002B06D07B681B68082284
:1039D000DA60786800F030F93B6A03F00203002BEC
:1039E00009D07B681B68DB6803F00303002B02D05F
:1039F0007868FCF7B7FE3B6A03F04003002B0CD05D
:103A00003B6903F01003002B07D07B6A43F480630B
:103A10007B627B681B6810221A613B6A03F02003FB
:103A2000002B0BD03B6903F00803002B06D07B680A
:103A30001B6808221A61786800F012F93B6A03F0EB
:103A40001003002B09D07B681B681B6903F003037C
:103A5000002B02D0786800F0F9F83B6A03F40033D9
:103A6000002B0BD0FB6903F01003002B06D07B6802
:103A70001B6810225A60786800F0FCF83B6A03F477
:103A80008033002B0BD0FB6903F00803002B06D01A
:103A90007B681B6808225A60786800F0F5F83B6A7A
:103AA00003F40043002B7BD0FB6903F00403002BDD
:103AB00072D03B6A03F48073002B08D0FB6803F0DC
:103AC0000103002B03D07B6A43F001037B623B6A56
:103AD00003F40073002B08D0FB6803F00203002BF3
:103AE00003D07B6A43F002037B623B6A03F480638A
:103AF000002B08D0FB6803F00403002B03D07B6A83
:103B000043F004037B623B6A03F40063002B43D061
:103B1000FB6803F07003002B3ED0FB6803F07003DA
:103B2000602B2BD0602B2ED8502B22D0502B2AD894
:103B3000402B19D0402B26D8302B10D0302B22D838
:103B4000102B02D0202B05D01DE07B6A43F0080328
:103B50007B6219E07B6A43F010037B6214E07B6AAE
:103B600043F020037B620FE07B6A43F040037B62FB
:103B70000AE07B6A43F080037B6205E07B6A43F4E2
:103B800080737B6200E000BF7B681B689A697B687A
:103B90001B6822F070029A617B681B6804225A60DD
:103BA0007B6A002B08D07B685A6A7B6A1A437B6861
:103BB0005A62786800F072F800BF2837BD4680BDB1
:103BC00080B483B000AF786000BF0C37BD465DF8AD
:103BD000047B704780B483B000AF786000BF0C37BF
:103BE000BD465DF8047B704780B483B000AF786059
:103BF00000BF0C37BD465DF8047B704780B483B0CE
:103C000000AF786000BF0C37BD465DF8047B70479D
:103C100080B483B000AF786000BF0C37BD465DF85C
:103C2000047B704780B483B000AF786000BF0C376E
:103C3000BD465DF8047B704780B483B000AF786008
:103C400000BF0C37BD465DF8047B704780B483B07D
:103C500000AF786000BF0C37BD465DF8047B70474D
:103C600080B483B000AF786000BF0C37BD465DF80C
:103C7000047B704780B483B000AF786000BF0C371E
:103C8000BD465DF8047B704780B483B000AF7860B8
:103C900000BF0C37BD465DF8047B704780B483B02D
:103CA00000AF786000BF0C37BD465DF8047B7047FD
:103CB00080B485B000AF78607B6803F00703FB60D9
:103CC0000C4BDB68BB60BA684FF6FF031340BB6068
:103CD000FB681A02BB68134343F0BF6343F400332D
:103CE000BB60044ABB68D36000BF1437BD465DF8B3
:103CF000047B704700ED00E080B400AF044BDB684C
:103D00001B0A03F007031846BD465DF8047B7047A5
:103D100000ED00E080B483B000AF0346FB7197F97B
:103D20000730002B0BDBFB7903F01F02074997F9E3
:103D300007305B09012000FA02F241F8232000BF9E
:103D40000C37BD465DF8047B704700BF00E100E022
:103D500080B483B000AF03463960FB7197F9073038
:103D6000002B0ADB3B68DAB20C4997F907301201E5
:103D7000D2B20B4483F800230AE03B68DAB2084968
:103D8000FB7903F00F03043B1201D2B20B441A7605
:103D900000BF0C37BD465DF8047B704700E100E0D2
:103DA00000ED00E080B489B000AFF860B9607A60DF
:103DB000FB6803F00703FB61FB69C3F10703042BF6
:103DC00028BF0423BB61FB690433062B02D9FB69BE
:103DD000033B00E000237B614FF0FF32BB6902FA36
:103DE00003F3DA43BB681A407B699A404FF0FF3116
:103DF0007B6901FA03F3D9437B680B4013431846F0
:103E00002437BD465DF8047B7047000080B582B062
:103E100000AF78607B68013BB3F1807F01D3012361
:103E20000FE00A4A7B68013B53600F214FF0FF30DF
:103E3000FFF78EFF054B00229A60044B07221A60A1
:103E4000002318460837BD4680BD00BF10E000E0E3
:103E500080B582B000AF78607868FFF729FF00BFB7
:103E60000837BD4680BD80B586B000AF0346B96057
:103E70007A60FB7300237B61FFF73EFF78617A680D
:103E8000B9687869FFF78EFF024697F90F3011463F
:103E90001846FFF75DFF00BF1837BD4680BD80B5EF
:103EA00082B000AF0346FB7197F907301846FFF761
:103EB00031FF00BF0837BD4680BD80B582B000AF7E
:103EC00078607868FFF7A2FF034618460837BD46BA
:103ED00080BD80B584B000AF78607B689B6DFB606F
:103EE000FEF78EFEB8607B6893F83530DBB2022BAC
:103EF00008D07B6880225A657B68002283F83420D2
:103F0000012352E07B681B681A687B681B6822F0FB
:103F100016021A607B681B685A697B681B6822F06E
:103F200080025A617B681B6C002B03D17B689B6C01
:103F3000002B07D07B681B681A687B681B6822F01F
:103F400008021A607B681B681A687B681B6822F08D
:103F500001021A6013E0FEF753FE0246BB68D31A53
:103F6000052B0CD97B6820225A657B68032283F8D5
:103F700035207B68002283F83420032315E07B681A
:103F80001B681B6803F00103002BE4D17B68DB6D29
:103F90003F229A40FB689A607B68012283F83520B3
:103FA0007B68002283F83420002318461037BD4672
:103FB00080BD80B483B000AF78607B6893F8353003
:103FC000DBB2022B04D07B6880225A6501230CE00F
:103FD0007B68052283F835207B681B681A687B683C
:103FE0001B6822F001021A60002318460C37BD46F8
:103FF0005DF8047B7047000080B489B000AF786042
:10400000396000237B6100233B610023BB610023F7
:10401000FB6165E10122FB6902FA03F37B613B6806
:104020001B687A6913403B613A697B699A4240F0A8
:1040300054813B685B6803F00303012B05D03B68A8
:104040005B6803F00303022B30D17B689B68BB6184
:10405000FB695B00032202FA03F3DB43BA691340F6
:10406000BB613B68DA68FB695B0002FA03F3BA697B
:104070001343BB617B68BA699A607B685B68BB610C
:104080000122FB6902FA03F3DB43BA691340BB6107
:104090003B685B681B0903F00102FB6902FA03F34A
:1040A000BA691343BB617B68BA695A603B685B6855
:1040B00003F00303032B17D07B68DB68BB61FB694C
:1040C0005B00032202FA03F3DB43BA691340BB61CE
:1040D0003B689A68FB695B0002FA03F3BA69134311
:1040E000BB617B68BA69DA603B685B6803F0030315
:1040F000022B23D1FB69DA087B68083253F822309F
:10410000BB61FB6903F007039B000F2202FA03F374
:10411000DB43BA691340BB613B681A69FB6903F072
:1041200007039B0002FA03F3BA691343BB61FB69FF
:10413000DA087B680832B96943F822107B681B688B
:10414000BB61FB695B00032202FA03F3DB43BA693C
:104150001340BB613B685B6803F00302FB695B00D3
:1041600002FA03F3BA691343BB617B68BA691A6048
:104170003B685B6803F44033002B00F0AE80002303
:10418000FB605D4B5B6C5C4A43F4804353645A4B69
:104190005B6C03F48043FB60FB68584AFB699B0837
:1041A000023352F82330BB61FB6903F003039B0029
:1041B0000F2202FA03F3DB43BA691340BB617B6849
:1041C0004F4A934225D07B684E4A93421FD07B686A
:1041D0004D4A934219D07B684C4A934213D07B6876
:1041E0004B4A93420DD07B684A4A934207D07B6882
:1041F000494A934201D106230CE007230AE0052334
:1042000008E0042306E0032304E0022302E0012384
:1042100000E00023FA6902F0030292009340BA69B9
:104220001343BB613549FB699B080233BA6941F806
:1042300023203A4B9B68BB613B69DB43BA6913405F
:10424000BB613B685B6803F48013002B03D0BA6941
:104250003B691343BB61314ABB6993602F4BDB68F9
:10426000BB613B69DB43BA691340BB613B685B6878
:1042700003F40013002B03D0BA693B691343BB61FD
:10428000264ABB69D360254B5B68BB613B69DB4356
:10429000BA691340BB613B685B6803F40033002BD1
:1042A00003D0BA693B691343BB611C4ABB695360C5
:1042B0001A4B1B68BB613B69DB43BA691340BB61A6
:1042C0003B685B6803F48033002B03D0BA693B6919
:1042D0001343BB61114ABB691360FB690133FB6186
:1042E000FB690F2B7FF696AE00BF00BF2437BD469B
:1042F0005DF8047B704700BF003802400038014081
:10430000000002400004024000080240000C02408D
:10431000001002400014024000180240003C01401E
:1043200080B483B000AF78600B467B8013467B700F
:104330007B78002B03D07A887B689A6103E07B88C6
:104340001A047B689A6100BF0C37BD465DF8047B98
:10435000704780B485B000AF78600B467B807B6887
:104360005B69FB607A88FB6813401A04FB68D943D9
:104370007B880B401A437B689A6100BF1437BD46A7
:104380005DF8047B7047000080B584B000AF7860B2
:1043900039607B68002B01D10123CCE0684B1B689E
:1043A00003F00F033A689A420CD9654B3A68D2B2CF
:1043B0001A70634B1B6803F00F033A689A4201D0EE
:1043C0000123B8E07B681B6803F00203002B20D0B8
:1043D0007B681B6803F00403002B05D0594B9B68D6
:1043E000584A43F4E05393607B681B6803F008036A
:1043F000002B05D0534B9B68524A43F460439360B3
:10440000504B9B6823F0F0027B689B684D49134337
:104410008B607B681B6803F00103002B44D07B6832
:104420005B68012B07D1474B1B6803F40033002B5B
:1044300019D101237FE07B685B68022B03D07B6886
:104440005B68032B07D13F4B1B6803F00073002B05
:1044500009D101236FE03B4B1B6803F00203002BE3
:1044600001D1012367E0374B9B6823F003027B688F
:104470005B68344913438B60FEF7C2FBF8600AE0C7
:10448000FEF7BEFB0246FB68D31A41F28832934224
:1044900001D903234FE02B4B9B6803F00C027B6890
:1044A0005B689B009A42EBD1254B1B6803F00F031E
:1044B0003A689A420CD2224B3A68D2B21A70204B18
:1044C0001B6803F00F033A689A4201D0012332E0DF
:1044D0007B681B6803F00403002B08D0194B9B6812
:1044E00023F4E0527B68DB68164913438B607B68DA
:1044F0001B6803F00803002B09D0124B9B6823F4C0
:1045000060427B681B69DB000E4913438B6000F03F
:1045100055F802460B4B9B681B0903F00F030A4931
:10452000CB5C22FA03F3094A1360094B1B68184657
:10453000FEF722FB002318461037BD4680BD00BFA2
:10454000003C0240003802405C8E0008040000205D
:104550000800002080B400AF034B1B681846BD461E
:104560005DF8047B704700BF0400002080B500AFF9
:10457000FFF7F0FF0246054B9B689B0A03F0070319
:104580000349CB5C22FA03F3184680BD0038024091
:104590006C8E000880B500AFFFF7DCFF0246054BCC
:1045A0009B685B0B03F007030349CB5C22FA03F320
:1045B000184680BD003802406C8E00082DE9B04FCF
:1045C000AEB000AF0023C7F8AC300023C7F8B4305A
:1045D0000023C7F8A8300023C7F8A4300023C7F889
:1045E000B030CB4B9B6803F00C030C2B00F206821F
:1045F00001A252F823F000BF2D460008FD49000833
:10460000FD490008FD49000835460008FD4900083D
:10461000FD490008FD4900083D460008FD49000825
:10462000FD490008FD4900082D480008B94BC7F8AE
:10463000B030E7E1B84BC7F8B030E3E1B44B5B68AA
:1046400003F03F03C7F8AC30B14B5B6803F4800361
:10465000002B71D0AE4B5B689B090022C7F89830E5
:10466000C7F89C20D7F89830C3F30803C7F89030F8
:104670000023C7F89430D7E9244522462B464FF053
:1046800000004FF00001590141EAD2615001024699
:104690000B462146511A3964294663EB01037B64BA
:1046A0004FF000024FF00003D7E9108949468B0113
:1046B000414643EA916341468A014146511AB96332
:1046C000494663EB0103FB634FF000024FF0000328
:1046D000D7E90E894946CB00414643EA517341462A
:1046E000CA0010461946034622469B183B632B46D8
:1046F0000A4642EB03037B634FF000024FF00003D6
:10470000D7E90C4529464B02214643EAD1532146BD
:104710004A0210461946D7F8AC300022C7F8883054
:10472000C7F88C20D7E92223FBF7CAFD02460B46C7
:104730001346C7F8B43067E0754B5B689B090022ED
:10474000C7F88030C7F88420D7F88030C3F3080357
:10475000BB670023FB67D7E91E4522462B464FF077
:1047600000004FF00001590141EAD26150010246B8
:104770000B462146511AB962294663EB0103FB62DD
:104780004FF000024FF00003D7E90A8949468B0138
:10479000414643EA916341468A014146B2EB010A30
:1047A000494663EB010B4FF000024FF000034FEA64
:1047B000CB0343EA5A734FEACA0292469B4623460A
:1047C0001AEB03033B622B464BEB03037B624FF078
:1047D00000024FF00003D7E9084529468B02214625
:1047E00043EA915321468A0210461946D7F8AC3065
:1047F00000223B677A67D7E91C23FBF761FD02467D
:104800000B461346C7F8B430414B5B681B0C03F0F2
:10481000030301335B00C7F8A830D7F8B420D7F8FA
:10482000A830B2FBF3F3C7F8B030EBE0384B5B686D
:1048300003F03F03C7F8AC30354B5B6803F48003EB
:10484000002B6BD0324B5B689B090022BB66FA667B
:10485000BB6EC3F308033B6600237B66D7E91845AC
:1048600022462B464FF000004FF00001590141EA6B
:10487000D261500102460B462146511AB9612946C0
:1048800063EB0103FB614FF000024FF00003D7E937
:1048900006AB59468B01514643EA916351468A0162
:1048A0005146B2EB0108594663EB01094FF0000293
:1048B0004FF000034FEAC90343EA58734FEAC802B6
:1048C00090469946234618EB03033B612B4649EB80
:1048D00003037B614FF000024FF00003D7E904456A
:1048E00029464B02214643EAD15321464A0210464B
:1048F0001946D7F8AC300022BB65FA65D7E9162314
:10490000FBF7DEFC02460B461346C7F8B43065E001
:10491000003802400024F40000127A003D4B5B682E
:104920009B09002218461146C0F308033B6500238B
:104930007B65D7E9148942464B464FF000004FF0A3
:104940000001590141EAD261500102460B4641463D
:10495000511AB960494663EB0103FB604FF0000256
:104960004FF00003D7E902AB59468B01514643EAA9
:10497000916351468A015146541A594663EB010529
:104980004FF000024FF00003EB0043EA5473E200E3
:1049900014461D464346E3183B604B4645EB030374
:1049A0007B604FF000024FF00003D7E90045294635
:1049B0008B02214643EA915321468A02104619464A
:1049C000D7F8AC300022BB64FA64D7E91223FBF7B6
:1049D00077FC02460B461346C7F8B4300D4B5B68B4
:1049E0001B0F03F00703C7F8A430D7F8B420D7F89B
:1049F000A430B2FBF3F3C7F8B03003E0064BC7F8BE
:104A0000B03000BFD7F8B0301846B837BD46BDE863
:104A1000B08F00BF003802400024F40080B586B09B
:104A200000AF78607B68002B01D101238DE27B68A9
:104A30001B6803F00103002B00F08380944B9B68FC
:104A400003F00C03042B19D0914B9B6803F00C036B
:104A5000082B06D18E4B5B6803F48003B3F5800FFF
:104A60000CD08B4B9B6803F00C030C2B12D1884BA2
:104A70005B6803F48003B3F5800F0BD1844B1B6894
:104A800003F40033002B5BD07B685B68002B57D1AD
:104A900001235AE27B685B68B3F5803F06D17C4B0B
:104AA0001B687B4A43F4803313601DE07B685B68BE
:104AB000B3F5A02F0CD1764B1B68754A43F48023C5
:104AC0001360734B1B68724A43F4803313600BE02E
:104AD0006F4B1B686E4A23F4803313606C4B1B686A
:104AE0006B4A23F4802313607B685B68002B13D030
:104AF000FEF786F8386108E0FEF782F802463B6967
:104B0000D31A642B01D903231FE2614B1B6803F402
:104B10000033002BF0D014E0FEF772F8386108E0A3
:104B2000FEF76EF802463B69D31A642B01D90323C2
:104B30000BE2574B1B6803F40033002BF0D100E06D
:104B400000BF7B681B6803F00203002B6FD0504B43
:104B50009B6803F00C03002B17D04D4B9B6803F0B0
:104B60000C03082B05D14A4B5B6803F48003002B30
:104B70000BD0474B9B6803F00C030C2B1CD1444B10
:104B80005B6803F48003002B16D1414B1B6803F0D4
:104B90000203002B05D07B68DB68012B01D00123C9
:104BA000D3E13B4B1B6823F0F8027B681B69DB00F9
:104BB000374913430B603AE07B68DB68002B20D059
:104BC000344B01221A60FEF71BF8386108E0FEF74B
:104BD00017F802463B69D31A022B01D90323B4E12B
:104BE0002B4B1B6803F00203002BF0D0284B1B68F3
:104BF00023F0F8027B681B69DB00254913430B6037
:104C000015E0244B00221A60FDF7FAFF386108E036
:104C1000FDF7F6FF02463B69D31A022B01D90323A5
:104C200093E11B4B1B6803F00203002BF0D17B6860
:104C30001B6803F00803002B36D07B685B69002BF0
:104C400016D0154B01221A60FDF7DAFF386108E033
:104C5000FDF7D6FF02463B69D31A022B01D9032385
:104C600073E10B4B5B6F03F00203002BF0D01BE0F2
:104C7000094B00221A60FDF7C3FF38610EE0FDF713
:104C8000BFFF02463B69D31A022B07D903235CE11D
:104C90000038024000004742800E47428A4B5B6F5B
:104CA00003F00203002BEAD17B681B6803F00403C6
:104CB000002B00F097800023FB75834B1B6C03F0E7
:104CC0008053002B0FD10023BB607F4B1B6C7E4AAF
:104CD00043F0805313647C4B1B6C03F08053BB6028
:104CE000BB680123FB75794B1B6803F48073002BB1
:104CF00018D1764B1B68754A43F480731360FDF737
:104D00007FFF386108E0FDF77BFF02463B69D31A5D
:104D1000022B01D9032318E16C4B1B6803F4807349
:104D2000002BF0D07B689B68012B06D1664B1B6F74
:104D3000654A43F0010313671CE07B689B68052B01
:104D40000CD1614B1B6F604A43F0040313675E4B49
:104D50001B6F5D4A43F0010313670BE05A4B1B6F57
:104D6000594A23F001031367574B1B6F564A23F030
:104D7000040313677B689B68002B15D0FDF740FF89
:104D800038610AE0FDF73CFF02463B69D31A41F265
:104D90008832934201D90323D7E04B4B1B6F03F0BA
:104DA0000203002BEED014E0FDF72AFF38610AE081
:104DB000FDF726FF02463B69D31A41F2883293423F
:104DC00001D90323C1E0404B1B6F03F00203002B0A
:104DD000EED1FB7D012B05D13B4B1B6C3A4A23F0F6
:104DE000805313647B689B69002B00F0AD80364BC9
:104DF0009B6803F00C03082B60D07B689B69022B37
:104E000045D1334B00221A60FDF7FAFE386108E005
:104E1000FDF7F6FE02463B69D31A022B01D90323A4
:104E200093E0294B1B6803F00073002BF0D17B68E3
:104E3000DA697B681B6A1A437B685B6A9B011A43C9
:104E40007B689B6A5B08013B1B041A437B68DB6A37
:104E50001B061A437B681B6B1B071B4913434B60E4
:104E60001B4B01221A60FDF7CBFE386108E0FDF70D
:104E7000C7FE02463B69D31A022B01D9032364E023
:104E8000114B1B6803F00073002BF0D05CE0104B5B
:104E900000221A60FDF7B4FE386108E0FDF7B0FEAD
:104EA00002463B69D31A022B01D903234DE0064B7E
:104EB0001B6803F00073002BF0D145E07B689B6911
:104EC000012B07D1012340E0003802400070004070
:104ED000600047421F4B5B68FB607B689B69012B4E
:104EE00030D0FB6803F480027B68DB699A4229D1E9
:104EF000FB6803F03F027B681B6A9A4222D1FA6882
:104F000047F6C07313407A68526A9201934219D1EE
:104F1000FB6803F440327B689B6A5B08013B1B041F
:104F20009A420FD1FB6803F070627B68DB6A1B0654
:104F30009A4207D1FB6803F0E0427B681B6B1B07BA
:104F40009A4201D0012300E0002318461837BD46DD
:104F500080BD00BF0038024080B582B000AF7860ED
:104F60007B68002B01D101237BE07B685B6A002B0F
:104F700008D17B685B68B3F5827F09D07B6800222B
:104F8000DA6105E07B6800221A617B6800225A61C1
:104F90007B6800229A627B6893F85130DBB2002B69
:104FA00006D17B68002283F850207868FDF706FA66
:104FB0007B68022283F851207B681B681A687B6833
:104FC0001B6822F040021A607B685B6803F48272FF
:104FD0007B689B6803F404431A437B68DB6803F433
:104FE00000631A437B681B6903F002031A437B6862
:104FF0005B6903F001031A437B689B6903F4007348
:105000001A437B68DB6903F038031A437B681B6A29
:1050100003F0800342EA03017B689B6A03F40052B9
:105020007B681B680A431A607B689B691B0C03F052
:1050300004017B685B6A03F010027B681B680A430B
:105040005A607B681B68DA697B681B6822F400621F
:10505000DA617B6800225A657B68012283F851205F
:10506000002318460837BD4680BD80B58AB000AF22
:10507000F860B9607A607B8001237B62FDF7C0FD38
:105080003862FB6893F85130FB77FB685B68BB6163
:105090007B88FB82FB7F012B0CD0BB69B3F5827F41
:1050A00006D1FB689B68002B02D1FB7F042B01D04B
:1050B00002237FE1BB68002B05D07B68002B02D068
:1050C0007B88002B01D1012374E1FB6893F85030F9
:1050D000012B01D102236DE1FB68012283F85020EE
:1050E000FB6893F85130DBB2042B03D0FB68052238
:1050F00083F85120FB6800225A65FB687A689A633E
:10510000FB687A88DA87FB687A889A87FB68BA68CE
:105110001A63FB687A88DA86FB687A889A86FB6865
:1051200000221A64FB6800225A64FB681B681B6833
:1051300003F04003402B07D0FB681B681A68FB682C
:105140001B6842F040021A60FB68DB68B3F5006F31
:105150007ED1FB685B68002B02D0FB8A012B6CD1EF
:10516000FB681B6B1A88FB681B68DA60FB681B6BAB
:105170009A1CFB681A63FB68DB8E9BB2013B9AB2F8
:10518000FB68DA8659E0FB681B689B6803F0020342
:10519000022B1BD1FB68DB8E9BB2002B16D07B6AE7
:1051A000012B13D1FB681B6B1A88FB681B68DA6044
:1051B000FB681B6B9A1CFB681A63FB68DB8E9BB257
:1051C000013B9AB2FB68DA8600237B62FB681B68AE
:1051D0009B6803F00103012B19D1FB68DB8F9BB2A5
:1051E000002B14D0FB681B68DA68FB689B6B92B2DB
:1051F0001A80FB689B6B9A1CFB689A63FB68DB8FC9
:105200009BB2013B9AB2FB68DA8701237B62FDF710
:10521000F7FC02463B6AD31A3A6B9A420DD83B6BB5
:10522000B3F1FF3F09D0FB68012283F85120FB68EE
:10523000002283F850200323BCE0FB68DB8E9BB286
:10524000002BA0D1FB68DB8F9BB2002B9BD182E0AF
:10525000FB685B68002B02D0FB8A012B71D1FB68D5
:105260001A6BFB681B680C3312781A70FB681B6B97
:105270005A1CFB681A63FB68DB8E9BB2013B9AB237
:10528000FB68DA865DE0FB681B689B6803F002033D
:10529000022B1CD1FB68DB8E9BB2002B17D07B6AE4
:1052A000012B14D1FB681A6BFB681B680C33127856
:1052B0001A70FB681B6B5A1CFB681A63FB68DB8E59
:1052C0009BB2013B9AB2FB68DA8600237B62FB68E3
:1052D0001B689B6803F00103012B19D1FB68DB8F6E
:1052E0009BB2002B14D0FB681B68DA68FB689B6BD1
:1052F000D2B21A70FB689B6B5A1CFB689A63FB68FE
:10530000DB8F9BB2013B9AB2FB68DA8701237B6299
:10531000FDF776FC02463B6AD31A3A6B9A4203D8F1
:105320003B6BB3F1FF3F02D13B6B002B09D1FB6814
:10533000012283F85120FB68002283F850200323C8
:1053400038E0FB68DB8E9BB2002B9CD1FB68DB8FC7
:105350009BB2002B97D13A6A396BF86800F0B6F827
:105360000346002B08D0FB6820225A65FB68002208
:1053700083F8502001231DE0FB689B68002B0AD1B5
:1053800000233B61FB681B68DB683B61FB681B68B3
:105390009B683B613B69FB68012283F85120FB68F5
:1053A000002283F85020FB685B6D002B01D00123A5
:1053B00000E0002318462837BD4680BD80B588B080
:1053C00000AFF860B9603B601346FB71FDF718FC55
:1053D0000246BB6A9B1A3A681344FB61FDF710FC56
:1053E000B861394B1B685B011B0DFA6902FB03F3C3
:1053F0007B6154E03B68B3F1FF3F50D0FDF700FC08
:105400000246BB69D31AFA699A4202D9FB69002B9A
:105410003DD1FB681B685A68FB681B6822F0E002FC
:105420005A60FB685B68B3F5827F11D1FB689B68AB
:10543000B3F5004F04D0FB689B68B3F5806F07D1CC
:10544000FB681B681A68FB681B6822F040021A6040
:10545000FB689B6AB3F5005F0FD1FB681B681A6895
:10546000FB681B6822F400521A60FB681B681A680C
:10547000FB681B6842F400521A60FB68012283F843
:105480005120FB68002283F85020032317E07B693A
:10549000002B01D10023FB617B69013B7B61FB6831
:1054A0001B689A68BB681340BA689A420CBF012314
:1054B0000023DBB21A46FB799A429BD1002318469F
:1054C0002037BD4680BD00BF0400002080B588B0F5
:1054D00002AFF860B9607A607B680093BB68012214
:1054E0000221F868FFF76AFF0346002B07D0FB682C
:1054F0005B6D43F02002FB685A65032332E01B4BCF
:105500001B681B4AA2FB03235B0D4FF47A7202FB5C
:1055100003F37B61FB685B68B3F5827F12D17B6824
:105520000093BB6800228021F868FFF747FF03461D
:10553000002B16D0FB685B6D43F02002FB685A65B8
:1055400003230FE07B69002B0AD07B69013B7B6161
:10555000FB681B689B6803F08003802BF2D000E09F
:1055600000BF002318461837BD4680BD0400002048
:10557000819F5E1680B582B000AF78607B68002B9B
:1055800001D1012341E07B6893F83D30DBB2002B71
:1055900006D17B68002283F83C207868FCF7F2FF94
:1055A0007B68022283F83D207B681A687B6804339D
:1055B0001946104600F058FC7B68012283F846200B
:1055C0007B68012283F83E207B68012283F83F201C
:1055D0007B68012283F840207B68012283F8412008
:1055E0007B68012283F842207B68012283F84320F4
:1055F0007B68012283F844207B68012283F84520E0
:105600007B68012283F83D20002318460837BD46F9
:1056100080BD80B582B000AF78607B68002B01D17F
:10562000012341E07B6893F83D30DBB2002B06D1CB
:105630007B68002283F83C20786800F039F87B68AA
:10564000022283F83D207B681A687B680433194680
:10565000104600F009FC7B68012283F846207B6835
:10566000012283F83E207B68012283F83F207B687B
:10567000012283F840207B68012283F841207B6867
:10568000012283F842207B68012283F843207B6853
:10569000012283F844207B68012283F845207B683F
:1056A000012283F83D20002318460837BD4680BDFF
:1056B00080B483B000AF786000BF0C37BD465DF8A2
:1056C000047B704780B582B000AF78607B68002BA8
:1056D00001D1012341E07B6893F83D30DBB2002B20
:1056E00006D17B68002283F83C20786800F039F806
:1056F0007B68022283F83D207B681A687B6804334C
:105700001946104600F0B0FB7B68012283F8462062
:105710007B68012283F83E207B68012283F83F20CA
:105720007B68012283F840207B68012283F84120B6
:105730007B68012283F842207B68012283F84320A2
:105740007B68012283F844207B68012283F845208E
:105750007B68012283F83D20002318460837BD46A8
:1057600080BD80B483B000AF786000BF0C37BD4609
:105770005DF8047B704780B584B000AF78607B68CB
:105780001B68DB68FB607B681B681B69BB60BB68D0
:1057900003F00203002B20D0FB6803F00203002B70
:1057A0001BD07B681B686FF002021A617B680122C4
:1057B0001A777B681B689B6903F00303002B03D0F7
:1057C0007868FBF703F805E0786800F02FFB78684D
:1057D00000F036FB7B6800221A77BB6803F00403F5
:1057E000002B20D0FB6803F00403002B1BD07B6848
:1057F0001B686FF004021A617B6802221A777B68CB
:105800001B689B6903F44073002B03D07868FAF798
:10581000DDFF05E0786800F009FB786800F010FB18
:105820007B6800221A77BB6803F00803002B20D0A6
:10583000FB6803F00803002B1BD07B681B686FF02C
:1058400008021A617B6804221A777B681B68DB698F
:1058500003F00303002B03D07868FAF7B7FF05E0E5
:10586000786800F0E3FA786800F0EAFA7B680022D2
:105870001A77BB6803F01003002B20D0FB6803F0FD
:105880001003002B1BD07B681B686FF010021A619D
:105890007B6808221A777B681B68DB6903F4407316
:1058A000002B03D07868FAF791FF05E0786800F0E4
:1058B000BDFA786800F0C4FA7B6800221A77BB68EA
:1058C00003F00103002B0CD0FB6803F00103002B55
:1058D00007D07B681B686FF001021A617868FCF7DB
:1058E00085FCBB6803F08003002B0CD0FB6803F041
:1058F0008003002B07D07B681B686FF080021A6161
:10590000786800F057FFBB6803F04003002B0CD011
:10591000FB6803F04003002B07D07B681B686FF027
:1059200040021A61786800F095FABB6803F0200322
:10593000002B0CD0FB6803F02003002B07D07B6802
:105940001B686FF020021A61786800F029FF00BF21
:105950001037BD4680BD80B586B000AFF860B96035
:105960007A600023FB75FB6893F83C30012B01D172
:10597000022388E0FB68012283F83C207B68002B2F
:105980001BD1FB681868BB681968BB685A68BB689C
:10599000DB6800F0C5FCFB681B689A69FB681B6844
:1059A00022F00C029A61FB681B689969BB689A68CF
:1059B000FB681B680A439A6160E07B68042B1CD17A
:1059C000FB681868BB681968BB685A68BB68DB6805
:1059D00000F049FDFB681B689A69FB681B6822F4AC
:1059E00040629A61FB681B689969BB689B681A02F0
:1059F000FB681B680A439A6140E07B68082B1BD157
:105A0000FB681868BB681968BB685A68BB68DB68C4
:105A100000F096FDFB681B68DA69FB681B6822F0E2
:105A20000C02DA61FB681B68D969BB689A68FB687D
:105A30001B680A43DA6121E07B680C2B1CD1FB68F0
:105A40001868BB681968BB685A68BB68DB6800F0F7
:105A5000B3FDFB681B68DA69FB681B6822F44062CF
:105A6000DA61FB681B68D969BB689B681A02FB682E
:105A70001B680A43DA6101E00123FB75FB68002221
:105A800083F83C20FB7D18461837BD4680BD0000DA
:105A900080B586B000AFF860B9607A600023FB750E
:105AA000FB6893F83C30012B01D10223AEE0FB6888
:105AB000012283F83C207B680C2B00F29F8001A21E
:105AC00052F823F0F95A0008FD5B0008FD5B00085E
:105AD000FD5B0008395B0008FD5B0008FD5B00080A
