:020000040800F2
:100000000050002019090008B5080008BD080008C4
:10001000C5080008CD080008D50800080000000049
:10002000000000000000000000000000DD080008E3
:10003000E908000800000000F508000801090008B0
:1000400061090008610900086109000861090008E8
:1000500061090008610900086109000861090008D8
:1000600061090008610900086109000861090008C8
:1000700061090008610900086109000861090008B8
:1000800061090008610900086109000861090008A8
:100090006109000861090008610900086109000898
:1000A0006109000861090008610900086109000888
:1000B0006109000861090008610900086109000878
:1000C0006109000861090008610900086109000868
:1000D0006109000861090008610900086109000858
:1000E00061090008610900086109000800000000BA
:1000F0000000000000000000000000000000000000
:0C01000000000000000000005FF808F1A3
:10010C0010B5054C237833B9044B13B10448AFF345
:10011C0000800123237010BD14000020000000009B
:10012C00CC22000808B5034B1BB103490348AFF3BD
:10013C00008008BD0000000018000020CC22000840
:10014C0080B500AF00F008FC00F034F800F0C6F801
:10015C0000F06CF800F098F800F00CF94FF47A709D
:10016C0000F05CFC0021002000F0C8FA0E4A0123CC
:10017C0006CA0E4800F09CFA00F08AF94FF47A7027
:10018C0000F04CFC0021002000F0B8FA064A0123D4
:10019C0006CA074800F08CFA00F07AF94FF47A702E
:1001AC0000F03CFC00BFDDE700000020E42200086A
:1001BC00EC22000880B590B000AF07F1180328229C
:1001CC000021184602F050F83B1D00221A605A60BC
:1001DC009A60DA601A610223BB610123BB621023AF
:1001EC00FB6200237B6307F11803184601F04EFBFA
:1001FC000346002B01D000F09FF80F237B600023F7
:10020C00BB600023FB6000233B6100237B613B1D33
:10021C000021184601F0BCFD0346002B01D000F074
:10022C008BF800BF4037BD4680BD000080B500AFE5
:10023C00124B134A1A60114B124A5A600F4B002290
:10024C009A600E4B0022DA600C4B4FF480421A611C
:10025C000A4B00225A61094B00229A61074B00227B
:10026C00DA61064B00221A62044800F063FE034672
:10027C00002B01D000F060F800BF80BD30000020E2
:10028C0000580040A086010080B500AF114B124A07
:10029C001A60104B4FF4E1325A600E4B00229A60F8
:1002AC000C4B0022DA600B4B00221A61094B0C221A
:1002BC005A61084B00229A61064B0022DA6105480C
:1002CC0001F0F4FE0346002B01D000F035F800BF1E
:1002DC0080BD00BF840000200038014080B485B090
:1002EC0000AF144B9B69134A43F020039361114BED
:1002FC009B6903F02003FB60FB680E4B9B690D4A66
:10030C0043F0080393610B4B9B6903F00803BB603C
:10031C00BB68084B9B69074A43F004039361054B88
:10032C009B6903F004037B607B6800BF1437BD46F8
:10033C0080BC70470010024080B400AF72B600BFA2
:10034C0000BFFDE780B586B004AF0346FB710A23FE
:10035C00029301230193FB1D0093012300227821BA
:10036C00034800F02BFF00BF0837BD4680BD00BF1F
:10037C003000002080B500AF642000F04FFBAE20B1
:10038C00FFF7E0FF2020FFF7DDFF1020FFF7DAFF7B
:10039C00B020FFF7D7FFC820FFF7D4FF0020FFF7EE
:1003AC00D1FF1020FFF7CEFF4020FFF7CBFF8120BD
:1003BC00FFF7C8FFFF20FFF7C5FFA120FFF7C2FF23
:1003CC00A620FFF7BFFFA820FFF7BCFF3F20FFF7D9
:1003DC00B9FFA420FFF7B6FFD320FFF7B3FF00202F
:1003EC00FFF7B0FFD520FFF7ADFFF020FFF7AAFF16
:1003FC00D920FFF7A7FF2220FFF7A4FFDA20FFF791
:10040C00A1FF1220FFF79EFFDB20FFF79BFF2020B0
:10041C00FFF798FF8D20FFF795FF1420FFF792FF51
:10042C00AF20FFF78FFF002000F010F800F030F83D
:10043C00054B00221A80044B00225A80024B0122E9
:10044C005A710123184680BDCC04002080B485B0BD
:10045C0000AF0346FB710023FB600DE0FB79002B22
:10046C0001D1002100E0FF21084AFB6813440A4631
:10047C001A70FB680133FB60FB68B3F5806FEDD33A
:10048C0000BF00BF1437BD4680BC7047CC000020B5
:10049C0080B586B004AF0023FB711DE0FB79503BA7
:1004AC00DBB21846FFF74EFF0020FFF74BFF102082
:1004BC00FFF748FFFB79DB010B4A134464220292DD
:1004CC00802201920093012340227821074800F0FA
:1004DC0075FEFB790133FB71FB79072BDED900BF6D
:1004EC0000BF0837BD4680BDCC0000203000002086
:1004FC0080B483B000AF0346FB710B46BB7113464F
:10050C007B7197F90730002B48DBBB793F2B45D823
:10051C00254B1B79002B06D07B79002B0CBF0123BC
:10052C000023DBB27B717B79012B1AD1FA79BB7971
:10053C00DB08D8B20346DB0113441C4AD35C5AB225
:10054C00BB7903F00703012101FA03F35BB21343F8
:10055C0059B2FA790346DB011344C9B2134AD15498
:10056C001DE0FA79BB79DB08D8B20346DB011344F2
:10057C000E4AD35C5AB2BB7903F00703012101FA8E
:10058C0003F35BB2DB435BB2134059B2FA79034617
:10059C00DB011344C9B2054AD15400E000BF0C374B
:1005AC00BD4680BC704700BFCC040020CC000020AE
:1005BC0090B589B000AF0446381D80E806001A4695
:1005CC002346FB731346BB73384B1B881A463B7987
:1005DC0013447F2B06DC354B5B881A467B7913441E
:1005EC003F2B01DD00235CE00023FB614CE0BA688B
:1005FC00FB7B203B797901FB03F31946FB690B4428
:10060C005B0013441B887B610023BB6134E07A6977
:10061C00BB6902FA03F303F40043002B12D0234B03
:10062C001B88DAB2BB69DBB21344D8B21F4B5B88B0
:10063C00DAB2FB69DBB21344DBB2BA7B1946FFF7C3
:10064C0057FF16E0194B1B88DAB2BB69DBB21344B7
:10065C00D8B2164B5B88DAB2FB69DBB21344D9B261
:10066C00BB7B002B0CBF01230023DBB21A46FFF728
:10067C003FFFBB690133BB613B791A46BB699342AF
:10068C00C5D3FB690133FB617B791A46FB69934245
:10069C00ADD3064B1B883A7913449AB2034B1A809C
:1006AC00FB7B18462437BD4690BD00BFCC04002010
:1006BC0080B584B000AFF860381D80E80600FB7090
:1006CC0012E0FB681878FB783A1D06CAFFF770FF3A
:1006DC0003461A46FB681B789A4202D0FB681B78CB
:1006EC0008E0FB680133FB60FB681B78002BE8D14A
:1006FC00FB681B7818461037BD4680BD80B483B0AC
:10070C0000AF03460A46FB711346BB71FB799AB2E4
:10071C00054B1A80BB799AB2034B5A8000BF0C3739
:10072C00BD4680BC704700BFCC04002080B485B0AF
:10073C0000AF154B9B69144A43F001039361124BB4
:10074C009B6903F00103BB60BB680F4BDB690E4A6E
:10075C0043F08053D3610C4BDB6903F080537B6017
:10076C007B680A4B5B68FB60FB6823F0E063FB6013
:10077C00FB6843F00073FB60044AFB68536000BFE6
:10078C001437BD4680BC7047001002400000014089
:10079C0080B588B000AF786007F1100300221A60B2
:1007AC005A609A60DA607B681B68164A934224D1BF
:1007BC00154B9B69144A43F008039361124B9B69D8
:1007CC0003F00803FB60FB684FF440633B611223AA
:1007DC007B610323FB6107F1100319460B4800F002
:1007EC0025FA094BDB69084A43F48003D361064BB5
:1007FC00DB6903F48003BB60BB6800BF2037BD46D8
:10080C0080BD00BF0058004000100240000C0140A9
:10081C0080B588B000AF786007F1100300221A6031
:10082C005A609A60DA607B681B681C4A934231D12B
:10083C001B4B9B691A4A43F480439361184B9B6989
:10084C0003F48043FB60FB68154B9B69144A43F02F
:10085C0004039361124B9B6903F00403BB60BB68F8
:10086C004FF400733B6102237B610323FB6107F1AF
:10087C00100319460B4800F0D9F94FF480633B6123
:10088C0000237B610023BB6107F110031946054867
:10089C0000F0CCF900BF2037BD4680BD00380140C8
:1008AC00001002400008014080B400AF00BFFDE71B
:1008BC0080B400AF00BFFDE780B400AF00BFFDE720
:1008CC0080B400AF00BFFDE780B400AF00BFFDE710
:1008DC0080B400AF00BFBD4680BC704780B400AF91
:1008EC0000BFBD4680BC704780B400AF00BFBD46A2
:1008FC0080BC704780B500AF00F074F800BF80BDBD
:10090C0080B400AF00BFBD4680BC7047FFF7F8FF56
:10091C000B480C490C4A002302E0D458C450043351
:10092C00C4188C42F9D3094A094C002301E0136026
:10093C000432A242FBD301F09FFCFFF701FC70478D
:10094C000000002014000020843000081400002057
:10095C00D8040020FEE7000080B500AF084B1B68F0
:10096C00074A43F010031360032000F02BF90F200B
:10097C0000F008F8FFF7DAFE0023184680BD00BF30
:10098C000020024080B582B000AF7860124B1A682C
:10099C00124B1B7819464FF47A73B3FBF1F3B2FB8D
:1009AC00F3F3184600F035F90346002B01D0012370
:1009BC000EE07B680F2B0AD8002279684FF0FF30CD
:1009CC0000F00BF9064A7B681360002300E001235A
:1009DC0018460837BD4680BD0800002010000020D6
:1009EC000C00002080B400AF054B1B781A46054B59
:1009FC001B681344034A136000BFBD4680BC70479C
:100A0C0010000020D404002080B400AF024B1B68FF
:100A1C001846BD4680BC7047D404002080B584B015
:100A2C0000AF7860FFF7F0FFB8607B68FB60FB6895
:100A3C00B3F1FF3F05D00A4B1B781A46FB681344F1
:100A4C00FB6000BFFFF7E0FF0246BB68D31AFA68F1
:100A5C009A42F7D800BF00BF1037BD4680BD00BF1B
:100A6C001000002080B485B000AF78607B6803F084
:100A7C000703FB600C4BDB68BB60BA684FF6FF03E7
:100A8C001340BB60FB681A02BB68134343F0BF639F
:100A9C0043F40033BB60044ABB68D36000BF143717
:100AAC00BD4680BC704700BF00ED00E080B400AFD5
:100ABC00044BDB681B0A03F007031846BD4680BCD9
:100ACC00704700BF00ED00E080B483B000AF034678
:100ADC003960FB7197F90730002B0ADB3B68DAB2FF
:100AEC000C4997F907301201D2B20B4483F800235A
:100AFC000AE03B68DAB20849FB7903F00F03043BC8
:100B0C001201D2B20B441A7600BF0C37BD4680BC22
:100B1C00704700BF00E100E000ED00E080B489B058
:100B2C0000AFF860B9607A60FB6803F00703FB6103
:100B3C00FB69C3F10703042B28BF0423BB61FB69CA
:100B4C000433062B02D9FB69033B00E000237B61D5
:100B5C004FF0FF32BB6902FA03F3DA43BB681A4069
:100B6C007B699A404FF0FF317B6901FA03F3D9435B
:100B7C007B680B40134318462437BD4680BC704736
:100B8C0080B582B000AF78607B68013BB3F1807FA9
:100B9C0001D301230FE00A4A7B68013B53600F210C
:100BAC004FF0FF30FFF790FF054B00229A60044B8B
:100BBC0007221A60002318460837BD4680BD00BFC7
:100BCC0010E000E080B582B000AF78607868FFF785
:100BDC0049FF00BF0837BD4680BD80B586B000AF69
:100BEC000346B9607A60FB7300237B61FFF75EFFFD
:100BFC0078617A68B9687869FFF790FF024697F9CF
:100C0C000F3011461846FFF75FFF00BF1837BD467F
:100C1C0080BD80B582B000AF78607868FFF7B0FF18
:100C2C00034618460837BD4680BD000080B48BB023
:100C3C0000AF7860396000237B6200233B6269E17E
:100C4C0001227B6A02FA03F3FB613B681B68FA69B9
:100C5C001340BB61BA69FB699A4240F058813B680A
:100C6C005B689A4A93425ED0984A934275D8984AE8
:100C7C00934258D0964A93426FD8964A934252D098
:100C8C00944A934269D8944A93424CD0924A9342E4
:100C9C0063D8924A934246D0904A93425DD8122B25
:100CAC002AD8122B59D801A252F823F0330D000880
:100CBC000D0D00081F0D0008610D0008670D0008E0
:100CCC00670D0008670D0008670D0008670D000828
:100CDC00670D0008670D0008670D0008670D000818
:100CEC00670D0008670D0008670D0008670D000808
:100CFC00150D0008290D0008794A934213D02CE0F9
:100D0C003B68DB683B6229E03B68DB6804333B6291
:100D1C0024E03B68DB6808333B621FE03B68DB6820
:100D2C000C333B621AE03B689B68002B02D1042316
:100D3C003B6213E03B689B68012B05D108233B62A7
:100D4C007B68FA691A6109E008233B627B68FA69DF
:100D5C005A6103E000233B6200E000BFBB69FF2B3C
:100D6C0001D87B6801E07B6804337B61BB69FF2B96
:100D7C0002D87B6A9B0002E07B6A083B9B003B61CC
:100D8C007B691A680F213B6901FA03F3DB431A40B4
:100D9C00396A3B6901FA03F31A437B691A603B68B1
:100DAC005B6803F08053002B00F0B1804D4B9B69C6
:100DBC004C4A43F0010393614A4B9B6903F00103D6
:100DCC00BB60BB68484A7B6A9B08023352F82330ED
:100DDC00FB607B6A03F003039B000F2202FA03F310
:100DEC00DB43FA681340FB607B68404A934213D0A4
:100DFC007B683F4A93420DD07B683E4A934207D0B2
:100E0C007B683D4A934201D1032306E0042304E0AE
:100E1C00022302E0012300E000237A6A02F00302BD
:100E2C0092009340FA681343FB602F497B6A9B083E
:100E3C000233FA6841F823203B685B6803F48013A3
:100E4C00002B06D02D4B9A682C49BB6913438B6041
:100E5C0006E02A4B9A68BB69DB43284913408B6038
:100E6C003B685B6803F40013002B06D0234BDA6855
:100E7C002249BB691343CB6006E0204BDA68BB699F
:100E8C00DB431E491340CB603B685B6803F40033C3
:100E9C00002B06D0194B5A681849BB6913434B6099
:100EAC0006E0164B5A68BB69DB43144913404B6090
:100EBC003B685B6803F48033002B21D00F4B1A681E
:100ECC000E49BB6913430B6021E000BF00003210D8
:100EDC000000311000002210000021100000121040
:100EEC0000001110001002400000014000080140F9
:100EFC00000C0140001001400014014000040140AE
:100F0C000B4B1A68BB69DB43094913400B607B6AC6
:100F1C0001337B623B681A687B6A22FA03F3002B6D
:100F2C007FF48EAE00BF00BF2C37BD4680BC70472F
:100F3C000004014080B584B000AF78607B68002B62
:100F4C0001D101232BE17B6893F83D30DBB2002B00
:100F5C0006D17B68002283F83C207868FFF718FCE8
:100F6C007B68242283F83D207B681B681A687B68A9
:100F7C001B6822F001021A607B681B681A687B6888
:100F8C001B6842F400421A607B681B681A687B6815
:100F9C001B6822F400421A6001F042F8F8607B688A
:100FAC005B68814A934207D8FB68804A934294BF9E
:100FBC0001230023DBB206E0FB687D4A934294BF19
:100FCC0001230023DBB2002B01D00123E7E0FB68F7
:100FDC00784AA2FB03239B0CBB607B681B685B6895
:100FEC0023F03F017B681B68BA680A435A607B6830
:100FFC001B681B6A23F03F017B685B686A4A93425B
:10100C0002D8BB68013309E0BB684FF4967202FB4F
:10101C0003F3694AA2FB03239B0901337A68126824
:10102C000B4313627B681B68DB6923F44F4222F08D
:10103C00FF027B685B685C498B4219D8FB68591EC0
:10104C007B685B685B00B1FBF3F3591C40F6FC73E7
:10105C000B40002B0AD0FB68591E7B685B685B0059
:10106C00B1FBF3F30133C3F30B0351E004234FE063
:10107C007B689B68002B11D1FB68581E7B685968F4
:10108C000B465B000B44B0FBF3F30133C3F30B03D0
:10109C00002B0CBF01230023DBB212E0FB68581EAF
:1010AC007B6859680B469B000B4499000B44B0FBC2
:1010BC00F3F30133C3F30B03002B0CBF0123002309
:1010CC00DBB2002B01D0012322E07B689B68002B54
:1010DC000ED1FB68581E7B6859680B465B000B44AD
:1010EC00B0FBF3F30133C3F30B0343F400430FE002
:1010FC00FB68581E7B6859680B469B000B44990093
:10110C000B44B0FBF3F30133C3F30B0343F4404341
:10111C00796809681343CB617B681B681B6823F0F3
:10112C00C0017B68DA697B681B6A1A437B681B68A1
:10113C000A431A607B681B689B6823F4034323F003
:10114C00FF037A6811697A68D26811437A68126869
:10115C000B4393607B681B68DB6823F0FF017B68A3
:10116C005A697B689B691A437B681B680A43DA607F
:10117C007B681B681A687B681B6842F001021A6066
:10118C007B6800221A647B68202283F83D207B68F0
:10119C0000221A637B68002283F83E200023184645
:1011AC001037BD4680BD00BFA08601007F841E00A5
:1011BC00FF083D0083DE1B43D34D621080B588B021
:1011CC0002AFF860084611461A4603467B810B466F
:1011DC003B811346FB80FFF717FC7861FB6893F8A3
:1011EC003D30DBB2202B40F0D9807B690093192372
:1011FC0001226D49F86800F071F90346002B01D00B
:10120C000223CCE0FB6893F83C30012B01D1022384
:10121C00C5E0FB68012283F83C20FB681B681B6857
:10122C0003F00103012B07D0FB681B681A68FB68ED
:10123C001B6842F001021A60FB681B681A68FB68A5
:10124C001B6822F400621A60FB68212283F83D209F
:10125C00FB68402283F83E20FB6800221A64FB687E
:10126C003A6A5A62FB68BA8C5A85FB685B8D9AB2F3
:10127C00FB681A85FB684D4ADA62F8883A897989E5
:10128C007B690193BB6A00930346F86800F090F801
:10129C000346002B52D0012381E07A69B96AF868C1
:1012AC0000F036FA0346002B0DD0FB681B6C042BA8
:1012BC0007D1FB681B681A68FB681B6842F4007254
:1012CC001A6001236BE0FB685B6A1A78FB681B6889
:1012DC001A61FB685B6A5A1CFB685A62FB681B8DBF
:1012EC00013B9AB2FB681A85FB685B8D9BB2013B94
:1012FC009AB2FB685A85FB681B685B6903F00403B0
:10130C00042B1BD1FB681B8D002B17D0FB685B6A71
:10131C001A78FB681B681A61FB685B6A5A1CFB68CD
:10132C005A62FB681B8D013B9AB2FB681A85FB68FD
:10133C005B8D9BB2013B9AB2FB685A85FB681B8D97
:10134C00002BAAD17A69B96AF86800F029FA034629
:10135C00002B0DD0FB681B6C042B07D1FB681B68A2
:10136C001A68FB681B6842F400721A60012316E0CD
:10137C00FB681B681A68FB681B6842F400721A60F1
:10138C00FB68202283F83D20FB68002283F83E2076
:10139C00FB68002283F83C20002300E0022318465F
:1013AC001837BD4680BD00BF020010000000FFFFD3
:1013BC0080B588B002AFF860084611461A4603465D
:1013CC007B810B463B811346FB80FB681B681A68CC
:1013DC00FB681B6842F480721A607B6A00933B6A5C
:1013EC0000224FF00111F86800F078F80346002B4A
:1013FC000DD0FB681B681B6803F48073B3F5807F0A
:10140C0003D1FB684FF400721A6403235FE07B89FD
:10141C00DBB21A46FB681B6802F0FE021A617B6A9B
:10142C003A6A2D49F86800F0D3F80346002B01D036
:10143C0001234CE000237B61FB681B685B697B61CB
:10144C00FB681B689B697B617B697A6A396AF868FF
:10145C0000F05EF90346002B0DD0FB681B6C042BCF
:10146C0007D1FB681B681A68FB681B6842F40072A2
:10147C001A6001232BE0FB88012B05D13B89DAB2E2
:10148C00FB681B681A6121E03B891B0A9BB2DAB22C
:10149C00FB681B681A617A6A396AF86800F038F9D7
:1014AC000346002B0DD0FB681B6C042B07D1FB688B
:1014BC001B681A68FB681B6842F400721A600123EF
:1014CC0005E03B89DAB2FB681B681A6100231846F9
:1014DC001837BD4680BD00BF0200010080B584B046
:1014EC0000AFF860B9603B601346FB7148E03B68A5
:1014FC00B3F1FF3F44D0FFF787FA0246BB69D31A1A
:10150C003A689A4202D33B68002B39D1BB681B0C5A
:10151C00DBB2012B0DD1FB681B685B69DA43BB683E
:10152C0013409BB2002B0CBF01230023DBB21A46E5
:10153C000CE0FB681B689B69DA43BB6813409BB2E9
:10154C00002B0CBF01230023DBB21A46FB799A4215
:10155C0016D1FB6800221A63FB68202283F83D2019
:10156C00FB68002283F83E20FB681B6C43F02002D2
:10157C00FB681A64FB68002283F83C20012323E0FB
:10158C00BB681B0CDBB2012B0DD1FB681B685B69C4
:10159C00DA43BB6813409BB2002B0CBF0123002322
:1015AC00DBB21A460CE0FB681B689B69DA43BB682C
:1015BC0013409BB2002B0CBF01230023DBB21A4655
:1015CC00FB799A4293D0002318461037BD4680BD54
:1015DC0080B584B000AFF860B9607A603B6071E0B0
:1015EC00FB681B685B6903F48063B3F5806F23D1E0
:1015FC00FB681B681A68FB681B6842F400721A606F
:10160C00FB681B686FF480625A61FB6800221A63E6
:10161C00FB68202283F83D20FB68002283F83E20E3
:10162C00FB681B6C43F00402FB681A64FB68002225
:10163C0083F83C20012367E07B68B3F1FF3F41D086
:10164C00FFF7E2F902463B68D31A7A689A4202D352
:10165C007B68002B36D1BB681B0CDBB2012B0CD189
:10166C00FB681B685B69DA43BB6813409BB2002BB9
:10167C0014BF01230023DBB20BE0FB681B689B69E2
:10168C00DA43BB6813409BB2002B14BF0123002329
:10169C00DBB2002B16D0FB6800221A63FB682022F9
:1016AC0083F83D20FB68002283F83E20FB681B6C0E
:1016BC0043F02002FB681A64FB68002283F83C208C
:1016CC00012321E0BB681B0CDBB2012B0CD1FB68A6
:1016DC001B685B69DA43BB6813409BB2002B14BFD9
:1016EC0001230023DBB20BE0FB681B689B69DA4328
:1016FC00BB6813409BB2002B14BF01230023DBB249
:10170C00002B7FF46DAF002318461037BD4680BD0B
:10171C0080B584B000AFF860B9607A6034E0F868E6
:10172C0000F086F80346002B01D0012334E0BB689F
:10173C00B3F1FF3F28D0FFF767F902467B68D31A55
:10174C00BA689A4202D3BB68002B1DD1FB681B6898
:10175C005B6903F08003802B16D0FB6800221A63B0
:10176C00FB68202283F83D20FB68002283F83E2092
:10177C00FB681B6C43F02002FB681A64FB680022B8
:10178C0083F83C20012307E0FB681B685B6903F0CE
:10179C008003802BC3D1002318461037BD4680BD73
:1017AC0080B584B000AFF860B9607A6034E0F86856
:1017BC0000F03EF80346002B01D0012334E0BB6857
:1017CC00B3F1FF3F28D0FFF71FF902467B68D31A0D
:1017DC00BA689A4202D3BB68002B1DD1FB681B6808
:1017EC005B6903F00403042B16D0FB6800221A6318
:1017FC00FB68202283F83D20FB68002283F83E2002
:10180C00FB681B6C43F02002FB681A64FB68002227
:10181C0083F83C20012307E0FB681B685B6903F03D
:10182C000403042BC3D1002318461037BD4680BDDA
:10183C0080B483B000AF78607B681B685B6903F48D
:10184C008063B3F5806F1BD17B681B686FF480627B
:10185C005A617B6800221A637B68202283F83D2042
:10186C007B68002283F83E207B681B6C43F00402EB
:10187C007B681A647B68002283F83C20012300E01B
:10188C00002318460C37BD4680BC704780B586B027
:10189C0000AF78607B68002B01D1012372E27B687A
:1018AC001B6803F00103002B00F08780924B5B68F0
:1018BC0003F00C03042B0CD08F4B5B6803F00C0370
:1018CC00082B12D18C4B5B6803F48033B3F5803F4B
:1018DC000BD1894B1B6803F40033002B6CD07B6855
:1018EC005B68002B68D101234CE27B685B68B3F525
:1018FC00803F06D1804B1B687F4A43F480331360D2
:10190C002EE07B685B68002B0CD17B4B1B687A4A02
:10191C0023F480331360784B1B68774A23F48023BD
:10192C0013601DE07B685B68B3F5A02F0CD1724B84
:10193C001B68714A43F4802313606F4B1B686E4A1B
:10194C0043F4803313600BE06B4B1B686A4A23F43F
:10195C0080331360684B1B68674A23F48023136041
:10196C007B685B68002B13D0FFF74EF8386108E0FA
:10197C00FFF74AF802463B69D31A642B01D90323BB
:10198C0000E25D4B1B6803F40033002BF0D014E035
:10199C00FFF73AF8386108E0FFF736F802463B6982
:1019AC00D31A642B01D90323ECE1534B1B6803F4CA
:1019BC000033002BF0D100E000BF7B681B6803F004
:1019CC000203002B63D04C4B5B6803F00C03002B21
:1019DC000BD0494B5B6803F00C03082B1CD1464B16
:1019EC005B6803F48033002B16D1434B1B6803F068
:1019FC000203002B05D07B681B69012B01D001234E
:101A0C00C0E13D4B1B6823F0F8027B685B69DB008F
:101A1C00394913430B603AE07B681B69002B20D0DB
:101A2C00364B01221A60FEF7EFFF386108E0FEF733
:101A3C00EBFF02463B69D31A022B01D90323A1E128
:101A4C002D4B1B6803F00203002BF0D02A4B1B68B4
:101A5C0023F0F8027B685B69DB00274913430B60BA
:101A6C0015E0264B00221A60FEF7CEFF386108E025
:101A7C00FEF7CAFF02463B69D31A022B01D9032396
:101A8C0080E11D4B1B6803F00203002BF0D17B6837
:101A9C001B6803F00803002B3AD07B689B69002B72
:101AAC0019D0174B01221A60FEF7AEFF386108E01F
:101ABC00FEF7AAFF02463B69D31A022B01D9032376
:101ACC0060E10D4B5B6A03F00203002BF0D00120A8
:101ADC0000F0CEFA1CE00A4B00221A60FEF794FFCD
:101AEC0038610FE0FEF790FF02463B69D31A022BD8
:101AFC0008D9032346E100BF001002400000424217
:101B0C0080044242924B5B6A03F00203002BE9D142
:101B1C007B681B6803F00403002B00F0A6800023F5
:101B2C00FB758B4BDB6903F08053002B0DD1884B7D
:101B3C00DB69874A43F08053D361854BDB6903F043
:101B4C008053BB60BB680123FB75824B1B6803F49D
:101B5C008073002B18D17F4B1B687E4A43F4807333
:101B6C001360FEF751FF386108E0FEF74DFF0246A7
:101B7C003B69D31A642B01D9032303E1754B1B6812
:101B8C0003F48073002BF0D07B68DB68012B06D14B
:101B9C006F4B1B6A6E4A43F0010313622DE07B68A6
:101BAC00DB68002B0CD16A4B1B6A694A23F00103DA
:101BBC001362674B1B6A664A23F0040313621CE032
:101BCC007B68DB68052B0CD1614B1B6A604A43F0C8
:101BDC00040313625E4B1B6A5D4A43F001031362FC
:101BEC000BE05B4B1B6A5A4A23F001031362584B00
:101BFC001B6A574A23F0040313627B68DB68002BD3
:101C0C0015D0FEF701FF38610AE0FEF7FDFE024633
:101C1C003B69D31A41F28832934201D90323B1E0D4
:101C2C004B4B1B6A03F00203002BEED014E0FEF7C3
:101C3C00EBFE38610AE0FEF7E7FE02463B69D31A79
:101C4C0041F28832934201D903239BE0404B1B6A3B
:101C5C0003F00203002BEED1FB7D012B05D13C4B95
:101C6C00DB693B4A23F08053D3617B68DB69002B33
:101C7C0000F08780364B5B6803F00C03082B61D0B7
:101C8C007B68DB69022B46D1334B00221A60FEF7CE
:101C9C00BBFE386108E0FEF7B7FE02463B69D31A7B
:101CAC00022B01D903236DE0294B1B6803F0007351
:101CBC00002BF0D17B681B6AB3F5803F08D1244B15
:101CCC005B6823F400327B689B68214913434B60AB
:101CDC001F4B5B6823F474127B68196A7B685B6A20
:101CEC000B431B4913434B601B4B01221A60FEF73D
:101CFC008BFE386108E0FEF787FE02463B69D31A7B
:101D0C00022B01D903233DE0114B1B6803F0007338
:101D1C00002BF0D035E0104B00221A60FEF774FE59
:101D2C00386108E0FEF770FE02463B69D31A022BBD
:101D3C0001D9032326E0064B1B6803F00073002B2C
:101D4C00F0D11EE07B68DB69012B07D1012319E080
:101D5C000010024000700040600042420B4B5B6878
:101D6C00FB60FB6803F480327B681B6A9A4206D1E5
:101D7C00FB6803F470127B685B6A9A4201D0012302
:101D8C0000E0002318461837BD4680BD0010024005
:101D9C0080B584B000AF786039607B68002B01D1CE
:101DAC000123D0E06A4B1B6803F007033A689A42A0
:101DBC0010D9674B1B6823F0070265493B68134336
:101DCC000B60634B1B6803F007033A689A4201D01F
:101DDC000123B8E07B681B6803F00203002B20D0C2
:101DEC007B681B6803F00403002B05D0594B5B6820
:101DFC00584A43F4E06353607B681B6803F00803A4
:101E0C00002B05D0534B5B68524A43F4605353602C
:101E1C00504B5B6823F0F0027B689B684D49134381
:101E2C004B607B681B6803F00103002B40D07B6880
:101E3C005B68012B07D1474B1B6803F40033002B65
:101E4C0015D101237FE07B685B68022B07D1414BE6
:101E5C001B6803F00073002B09D1012373E03D4B89
:101E6C001B6803F00203002B01D101236BE0394BFB
:101E7C005B6823F003027B685B68364913434B6055
:101E8C00FEF7C2FDF8600AE0FEF7BEFD0246FB68F5
:101E9C00D31A41F28832934201D9032353E02D4BDC
:101EAC005B6803F00C027B685B689B009A42EBD189
:101EBC00274B1B6803F007033A689A4210D2244B55
:101ECC001B6823F0070222493B6813430B60204B2D
:101EDC001B6803F007033A689A4201D0012332E0F1
:101EEC007B681B6803F00403002B08D0194B5B685C
:101EFC0023F4E0627B68DB68164913434B607B6814
:101F0C001B6803F00803002B09D0124B5B6823F409
:101F1C0060527B681B69DB000E4913434B6000F079
:101F2C0021F802460B4B5B681B0903F00F030A49AF
:101F3C00CB5C22FA03F3094A1360094B1B68184661
:101F4C00FEF720FD002318461037BD4680BD00BFAC
:101F5C000020024000100240503000080800002011
:101F6C000C00002080B487B000AF0023FB6000237E
:101F7C00BB6000237B6100237B6000233B611E4B15
:101F8C005B68FB60FB6803F00C03042B02D0082B8E
:101F9C0003D027E0194B3B6127E0FB689B0C03F057
:101FAC000F03174AD35C7B60FB6803F48033002B70
:101FBC0010D0114B5B685B0C03F00103114AD35C2E
:101FCC00BB607B680D4A03FB02F2BB68B2FBF3F308
:101FDC007B6104E07B680C4A02FB03F37B617B6949
:101FEC003B6102E0054B3B6100BF3B6918461C3767
:101FFC00BD4680BC704700BF0010024000127A0042
:10200C00683000087830000800093D0080B400AF4B
:10201C00024B1B681846BD4680BC70470800002068
:10202C0080B500AFFFF7F2FF0246054B5B681B0A59
:10203C0003F007030349CB5C22FA03F3184680BD77
:10204C00001002406030000880B500AFFFF7DEFFE3
:10205C000246054B5B68DB0A03F007030349CB5CC4
:10206C0022FA03F3184680BD0010024060300008CD
:10207C0080B485B000AF78600A4B1B680A4AA2FB9B
:10208C0003235B0A7A6802FB03F3FB6000BFFB6867
:10209C005A1EFA60002BF9D100BF00BF1437BD46A1
:1020AC0080BC704708000020D34D621080B582B010
:1020BC0000AF78607B68002B01D1012342E07B6884
:1020CC0093F84130DBB2002B06D17B68002283F8F9
:1020DC0040207868FEF79CFB7B68242283F8412023
:1020EC007B681B68DA687B681B6822F40052DA6034
:1020FC00786800F02BF87B681B681A697B681B6892
:10210C0022F490421A617B681B685A697B681B68D1
:10211C0022F02A025A617B681B68DA687B681B68AC
:10212C0042F40052DA607B6800225A647B682022F9
:10213C0083F841207B68202283F842207B680022B0
:10214C005A63002318460837BD4680BD80B584B05D
:10215C0000AF78607B681B681B6923F440517B6877
:10216C00DA687B681B680A431A617B689A687B682B
:10217C001B691A437B685B691343BB607B681B68F4
:10218C00DB6823F4B05323F00C037A681268B96847
:10219C000B43D3607B681B685B6923F440717B68DD
:1021AC009A697B681B680A435A617B681B682C4AD6
:1021BC00934203D1FFF748FFF86002E0FFF730FFCE
:1021CC00F860FA6813469B0013449A001A447B6823
:1021DC005B689B00B2FBF3F3224AA2FB03235B096F
:1021EC001901FA6813469B0013449A001A447B6841
:1021FC005B689B00B2FBF3F21A4BA3FB02035B0977
:10220C00642000FB03F3D31A1B013233154AA2FBE3
:10221C0003235B0903F0F0031944FA6813469B008F
:10222C0013449A001A447B685B689B00B2FBF3F280
:10223C000C4BA3FB02035B09642000FB03F3D31AD2
:10224C001B013233074AA2FB03235B0903F00F0285
:10225C007B681B680A449A6000BF1037BD4680BD7E
:10226C00003801401F85EB5103460244934200D1D4
:10227C00704703F8011BF9E770B500260C4D0D4CA7
:10228C00641BA410A64209D100F01AF800260A4DCE
:10229C000A4C641BA410A64205D170BD55F8043B32
:1022AC0098470136EEE755F8043B98470136F2E7BC
:1022BC007C3000087C3000087C300008803000083E
:1022CC00F8B500BFF8BC08BC9E467047F8B500BF17
:0822DC00F8BC08BC9E467047E7
:1022E40048656C6C6F000000576F726C64000000EE
:1022F40000000000000000000000000000000000DA
:1023040000000000000000000000000000000000C9
:10231400000000000000000C000C000C000C000C7D
:10232400000C000C000C000C000C000C0000000C55
:10233400000C0000000000000000001B001B001B3C
:10234400001B001B00000000000000000000000053
:1023540000000000000000000000000000008019E0
:10236400801980198019C07FC07F80190033C07F15
:10237400C07F00330033003300330000000000004E
:102384000000001E003F807580650074003C001E44
:1023940000078005806580658075003F001E00048D
:1023A400000400000000007000D840D8C0D880D9D4
:1023B40000730006000C801BC036C066C046C00611
:1023C40080030000000000000000001E003F0033F6
:1023D40000330033001E000CC03CC0668063806183
:1023E4008063C03E801C0000000000000000000C60
:1023F400000C000C000C000C0000000000000000A9
:1024040000000000000000000000000000000000C8
:10241400800000010003000600060004000C000C0C
:10242400000C000C000C000C000400060006000365
:1024340000018000002000100018000C000C0004B3
:102444000006000600060006000600060004000C54
:10245400000C0018001000200000000C002D003FAC
:10246400001E003300000000000000000000000017
:102474000000000000000000000000000000000058
:102484000000000C000C000C000CC0FFC0FF000C8E
:10249400000C000C000C0000000000000000000014
:1024A4000000000000000000000000000000000028
:1024B40000000000000000000000000C000C0004FC
:1024C40000040008000000000000000000000000FC
:1024D400000000000000001E001E000000000000BC
:1024E40000000000000000000000000000000000E8
:1024F40000000000000000000000000000000000D8
:102504000000000C000C00000000000000000003AC
:10251400000300030006000600060006000C000C81
:10252400000C000C00180018001800000000000047
:102534000000001E003F0033806180618061806D77
:10254400806D8061806180610033003F001E000067
:102554000000000000000006000E001E00360026E9
:102564000006000600060006000600060006000637
:1025740000060000000000000000001E003F807301
:1025840080618061800100030006000C00180030A7
:102594000060807F807F0000000000000000001CBD
:1025A400003E006300630003000E000E0003800180
:1025B400800180618073003F001E00000000000065
:1025C40000000006000E000E001E001E001600365D
:1025D40000360066807F807F00060006000600004B
:1025E400000000000000007F007F006000600060C9
:1025F400006E007F80638001800180618073003FF2
:10260400001E0000000000000000001E003F803398
:1026140080610060006E007F8073806180618061F2
:102624008033003F001E0000000000000000807F97
:10263400807F80010003000300060006000C000CEC
:10264400000C00080018001800180000000000002A
:102654000000001E003F8063806180610021001E35
:10266400003F8061806180618061003F001E000046
:10267400000000000000001E003F007380618061C4
:1026840080618073803F801D800180610073003F02
:10269400001E000000000000000000000000000018
:1026A4000000000C000C000000000000000000000E
:1026B4000000000C000C00000000000000000000FE
:1026C4000000000000000000000C000C00000000EE
:1026D400000000000000000C000C000400040008CE
:1026E400000000000000000080008003000E00389D
:1026F40000600038000E800380000000000000002D
:102704000000000000000000000000000000807FC6
:10271400807F00000000807F807F000000000000B8
:1027240000000000000000000000000000000000A5
:1027340000400070001C000780010007001C0070AE
:102744000040000000000000000000000000001F26
:10275400803FC071C060C000C00180030007000E4C
:10276400000C000C0000000C000C00000000000035
:102774000000001E003F803180718063806F806D97
:10278400806D806F806700600032003E001C000096
:10279400000000000000000E000E001B001B001BC8
:1027A400001B80318031803F803F8031C060C06039
:1027B400C0600000000000000000007C007E006398
:1027C400006300630063007E007E006380618061BB
:1027D4008063007F007E0000000000000000001EF7
:1027E400003F803180610060006000600060006034
:1027F400006080618031003F001E00000000000086
:102804000000007C007F00638063806180618061E0
:1028140080618061806100630063007E007C000051
:10282400000000000000807F807F00600060006086
:102834000060007F007F0060006000600060807FB7
:10284400807F0000000000000000807F807F006027
:10285400006000600060007F007F00600060006036
:102864000060006000600000000000000000001E26
:10287400003F80318061006000600060806380639D
:10288400806180618031803F001E000000000000F4
:102894000000806180618061806180618061807FEF
:1028A400807F8061806180618061806180610000DF
:1028B400000000000000003F003F000C000C000C72
:1028C400000C000C000C000C000C000C000C003F71
:1028D400003F000000000000000080018001800132
:1028E400800180018001800180018001806180611C
:1028F4008073003F001E0000000000000000C06064
:102904008061006300660066006C0078007C0066ED
:102914000066006380618061C06000000000000008
:102924000000006000600060006000600060006003
:1029340000600060006000600060807F807F0000B5
:10294400000000000000C071C071C07BC07AC06A82
:10295400C06AC06EC064C060C060C060C060C06057
:10296400C060000000000000000080718071807968
:1029740080798079806D806D806D806580678067E7
:102984008067806380630000000000000000001E78
:10299400003F00338061806180618061806180617B
:1029A400806180610033003F001E000000000000D1
:1029B4000000007E007F80638061806180618063AD
:1029C400007F007E00600060006000600060000026
:1029D400000000000000001E003F003380618061A1
:1029E4008061806180618061806580670033803FA1
:1029F400401E0000000000000000007E007F806395
:102A0400806180618063007F007E006600630063F4
:102A140080618061C0600000000000000000000EC2
:102A2400001F8031803100300038001E0007800311
:102A3400806180618031003F001E000000000000C2
:102A44000000C0FFC0FF000C000C000C000C000CC8
:102A5400000C000C000C000C000C000C000C00001E
:102A640000000000000080618061806180618061FD
:102A74008061806180618061806180618073003FDA
:102A8400001E0000000000000000C060C060C060C4
:102A9400803180318031001B001B001B001B000EA5
:102AA400000E000E00040000000000000000C0C082
:102AB400C0C0C0C0C0C0C0C0C0CC804C804C805E10
:102AC40080528052807380618061000000000000A9
:102AD4000000C0C0806080610033003B001E000C19
:102AE400000C001E001F003B80718061C0C000000C
:102AF400000000000000C0C080618061003300332A
:102B0400001E001E000C000C000C000C000C000C3D
:102B1400000C0000000000000000803F803F8001A6
:102B2400000300030006000C000C0018001800301D
:102B34000060807F807F000000000000000F000F15
:102B4400000C000C000C000C000C000C000C000C21
:102B5400000C000C000C000C000C000C000F000F0B
:102B64000000001800180018000C000C000C000CE9
:102B74000006000600060006000300030003000030
:102B840000000000001E001E0006000600060006ED
:102B94000006000600060006000600060006000601
:102BA40000060006001E001E0000000C000C001EA3
:102BB40000120033003380618061000000000000D7
:102BC4000000000000000000000000000000000001
:102BD40000000000000000000000000000000000F1
:102BE400000000000000000000000000E0FF000002
:102BF400000000380018000C000000000000000075
:102C040000000000000000000000000000000000C0
:102C14000000000000000000000000000000001F91
:102C2400803F80618001801F803F80618063807F5E
:102C3400C038000000000000000000600060006078
:102C44000060006E007F80738061806180618061BC
:102C54008073007F006E0000000000000000000090
:102C6400000000000000001E003F807380610060CF
:102C7400006080618073003F001E000000000000BF
:102C840000008001800180018001801D803F8073ED
:102C940080618061806180618073803F801D00005D
:102CA4000000000000000000000000000000001E02
:102CB400003F00738061807F807F00608071003FEF
:102CC400001E0000000000000000C007C00F000C40
:102CD400000C807F807F000C000C000C000C000CAA
:102CE400000C000C000C00000000000000000000BC
:102CF40000000000801D803F8073806180618061DE
:102D040080618073803F801D80018063007F003E6E
:102D140000000060006000600060006F807F8071D0
:102D24008061806180618061806180618061000078
:102D34000000000000000006000600000000003E45
:102D4400003E000600060006000600060006000617
:102D5400000600000000000000060006000000005D
:102D6400003E003E000600060006000600060006BF
:102D74000006000600060046007E003C00000060DD
:102D8400006000600060806100630066006C007C8D
:102D94000076006300638061C060000000000000F2
:102DA4000000003E003E0006000600060006000685
:102DB40000060006000600060006000600060000E5
:102DC400000000000000000000000000000080DDA2
:102DD400C0FFC0CEC0CCC0CCC0CCC0CCC0CCC0CC5A
:102DE400C0CC000000000000000000000000000053
:102DF4000000006F807F80718061806180618061EC
:102E0400806180618061000000000000000000001B
:102E1400000000000000001E003F8073806180619C
:102E2400806180618073003F001E0000000000008C
:102E34000000000000000000006E007F80738061CD
:102E44008061806180618073007F006E006000603B
:102E5400006000600000000000000000801D803F52
:102E6400807380618061806180618073803F801D98
:102E7400800180018001800100000000000000004A
:102E840000000067803F003900300030003000301F
:102E9400003000300030000000000000000000009E
:102EA400000000000000001E803F80610060007F81
:102EB400803F80018061007F001E00000000000050
:102EC40000000000000800180018007F007F0018B0
:102ED40000180018001800180018801F800F000048
:102EE40000000000000000000000000000008061FD
:102EF4008061806180618061806180618063807FA6
:102F0400803D000000000000000000000000000000
:102F14000000C060803180318031001B001B001B29
:102F2400000E000E0006000000000000000000007B
:102F340000000000000080DD80DD80DD00550055CC
:102F440000550077007700220022000000000000F6
:102F54000000000000000000000080610033003326
:102F6400001E000C000C001E0033003380610000C2
:102F7400000000000000000000000000806180618B
:102F8400803100330033001B001B001B000E000EB9
:102F9400000E001C007C0070000000000000000017
:102FA4000000C07FC07F800100030006000C0018F1
:102FB4000030C07FC07F0000000000008003800755
:102FC40000060006000600060006000E001C001C99
:102FD400000E0006000600060006000680078003B7
:102FE40000060006000600060006000600060006AD
:102FF400000600060006000600060006000600069D
:10300400000600060038003C000C000C000C000C0C
:10301400000C000E00070007000E000C000C000C52
:10302400000C000C003C0038000000000000000010
:103034000000000000008038807F0047000000008E
:10304400000000000000000000000000000000007C
:103054000000000001020304060708090000000044
:103064000102030402030405060708090A0B0C0DF8
:083074000E0F10100102000014
:04307C003101000816
:043080000D01000836
:103084000B120000F422000800127A001000000065
:043094000100000037
:0400000508000919CD
:00000001FF
