:020000040800F2
:1000000000500020050D0008550B00085D0B00088E
:10001000650B00086D0B0008750B00080000000060
:100020000000000000000000000000007D0B000840
:10003000890B000800000000950B0008A10B0008C8
:100040004D0D00084D0D00084D0D00084D0D000828
:100050004D0D00084D0D00084D0D00084D0D000818
:100060004D0D00084D0D00084D0D00084D0D000808
:100070004D0D00084D0D00084D0D00084D0D0008F8
:100080004D0D00084D0D00084D0D00084D0D0008E8
:100090004D0D00084D0D00084D0D0008AD0B00087A
:1000A0004D0D00084D0D00084D0D00084D0D0008C8
:1000B0004D0D00084D0D00084D0D00084D0D0008B8
:1000C0004D0D00084D0D00084D0D00084D0D0008A8
:1000D0004D0D00084D0D00084D0D00084D0D000898
:1000E0004D0D00084D0D00084D0D000800000000EA
:1000F0000000000000000000000000000000000000
:0C01000000000000000000005FF808F1A3
:10010C0010B5054C237833B9044B13B10448AFF345
:10011C0000800123237010BD70000020000000003F
:10012C00503B000808B5034B1BB103490348AFF320
:10013C00008008BD0000000074000020503B000847
:10014C0080B582B000AF7860391D4FF6FF73012285
:10015C00064802F04EFB0346002B02D04FF0FF3353
:10016C0000E07B6818460837BD4680BDE4000020DF
:10017C0080B582B000AF0346FB80FB88802B01D199
:10018C0000F010FA00BF0837BD4680BD80B582B0C4
:10019C0000AF00F0D7FD00F041F800F0DBF800F004
:1001AC0079F800F0ADF8194802F02AFE002140F66B
:1001BC00C41000F0C1F9164802F0B2FD00237B60B8
:1001CC0015E0144A7B6813441B780133D9B2114AE9
:1001DC007B6813440A461A707B68013B0D4AD35C5A
:1001EC0019460D4802F09CFD7B6801337B607B68EF
:1001FC00072BE6DD0A2002F0A5FD064800F0C7F942
:10020C004FF4FA7000F000FED5E700BF683B000821
:10021C00703B000800000020743B000880B590B0D3
:10022C0000AF07F1180328220021184602F0C8FE7F
:10023C003B1D00221A605A609A60DA601A61022330
:10024C00BB610123BB621023FB6200237B6307F1BC
:10025C001803184601F0D8F80346002B01D000F023
:10026C00E1F80F237B600023BB600023FB600023BD
:10027C003B6100237B613B1D0021184601F046FBCE
:10028C000346002B01D000F0CDF800BF4037BD462F
:10029C0080BD000080B500AF174B184A1A60164B92
:1002AC004FF482725A60144B00229A60124B002257
:1002BC00DA60114B00221A610F4B00225A610E4B6F
:1002CC004FF400729A610C4B0022DA610A4B002247
:1002DC001A62094B00225A62074B00229A62064BA3
:1002EC000A22DA62044801F09FFC0346002B01D07D
:1002FC0000F098F800BF80BD8C0000200030014059
:10030C0080B500AF114B124A1A60104B4FF4E1321A
:10031C005A600E4B00229A600C4B0022DA600B4B99
:10032C0000221A61094B0C225A61084B00229A6177
:10033C00064B0022DA61054802F00BFA0346002B4B
:10034C0001D000F06FF800BF80BD00BFE4000020BA
:10035C000038014080B588B000AF07F110030022CF
:10036C001A605A609A60DA602B4B9B692A4A43F0F8
:10037C0020039361284B9B6903F02003FB60FB680F
:10038C00254B9B69244A43F004039361224B9B69E0
:10039C0003F00403BB60BB681F4B9B691E4A43F010
:1003AC00080393611C4B9B6903F008037B607B681B
:1003BC0001224FF48071194800F0DCFF00224FF449
:1003CC000071164800F0D6FF80233B61144B7B6113
:1003DC000023BB6107F110031946104800F046FEDC
:1003EC004FF440733B6101237B610023BB6102230B
:1003FC00FB6107F110031946084800F037FE002294
:10040C000021172000F0FBFD172000F014FE00BFA8
:10041C002037BD4680BD00BF00100240000C0140DB
:10042C000000111080B400AF72B600BF00BFFDE732
:10043C0080B500AF01224FF48071024800F09AFFA2
:10044C0000BF80BD000C014080B500AF00224FF40E
:10045C008071024800F08EFF00BF80BD000C01408F
:10046C0080B500AF01224FF40071024800F082FF0A
:10047C0000BF80BD000C014080B500AF00224FF4DE
:10048C000071024800F076FF00BF80BD000C0140F7
:10049C0080B586B002AF0346FB71FB79FB73FFF7A7
:1004AC00D3FF07F10E0207F10F014FF4FA6300932B
:1004BC000123094801F099FE07F10D014FF4FA638D
:1004CC000122054801F078FDFFF7B2FF7B7B18464F
:1004DC001037BD4680BD00BF8C00002080B586B0B3
:1004EC0002AF03460A46FB711346BB71FB7943F01E
:1004FC002003DBB2FB73BB797B73FFF7A5FF07F11E
:10050C000E0207F10F014FF4FA630093012309481F
:10051C0001F06BFE07F10D014FF4FA63012205485F
:10052C0001F006FCFFF784FF7B7B18461037BD46B5
:10053C0080BD00BF8C00002080B582B000AF0346A8
:10054C000A46FB8013467B7100F050F800F0A2F8CD
:10055C0000F04CF9FB88184600F0D4F97B7918466A
:10056C0000F000FA032000F0E0F9012000F053F94C
:10057C00052000F073F9032000F080F9FA2000F058
:10058C0099F9FFF76DFF00BF0837BD4680BD80B5F8
:10059C0082B000AF7860786800F092F800BF08373E
:1005AC00BD4680BD80B582B000AF00F0DDF80346DB
:1005BC00FB71FB7903F02003FB71FB79002B07D057
:1005CC004FF40051084800F0EDFE00F0E7F807E0AA
:1005DC0001224FF40051044800F0CCFE00F0F2F878
:1005EC0000BF0837BD4680BD0010014080B500AF8C
:1005FC00FFF71EFFFFF740FF08210020FFF76EFFFB
:10060C003F210120FFF76AFF03210220FFF766FF5D
:10061C0003210320FFF762FF03210420FFF75EFF95
:10062C0002210520FFF75AFF07210620FFF756FF8E
:10063C007E210720FFF752FF00211120FFF74EFF0C
:10064C0000211120FFF74AFF00211220FFF746FF7F
:10065C0000211320FFF742FF00211420FFF73EFF7B
:10066C0000211520FFF73AFF00211620FFF736FF77
:10067C0011211720FFF732FF00211C20FFF72EFF5E
:10068C0000211D20FFF72AFF00F03EF800F054F87F
:10069C0000BF80BD80B582B000AF0020FFF7F8FE30
:1006AC000346FB71FB7923F00103FB71FB791946BF
:1006BC000020FFF713FF00BF0837BD4680BD0000C8
:1006CC0080B586B002AF7860A023FB73FFF7BCFE49
:1006DC0007F10E0207F10F014FF4FA6300930123A7
:1006EC00084801F082FD4FF4FA6308227968054846
:1006FC0001F01EFBFFF79CFEBB7B18461037BD4676
:10070C0080BD00BF8C00002080B584B002AFE22316
:10071C00FB71FFF799FEBA1DF91D4FF4FA630093B4
:10072C000123044801F061FDFFF782FE00BF08378A
:10073C00BD4680BD8C00002080B584B002AFE123A3
:10074C00FB71FFF781FEBA1DF91D4FF4FA6300939C
:10075C000123044801F049FDFFF76AFE00BF08378A
:10076C00BD4680BD8C00002080B584B002AFFF2355
:10077C00FB71FFF769FEBA1DF91D4FF4FA63009384
:10078C000123054801F031FDFFF752FEBB791846F5
:10079C000837BD4680BD00BF8C00002080B582B0FC
:1007AC0000AFFFF7E1FF0346FB71FB7943F0200339
:1007BC00FB71FB7919460720FFF790FE00BF083745
:1007CC00BD4680BD80B582B000AFFFF7CDFF0346BC
:1007DC00FB71FB7943F01003FB71FB791946072081
:1007EC00FFF77CFE00BF0837BD4680BD80B582B0E8
:1007FC0000AF0020FFF74CFE0346FB71FB7943F082
:10080C000203FB71FB7919460020FFF767FE00BF5E
:10081C000837BD4680BD80B584B000AF0346FB7180
:10082C000020FFF735FE0346FB73FB79012B02D04A
:10083C00022B05D009E0FB7B23F00403FB7304E0DF
:10084C00FB7B43F00403FB7300BFFB7B19460020CA
:10085C00FFF744FE00BF1037BD4680BD80B582B0A7
:10086C0000AF0346FB71FB79023BDBB21946032058
:10087C00FFF734FE00BF0837BD4680BD80B584B09D
:10088C0000AF0346FB710420FFF702FE0346FB7327
:10089C00FB7B63F00F03FB73FA7BFB791343FB7356
:1008AC00FB7B19460420FFF719FE00BF1037BD462D
:1008BC0080BD000080B584B000AF0346FB800420EF
:1008CC00FFF7E6FD0346FB73FB7B43F00F03FB7363
:1008DC00FB880B4AA2FB03231B099BB2013B1B01A8
:1008EC005AB297F90F3013435BB2FB73FB7B19467B
:1008FC000420FFF7F3FD00BF1037BD4680BD00BFDD
:10090C00D34D621080B584B000AF0346FB80FB88EA
:10091C00A3F51663FB81FB89DBB219460520FFF7B3
:10092C00DDFD00BF1037BD4680BD80B584B000AF83
:10093C000346FB710620FFF7ABFD034623F00603CD
:10094C00FB73FB795B005AB297F90F3013435BB220
:10095C00FB73FB7B19460620FFF7C0FD00BF103769
:10096C00BD4680BD80B584B000AF0346FB71062048
:10097C00FFF78EFD034623F02803FB73FB79022B54
:10098C000AD0022B0EDC002B0BD0012B0AD1FB7BE7
:10099C0043F00803FB7305E0FB7B43F02003FB7380
:1009AC0000E000BFFB7B19460620FFF797FD00BF58
:1009BC001037BD4680BD000080B485B000AF154B2C
:1009CC009B69144A43F001039361124B9B6903F03A
:1009DC000103BB60BB680F4BDB690E4A43F08053CD
:1009EC00D3610C4BDB6903F080537B607B680A4B53
:1009FC005B68FB60FB6823F0E063FB60FB6843F023
:100A0C000073FB60044AFB68536000BF1437BD469B
:100A1C0080BC7047001002400000014080B588B0D7
:100A2C0000AF786007F1100300221A605A609A60D8
:100A3C00DA607B681B681B4A93422FD11A4B9B6967
:100A4C00194A43F480539361174B9B6903F4805309
:100A5C00FB60FB68144B9B69134A43F004039361DE
:100A6C00114B9B6903F00403BB60BB68A0233B6183
:100A7C0002237B610323FB6107F1100319460B482A
:100A8C0000F0F4FA40233B6100237B610023BB613F
:100A9C0007F110031946054800F0E8FA00BF2037AB
:100AAC00BD4680BD003001400010024000080140EE
:100ABC0080B588B000AF786007F1100300221A608F
:100ACC005A609A60DA607B681B681C4A934231D189
:100ADC001B4B9B691A4A43F480439361184B9B69E7
:100AEC0003F48043FB60FB68154B9B69144A43F08D
:100AFC0004039361124B9B6903F00403BB60BB6856
:100B0C004FF400733B6102237B610323FB6107F10C
:100B1C00100319460B4800F0A9FA4FF480633B61AF
:100B2C0000237B610023BB6107F1100319460548C4
:100B3C0000F09CFA00BF2037BD4680BD0038014054
:100B4C00001002400008014080B400AF00BFFDE778
:100B5C0080B400AF00BFFDE780B400AF00BFFDE77D
:100B6C0080B400AF00BFFDE780B400AF00BFFDE76D
:100B7C0080B400AF00BFBD4680BC704780B400AFEE
:100B8C0000BFBD4680BC704780B400AF00BFBD46FF
:100B9C0080BC704780B500AF00F01AF900BF80BD73
:100BAC0080B500AF802000F017FC00BF80BD80B581
:100BBC0086B000AFF860B9607A6000237B610AE010
:100BCC00AFF300800146BB685A1CBA60CAB21A70F7
:100BDC007B6901337B617A697B689A42F0DB7B68C5
:100BEC0018461837BD4680BD80B586B000AFF8609A
:100BFC00B9607A6000237B6109E0BB685A1CBA605B
:100C0C001B781846FFF79CFA7B6901337B617A6984
:100C1C007B689A42F1DB7B6818461837BD4680BD6D
:100C2C0080B483B000AF78604FF0FF3318460C37B8
:100C3C00BD4680BC704780B483B000AF786039602B
:100C4C003B684FF400525A60002318460C37BD46DF
:100C5C0080BC704780B483B000AF78600123184625
:100C6C000C37BD4680BC704780B485B000AFF860CF
:100C7C00B9607A60002318461437BD4680BC7047B3
:100C8C0080B586B000AF7860144A154BD31A7B61DF
:100C9C007B693B61134B1B68002B02D1114B124A31
:100CAC001A60104B1A687B6813443A699A4207D24F
:100CBC0002F0D4F903460C221A604FF0FF3309E01E
:100CCC00084B1B68FB60074B1A687B681344054A8A
:100CDC001360FB6818461837BD4680BD00500020D5
:100CEC00000400002C0100208002002080B400AF22
:100CFC0000BFBD4680BC7047FFF7F8FF0B480C499E
:100D0C000C4A002302E0D458C4500433C4188C425B
:100D1C00F9D3094A094C002301E013600432A242C2
:100D2C00FBD302F0A1F9FFF731FA70470000002065
:100D3C0070000020E43B00087000002080020020BE
:100D4C00FEE7000080B500AF084B1B68074A43F074
:100D5C0010031360032000F047F90F2000F008F88F
:100D6C00FFF72AFE0023184680BD00BF002002407A
:100D7C0080B582B000AF7860124B1A68124B1B78AA
:100D8C0019464FF47A73B3FBF1F3B2FBF3F3184645
:100D9C0000F05FF90346002B01D001230EE07B68C5
:100DAC000F2B0AD8002279684FF0FF3000F027F99A
:100DBC00064A7B681360002300E0012318460837BD
:100DCC00BD4680BD08000020100000200C00002053
:100DDC0080B400AF054B1B781A46054B1B681344B7
:100DEC00034A136000BFBD4680BC70471000002052
:100DFC003001002080B400AF024B1B681846BD4682
:100E0C0080BC70473001002080B584B000AF7860A2
:100E1C00FFF7F0FFB8607B68FB60FB68B3F1FF3F46
:100E2C0005D00A4B1B781A46FB681344FB6000BFC5
:100E3C00FFF7E0FF0246BB68D31AFA689A42F7D86C
:100E4C0000BF00BF1037BD4680BD00BF10000020A2
:100E5C0080B485B000AF78607B6803F00703FB605B
:100E6C000C4BDB68BB60BA684FF6FF031340BB60EA
:100E7C00FB681A02BB68134343F0BF6343F40033AF
:100E8C00BB60044ABB68D36000BF1437BD4680BC4E
:100E9C00704700BF00ED00E080B400AF044BDB688E
:100EAC001B0A03F007031846BD4680BC704700BF01
:100EBC0000ED00E080B483B000AF0346FB7197F9FE
:100ECC000730002B0BDBFB7903F01F02064997F967
:100EDC0007305B09012000FA02F241F8232000BF21
:100EEC000C37BD4680BC704700E100E080B483B095
:100EFC0000AF03463960FB7197F90730002B0ADB12
:100F0C003B68DAB20C4997F907301201D2B20B44A4
:100F1C0083F800230AE03B68DAB20849FB7903F056
:100F2C000F03043B1201D2B20B441A7600BF0C37EC
:100F3C00BD4680BC704700BF00E100E000ED00E062
:100F4C0080B489B000AFF860B9607A60FB6803F0D8
:100F5C000703FB61FB69C3F10703042B28BF0423C0
:100F6C00BB61FB690433062B02D9FB69033B00E030
:100F7C0000237B614FF0FF32BB6902FA03F3DA43C3
:100F8C00BB681A407B699A404FF0FF317B6901FACC
:100F9C0003F3D9437B680B40134318462437BD46F3
:100FAC0080BC704780B582B000AF78607B68013B35
:100FBC00B3F1807F01D301230FE00A4A7B68013B28
:100FCC0053600F214FF0FF30FFF790FF054B0022CD
:100FDC009A60044B07221A60002318460837BD4656
:100FEC0080BD00BF10E000E080B582B000AF78603B
:100FFC007868FFF72DFF00BF0837BD4680BD80B570
:10100C0086B000AF0346B9607A60FB7300237B6146
:10101C00FFF742FF78617A68B9687869FFF790FF4B
:10102C00024697F90F3011461846FFF75FFF00BFD5
:10103C001837BD4680BD80B582B000AF0346FB714A
:10104C0097F907301846FFF735FF00BF0837BD4644
:10105C0080BD80B582B000AF78607868FFF7A2FFE2
:10106C00034618460837BD4680BD000080B48BB0DF
:10107C0000AF7860396000237B6200233B6269E13A
:10108C0001227B6A02FA03F3FB613B681B68FA6975
:10109C001340BB61BA69FB699A4240F058813B68C6
:1010AC005B689A4A93425ED0984A934275D8984AA4
:1010BC00934258D0964A93426FD8964A934252D054
:1010CC00944A934269D8944A93424CD0924A9342A0
:1010DC0063D8924A934246D0904A93425DD8122BE1
:1010EC002AD8122B59D801A252F823F073110008F8
:1010FC004D1100085F110008A1110008A71100088C
:10110C00A7110008A7110008A7110008A7110008D3
:10111C00A7110008A7110008A7110008A7110008C3
:10112C00A7110008A7110008A7110008A7110008B3
:10113C005511000869110008794A934213D02CE02C
:10114C003B68DB683B6229E03B68DB6804333B624D
:10115C0024E03B68DB6808333B621FE03B68DB68DC
:10116C000C333B621AE03B689B68002B02D10423D2
:10117C003B6213E03B689B68012B05D108233B6263
:10118C007B68FA691A6109E008233B627B68FA699B
:10119C005A6103E000233B6200E000BFBB69FF2BF8
:1011AC0001D87B6801E07B6804337B61BB69FF2B52
:1011BC0002D87B6A9B0002E07B6A083B9B003B6188
:1011CC007B691A680F213B6901FA03F3DB431A4070
:1011DC00396A3B6901FA03F31A437B691A603B686D
:1011EC005B6803F08053002B00F0B1804D4B9B6982
:1011FC004C4A43F0010393614A4B9B6903F0010392
:10120C00BB60BB68484A7B6A9B08023352F82330A8
:10121C00FB607B6A03F003039B000F2202FA03F3CB
:10122C00DB43FA681340FB607B68404A934213D05F
:10123C007B683F4A93420DD07B683E4A934207D06D
:10124C007B683D4A934201D1032306E0042304E06A
:10125C00022302E0012300E000237A6A02F0030279
:10126C0092009340FA681343FB602F497B6A9B08FA
:10127C000233FA6841F823203B685B6803F480135F
:10128C00002B06D02D4B9A682C49BB6913438B60FD
:10129C0006E02A4B9A68BB69DB43284913408B60F4
:1012AC003B685B6803F40013002B06D0234BDA6811
:1012BC002249BB691343CB6006E0204BDA68BB695B
:1012CC00DB431E491340CB603B685B6803F400337F
:1012DC00002B06D0194B5A681849BB6913434B6055
:1012EC0006E0164B5A68BB69DB43144913404B604C
:1012FC003B685B6803F48033002B21D00F4B1A68DA
:10130C000E49BB6913430B6021E000BF0000321093
:10131C0000003110000022100000211000001210FB
:10132C0000001110001002400000014000080140B4
:10133C00000C014000100140001401400004014069
:10134C000B4B1A68BB69DB43094913400B607B6A82
:10135C0001337B623B681A687B6A22FA03F3002B29
:10136C007FF48EAE00BF00BF2C37BD4680BC7047EB
:10137C000004014080B483B000AF78600B467B80E2
:10138C0013467B707B78002B03D07A887B681A61BC
:10139C0003E07B881A047B681A6100BF0C37BD46DA
:1013AC0080BC704780B485B000AF78600B467B8002
:1013BC007B68DB68FB607A88FB6813401A04FB6867
:1013CC00D9437B880B401A437B681A6100BF1437E2
:1013DC00BD4680BC7047000080B582B000AF0346AC
:1013EC00FB80084B5A69FB881340002B06D0054A3A
:1013FC00FB885361FB881846FEF7BAFE00BF08371E
:10140C00BD4680BD0004014080B586B000AF786059
:10141C007B68002B01D1012372E27B681B6803F00F
:10142C000103002B00F08780924B5B6803F00C03E8
:10143C00042B0CD08F4B5B6803F00C03082B12D1E0
:10144C008C4B5B6803F48033B3F5803F0BD1894B35
:10145C001B6803F40033002B6CD07B685B68002B9B
:10146C0068D101234CE27B685B68B3F5803F06D101
:10147C00804B1B687F4A43F4803313602EE07B68FB
:10148C005B68002B0CD17B4B1B687A4A23F48033AE
:10149C001360784B1B68774A23F4802313601DE09C
:1014AC007B685B68B3F5A02F0CD1724B1B68714A3B
:1014BC0043F4802313606F4B1B686E4A43F48033F4
:1014CC0013600BE06B4B1B686A4A23F48033136088
:1014DC00684B1B68674A23F4802313607B685B6846
:1014EC00002B13D0FFF786FC386108E0FFF782FC75
:1014FC0002463B69D31A642B01D9032300E25D4BEE
:10150C001B6803F40033002BF0D014E0FFF772FCDF
:10151C00386108E0FFF76EFC02463B69D31A642B76
:10152C0001D90323ECE1534B1B6803F40033002B6C
:10153C00F0D100E000BF7B681B6803F00203002BB6
:10154C0063D04C4B5B6803F00C03002B0BD0494B66
:10155C005B6803F00C03082B1CD1464B5B6803F44F
:10156C008033002B16D1434B1B6803F00203002B76
:10157C0005D07B681B69012B01D00123C0E13D4BD9
:10158C001B6823F0F8027B685B69DB003949134365
:10159C000B603AE07B681B69002B20D0364B012294
:1015AC001A60FFF727FC386108E0FFF723FC0246BE
:1015BC003B69D31A022B01D90323A1E12D4B1B68E4
:1015CC0003F00203002BF0D02A4B1B6823F0F80227
:1015DC007B685B69DB00274913430B6015E0264BE6
:1015EC0000221A60FFF706FC386108E0FFF702FCE6
:1015FC0002463B69D31A022B01D9032380E11D4B10
:10160C001B6803F00203002BF0D17B681B6803F00E
:10161C000803002B3AD07B689B69002B19D0174B21
:10162C0001221A60FFF7E6FB386108E0FFF7E2FBE6
:10163C0002463B69D31A022B01D9032360E10D4BFF
:10164C005B6A03F00203002BF0D0012000F0CEFA0D
:10165C001CE00A4B00221A60FFF7CCFB38610FE04C
:10166C00FFF7C8FB02463B69D31A022B08D90323A8
:10167C0046E100BF0010024000004242800442429A
:10168C00924B5B6A03F00203002BE9D17B681B6869
:10169C0003F00403002B00F0A6800023FB758B4B9A
:1016AC00DB6903F08053002B0DD1884BDB69874A33
:1016BC0043F08053D361854BDB6903F08053BB60EF
:1016CC00BB680123FB75824B1B6803F48073002BF2
:1016DC0018D17F4B1B687E4A43F480731360FFF76D
:1016EC0089FB386108E0FFF785FB02463B69D31A9A
:1016FC00642B01D9032303E1754B1B6803F480733E
:10170C00002BF0D07B68DB68012B06D16F4B1B6A7A
:10171C006E4A43F0010313622DE07B68DB68002BFB
:10172C000CD16A4B1B6A694A23F001031362674BA5
:10173C001B6A664A23F0040313621CE07B68DB68B7
:10174C00052B0CD1614B1B6A604A43F004031362F6
:10175C005E4B1B6A5D4A43F0010313620BE05B4B6B
:10176C001B6A5A4A23F001031362584B1B6A574AEF
:10177C0023F0040313627B68DB68002B15D0FFF7A2
:10178C0039FB38610AE0FFF735FB02463B69D31A97
:10179C0041F28832934201D90323B1E04B4B1B6ACF
:1017AC0003F00203002BEED014E0FFF723FB3861AB
:1017BC000AE0FFF71FFB02463B69D31A41F288325D
:1017CC00934201D903239BE0404B1B6A03F00203B5
:1017DC00002BEED1FB7D012B05D13C4BDB693B4A49
:1017EC0023F08053D3617B68DB69002B00F087808A
:1017FC00364B5B6803F00C03082B61D07B68DB690C
:10180C00022B46D1334B00221A60FFF7F3FA3861F2
:10181C0008E0FFF7EFFA02463B69D31A022B01D915
:10182C0003236DE0294B1B6803F00073002BF0D1F0
:10183C007B681B6AB3F5803F08D1244B5B6823F4AB
:10184C0000327B689B68214913434B601F4B5B68DC
:10185C0023F474127B68196A7B685B6A0B431B491F
:10186C0013434B601B4B01221A60FFF7C3FA38611C
:10187C0008E0FFF7BFFA02463B69D31A022B01D9E5
:10188C0003233DE0114B1B6803F00073002BF0D0D9
:10189C0035E0104B00221A60FFF7ACFA386108E013
:1018AC00FFF7A8FA02463B69D31A022B01D903238E
:1018BC0026E0064B1B6803F00073002BF0D11EE0F2
:1018CC007B68DB69012B07D1012319E00010024072
:1018DC0000700040600042420B4B5B68FB60FB6891
:1018EC0003F480327B681B6A9A4206D1FB6803F4CE
:1018FC0070127B685B6A9A4201D0012300E00023DE
:10190C0018461837BD4680BD0010024080B584B023
:10191C0000AF786039607B68002B01D10123D0E0E7
:10192C006A4B1B6803F007033A689A4210D9674B5D
:10193C001B6823F0070265493B6813430B60634B3C
:10194C001B6803F007033A689A4201D00123B8E000
:10195C007B681B6803F00203002B20D07B681B689C
:10196C0003F00403002B05D0594B5B68584A43F431
:10197C00E06353607B681B6803F00803002B05D001
:10198C00534B5B68524A43F460535360504B5B6853
:10199C0023F0F0027B689B684D4913434B607B68D6
:1019AC001B6803F00103002B40D07B685B68012BA4
:1019BC0007D1474B1B6803F40033002B15D10123CF
:1019CC007FE07B685B68022B07D1414B1B6803F0FF
:1019DC000073002B09D1012373E03D4B1B6803F00E
:1019EC000203002B01D101236BE0394B5B6823F020
:1019FC0003027B685B68364913434B60FFF7FAF9C7
:101A0C00F8600AE0FFF7F6F90246FB68D31A41F2D8
:101A1C008832934201D9032353E02D4B5B6803F0CA
:101A2C000C027B685B689B009A42EBD1274B1B68CE
:101A3C0003F007033A689A4210D2244B1B6823F038
:101A4C00070222493B6813430B60204B1B6803F0D1
:101A5C0007033A689A4201D0012332E07B681B6885
:101A6C0003F00403002B08D0194B5B6823F4E062ED
:101A7C007B68DB68164913434B607B681B6803F07B
:101A8C000803002B09D0124B5B6823F460527B686F
:101A9C001B69DB000E4913434B6000F021F8024632
:101AAC000B4B5B681B0903F00F030A49CB5C22FA52
:101ABC0003F3094A1360094B1B681846FFF758F9E2
:101ACC00002318461037BD4680BD00BF00200240E1
:101ADC00001002407C3B0008080000200C00002095
:101AEC0080B487B000AF0023FB600023BB600023F1
:101AFC007B6100237B6000233B611E4B5B68FB60BA
:101B0C00FB6803F00C03042B02D0082B03D027E056
:101B1C00194B3B6127E0FB689B0C03F00F03174A42
:101B2C00D35C7B60FB6803F48033002B10D0114B2B
:101B3C005B685B0C03F00103114AD35CBB607B68F0
:101B4C000D4A03FB02F2BB68B2FBF3F37B6104E0CA
:101B5C007B680C4A02FB03F37B617B693B6102E00F
:101B6C00054B3B6100BF3B6918461C37BD4680BC2A
:101B7C00704700BF0010024000127A00943B00082E
:101B8C00A43B000800093D0080B400AF024B1B6869
:101B9C001846BD4680BC70470800002080B500AFD9
:101BAC00FFF7F2FF0246054B5B681B0A03F00703C5
:101BBC000349CB5C22FA03F3184680BD00100240A7
:101BCC008C3B000880B500AFFFF7DEFF0246054BEB
:101BDC005B68DB0A03F007030349CB5C22FA03F3CF
:101BEC00184680BD001002408C3B000880B485B0C4
:101BFC0000AF78600A4B1B680A4AA2FB03235B0AFE
:101C0C007A6802FB03F3FB6000BFFB685A1EFA60A4
:101C1C00002BF9D100BF00BF1437BD4680BC704704
:101C2C0008000020D34D621080B582B000AF786000
:101C3C007B68002B01D1012376E07B685B6A002B6B
:101C4C0008D17B685B68B3F5827F09D07B68002282
:101C5C00DA6105E07B6800221A617B6800225A6118
:101C6C007B6800229A627B6893F85130DBB2002BC0
:101C7C0006D17B68002283F850207868FEF7CEFEF0
:101C8C007B68022283F851207B681B681A687B688A
:101C9C001B6822F040021A607B685B6803F4827256
:101CAC007B689B6803F404431A437B68DB6803F48A
:101CBC0000631A437B681B6903F002031A437B68B9
:101CCC005B6903F001031A437B689B6903F400739F
:101CDC001A437B68DB6903F038031A437B681B6A81
:101CEC0003F0800342EA03017B689B6A03F4005211
:101CFC007B681B680A431A607B689B691A0C7B68BB
:101D0C001B6802F004025A607B681B68DA697B6806
:101D1C001B6822F40062DA617B6800225A657B68DA
:101D2C00012283F85120002318460837BD4680BD98
:101D3C0080B588B000AFF860B9603B601346FB809B
:101D4C00FFF758F8F861FB887B83FB6893F85130F8
:101D5C00DBB2012B01D002232AE1BB68002B02D09D
:101D6C00FB88002B01D1012322E1FB6893F8503052
:101D7C00012B01D102231BE1FB68012283F85020C7
:101D8C00FB68032283F85120FB6800225A65FB682C
:101D9C00BA681A63FB68FA889A86FB68FA88DA864E
:101DAC00FB6800229A63FB6800229A87FB6800227A
:101DBC00DA87FB6800225A64FB6800221A64FB680D
:101DCC009B68B3F5004F0FD1FB681B681A68FB6862
:101DDC001B6822F040021A60FB681B681A68FB68DB
:101DEC001B6842F480421A60FB681B681B6803F096
:101DFC004003402B07D0FB681B681A68FB681B6804
:101E0C0042F040021A60FB68DB68B3F5006F52D1F8
:101E1C00FB685B68002B02D07B8B012B45D1FB68E8
:101E2C001B6B1A88FB681B68DA60FB681B6B9A1CBF
:101E3C00FB681A63FB68DB8E9BB2013B9AB2FB68B2
:101E4C00DA8632E0FB681B689B6803F00203022B06
:101E5C0012D1FB681B6B1A88FB681B68DA60FB6885
:101E6C001B6B9A1CFB681A63FB68DB8E9BB2013BF5
:101E7C009AB2FB68DA8618E0FEF7BCFF0246FB69F3
:101E8C00D31A3A689A4203D83B68B3F1FF3F02D1A8
:101E9C003B68002B09D1FB68012283F85120FB68B9
:101EAC00002283F85020032382E0FB68DB8E9BB278
:101EBC00002BC7D153E0FB685B68002B02D07B8BF7
:101ECC00012B47D1FB681A6BFB681B680C3312782B
:101EDC001A70FB681B6B5A1CFB681A63FB68DB8E61
:101EEC009BB2013B9AB2FB68DA8633E0FB681B6855
:101EFC009B6803F00203022B13D1FB681A6BFB687F
:101F0C001B680C3312781A70FB681B6B5A1CFB682D
:101F1C001A63FB68DB8E9BB2013B9AB2FB68DA86D4
:101F2C0018E0FEF767FF0246FB69D31A3A689A423B
:101F3C0003D83B68B3F1FF3F02D13B68002B09D1BA
:101F4C00FB68012283F85120FB68002283F85020A3
:101F5C0003232DE0FB68DB8E9BB2002BC6D1FA6904
:101F6C003968F86800F0C4FB0346002B02D0FB680C
:101F7C0020225A65FB689B68002B0AD100237B61E9
:101F8C00FB681B68DB687B61FB681B689B687B617B
:101F9C007B69FB68012283F85120FB68002283F8DF
:101FAC005020FB685B6D002B01D0012300E0002367
:101FBC0018462037BD4680BD80B588B002AFF860AA
:101FCC00B9603B601346FB80FB6893F85130DBB281
:101FDC00012B01D0022304E1FB685B68B3F5827F1F
:101FEC0012D1FB689B68002B0ED1FB68042283F88E
:101FFC005120FA883B6800931346BA68B968F868B0
:10200C0000F0F3F80346ECE0FEF7F4FE7861BB68F1
:10201C00002B02D0FB88002B01D10123E1E0FB68EF
:10202C0093F85030012B01D10223DAE0FB68012236
:10203C0083F85020FB68042283F85120FB680022AF
:10204C005A65FB68BA689A63FB68FA889A87FB68DA
:10205C00FA88DA87FB6800221A63FB6800229A86EA
:10206C00FB680022DA86FB6800221A64FB680022F7
:10207C005A64FB689B68B3F5004F0FD1FB681B6873
:10208C001A68FB681B6822F040021A60FB681B6828
:10209C001A68FB681B6822F480421A60FB681B6894
:1020AC001B6803F04003402B07D0FB681B681A68C1
:1020BC00FB681B6842F040021A60FB68DB68002B6F
:1020CC0070D135E0FB681B689B6803F00103012BA2
:1020DC0015D1FB681B6803F10C02FB689B6B127833
:1020EC00D2B21A70FB689B6B5A1CFB689A63FB6834
:1020FC00DB8F9BB2013B9AB2FB68DA8718E0FEF7E4
:10210C0079FE02467B69D31A3A689A4203D83B6837
:10211C00B3F1FF3F02D13B68002B09D1FB680122D0
:10212C0083F85120FB68002283F85020032358E0E9
:10213C00FB68DB8F9BB2002BC4D138E0FB681B68BB
:10214C009B6803F00103012B13D1FB681B68DA6851
:10215C00FB689B6B92B21A80FB689B6B9A1CFB68AA
:10216C009A63FB68DB8F9BB2013B9AB2FB68DA8700
:10217C0018E0FEF73FFE02467B69D31A3A689A4292
:10218C0003D83B68B3F1FF3F02D13B68002B09D168
:10219C00FB68012283F85120FB68002283F8502051
:1021AC0003231EE0FB68DB8F9BB2002BC6D17A6940
:1021BC003968F86800F04AFA0346002B02D0FB6835
:1021CC0020225A65FB68012283F85120FB6800220B
:1021DC0083F85020FB685B6D002B01D0012300E0DD
:1021EC00002318461837BD4680BD80B58AB000AFB5
:1021FC00F860B9607A607B8001237B62FEF7FAFDA0
:10220C003862FB6893F85130FB77FB685B68BB6105
:10221C007B88FB82FB7F012B0CD0BB69B3F5827FE3
:10222C0006D1FB689B68002B02D1FB7F042B01D0ED
:10223C0002237FE1BB68002B05D07B68002B02D00A
:10224C007B88002B01D1012374E1FB6893F850309B
:10225C00012B01D102236DE1FB68012283F8502090
:10226C00FB6893F85130DBB2042B03D0FB680522DA
:10227C0083F85120FB6800225A65FB687A689A63E0
:10228C00FB687A88DA87FB687A889A87FB68BA6871
:10229C001A63FB687A88DA86FB687A889A86FB6808
:1022AC0000221A64FB6800225A64FB681B681B68D6
:1022BC0003F04003402B07D0FB681B681A68FB68CF
:1022CC001B6842F040021A60FB68DB68B3F5006FD4
:1022DC007ED1FB685B68002B02D0FB8A012B6CD192
:1022EC00FB681B6B1A88FB681B68DA60FB681B6B4E
:1022FC009A1CFB681A63FB68DB8E9BB2013B9AB29B
:10230C00FB68DA8659E0FB681B689B6803F00203E4
:10231C00022B1BD1FB68DB8E9BB2002B16D07B6A89
:10232C00012B13D1FB681B6B1A88FB681B68DA60E6
:10233C00FB681B6B9A1CFB681A63FB68DB8E9BB2F9
:10234C00013B9AB2FB68DA8600237B62FB681B6850
:10235C009B6803F00103012B19D1FB68DB8F9BB247
:10236C00002B14D0FB681B68DA68FB689B6B92B27D
:10237C001A80FB689B6B9A1CFB689A63FB68DB8F6B
:10238C009BB2013B9AB2FB68DA8701237B62FEF7B2
:10239C0031FD02463B6AD31A3A6B9A420DD83B6B1D
:1023AC00B3F1FF3F09D0FB68012283F85120FB6891
:1023BC00002283F850200323BCE0FB68DB8E9BB229
:1023CC00002BA0D1FB68DB8F9BB2002B9BD182E052
:1023DC00FB685B68002B02D0FB8A012B71D1FB6878
:1023EC001A6BFB681B680C3312781A70FB681B6B3A
:1023FC005A1CFB681A63FB68DB8E9BB2013B9AB2DA
:10240C00FB68DA865DE0FB681B689B6803F00203DF
:10241C00022B1CD1FB68DB8E9BB2002B17D07B6A86
:10242C00012B14D1FB681A6BFB681B680C331278F8
:10243C001A70FB681B6B5A1CFB681A63FB68DB8EFB
:10244C009BB2013B9AB2FB68DA8600237B62FB6885
:10245C001B689B6803F00103012B19D1FB68DB8F10
:10246C009BB2002B14D0FB681B68DA68FB689B6B73
:10247C00D2B21A70FB689B6B5A1CFB689A63FB68A0
:10248C00DB8F9BB2013B9AB2FB68DA8701237B623C
:10249C00FEF7B0FC02463B6AD31A3A6B9A4203D859
:1024AC003B6BB3F1FF3F02D13B6B002B09D1FB68B7
:1024BC00012283F85120FB68002283F8502003236B
:1024CC0038E0FB68DB8E9BB2002B9CD1FB68DB8F6A
:1024DC009BB2002B97D13A6A396BF86800F008F977
:1024EC000346002B08D0FB6820225A65FB680022AB
:1024FC0083F8502001231DE0FB689B68002B0AD158
:10250C0000233B61FB681B68DB683B61FB681B6855
:10251C009B683B613B69FB68012283F85120FB6897
:10252C00002283F85020FB685B6D002B01D0012347
:10253C0000E0002318462837BD4680BD80B588B022
:10254C0000AFF860B9603B601346FB71FEF752FCBC
:10255C000246BB6A9B1A3A681344FB61FEF74AFCBD
:10256C00B861394B1B685B011B0DFA6902FB03F365
:10257C007B6154E03B68B3F1FF3F50D0FEF73AFC6F
:10258C000246BB69D31AFA699A4202D9FB69002B3D
:10259C003DD1FB681B685A68FB681B6822F0E0029F
:1025AC005A60FB685B68B3F5827F11D1FB689B684E
:1025BC00B3F5004F04D0FB689B68B3F5806F07D16F
:1025CC00FB681B681A68FB681B6822F040021A60E3
:1025DC00FB689B6AB3F5005F0FD1FB681B681A6838
:1025EC00FB681B6822F400521A60FB681B681A68AF
:1025FC00FB681B6842F400521A60FB68012283F8E6
:10260C005120FB68002283F85020032317E07B69DC
:10261C00002B01D10023FB617B69013B7B61FB68D3
:10262C001B689A68BB681340BA689A420CBF0123B6
:10263C000023DBB21A46FB799A429BD10023184641
:10264C002037BD4680BD00BF0800002080B586B095
:10265C0002AFF860B9607A60FB685B68B3F5827FA3
:10266C0011D1FB689B68B3F5004F04D0FB689B68E5
:10267C00B3F5806F07D1FB681B681A68FB681B6891
:10268C0022F040021A60FB685B68B3F5827F17D1B9
:10269C00FB689B68B3F5806F12D17B680093BB68B5
:1026AC0000220121F868FFF749FF0346002B1AD0DE
:1026BC00FB685B6D43F02002FB685A65032313E053
:1026CC007B680093BB6800228021F868FFF736FF17
:1026DC000346002B07D0FB685B6D43F02002FB68C0
:1026EC005A65032300E0002318461037BD4680BD11
:1026FC0080B586B002AFF860B9607A607B680093F1
:10270C00BB6801220221F868FFF718FF0346002B73
:10271C0007D0FB685B6D43F02002FB685A6503230E
:10272C0013E07B680093BB6800228021F868FFF7F8
:10273C0005FF0346002B07D0FB685B6D43F02002BE
:10274C00FB685A65032300E0002318461037BD468A
:10275C0080BD80B582B000AF78607B68002B01D162
:10276C00012342E07B6893F84130DBB2002B06D1A9
:10277C007B68002283F840207868FEF799F97B6823
:10278C00242283F841207B681B68DA687B681B680D
:10279C0022F40052DA60786800F072F97B681B68EA
:1027AC001A697B681B6822F490421A617B681B686B
:1027BC005A697B681B6822F02A025A617B681B6885
:1027CC00DA687B681B6842F40052DA607B6800228E
:1027DC005A647B68202283F841207B68202283F88E
:1027EC0042207B6800225A63002318460837BD46F6
:1027FC0080BD80B58AB002AFF860B9603B6013460B
:10280C00FB8000237B61FB6893F84130DBB2202B0B
:10281C0075D1BB68002B02D0FB88002B01D10123A2
:10282C006EE0FB6800225A64FB68212283F8412089
:10283C00FEF7E0FA7861FB68FA889A84FB68FA88FC
:10284C00DA84FB689B68B3F5805F08D1FB681B6971
:10285C00002B04D10023FB61BB68BB6103E0BB68A8
:10286C00FB610023BB612EE03B6800937B69002277
:10287C008021F86800F048F80346002B05D0FB686F
:10288C00202283F8412003233AE0FB69002B0BD173
:10289C00BB691B881A46FB681B68C2F308025A60A6
:1028AC00BB690233BB6107E0FB691A78FB681B68E4
:1028BC005A60FB690133FB61FB68DB8C9BB2013B0B
:1028CC009AB2FB68DA84FB68DB8C9BB2002BCBD111
:1028DC003B6800937B6900224021F86800F014F8F3
:1028EC000346002B05D0FB68202283F841200323EC
:1028FC0006E0FB68202283F84120002300E002233D
:10290C0018462037BD4680BD80B586B000AFF86054
:10291C00B9603B601346FB713BE03B6AB3F1FF3F90
:10292C0037D0FEF767FA02463B68D31A3A6A9A42E6
:10293C0002D33B6A002B01D103233AE0FB681B68EE
:10294C00DB6803F00403002B23D0BB68802B20D062
:10295C00BB68402B1DD0FB681B681B6803F0080389
:10296C00082B16D100237B61FB681B681B687B61FD
:10297C00FB681B685B687B617B69F86800F01DF87D
:10298C00FB6808225A64FB68002283F8402001236C
:10299C000FE0FB681B681A68BB681340BA689A4260
:1029AC000CBF01230023DBB21A46FB799A42B4D048
:1029BC00002318461837BD4680BD80B495B000AFD3
:1029CC0078607B681B680C337B637B6B53E8003F40
:1029DC003B633B6B23F49073FB647B681B680C3389
:1029EC00FA6C3A64FB63F96B3A6C41E80023BB6305
:1029FC00BB6B002BE5D17B681B6814333B623B6AD5
:102A0C0053E8003FFB61FB6923F00103BB647B6867
:102A1C001B681433BA6CFA62BB62B96AFA6A41E891
:102A2C0000237B627B6A002BE5D17B681B6B012B3F
:102A3C0019D17B681B680C33FB60FB6853E8003FC3
:102A4C00BB60BB6823F010037B647B681B680C3392
:102A5C007A6CBA617B617969BA6941E800233B61A0
:102A6C003B69002BE5D17B68202283F842207B68F0
:102A7C0000221A6300BF5437BD4680BC704700006B
:102A8C0080B584B000AF78607B681B681B6923F449
:102A9C0040517B68DA687B681B680A431A617B6863
:102AAC009A687B681B691A437B685B691343BB603C
:102ABC007B681B68DB6823F4B05323F00C037A6843
:102ACC001268B9680B43D3607B681B685B6923F49D
:102ADC0040717B689A697B681B680A435A617B6802
:102AEC001B682C4A934203D1FFF76CF8F86002E0A4
:102AFC00FFF754F8F860FA6813469B0013449A00E9
:102B0C001A447B685B689B00B2FBF3F3224AA2FB7E
:102B1C0003235B091901FA6813469B0013449A00BE
:102B2C001A447B685B689B00B2FBF3F21A4BA3FB65
:102B3C0002035B09642000FB03F3D31A1B0132333D
:102B4C00154AA2FB03235B0903F0F0031944FA684E
:102B5C0013469B0013449A001A447B685B689B00E5
:102B6C00B2FBF3F20C4BA3FB02035B09642000FBEA
:102B7C0003F3D31A1B013233074AA2FB03235B096D
:102B8C0003F00F027B681B680A449A6000BF103781
:102B9C00BD4680BD003801401F85EB51002310B5A8
:102BAC000446C0E90033C0E9043383608181436685
:102BBC00C2818361194608225C3000F001FA0D4B8A
:102BCC00246263620C4BA3620C4BE3620C4B2363D9
:102BDC000C4B9C4206D003F16802944202D0D033D5
:102BEC009C4205D104F15800BDE8104000F060BAD9
:102BFC0010BD00BF1D2E00083F2E0008772E0008C8
:102C0C009B2E000834010020024A0349034800F0BF
:102C1C0069B800BF140000205539000824000020BA
:102C2C0041680C4B10B59942044601D000F08CFE63
:102C3C00A168094B994202D0204600F085FEE1685C
:102C4C00064B994204D02046BDE8104000F07CBEF3
:102C5C0010BD00BF340100209C01002004020020A4
:102C6C0010B50B4B0B4C0C4A20461A600421002269
:102C7C00FFF794FF04F1680001220921FFF78EFF92
:102C8C0004F1D0000222BDE810401221FFF786BFEC
:102C9C006C02002034010020152C0008014800F0C3
:102CAC0008BA00BF75020020014800F003BA00BF4B
:102CBC007502002010B50446FFF7F0FF236A1BB124
:102CCC00BDE81040FFF7F0BF044B2362044B1B68B8
:102CDC00002BF5D1FFF7C4FFF2E700BF2D2C000845
:102CEC006C0200202DE9F84307468846144600265E
:102CFC00D4E90195B9F1010905D52468002CF7D167
:102D0C003046BDE8F883AB89012B07D9B5F90E30F5
:102D1C00013303D029463846C04706436835E9E7F6
:102D2C000FB407B5064904AB086853F8042B816847
:102D3C00019300F0DFFA03B05DF804EB04B07047C8
:102D4C0020000020024B01461868826800F085BE06
:102D5C0020000020036A70B505460E4684680BB946
:102D6C00FFF7A8FF636EDB0705D4A389980502D48F
:102D7C00A06D00F09EF9A389190702D52369002BD9
:102D8C0035D12146284600F0C5F880B34FF0FF3509
:102D9C00636EDA0705D4A3899B0502D4A06D00F0FD
:102DAC0089F9284670BD002B04DAA2699A4217DC17
:102DBC000A2915D023685A1C22601970A36816F8CA
:102DCC00011F013BA3600029EDD1002B11DA224633
:102DDC000A21284600F05FF80130D7D00A25D7E742
:102DEC002246284600F057F80130E7D1CEE7013EE5
:102DFC00E4E723685A1C22600A221A70EEE70000EE
:102E0C00024B01461868FFF7A5BF00BF2000002049
:102E1C0010B50C46B1F90E1000F0FCF80028ABBF51
:102E2C00636DA3891B1823F48053ACBF6365A38126
:102E3C0010BD2DE9F0411F468B890546DB050C467C
:102E4C00164605D502230022B1F90E1000F0D0F879
:102E5C00A389324623F48053A38128463B46B4F918
:102E6C000E10BDE8F04100F0E7B810B50C46B1F912
:102E7C000E1000F0BDF8431CA38915BF606523F448
:102E8C00805343F48053A38118BFA38110BDB1F9C3
:102E9C000E1000F09DB8F8B50E461446054618B154
:102EAC00036A0BB9FFF706FFA369A360A3891A078E
:102EBC0001D5236943B92146284600F02BF818B1F7
:102ECC004FF0FF373846F8BD23682269F6B2981ADE
:102EDC0063693746834205DC2146284600F034FD01
:102EEC000028EDD1A368013BA36023685A1C226023
:102EFC001E706269431C9A4204D0A389DB07E1D59A
:102F0C000A2EDFD12146284600F01EFD0028D9D01C
:102F1C00D6E7000038B5294B054618680C4618B1A1
:102F2C00036A0BB9FFF7C6FEB4F90C30190722D4AB
:102F3C00DA0607D409222A6043F040034FF0FF3031
:102F4C00A38133E0580712D5616B41B104F14403FE
:102F5C00994202D0284600F0AFF800236363A3899E
:102F6C0023F02403A3810023636023692360A389D6
:102F7C0043F00803A38123694BB9A38903F420739D
:102F8C00B3F5007F03D02146284600F02AFDB4F9A2
:102F9C000C3013F001020AD00022A2606269524286
:102FAC00A261226942B913F08000C5D138BD9907DE
:102FBC0058BF6269A260F4E70020F7E72000002008
:102FCC0003460244934200D1704703F8011BF9E712
:102FDC0038B50023054D044608462B60FDF720FE4E
:102FEC00431C02D12B6803B1236038BD7002002052
:102FFC0038B50446084611460022054D2A601A468B
:10300C00FDF732FE431C02D12B6803B1236038BD9F
:10301C007002002038B50446084611460022054DC2
:10302C002A601A46FDF7C3FD431C02D12B6803B17D
:10303C00236038BD7002002038B50446084611469E
:10304C000022054D2A601A46FDF7CEFD431C02D125
:10305C002B6803B1236038BD70020020014B186847
:10306C00704700BF2000002070B500260C4D0D4CA1
:10307C00641BA410A64209D100F064FD00260A4D81
:10308C000A4C641BA410A64205D170BD55F8043B34
:10309C0098470136EEE755F8043B98470136F2E7BE
:1030AC00DC3B0008DC3B0008DC3B0008E03B000894
:1030BC00704770477047000038B50546002940D06E
:1030CC0051F8043C0C1F002BB8BFE41800F0DEF8DC
:1030DC001C4A136833B9636014602846BDE8384055
:1030EC0000F0DAB8A34208D9206821188B4201BF3E
:1030FC0019685B6809182160EDE71A465B680BB12B
:10310C00A342FAD911685018A0420BD1206801448F
:10311C00501883421160E0D118685B680844106055
:10312C005360DAE702D90C232B60D6E7206821180C
:10313C008B4201BF19685B68091821606360546099
:10314C00CBE738BD7C02002070B50F4E0C463168C1
:10315C00054611B900F0D8FC30602146284600F035
:10316C00D3FC431C03D14FF0FF34204670BDC41C6C
:10317C0024F00304A042F8D0211A284600F0C4FC25
:10318C000130F2D1EFE700BF780200202DE9F843BF
:10319C00CD1C25F0030508350C2D38BF0C25002D52
:1031AC00064601DBA94204D90C2333600020BDE89C
:1031BC00F883DFF8D48000F069F8D8F800301C46AA
:1031CC0044BB29463046FFF7BFFF431C044658D189
:1031DC00D8F800402746002F43D1002C4BD0236851
:1031EC003946304604EB030900F08EFC814542D190
:1031FC00216830466D1A2946FFF7A6FF01303AD0F8
:10320C0023682B442360D8F800305A6862BBC8F896
:10321C0000700FE02268521B20D40B2A17D96119B9
:10322C00A342256018BF5960636808BFC8F8001036
:10323C0062514B60304600F02FF804F10B00231D57
:10324C0020F00700C21A1CBF1B1AA350AFE762681C
:10325C00A3420CBFC8F800205A60EBE72346646811
:10326C00AEE73C467F68B6E71A465B68A342FBD1E3
:10327C0000235360DEE70C233046336000F00CF87B
:10328C0094E70560D6E700BF7C0200200148FFF7F9
:10329C0010BF00BF740200200148FFF70BBF00BF36
:1032AC0074020020936810B4013B002B936007DA82
:1032BC009469A34201DB0A2902D110BCFFF7EBBDD4
:1032CC001368581C10601970084610BC7047F8B58C
:1032DC0006460F461446D518AC4201D1002007E033
:1032EC003A46304614F8011BFFF7DCFF431CF3D1C0
:1032FC00F8BD00002DE9F04F0D46144698460646E1
:10330C009DB018B1036A0BB9FFF7D4FC6B6ED907EB
:10331C0005D4AB899A0502D4A86DFFF7CAFEAB8918
:10332C001B0701D52B699BB929463046FFF7F2FDE7
:10333C0070B16B6EDC0704D54FF0FF301DB0BDE8EB
:10334C00F08FAB899805F7D4A86DFFF7B3FEF3E7C0
:10335C000023099320238DF8293030234FF00109E5
:10336C00CDF80C80DFF8A8818DF82A3023469A46D8
:10337C0013F8012B0AB1252AF9D1BAEB040B0BD0A7
:10338C005B46224629463046FFF7A1FF013000F08C
:10339C00A780099A5A4409929AF80030002B00F041
:1033AC009F8000234FF0FF32CDE905230AF1010A7B
:1033BC00049307938DF853301A935446052214F84E
:1033CC00011B534800F0B0FB049AD8B9D10644BF96
:1033DC0020238DF85330130744BF2B238DF8533023
:1033EC009AF800302A2B15D0544600204FF00A0CC6
:1033FC00079A214611F8013B303B092B4BD9B0B150
:10340C00079214E0A0EB080309FA03F31343A24656
:10341C000493D2E7039B191D1B680391002BBBBFC0
:10342C005B4242F0020207930793B8BF04922378E1
:10343C002E2B0AD163782A2B32D1039B02341A1D0E
:10344C001B68039243EAE3730593DFF8C8A00322D9
:10345C005046217800F068FB38B14022049BA0EB69
:10346C000A00824013430134049314F8011B062212
:10347C0029488DF8281000F057FB00283FD0274B27
:10348C001BBB039B073323F0070308330393099BF0
:10349C003B4409936AE70C4601200CFB0232A8E777
:1034AC0000234FF00A0C194601340593204610F8FE
:1034BC00012B303A092A03D9002BC6D00591C4E759
:1034CC00044601230CFB0121F0E703AB00932A46D1
:1034DC003046134B04A9AFF300800746781CD6D1B5
:1034EC006B6ED90705D4AB899A0502D4A86DFFF78A
:1034FC00E1FDAB895B063FF51FAF09981EE703ABF7
:10350C0000932A463046064B04A900F07DF8E4E708
:10351C00A63B0008AC3B0008B03B000800000000D4
:10352C00DB3200082DE9F047164698468A680B698D
:10353C0007469342B8BF1346336091F843200C46BC
:10354C00DDF820900AB1013333602368990642BF3D
:10355C00336802333360256815F0060506D104F193
:10356C00190AE36832689B1AAB422BDC94F843309F
:10357C002268003B18BF0123920630D441463846DE
:10358C0004F14302C847013023D02368226903F0B9
:10359C000603042B14BF002533684FF0000608BF48
:1035AC00E56804F11A0408BFED1A54F8123C08BF80
:1035BC0025EAE5759342C4BF9B1AED18B5421AD1A2
:1035CC00002008E00123524641463846C8470130E6
:1035DC0003D14FF0FF30BDE8F0870135C1E7302053
:1035EC00E11881F843005A1C94F845102244023328
:1035FC0082F84310C2E70123224641463846C847A9
:10360C000130E6D00136D9E72DE9FF470F7E914610
:10361C00782F80460C469A460C9E01F1430207D83F
:10362C00622F0AD8002F00F0D380582F00F0BA80F8
:10363C0004F1420684F842703AE0A7F16303152BBB
:10364C00F6D801A151F823F0AD360008C1360008B8
:10365C003D3600083D3600083D3600083D36000872
:10366C00C13600083D3600083D3600083D360008DE
:10367C003D360008C3370008EB3600087D370008DC
:10368C003D3600083D360008E53700083D36000899
:10369C00EB3600083D3600083D360008853700083B
:1036AC0033681A1D1B68326004F1420684F84230FC
:1036BC0001239EE033682068191D3160060601D590
:1036CC001D6803E04506FBD5B3F90050002D03DA65
:1036DC002D236D4284F843300A23594811E02168A8
:1036EC003368080653F8045B02D4490648BFADB2F0
:1036FC006F2F336014BF0A2308235148002184F82C
:10370C0043106668002EA8BF2168A660A4BF21F0F4
:10371C00040121600DB9002E4BD01646B5FBF3F118
:10372C0003FB1157C75D06F8017D2F46BB420D46C2
:10373C00F4D9082B0BD12368DF0708D523696168FE
:10374C009942DEBF302306F8013C06F1FF36921B8E
:10375C0022614B4621464046CDF800A003AAFFF754
:10376C00E1FE01304AD14FF0FF3004B0BDE8F087E4
:10377C00236843F0200323607827324884F845708F
:10378C00236831681F0651F8045B02D45F0648BFFA
:10379C00ADB23160D90744BF43F0200323601DB1A3
:1037AC001023ABE72648E9E7236823F020032360C6
:1037BC00F6E71646BDE733682568181D6169306069
:1037CC002E061B6801D5196002E06806FBD519802E
:1037DC00002316462361BCE7336800211A1D3260B2
:1037EC001E686268304600F09FF908B1801B60606B
:1037FC0063682361002384F84330AAE732464946C4
:10380C0040462369D0470130ADD023689B0713D4C1
:10381C00E068039B9842B8BF1846A6E701233246DE
:10382C0049464046D04701309DD00135E3680399A5
:10383C005B1AAB42F2DCEBE7002504F11906F5E765
:10384C00B73B0008C83B0008B1F90C20F8B51607C7
:10385C0005460C4654D44B68002B02DC0B6C002B39
:10386C0048DDE66A002E45D0002312F480522F6802
:10387C00216A2B6030D0626DA389590705D5636826
:10388C00D21A636B0BB1236CD21A00232846E66A5A
:10389C00216AB047431CA38906D129681D292BD85E
:1038AC00284A0A41D60727D4002262602269D9042B
:1038BC00226004D5421C01D12B6803B96065616B91
:1038CC002F60B9B104F14403994202D02846FFF7A6
:1038DC00F3FB002363630DE001232846B047024647
:1038EC00501CC9D12B68002BC6D01D2B01D0162B18
:1038FC001DD12F60002021E043F040031BB21AE0E1
:10390C000F69002FF6D0930718BF00230E6808BF6D
:10391C004B69F61B0F608B60002EEBDD33463A468D
:10392C002846216AD4F828C0E047002807DCB4F9FF
:10393C000C3043F040034FF0FF30A381F8BD074437
:10394C00361AE9E7FEFFBFDF38B50B6905460C46B2
:10395C0013B90025284638BD18B1036A0BB9FFF717
:10396C00A9F9B4F90C30002BF3D0626ED00704D453
:10397C00990502D4A06DFFF79CFB28462146FFF762
:10398C0063FF636E0546DA07E4D4A3899B05E1D493
:10399C00A06DFFF78FFBDDE770B50C46B1F90E108B
:1039AC00154600291E4696B00CDAA389002113F0A7
:1039BC00800F14BF40234FF48063002031602B60D4
:1039CC0016B070BD6A4600F07DF80028EDDB019959
:1039DC0001F47041A1F50053594259414FF48063F1
:1039EC00EBE78B89F7B59D0706460C4607D504F126
:1039FC004703236023610123636103B0F0BD6A4672
:103A0C0001ABFFF7C9FF009F054639463046FFF76B
:103A1C00BDFB48B9B4F90C309A05EED423F003037E
:103A2C0043F00203A381E2E7A389C4E9040743F04E
:103A3C008003A381019B20605BB13046B4F90E106A
:103A4C0000F052F828B1A38923F0030343F00103DB
:103A5C00A381A3891D43A581CFE770B50D461446FC
:103A6C00064618B1036A0BB9FFF724F9636ED80741
:103A7C0005D4A389990502D4A06DFFF71AFBA3689E
:103A8C00013B002BA36005DAA269934212DBEBB277
:103A9C000A2B0FD023685A1C22601D70EDB2636E86
:103AAC00DA0705D4A3899B0502D4A06DFFF702FBAE
:103ABC00284670BD294622463046FFF7ECF90546EC
:103ACC00EDE7000038B50023064D044608461146C4
:103ADC002B60FDF7B0F8431C02D12B6803B12360B7
:103AEC0038BD00BF7002002038B50023054D0446D8
:103AFC0008462B60FDF7AEF8431C02D12B6803B1CE
:103B0C00236038BD7002002038B50023054D0446F3
:103B1C0008462B60FDF7B4F8431C02D12B6803B1A7
:103B2C00236038BD70020020034610B5C9B20244B0
:103B3C009342184601D1002003E0047801338C42F3
:103B4C00F6D110BDF8B500BFF8BC08BC9E46704756
:0C3B5C00F8B500BFF8BC08BC9E467047DE
:103B6800537461727400000054583A00253032587A
:103B78002000000000000000000000000102030413
:103B880006070809000000000102030402030405F7
:103B9800060708090A0B0C0D0E0F10100102232D41
:103BA800302B2000686C4C0065666745464700303E
:103BB800313233343536373839414243444546008B
:103BC800303132333435363738396162636465668B
:043BD80000000000E9
:043BDC0031010008AB
:043BE0000D010008CB
:103BE400000102030405060700127A001000000019
:103BF4000100000000000000030000003401002068
:103C04002400002000000000340100209C0100205A
:103C1400040200200000000000000000000000007A
:103C24000000000000000000000000000000000090
:103C34000000000000000000000000000000000080
:103C44000000000000000000000000000000000070
:0400000508000D05DD
:00000001FF
