:020000040800F2
:1000000000500020DD0A0008790A0008810A000873
:10001000890A0008910A0008990A000800000000F7
:10002000000000000000000000000000A10A00081D
:10003000AD0A000800000000B90A0008C50A00085F
:10004000250B0008250B0008250B0008250B0008D0
:10005000250B0008250B0008250B0008250B0008C0
:10006000250B0008250B0008250B0008250B0008B0
:10007000250B0008250B0008250B0008250B0008A0
:10008000250B0008250B0008250B0008250B000890
:10009000250B0008250B0008250B0008250B000880
:1000A000250B0008250B0008250B0008250B000870
:1000B000250B0008250B0008250B0008250B000860
:1000C000250B0008250B0008250B0008250B000850
:1000D000250B0008250B0008250B0008250B000840
:1000E000250B0008250B0008250B00080000000068
:1000F0000000000000000000000000000000000000
:0C01000000000000000000005FF808F1A3
:10010C0010B5054C237833B9044B13B10448AFF345
:10011C0000800123237010BD14000020000000009B
:10012C004C1E000808B5034B1BB103490348AFF341
:10013C00008008BD00000000180000204C1E0008C4
:10014C0090B585B002AF0446084611461A462346C0
:10015C00FB800346BB800B467B8013463B80F888B4
:10016C00B9887A883C883B8B0093234600F08CFA44
:10017C0000BF0C37BD4690BD80B584B002AF0346BE
:10018C00FB80084BB3F90020074BB3F90010FB8838
:10019C0000930B4600210020FFF7D2FF00BF083769
:1001AC00BD4680BD300000203200002080B500AF7D
:1001BC0000228021024800F09FFF00BF80BD00BFDD
:1001CC00000C014080B500AF01228021024800F0F4
:1001DC0093FF00BF80BD00BF000C014080B500AF95
:1001EC0000224FF48071074800F086FF052000F0D4
:1001FC00F7FC01224FF48071024800F07DFF00BF34
:10020C0080BD00BF000C014080B582B000AF03463A
:10021C00FB7100224FF40071064800F06DFFF91DD0
:10022C004FF0FF330122044801F0E0FB00BF083718
:10023C00BD4680BD000C01403C00002080B582B062
:10024C0000AF7860396001224FF40071074800F06C
:10025C0053FF3B689AB24FF0FF337968044801F0C2
:10026C00C5FB00BF0837BD4680BD00BF000C014078
:10027C003C00002080B584B000AF78607B685A1CCD
:10028C007A601B78FB7334E07B685A1C7A601B78AD
:10029C00FB72FB7A1846FFF7B7FF7B685A1C7A6033
:1002AC001B78BB72BB7A9BB203F08003BB81BB7A19
:1002BC0003F07F03BB72BB7A002B08D0BB7A1946C4
:1002CC007868FFF7BBFFBB7A7A6813447B60BB8905
:1002DC00002B0ED07B685A1C7A601B78BB81BB89C3
:1002EC00FF2B02D14FF4FA73BB81BB89184600F087
:1002FC0077FCFB7B5A1EFA73002BC5D100BF00BFE5
:10030C001037BD4680BD000090B585B000AF0446E7
:10031C00084611461A462346FB710346BB710B4631
:10032C007B7113463B712A20FFF76EFF00233B7352
:10033C00174B1A78FB791344DBB27B730023BB7326
:10034C00134B1A787B791344DBB2FB7307F10C0364
:10035C0004211846FFF772FF2B20FFF755FF0D4BBA
:10036C001A78BB791344DBB27B730A4B1A783B794E
:10037C001344DBB2FB7307F10C0304211846FFF79F
:10038C005DFF2C20FFF740FF00BF1437BD4690BD2A
:10039C00370000203800002080B582B000AF034643
:1003AC00FB71FFF703FFFFF719FF0C48FFF762FF24
:1003BC000B48FFF75FFF0B48FFF75CFF0A4B00226F
:1003CC001A700A4B00221A70FB79184600F010F8CC
:1003DC00FFF7F8FE00BF0837BD4680BD6C1E000855
:1003EC00A41E0008B41E00083500002036000020B2
:1003FC0080B584B000AF0346FB710023FB73FB791F
:10040C0003F00303DAB2334B1A70324B1B78032B15
:10041C004ED801A252F823F0350400085704000806
:10042C00790400089B040008C023FB732A4BA0220C
:10043C001A802A4B80221A80294B1A78294B1A7061
:10044C00294B1A78294B1A7032E0A023FB73234BEB
:10045C00A0221A80204B80221A80214B1A78234B21
:10046C001A70214B1A781F4B1A7021E00023FB7372
:10047C00194BA0221A80194B80221A80184B1A781B
:10048C00184B1A70184B1A78184B1A7010E060231E
:10049C00FB73124BA0221A800F4B80221A80104B38
:1004AC001A78124B1A70104B1A780E4B1A7000BF38
:1004BC00FFF77CFE3620FFF7A7FE07F10F030121A3
:1004CC001846FFF7BBFEFFF77DFE00BF1037BD4699
:1004DC0080BD00BF3400002032000020300000201E
:1004EC0035000020370000203600002038000020A6
:1004FC0082B090B589B000AF7B630346FB800B469E
:10050C00BB801346FB70FB88D8B2BB88D9B2FB8882
:10051C00DAB297F834301344DBB2013BDCB2BB885F
:10052C00DAB297F835301344DBB2013BDBB222462A
:10053C00FFF7EAFE0023FB6143E0BA6BFB78203B3C
:10054C0097F8351001FB03F31946FB690B445B006C
:10055C0013441B887B610023BB6129E07A69BB696A
:10056C0002FA03F303F40043002B0ED0BB8F1B0ADB
:10057C009BB2DBB23B74BB8FDBB27B7407F1100315
:10058C0002211846FFF75AFE0FE0B7F840301B0A5D
:10059C009BB2DBB23B73B7F84030DBB27B7307F135
:1005AC000C0302211846FFF749FEBB690133BB61FE
:1005BC0097F834301A46BB699342CFD3FB690133A9
:1005CC00FB6197F835301A46FB699342B5D300BFEF
:1005DC0000BF2437BD46BDE8904002B07047000014
:1005EC0082B080B586B004AF3A607B610346FB8075
:1005FC000B46BB80FFF7DAFD33E0FB883A7D1344F2
:10060C001F4AB2F90020934216DB0023FB807B7D4E
:10061C001A46BB881344BB80BB887A7D1344194AA5
:10062C00B2F90020934221DA3B681B78202B03D1CE
:10063C003B6801333B6014E03B681A78B988F88852
:10064C003B8C0293BB8B0193BB6900937B69FFF7D7
:10065C004FFF3B7D1A46FB881344FB803B680133FC
:10066C003B603B681B78002BC7D100E000BFFFF755
:10067C00A9FD00BF0837BD46BDE8804002B07047F9
:10068C00300000203200002090B585B000AF044649
:10069C00084611461A462346FB800346BB800B4690
:1006AC007B8013463B80FB88384AB2F9002093428A
:1006BC0067DABB88364AB2F90020934261DAFA88CD
:1006CC007B881344314AB2F90020934206DD2F4B4C
:1006DC00B3F900309AB2FB88D31A7B80BA883B8876
:1006EC0013442B4AB2F90020934206DD284BB3F990
:1006FC0000309AB2BB88D31A3B80FFF757FDFB88BA
:10070C00D8B2BB88D9B2FB88DAB27B88DBB213448F
:10071C00DBB2013BDCB2BB88DAB23B88DBB2134400
:10072C00DBB2013BDBB22246FFF7EEFD3B8C1B0A32
:10073C009BB2DBB23B733B8CDBB27B7301224FF47D
:10074C000071144800F0D8FC3B88BB8013E07B8818
:10075C00FB800AE007F10C014FF0FF3302220E4838
:10076C0001F044F9FB88013BFB80FB88002BF1D1A5
:10077C00BB88013BBB80BB88002BE8D1FFF722FD77
:10078C0000E000BF1437BD4690BD00BF3000002014
:10079C0032000020000C01403C00002080B584B0E9
:1007AC0004AF00F0BBF900F021F800F09DF800F068
:1007BC0063F80120FFF7F0FD0020FFF7DDFC0120BE
:1007CC00FFF716FE074B002202924FF6FF720192C2
:1007DC005A6800921B68044A00210020FFF700FFB2
:1007EC0000BFECE700000020641E000880B590B04C
:1007FC0000AF07F1180328220021184601F0F3FA84
:10080C003B1D00221A605A609A60DA601A6101235B
:10081C00BB614FF48033FB6100233B620123BB625D
:10082C0002237B634FF48033BB634FF4E013FB6311
:10083C0007F11803184600F077FC0346002B01D093
:10084C0000F09EF80F237B600223BB600023FB604B
:10085C004FF480633B6100237B613B1D02211846F2
:10086C0000F0E4FE0346002B01D000F089F800BF35
:10087C004037BD4680BD000080B500AF184B194A0B
:10088C001A60174B4FF482725A60154B4FF40042AA
:10089C009A60134B0022DA60114B00221A61104B44
:1008AC0000225A610E4B4FF400729A610C4B2022BD
:1008BC00DA610B4B00221A62094B00225A62084B78
:1008CC0000229A62064B0A22DA62054801F00AF805
:1008DC000346002B01D000F053F800BF80BD00BFD1
:1008EC003C0000200030014080B588B000AF07F11B
:1008FC00100300221A605A609A60DA601E4B9B69E2
:10090C001D4A43F0200393611B4B9B6903F02003AA
:10091C00FB60FB68184B9B69174A43F00403936117
:10092C00154B9B6903F00403BB60BB68124B9B69BE
:10093C00114A43F0080393610F4B9B6903F00803C2
:10094C007B607B6800224FF460710C4800F0D4FB94
:10095C004FF460733B6101237B610023BB61022375
:10096C00FB6107F110031946044800F041FA00BF7F
:10097C002037BD4680BD00BF00100240000C014076
:10098C0080B400AF72B600BF00BFFDE780B485B085
:10099C0000AF154B9B69144A43F001039361124B52
:1009AC009B6903F00103BB60BB680F4BDB690E4A0C
:1009BC0043F08053D3610C4BDB6903F080537B60B5
:1009CC007B680A4B5B68FB60FB6823F0E063FB60B1
:1009DC00FB6843F00073FB60044AFB68536000BF84
:1009EC001437BD4680BC7047001002400000014027
:1009FC0080B588B000AF786007F1100300221A6050
:100A0C005A609A60DA607B681B68154A934223D15E
:100A1C00144B9B69134A43F480539361114B9B69AC
:100A2C0003F48053FB60FB680E4B9B690D4A43F04B
:100A3C00040393610B4B9B6903F00403BB60BB681D
:100A4C00A0233B6102237B610323FB6107F11003AD
:100A5C001946054800F0CCF900BF2037BD4680BDD3
:100A6C0000300140001002400008014080B400AF8B
:100A7C0000BFFDE780B400AF00BFFDE780B400AF5E
:100A8C0000BFFDE780B400AF00BFFDE780B400AF4E
:100A9C0000BFFDE780B400AF00BFBD4680BC70470F
:100AAC0080B400AF00BFBD4680BC704780B400AFBF
:100ABC0000BFBD4680BC704780B500AF00F074F835
:100ACC0000BF80BD80B400AF00BFBD4680BC704786
:100ADC00FFF7F8FF0B480C490C4A002302E0D458EE
:100AEC00C4500433C4188C42F9D3094A094C00236E
:100AFC0001E013600432A242FBD301F07DF9FFF751
:100B0C004DFE70470000002014000020682C0008E7
:100B1C001400002098000020FEE7000080B500AF14
:100B2C00084B1B68074A43F010031360032000F0C6
:100B3C002BF90F2000F008F8FFF728FF00231846C8
:100B4C0080BD00BF0020024080B582B000AF78604D
:100B5C00124B1A68124B1B7819464FF47A73B3FB7D
:100B6C00F1F3B2FBF3F3184600F035F90346002B12
:100B7C0001D001230EE07B680F2B0AD80022796884
:100B8C004FF0FF3000F00BF9064A7B68136000232E
:100B9C0000E0012318460837BD4680BD0800002040
:100BAC00100000200C00002080B400AF054B1B7817
:100BBC001A46054B1B681344034A136000BFBD461D
:100BCC0080BC7047100000209400002080B400AF5F
:100BDC00024B1B681846BD4680BC70479400002031
:100BEC0080B584B000AF7860FFF7F0FFB8607B6829
:100BFC00FB60FB68B3F1FF3F05D00A4B1B781A462C
:100C0C00FB681344FB6000BFFFF7E0FF0246BB68C4
:100C1C00D31AFA689A42F7D800BF00BF1037BD4606
:100C2C0080BD00BF1000002080B485B000AF78609C
:100C3C007B6803F00703FB600C4BDB68BB60BA6896
:100C4C004FF6FF031340BB60FB681A02BB681343EB
:100C5C0043F0BF6343F40033BB60044ABB68D3600A
:100C6C0000BF1437BD4680BC704700BF00ED00E0EC
:100C7C0080B400AF044BDB681B0A03F00703184673
:100C8C00BD4680BC704700BF00ED00E080B483B06F
:100C9C0000AF03463960FB7197F90730002B0ADB74
:100CAC003B68DAB20C4997F907301201D2B20B4407
:100CBC0083F800230AE03B68DAB20849FB7903F0B9
:100CCC000F03043B1201D2B20B441A7600BF0C374F
:100CDC00BD4680BC704700BF00E100E000ED00E0C5
:100CEC0080B489B000AFF860B9607A60FB6803F03B
:100CFC000703FB61FB69C3F10703042B28BF042323
:100D0C00BB61FB690433062B02D9FB69033B00E092
:100D1C0000237B614FF0FF32BB6902FA03F3DA4325
:100D2C00BB681A407B699A404FF0FF317B6901FA2E
:100D3C0003F3D9437B680B40134318462437BD4655
:100D4C0080BC704780B582B000AF78607B68013B97
:100D5C00B3F1807F01D301230FE00A4A7B68013B8A
:100D6C0053600F214FF0FF30FFF790FF054B00222F
:100D7C009A60044B07221A60002318460837BD46B8
:100D8C0080BD00BF10E000E080B582B000AF78609D
:100D9C007868FFF749FF00BF0837BD4680BD80B5B6
:100DAC0086B000AF0346B9607A60FB7300237B61A9
:100DBC00FFF75EFF78617A68B9687869FFF790FF92
:100DCC00024697F90F3011461846FFF75FFF00BF38
:100DDC001837BD4680BD80B582B000AF78607868AA
:100DEC00FFF7B0FF034618460837BD4680BD00002C
:100DFC0080B48BB000AF7860396000237B62002335
:100E0C003B6269E101227B6A02FA03F3FB613B68F6
:100E1C001B68FA691340BB61BA69FB699A4240F0DE
:100E2C0058813B685B689A4A93425ED0984A9342D9
:100E3C0075D8984A934258D0964A93426FD8964A9E
:100E4C00934252D0944A934269D8944A93424CD0DC
:100E5C00924A934263D8924A934246D0904A934224
:100E6C005DD8122B2AD8122B59D801A252F823F094
:100E7C00F70E0008D10E0008E30E0008250F00083D
:100E8C002B0F00082B0F00082B0F00082B0F00084E
:100E9C002B0F00082B0F00082B0F00082B0F00083E
:100EAC002B0F00082B0F00082B0F00082B0F00082E
:100EBC002B0F0008D90E0008ED0E0008794A93425A
:100ECC0013D02CE03B68DB683B6229E03B68DB68B5
:100EDC0004333B6224E03B68DB6808333B621FE071
:100EEC003B68DB680C333B621AE03B689B68002B69
:100EFC0002D104233B6213E03B689B68012B05D1B4
:100F0C0008233B627B68FA691A6109E008233B629B
:100F1C007B68FA695A6103E000233B6200E000BF82
:100F2C00BB69FF2B01D87B6801E07B6804337B61D4
:100F3C00BB69FF2B02D87B6A9B0002E07B6A083BF3
:100F4C009B003B617B691A680F213B6901FA03F333
:100F5C00DB431A40396A3B6901FA03F31A437B6994
:100F6C001A603B685B6803F08053002B00F0B18083
:100F7C004D4B9B694C4A43F0010393614A4B9B696F
:100F8C0003F00103BB60BB68484A7B6A9B080233D1
:100F9C0052F82330FB607B6A03F003039B000F22A3
:100FAC0002FA03F3DB43FA681340FB607B68404AA8
:100FBC00934213D07B683F4A93420DD07B683E4AE4
:100FCC00934207D07B683D4A934201D1032306E04C
:100FDC00042304E0022302E0012300E000237A6AE8
:100FEC0002F0030292009340FA681343FB602F490E
:100FFC007B6A9B080233FA6841F823203B685B68E4
:10100C0003F48013002B06D02D4B9A682C49BB6936
:10101C0013438B6006E02A4B9A68BB69DB43284973
:10102C0013408B603B685B6803F40013002B06D005
:10103C00234BDA682249BB691343CB6006E0204B93
:10104C00DA68BB69DB431E491340CB603B685B68C5
:10105C0003F40033002B06D0194B5A681849BB69AE
:10106C0013434B6006E0164B5A68BB69DB431449CB
:10107C0013404B603B685B6803F48033002B21D03A
:10108C000F4B1A680E49BB6913430B6021E000BF7C
:10109C00000032100000311000002210000021105E
:1010AC00000012100000111000100240000001405E
:1010BC0000080140000C01400010014000140140E8
:1010CC00000401400B4B1A68BB69DB430949134010
:1010DC000B607B6A01337B623B681A687B6A22FA7D
:1010EC0003F3002B7FF48EAE00BF00BF2C37BD4640
:1010FC0080BC70470004014080B483B000AF7860BE
:10110C000B467B8013467B707B78002B03D07A8850
:10111C007B681A6103E07B881A047B681A6100BF44
:10112C000C37BD4680BC704780B586B000AF786088
:10113C007B68002B01D1012372E27B681B6803F0F2
:10114C000103002B00F08780924B5B6803F00C03CB
:10115C00042B0CD08F4B5B6803F00C03082B12D1C3
:10116C008C4B5B6803F48033B3F5803F0BD1894B18
:10117C001B6803F40033002B6CD07B685B68002B7E
:10118C0068D101234CE27B685B68B3F5803F06D1E4
:10119C00804B1B687F4A43F4803313602EE07B68DE
:1011AC005B68002B0CD17B4B1B687A4A23F4803391
:1011BC001360784B1B68774A23F4802313601DE07F
:1011CC007B685B68B3F5A02F0CD1724B1B68714A1E
:1011DC0043F4802313606F4B1B686E4A43F48033D7
:1011EC0013600BE06B4B1B686A4A23F4803313606B
:1011FC00684B1B68674A23F4802313607B685B6829
:10120C00002B13D0FFF7E2FC386108E0FFF7DEFC9F
:10121C0002463B69D31A642B01D9032300E25D4BD0
:10122C001B6803F40033002BF0D014E0FFF7CEFC66
:10123C00386108E0FFF7CAFC02463B69D31A642BFD
:10124C0001D90323ECE1534B1B6803F40033002B4F
:10125C00F0D100E000BF7B681B6803F00203002B99
:10126C0063D04C4B5B6803F00C03002B0BD0494B49
:10127C005B6803F00C03082B1CD1464B5B6803F432
:10128C008033002B16D1434B1B6803F00203002B59
:10129C0005D07B681B69012B01D00123C0E13D4BBC
:1012AC001B6823F0F8027B685B69DB003949134348
:1012BC000B603AE07B681B69002B20D0364B012277
:1012CC001A60FFF783FC386108E0FFF77FFC0246E9
:1012DC003B69D31A022B01D90323A1E12D4B1B68C7
:1012EC0003F00203002BF0D02A4B1B6823F0F8020A
:1012FC007B685B69DB00274913430B6015E0264BC9
:10130C0000221A60FFF762FC386108E0FFF75EFC10
:10131C0002463B69D31A022B01D9032380E11D4BF2
:10132C001B6803F00203002BF0D17B681B6803F0F1
:10133C000803002B3AD07B689B69002B19D0174B04
:10134C0001221A60FFF742FC386108E0FFF73EFC0F
:10135C0002463B69D31A022B01D9032360E10D4BE2
:10136C005B6A03F00203002BF0D0012000F09CFA22
:10137C001CE00A4B00221A60FFF728FC38610FE0D2
:10138C00FFF724FC02463B69D31A022B08D903232E
:10139C0046E100BF0010024000004242800442427D
:1013AC00924B5B6A03F00203002BE9D17B681B684C
:1013BC0003F00403002B00F0A6800023FB758B4B7D
:1013CC00DB6903F08053002B0DD1884BDB69874A16
:1013DC0043F08053D361854BDB6903F08053BB60D2
:1013EC00BB680123FB75824B1B6803F48073002BD5
:1013FC0018D17F4B1B687E4A43F480731360FFF750
:10140C00E5FB386108E0FFF7E1FB02463B69D31AC4
:10141C00642B01D9032303E1754B1B6803F4807320
:10142C00002BF0D07B68DB68012B06D16F4B1B6A5D
:10143C006E4A43F0010313622DE07B68DB68002BDE
:10144C000CD16A4B1B6A694A23F001031362674B88
:10145C001B6A664A23F0040313621CE07B68DB689A
:10146C00052B0CD1614B1B6A604A43F004031362D9
:10147C005E4B1B6A5D4A43F0010313620BE05B4B4E
:10148C001B6A5A4A23F001031362584B1B6A574AD2
:10149C0023F0040313627B68DB68002B15D0FFF785
:1014AC0095FB38610AE0FFF791FB02463B69D31AC2
:1014BC0041F28832934201D90323B1E04B4B1B6AB2
:1014CC0003F00203002BEED014E0FFF77FFB386132
:1014DC000AE0FFF77BFB02463B69D31A41F28832E4
:1014EC00934201D903239BE0404B1B6A03F0020398
:1014FC00002BEED1FB7D012B05D13C4BDB693B4A2C
:10150C0023F08053D3617B68DB69002B00F087806C
:10151C00364B5B6803F00C03082B61D07B68DB69EE
:10152C00022B46D1334B00221A60FFF74FFB386178
:10153C0008E0FFF74BFB02463B69D31A022B01D99B
:10154C0003236DE0294B1B6803F00073002BF0D1D3
:10155C007B681B6AB3F5803F08D1244B5B6823F48E
:10156C0000327B689B68214913434B601F4B5B68BF
:10157C0023F474127B68196A7B685B6A0B431B4902
:10158C0013434B601B4B01221A60FFF71FFB3861A2
:10159C0008E0FFF71BFB02463B69D31A022B01D96B
:1015AC0003233DE0114B1B6803F00073002BF0D0BC
:1015BC0035E0104B00221A60FFF708FB386108E099
:1015CC00FFF704FB02463B69D31A022B01D9032314
:1015DC0026E0064B1B6803F00073002BF0D11EE0D5
:1015EC007B68DB69012B07D1012319E00010024055
:1015FC0000700040600042420B4B5B68FB60FB6874
:10160C0003F480327B681B6A9A4206D1FB6803F4B0
:10161C0070127B685B6A9A4201D0012300E00023C0
:10162C0018461837BD4680BD0010024080B584B006
:10163C0000AF786039607B68002B01D10123D0E0CA
:10164C006A4B1B6803F007033A689A4210D9674B40
:10165C001B6823F0070265493B6813430B60634B1F
:10166C001B6803F007033A689A4201D00123B8E0E3
:10167C007B681B6803F00203002B20D07B681B687F
:10168C0003F00403002B05D0594B5B68584A43F414
:10169C00E06353607B681B6803F00803002B05D0E4
:1016AC00534B5B68524A43F460535360504B5B6836
:1016BC0023F0F0027B689B684D4913434B607B68B9
:1016CC001B6803F00103002B40D07B685B68012B87
:1016DC0007D1474B1B6803F40033002B15D10123B2
:1016EC007FE07B685B68022B07D1414B1B6803F0E2
:1016FC000073002B09D1012373E03D4B1B6803F0F1
:10170C000203002B01D101236BE0394B5B6823F002
:10171C0003027B685B68364913434B60FFF756FA4C
:10172C00F8600AE0FFF752FA0246FB68D31A41F25E
:10173C008832934201D9032353E02D4B5B6803F0AD
:10174C000C027B685B689B009A42EBD1274B1B68B1
:10175C0003F007033A689A4210D2244B1B6823F01B
:10176C00070222493B6813430B60204B1B6803F0B4
:10177C0007033A689A4201D0012332E07B681B6868
:10178C0003F00403002B08D0194B5B6823F4E062D0
:10179C007B68DB68164913434B607B681B6803F05E
:1017AC000803002B09D0124B5B6823F460527B6852
:1017BC001B69DB000E4913434B6000F021F8024615
:1017CC000B4B5B681B0903F00F030A49CB5C22FA35
:1017DC0003F3094A1360094B1B681846FFF7B4F969
:1017EC00002318461037BD4680BD00BF00200240C4
:1017FC00001002403C2C0008080000200C000020C7
:10180C0080B487B000AF0023FB600023BB600023D3
:10181C007B6100237B6000233B611E4B5B68FB609C
:10182C00FB6803F00C03042B02D0082B03D027E039
:10183C00194B3B6127E0FB689B0C03F00F03174A25
:10184C00D35C7B60FB6803F48033002B10D0114B0E
:10185C005B685B0C03F00103114AD35CBB607B68D3
:10186C000D4A03FB02F2BB68B2FBF3F37B6104E0AD
:10187C007B680C4A02FB03F37B617B693B6102E0F2
:10188C00054B3B6100BF3B6918461C37BD4680BC0D
:10189C00704700BF0010024000127A004C2C000868
:1018AC005C2C000800093D0080B485B000AF786066
:1018BC000A4B1B680A4AA2FB03235B0A7A6802FBE9
:1018CC0003F3FB6000BFFB685A1EFA60002BF9D1D2
:1018DC0000BF00BF1437BD4680BC70470800002015
:1018EC00D34D621080B582B000AF78607B68002B5E
:1018FC0001D1012376E07B685B6A002B08D17B6801
:10190C005B68B3F5827F09D07B680022DA6105E061
:10191C007B6800221A617B6800225A617B68002276
:10192C009A627B6893F85130DBB2002B06D17B684E
:10193C00002283F850207868FFF75AF87B6802225F
:10194C0083F851207B681B681A687B681B6822F03F
:10195C0040021A607B685B6803F482727B689B6848
:10196C0003F404431A437B68DB6803F400631A43F3
:10197C007B681B6903F002031A437B685B6903F005
:10198C0001031A437B689B6903F400731A437B6859
:10199C00DB6903F038031A437B681B6A03F080038E
:1019AC0042EA03017B689B6A03F400527B681B6864
:1019BC000A431A607B689B691A0C7B681B6802F0EF
:1019CC0004025A607B681B68DA697B681B6822F426
:1019DC000062DA617B6800225A657B68012283F819
:1019EC005120002318460837BD4680BD80B588B00D
:1019FC0000AFF860B9603B601346FB80FFF7E6F878
:101A0C00F861FB887B83FB6893F85130DBB2012BC8
:101A1C0001D002232AE1BB68002B02D0FB88002BEB
:101A2C0001D1012322E1FB6893F85030012B01D145
:101A3C0002231BE1FB68012283F85020FB68032280
:101A4C0083F85120FB6800225A65FB68BA681A6358
:101A5C00FB68FA889A86FB68FA88DA86FB680022AB
:101A6C009A63FB6800229A87FB680022DA87FB687E
:101A7C0000225A64FB6800221A64FB689B68B3F569
:101A8C00004F0FD1FB681B681A68FB681B6822F0BB
:101A9C0040021A60FB681B681A68FB681B6842F4FA
:101AAC0080421A60FB681B681B6803F04003402BE4
:101ABC0007D0FB681B681A68FB681B6842F0400281
:101ACC001A60FB68DB68B3F5006F52D1FB685B688A
:101ADC00002B02D07B8B012B45D1FB681B6B1A882A
:101AEC00FB681B68DA60FB681B6B9A1CFB681A634B
:101AFC00FB68DB8E9BB2013B9AB2FB68DA8632E064
:101B0C00FB681B689B6803F00203022B12D1FB6875
:101B1C001B6B1A88FB681B68DA60FB681B6B9A1CD2
:101B2C00FB681A63FB68DB8E9BB2013B9AB2FB68C5
:101B3C00DA8618E0FFF74AF80246FB69D31A3A68CE
:101B4C009A4203D83B68B3F1FF3F02D13B68002BAC
:101B5C0009D1FB68012283F85120FB68002283F82D
:101B6C005020032382E0FB68DB8E9BB2002BC7D195
:101B7C0053E0FB685B68002B02D07B8B012B47D1B9
:101B8C00FB681A6BFB681B680C3312781A70FB68C5
:101B9C001B6B5A1CFB681A63FB68DB8E9BB2013B08
:101BAC009AB2FB68DA8633E0FB681B689B6803F02B
:101BBC000203022B13D1FB681A6BFB681B680C33F6
:101BCC0012781A70FB681B6B5A1CFB681A63FB6853
:101BDC00DB8E9BB2013B9AB2FB68DA8618E0FEF70B
:101BEC00F5FF0246FB69D31A3A689A4203D83B6860
:101BFC00B3F1FF3F02D13B68002B09D1FB680122F6
:101C0C0083F85120FB68002283F8502003232DE039
:101C1C00FB68DB8E9BB2002BC6D1FA693968F86879
:101C2C0000F0B0F80346002B02D0FB6820225A6566
:101C3C00FB689B68002B0AD100237B61FB681B6847
:101C4C00DB687B61FB681B689B687B617B69FB685D
:101C5C00012283F85120FB68002283F85020FB6896
:101C6C005B6D002B01D0012300E0002318462037C8
:101C7C00BD4680BD80B588B000AFF860B9603B60F0
:101C8C001346FB71FEF7A2FF0246BB6A9B1A3A6829
:101C9C001344FB61FEF79AFFB861394B1B685B017B
:101CAC001B0DFA6902FB03F37B6154E03B68B3F153
:101CBC00FF3F50D0FEF78AFF0246BB69D31AFA6980
:101CCC009A4202D9FB69002B3DD1FB681B685A680C
:101CDC00FB681B6822F0E0025A60FB685B68B3F596
:101CEC00827F11D1FB689B68B3F5004F04D0FB6871
:101CFC009B68B3F5806F07D1FB681B681A68FB689B
:101D0C001B6822F040021A60FB689B6AB3F5005F07
:101D1C000FD1FB681B681A68FB681B6822F4005221
:101D2C001A60FB681B681A68FB681B6842F4005257
:101D3C001A60FB68012283F85120FB68002283F8AB
:101D4C005020032317E07B69002B01D10023FB619A
:101D5C007B69013B7B61FB681B689A68BB6813401D
:101D6C00BA689A420CBF01230023DBB21A46FB79F6
:101D7C009A429BD1002318462037BD4680BD00BF38
:101D8C000800002080B586B002AFF860B9607A60B8
:101D9C007B680093BB6801220221F868FFF76AFF99
:101DAC000346002B07D0FB685B6D43F02002FB68F9
:101DBC005A65032313E07B680093BB6800228021E3
:101DCC00F868FFF757FF0346002B07D0FB685B6DE5
:101DDC0043F02002FB685A65032300E000231846F9
:101DEC001037BD4680BD03460244934200D1704774
:101DFC0003F8011BF9E7000070B500260C4D0D4CE3
:101E0C00641BA410A64209D100F01AF800260A4D52
:101E1C000A4C641BA410A64205D170BD55F8043BB6
:101E2C0098470136EEE755F8043B98470136F2E740
:101E3C00602C0008602C0008602C0008642C000842
:101E4C00F8B500BFF8BC08BC9E467047F8B500BF9B
:081E5C00F8BC08BC9E4670476B
:101E640048656C6C6F0000000F0180961180FFB113
:101E740003012C2DB203012C2DB306012C2D012CB2
:101E84002DB40107C003A20284C101C5C2020A0025
:101E9400C3028A2AC4028AEEC5010E20003A010553
:101EA400022A040000007F2B040000007F000000D1
:101EB40004E010021C07123732292D29252B390082
:101EC400010310E110031D07062E2C292D2E2E3799
:101ED4003F0000021013800A298064000000000003
:101EE40000000000000000000000000000000000EE
:101EF40000000000000000000000000000000000DE
:101F04000000000C000C000C000C000C000C000C79
:101F1400000C000C000C000C0000000C000C000075
:101F2400000000000000001B001B001B001B001B26
:101F3400000000000000000000000000000000009D
:101F440000000000000000000000801980198019C2
:101F54008019C07FC07F80190033C07FC07F0033E9
:101F64000033003300330000000000000000001EB6
:101F7400003F807580650074003C001E00078005EA
:101F8400806580658075003F001E00040004000029
:101F94000000007000D840D8C0D880D90073000673
:101FA400000C801BC036C066C046C006800300001B
:101FB400000000000000001E003F00330033003327
:101FC400001E000CC03CC066806380618063C03E1C
:101FD400801C0000000000000000000C000C000C3D
:101FE400000C000C000000000000000000000000D5
:101FF400000000000000000000000000800000015C
:102004000003000600060004000C000C000C000C89
:10201400000C000C00040006000600030001800010
:10202400002000100018000C000C0004000600063C
:1020340000060006000600060004000C000C001850
:10204400001000200000000C002D003F001E003393
:10205400000000000000000000000000000000007C
:102064000000000000000000000000000000000C60
:10207400000C000C000CC0FFC0FF000C000C000C96
:10208400000C000000000000000000000000000040
:10209400000000000000000000000000000000003C
:1020A400000000000000000C000C00040004000804
:1020B400000000000000000000000000000000001C
:1020C4000000001E001E00000000000000000000D0
:1020D40000000000000000000000000000000000FC
:1020E4000000000000000000000000000000000CE0
:1020F400000C0000000000000000000300030003C7
:102104000006000600060006000C000C000C000C83
:102114000018001800180000000000000000001E55
:10212400003F0033806180618061806D806D8061DB
:10213400806180610033003F001E00000000000049
:1021440000000006000E001E0036002600060006F1
:102154000006000600060006000600060006000051
:10216400000000000000001E003F80738061806159
:10217400800100030006000C001800300060807F1E
:10218400807F0000000000000000001C003E00638F
:1021940000630003000E000E0003800180018061D3
:1021A4008073003F001E00000000000000000006D5
:1021B400000E000E001E001E0016003600360066DB
:1021C400807F807F000600060006000000000000FB
:1021D4000000007F007F006000600060006E007FF0
:1021E40080638001800180618073003F001E0000D5
:1021F400000000000000001E003F8033806100608A
:10220400006E007F80738061806180618033003F55
:10221400001E0000000000000000807F807F80011D
:102224000003000300060006000C000C000C00086C
:102234000018001800180000000000000000001E34
:10224400003F8063806180610021001E003F806147
:10225400806180618061003F001E0000000000007A
:102264000000001E003F0073806180618061807304
:10227400803F801D800180610073003F001E0000CC
:102284000000000000000000000000000000000C3E
:10229400000C000000000000000000000000000C22
:1022A400000C00000000000000000000000000001E
:1022B40000000000000C000C000000000000000002
:1022C4000000000C000C00040004000800000000E2
:1022D4000000000080008003000E00380060003819
:1022E400000E8003800000000000000000000000D9
:1022F40000000000000000000000807F807F0000DC
:102304000000807F807F00000000000000000000CB
:102314000000000000000000000000000040007009
:10232400001C000780010007001C00700040000032
:1023340000000000000000000000001F803FC0718A
:10234400C060C000C00180030007000E000C000C38
:102354000000000C000C0000000000000000001E43
:10236400003F803180718063806F806D806D806FED
:10237400806700600032003E001C00000000000086
:102384000000000E000E001B001B001B001B803110
:102394008031803F803F8031C060C060C0600000F9
:1023A400000000000000007C007E00630063006306
:1023B4000063007E007E0063806180618063007F33
:1023C400007E0000000000000000001E003F80317D
:1023D40080610060006000600060006000608061F7
:1023E4008031003F001E0000000000000000007C5F
:1023F400007F0063806380618061806180618061AF
:10240400806100630063007E007C00000000000027
:102414000000807F807F0060006000600060007FBB
:10242400007F0060006000600060807F807F0000AB
:10243400000000000000807F807F0060006000607A
:102444000060007F007F006000600060006000604A
:1024540000600000000000000000001E003F80310A
:1024640080610060006000608063806380618061DF
:102474008031803F001E00000000000000008061E9
:1024840080618061806180618061807F807F806104
:1024940080618061806180618061000000000000D3
:1024A4000000003F003F000C000C000C000C000C6E
:1024B400000C000C000C000C000C003F003F00005E
:1024C4000000000000008001800180018001800183
:1024D4008001800180018001806180618073003F00
:1024E400001E0000000000000000C0608061006366
:1024F40000660066006C0078007C0066006600637D
:1025040080618061C0600000000000000000006085
:1025140000600060006000600060006000600060B7
:10252400006000600060807F807F00000000000089
:102534000000C071C071C07BC07AC06AC06AC06E3E
:10254400C064C060C060C060C060C060C0600000A3
:1025540000000000000080718071807980798079AA
:10256400806D806D806D8065806780678067806323
:1025740080630000000000000000001E003F0033E4
:10258400806180618061806180618061806180613F
:102594000033003F001E0000000000000000007E29
:1025A400007F80638061806180618063007F007E42
:1025B4000060006000600060006000000000000037
:1025C4000000001E003F00338061806180618061F3
:1025D40080618061806580670033803F401E000019
:1025E400000000000000007E007F80638061806145
:1025F4008063007F007E0066006300638061806109
:10260400C0600000000000000000000E001F8031C8
:10261400803100300038001E000780038061806133
:102624008031003F001E0000000000000000C0FFD9
:10263400C0FF000C000C000C000C000C000C000C83
:10264400000C000C000C000C000C0000000000004A
:10265400000080618061806180618061806180614F
:1026640080618061806180618073003F001E000092
:10267400000000000000C060C060C0608031803194
:102684008031001B001B001B001B000E000E000EFF
:1026940000040000000000000000C0C0C0C0C0C0B2
:1026A400C0C0C0C0C0CC804C804C805E8052805280
:1026B4008073806180610000000000000000C0C0E1
:1026C400806080610033003B001E000C000C001E83
:1026D400001F003B80718061C0C00000000000004A
:1026E4000000C0C08061806100330033001E001E02
:1026F400000C000C000C000C000C000C000C000082
:10270400000000000000803F803F800100030003C0
:102714000006000C000C0018001800300060807FD8
:10272400807F000000000000000F000F000C000C70
:10273400000C000C000C000C000C000C000C000C35
:10274400000C000C000C000C000F000F000000181F
:1027540000180018000C000C000C000C0006000609
:102764000006000600030003000300000000000050
:10277400001E001E000600060006000600060006F5
:102784000006000600060006000600060006000615
:10279400001E001E0000000C000C001E001200337E
:1027A4000033806180610000000000000000000030
:1027B4000000000000000000000000000000000015
:1027C4000000000000000000000000000000000005
:1027D4000000000000000000E0FF000000000038DE
:1027E4000018000C000000000000000000000000C1
:1027F40000000000000000000000000000000000D5
:1028040000000000000000000000001F803F806105
:102814008001801F803F80618063807FC03800001A
:102824000000000000000060006000600060006EB6
:10283400007F807380618061806180618073007F2C
:10284400006E000000000000000000000000000016
:102854000000001E003F80738061006000608061A2
:102864008073003F001E0000000000000000800193
:10287400800180018001801D803F807380618061C0
:10288400806180618073803F801D00000000000033
:1028940000000000000000000000001E003F007364
:1028A4008061807F807F00608071003F001E000097
:1028B400000000000000C007C00F000C000C807F67
:1028C400807F000C000C000C000C000C000C000CB1
:1028D400000C0000000000000000000000000000E8
:1028E400801D803F8073806180618061806180731E
:1028F400803F801D80018063007F003E00000060F7
:10290400006000600060006F807F80718061806182
:10291400806180618061806180610000000000004E
:1029240000000006000600000000003E003E000615
:102934000006000600060006000600060006000069
:10294400000000000006000600000000003E003EFB
:102954000006000600060006000600060006000643
:1029640000060046007E003C00000060006000603D
:102974000060806100630066006C007C0076006388
:1029840000638061C0600000000000000000003EA1
:10299400003E0006000600060006000600060006CB
:1029A4000006000600060006000600000000000005
:1029B4000000000000000000000080DDC0FFC0CE69
:1029C400C0CCC0CCC0CCC0CCC0CCC0CCC0CC00002F
:1029D4000000000000000000000000000000006F84
:1029E400807F8071806180618061806180618061AD
:1029F40080610000000000000000000000000000F2
:102A04000000001E003F80738061806180618061EE
:102A14008073003F001E0000000000000000000062
:102A240000000000006E007F80738061806180611F
:102A340080618073007F006E006000600060006051
:102A44000000000000000000801D803F8073806152
:102A54008061806180618073803F801D800180017E
:102A640080018001000000000000000000000067F9
:102A7400803F00390030003000300030003000303A
:102A84000030000000000000000000000000000012
:102A94000000001E803F80610060007F803F800155
:102AA4008061007F001E00000000000000000000A4
:102AB400000800180018007F007F00180018001894
:102AC400001800180018801F800F0000000000008C
:102AD400000000000000000000008061806180614F
:102AE40080618061806180618063807F803D0000BF
:102AF4000000000000000000000000000000C060B2
:102B0400803180318031001B001B001B000E000E41
:102B140000060000000000000000000000000000AB
:102B2400000080DD80DD80DD005500550055007714
:102B340000770022002200000000000000000000D6
:102B4400000000000000806100330033001E000C10
:102B5400000C001E00330033806100000000000000
:102B640000000000000000008061806180310033BB
:102B74000033001B001B001B000E000E000E001C87
:102B8400007C007000000000000000000000C07F16
:102B9400C07F800100030006000C00180030C07FD5
:102BA400C07F0000000000008003800700060006CC
:102BB400000600060006000E001C001C000E0006A5
:102BC40000060006000600068007800300060006D3
:102BD40000060006000600060006000600060006C1
:102BE40000060006000600060006000600060006B1
:102BF4000038003C000C000C000C000C000C000E13
:102C040000070007000E000C000C000C000C000C68
:102C1400003C00380000000000000000000000003C
:102C240000008038807F00470000000000000000A2
:102C34000000000000000000000000000000000090
:102C4400010203040607080902030405060708092C
:0C2C54000A0B0C0D0E0F10100102000006
:042C60003101000836
:042C64000D01000856
:102C68000B120000E01E000800127A00100000009D
:042C78000100000057
:0400000508000ADD08
:00000001FF
