:020000040800F2
:100000000050002085180008B9160008C116000825
:10001000C9160008D1160008D91600080000000013
:10002000000000000000000000000000E1160008D1
:10003000ED16000800000000F9160008051700087A
:10004000CD180008CD180008CD180008CD180008FC
:10005000CD180008CD180008CD180008CD180008EC
:10006000CD180008CD180008CD180008CD180008DC
:10007000CD180008CD180008CD180008CD180008CC
:10008000CD180008CD180008CD180008CD180008BC
:10009000CD180008CD180008CD180008CD180008AC
:1000A000CD180008CD180008CD180008CD1800089C
:1000B000CD180008CD180008CD180008CD1800088C
:1000C000CD180008CD180008CD180008CD1800087C
:1000D000CD180008CD180008CD180008CD1800086C
:1000E000CD180008CD180008CD1800080000000049
:1000F0000000000000000000000000000000000000
:0C01000000000000000000005FF808F1A3
:10010C0010B5054C237833B9044B13B10448AFF345
:10011C0000800123237010BD80000020000000002F
:10012C00C881000808B5034B1BB103490348AFF362
:10013C00008008BD0000000084000020C881000879
:10014C0070B54FF0FF0C4CF4E06C1CEA11541DBF61
:10015C001CEA135594EA0C0F95EA0C0F00F0DEF82C
:10016C002C4481EA030621EA4C5123EA4C5350EA11
:10017C00013518BF52EA033541F4801143F4801362
:10018C0038D0A0FB02CE4FF00005E1FB02E506F0F3
:10019C000042E0FB03E54FF00006E1FB03569CF048
:1001AC00000F18BF4EF0010EA4F1FF04B6F5007F4E
:1001BC0064F5407404D25FEA4E0E6D4146EB0606C0
:1001CC0042EAC62141EA55514FEAC52040EA5E5049
:1001DC004FEACE2EB4F1FD0C88BFBCF5E06F1ED8F3
:1001EC00BEF1004F08BF5FEA500E50F1000041EB2A
:1001FC00045170BD06F0004646EA010140EA0200D7
:10020C0081EA0301B4EB5C04C2BFD4EB0C0541EAF8
:10021C00045170BD41F480114FF0000E013C00F30D
:10022C00AB8014F1360FDEBF002001F0004170BD31
:10023C00C4F10004203C35DA0C341BDC04F114044A
:10024C00C4F1200500FA05F320FA04F001FA05F2D6
:10025C0040EA020001F0004221F0004110EBD370A3
:10026C0021FA04F642EB06015EEA430E08BF20EACF
:10027C00D37070BDC4F10C04C4F1200500FA04F372
:10028C0020FA05F001FA04F240EA020001F0004104
:10029C0010EBD37041F100015EEA430E08BF20EA77
:1002AC00D37070BDC4F1200500FA05F24EEA020EBF
:1002BC0020FA04F301FA05F243EA020321FA04F0EE
:1002CC0001F0004121FA04F220EA020000EBD370A5
:1002DC005EEA430E08BF20EAD37070BD94F0000FA5
:1002EC000FD101F00046400041EB010111F4801FD9
:1002FC0008BF013CF7D041EA060195F0000F18BF8A
:10030C00704703F00046520043EB030313F4801FC5
:10031C0008BF013DF7D043EA0603704794EA0C0F7F
:10032C000CEA135518BF95EA0C0F0CD050EA410695
:10033C0018BF52EA4306D1D181EA030101F0004112
:10034C004FF0000070BD50EA410606BF104619463A
:10035C0052EA430619D094EA0C0F02D150EA013646
:10036C0013D195EA0C0F05D152EA03361CBF104687
:10037C0019460AD181EA030101F0004141F0FE4126
:10038C0041F470014FF0000070BD41F0FE4141F4AA
:10039C00780170BD81F0004102E000BF83F00043A2
:1003AC0030B54FEA41044FEA430594EA050F08BF04
:1003BC0090EA020F1FBF54EA000C55EA020C7FEAC8
:1003CC00645C7FEA655C00F0E2804FEA5454D4EB45
:1003DC005555B8BF6D420CDD2C4480EA020281EA0F
:1003EC00030382EA000083EA010180EA020281EA47
:1003FC000303362D88BF30BD11F0004F4FEA013199
:10040C004FF4801C4CEA113102D0404261EB4101A7
:10041C0013F0004F4FEA03334CEA133302D052422D
:10042C0063EB430394EA050F00F0A780A4F10104E9
:10043C00D5F1200E0DDB02FA0EFC22FA05F2801823
:10044C0041F1000103FA0EF2801843FA05F3594109
:10045C000EE0A5F120050EF1200E012A03FA0EFC88
:10046C0028BF4CF0020C43FA05F3C01851EBE371B2
:10047C0001F0004507D54FF0000EDCF1000C7EEBCF
:10048C0000006EEB0101B1F5801F1BD3B1F5001F0D
:10049C000CD349085FEA30004FEA3C0C04F101042C
:1004AC004FEA445212F5800F80F09A80BCF1004F55
:1004BC0008BF5FEA500C50F1000041EB045141EAD7
:1004CC00050130BD5FEA4C0C404141EB0101013CA0
:1004DC0028BFB1F5801FE9D291F0000F04BF01468F
:1004EC000020B1FA81F308BF2033A3F10B03B3F161
:1004FC0020020CDA0C3208DD02F1140CC2F10C02F1
:10050C0001FA0CF021FA02F10CE002F11402D8BF4E
:10051C00C2F1200C01FA02F120FA0CFCDCBF41EA1A
:10052C000C019040E41AA2BF01EB0451294330BDE9
:10053C006FEA04041F3C1CDA0C340EDC04F11404C6
:10054C00C4F1200220FA04F001FA02F340EA03009D
:10055C0021FA04F345EA030130BDC4F10C04C4F1E3
:10056C00200220FA02F001FA04F340EA03002946C3
:10057C0030BD21FA04F0294630BD94F0000F83F40D
:10058C00801306BF81F480110134013D4EE77FEAF0
:10059C00645C18BF7FEA655C29D094EA050F08BF3C
:1005AC0090EA020F05D054EA000C04BF194610461D
:1005BC0030BD91EA030F1EBF0021002030BD5FEA61
:1005CC00545C05D14000494128BF41F0004130BD89
:1005DC0014F580043CBF01F5801130BD01F00045DD
:1005EC0045F0FE4141F470014FF0000030BD7FEA50
:1005FC00645C1ABF194610467FEA655C1CBF0B464B
:10060C00024650EA013406BF52EA033591EA030F61
:10061C0041F4002130BD00BF90F0000F04BF002159
:10062C00704730B54FF4806404F132044FF000058C
:10063C004FF0000150E700BF90F0000F04BF002105
:10064C00704730B54FF4806404F1320410F000456B
:10065C0048BF40424FF000013EE700BF42004FEA66
:10066C00E2014FEA31014FEA02701FBF12F07F43E3
:10067C0093F07F4F81F06051704732F07F4208BF9A
:10068C00704793F07F4F04BF41F40021704730B5A1
:10069C004FF4607401F0004521F000411CE700BFED
:1006AC0050EA010208BF704730B54FF000050AE070
:1006BC0050EA010208BF704730B511F0004502D571
:1006CC00404261EB41014FF4806404F132045FEA73
:1006DC00915C3FF4D8AE4FF003025FEADC0C18BF1C
:1006EC0003325FEADC0C18BF033202EBDC02C2F10E
:1006FC00200300FA03FC20FA02F001FA03FE40EAA0
:10070C000E0021FA02F11444BDE600BF4A0011D2DA
:10071C0012F5001211D20DD56FF47873B3EB62524F
:10072C000ED44FEAC12343F0004343EA505323FA5B
:10073C0002F070474FF00000704750EA013002D1D0
:10074C004FF0FF3070474FF00000704780B500AF9E
:10075C0000224FF40071024801F07EFB00BF80BD07
:10076C00000C014080B500AF01224FF4007102482B
:10077C0001F072FB00BF80BD000C014080B582B05F
:10078C0000AF0346FB7100BF084802F0FEFA0346B7
:10079C00012BF9D1F91D4FF47A730122034802F0B1
:1007AC0007F800BF0837BD4680BD00BFA000002081
:1007BC0080B584B002AFFF23FB710023BB7100BF77
:1007CC00094802F0E2FA0346012BF9D1BA1DF91DD2
:1007DC004FF47A7300930123034802F02DF9BB798F
:1007EC0018460837BD4680BDA000002080B582B0F9
:1007FC0000AF7860FFF7DCFF03461A467B681A707F
:10080C0000BF0837BD4680BD80B582B000AF0B4B32
:10081C0032221A70FFF7CCFFFFF7CAFF0346FB71B9
:10082C00FB79FF2B04D0054B1B78DBB2002BF3D1EB
:10083C00FB7918460837BD4680BD00BF1222002048
:10084C0080B586B000AF41F6FF737B61FFF78AFF7E
:10085C0000233B6105E0FF20FFF790FF3B6901336C
:10086C003B613B69092BF6DDFFF770FF40233B71C1
:10087C0000237B710023BB710023FB7100233B72AF
:10088C0095237B720023FB6009E03A1DFB6813443F
:10089C001B781846FFF772FFFB680133FB60FB689F
:1008AC00052BF2DD02E07B69013B7B61FFF780FFEA
:1008BC000346012B02D07B69002BF4D1FFF752FFCA
:1008CC00FF20FFF75BFF034B01221A7000BF1837A4
:1008DC00BD4680BD9D00002080B400AF034B0022BC
:1008EC001A7000BFBD4680BC704700BF9D00002041
:1008FC0080B400AF024B1B781846BD4680BC7047D5
:10090C009D00002080B584B000AF78603960174B33
:10091C000A221A70FFF74CFF0346FB73FB7BFF2B7D
:10092C0004D1124B1B78DBB2002BF3D1FB7BFE2BDB
:10093C0001D0002316E07B685A1C7A601846FFF73A
:10094C0055FF7B685A1C7A601846FFF74FFF3B68CF
:10095C00023B3B603B68002BEDD1FFF729FFFFF713
:10096C0027FF012318461037BD4680BD11220020F9
:10097C0080B584B000AF78600B46FB7000237B73AE
:10098C00FFF742FF0346FF2B01D0002340E0FB782A
:10099C001846FFF7F3FEFB78FD2B31D00023BB7319
:1009AC007B685A1C7A601B781846FFF7E7FE7B6859
:1009BC005A1C7A601B781846FFF7E0FEBB7B013BA4
:1009CC00BB73BB7B002BEBD1FFF7F2FEFFF7F0FE06
:1009DC000BE0FFF7EDFE0346FB73FB7B03F01F03FD
:1009EC00052B06D07B7B01337B737B7B402BF0D9B3
:1009FC0000E000BF00BFFFF7DBFE0346002BFAD080
:100A0C00FB7B03F01F03052B01D1012300E0002326
:100A1C0018461037BD4680BD80B584B000AF034684
:100A2C003960FB71FFF7F0FE0346FF2B01D0FF236B
:100A3C0040E0FB791846FFF7A1FE3B681B0EDBB2CA
:100A4C001846FFF79BFE3B681B0CDBB21846FFF702
:100A5C0095FE3B681B0ADBB21846FFF78FFE3B681E
:100A6C00DBB21846FFF78AFE0023FB73FB79402BA1
:100A7C0001D19523FB73FB79482B01D18723FB73A1
:100A8C00FB7B1846FFF77AFEFB794C2B01D1FFF765
:100A9C008FFE0A23BB73FFF78BFE03467B7397F91C
:100AAC000D30002B05DABB7B013BBB73BB7B002BF2
:100ABC00F1D17B7B18461037BD4680BD90B585B013
:100ACC0000AF0346FB71FB79002B01D00123D5E06D
:100ADC006C4B1B78DBB203F00203002B03D0694B89
:100AEC001B78DBB2CAE0FFF7ABFEFFF72FFE00234B
:100AFC00BB7300214020FFF78FFF0346012B40F012
:100B0C00A580614B64221A704FF4D5714820FFF711
:100B1C0083FF0346012B58D10023FB730CE0FC7BB5
:100B2C00FFF746FE03461A4604F110033B4403F854
:100B3C00082CFB7B0133FB73FB7B032BEFD9BB7ABC
:100B4C00012B40F08380FB7AAA2B7FD100217720E8
:100B5C00FFF762FF0346012B07D84FF08041692055
:100B6C00FFF75AFF0346002B05D0474B1B78DBB22F
:100B7C00002BEBD100E000BF434B1B78DBB2002B0A
:100B8C0064D000217A20FFF747FF0346002B5DD18C
:100B9C000023FB730CE0FC7BFFF70AFE03461A46AE
:100BAC0004F110033B4403F8082CFB7B0133FB736B
:100BBC00FB7B032BEFD93B7A03F04003002B01D0D6
:100BCC00062300E00223BB7340E000217720FFF7EF
:100BDC0023FF0346012B08D800216920FFF71CFFD7
:100BEC000346012B01D8022300E00123BB73BB7B1E
:100BFC00022B0ED100217720FFF70EFF0346012BAD
:100C0C000ED800216920FFF707FF0346002B07D100
:100C1C000DE000214120FFF7FFFE0346002B05D01D
:100C2C00194B1B78DBB2002BE1D100E000BF164B57
:100C3C001B78DBB2002B07D04FF400715020FFF76C
:100C4C00EBFE0346002B01D00023BB730F4ABB7B8A
:100C5C001370FFF787FDFFF7ABFDBB7B002B08D0B4
:100C6C00084B1B78DBB223F00103DAB2054B1A7088
:100C7C0001E0FFF731FE034B1B78DBB2184614374B
:100C8C00BD4690BD00000020112200209C000020D9
:100C9C0080B483B000AF0346FB71FB79002B01D00D
:100CAC00012302E0034B1B78DBB218460C37BD4620
:100CBC0080BC70470000002080B584B000AFB960E4
:100CCC007A603B600346FB73FB7B002B02D13B68D5
:100CDC00002B01D1042351E02A4B1B78DBB203F02B
:100CEC000103002B01D0032348E0274B1B7803F0B2
:100CFC000403002B02D17B685B027B60FFF726FDAF
:100D0C003B68012B11D179685120FFF785FE034612
:100D1C00002B29D14FF40071B868FFF7F3FD03469F
:100D2C00002B21D000233B601EE079685220FFF796
:100D3C0073FE0346002B17D14FF40071B868FFF710
:100D4C00E1FD0346002B0AD0BB6803F50073BB60C2
:100D5C003B68013B3B603B68002BEDD100E000BFE2
:100D6C0000214C20FFF758FEFFF7FCFCFFF720FD9D
:100D7C003B68002B14BF01230023DBB2184610374D
:100D8C00BD4680BD000000209C00002080B584B0D2
:100D9C0000AFB9607A603B600346FB73FB7B002BB2
:100DAC0002D13B68002B01D104236BE0374B1B783D
:100DBC00DBB203F00103002B01D0032362E0334BC1
:100DCC001B78DBB203F00403002B01D0022359E0A3
:100DDC002F4B1B7803F00403002B02D17B685B02C2
:100DEC007B60FFF7B3FC3B68012B10D1796858206E
:100DFC00FFF712FE0346002B3AD1FE21B868FFF72D
:100E0C00B7FD0346002B33D000233B6030E0204B72
:100E1C001B7803F00203002B07D000217720FFF78B
:100E2C00FBFD39685720FFF7F7FD79685920FFF76C
:100E3C00F3FD0346002B1BD1FC21B868FFF798FD8E
:100E4C000346002B0AD0BB6803F50073BB603B68FC
:100E5C00013B3B603B68002BEED100E000BFFD2165
:100E6C000020FFF785FD0346002B01D101233B60D9
:100E7C00FFF778FCFFF79CFC3B68002B14BF0123A9
:100E8C000023DBB218461037BD4680BD00000020A1
:100E9C009C00002090B58BB000AF03463A60FB710C
:100EAC000B46BB713B683B62FB79002B01D00423E2
:100EBC0019E1012387F82730BB79052B29D13B6A2F
:100ECC001B78022B17D0022B1FDC002B02D0012B1E
:100EDC000BD01AE0FFF70CFD0346002B01D0FFF7F7
:100EEC00FBFC002387F82730FBE0FFF7A9FC00236D
:100EFC0087F82730F5E03B6A5C1CFFF7F9FC0346EA
:100F0C002370002387F82730EBE0042387F8273081
:100F1C00E7E0774B1B78DBB203F00103002B01D029
:100F2C000323E0E0FFF712FCBB790D2B00F2CA8023
:100F3C0001A252F823F000BF3B1000087D0F0008FF
:100F4C002B100008D1100008D1100008D110000897
:100F5C00D1100008D1100008D1100008D1100008E1
:100F6C00D11000084D1000087110000895100008F1
:100F7C0000214920FFF750FD0346002B40F0A680CE
:100F8C0007F10C0310211846FFF7BCFC0346002B9D
:100F9C0000F09C803B7B9B09DBB2012B0DD17B7D50
:100FAC001A463B7D1B029BB213449BB20133FB835D
:100FBC00FB8B9A023B681A602DE07B7C03F00F03DD
:100FCC00DAB2BB7DDB09DBB21344DAB27B7D5B00AA
:100FDC00DBB203F00603DBB21344DBB2023387F857
:100FEC0026303B7D9B09DBB21A46FB7C9B009BB2F7
:100FFC0013449AB2BB7C9B029BB203F440639BB23A
:10100C0013449BB20133FB83FA8B97F82630093BD0
:10101C009A403B681A60002387F8273056E03B68FB
:10102C004FF400721A80002387F8273055E0FFF741
:10103C00EBFB0346FF2B4BD1002387F8273047E00F
:10104C0000214920FFF7E8FC0346002B42D1102178
:10105C00386AFFF757FC0346002B3BD0002387F878
:10106C00273037E000214A20FFF7D6FC0346002B3F
:10107C0032D11021386AFFF745FC0346002B2BD0E8
:10108C00002387F8273027E000217A20FFF7C4FCE3
:10109C000346002B16D1002387F826300BE03C6A60
:1010AC00631C3B62FFF784FB0346237097F82630E2
:1010BC00013387F8263097F82630032BEFD900231D
:1010CC0087F82730042387F8273006E000BF04E0B8
:1010DC0000BF02E000BF00E000BFFFF743FBFFF7DB
:1010EC0067FB97F8273018462C37BD4690BD00BFDC
:1010FC000000002080B582B000AF786039603A689B
:10110C007968034806F084F972B600BF00BFFDE7AA
:10111C00E081000880B582B000AF7860391D4FF6D1
:10112C00FF730122064801F046FF0346002B02D054
:10113C004FF0FF3300E07B6818460837BD4680BD92
:10114C00F800002080B500AF00F0BCFB00F0CCF83C
:10115C0000F070F900F00EF902F002F900F040F91D
:10116C00534806F0BDF900225249534804F0C6FD1D
:10117C000346002B03D080215048FFF7BBFF1322FE
:10118C004F49504804F004FE0346002B03D0842141
:10119C004A48FFF7AFFF4C4A4C49464805F026FE3B
:1011AC000346002B03D088214448FFF7A3FF464B8E
:1011BC001B6803F580535B69023B434A126802F5D6
:1011CC008052927802FB03F31846FFF725FA4FF092
:1011DC0000023F4BFEF7B4FF02460B461046194681
:1011EC00FFF794FA03463B4A1360374B1B6803F531
:1011FC0080539B781A46354B1B6802FB03F3184649
:10120C00FFF70AFA4FF00002314BFEF799FF024646
:10121C000B4610461946FFF779FA03462E4A13601F
:10122C002D4B1B68002B03D18F212448FFF762FF45
:10123C0024492A4805F02FFF2249294805F02BFFA5
:10124C00204805F0A8FD0346002B03D097211B482E
:10125C00FFF750FF01221A491A4804F099FD034682
:10126C00002B03D09B211548FFF744FF00BF154A04
:10127C0064211C4805F094FE0346002BF7D111485D
:10128C0005F089FD0346002B03D0A4210B48FFF782
:10129C0031FF01220749002004F030FD0346002BEA
:1012AC0004D0A8210548FFF725FF00BF00BFFDE7CC
:1012BC00F0810008F881000840010020FC81000842
:1012CC00108200087411002070110020A021002051
:1012DC000000E03FA4210020A82100201C8200086F
:1012EC0040820008AC21002080B590B000AF07F11F
:1012FC00180328220021184606F0D2F93B1D0022C3
:10130C001A605A609A60DA601A610123BB614FF46B
:10131C008033FB6100233B620123BB6202237B63AE
:10132C004FF48033BB634FF4E013FB6307F11803F6
:10133C00184600F0A9FD0346002B01D000F0C6F8BA
:10134C000F237B600223BB600023FB604FF48063A0
:10135C003B6100237B613B1D0221184601F016F80E
:10136C000346002B01D000F0B1F800BF4037BD465A
:10137C0080BD000080B500AF174B184A1A60164BA1
:10138C004FF482725A60144B00229A60124B002266
:10139C00DA60114B00221A610F4B00225A610E4B7E
:1013AC004FF400729A610C4B2822DA610A4B00222E
:1013BC001A62094B00225A62074B00229A62064BB2
:1013CC000A22DA62044801F06FF90346002B01D0BF
:1013DC0000F07CF800BF80BDA00000200030014070
:1013EC0080B500AF114B124A1A60104B4FF4E1322A
:1013FC005A600E4B00229A600C4B0022DA600B4BA9
:10140C0000221A61094B0C225A61084B00229A6186
:10141C00064B0022DA61054801F07DFD0346002BE6
:10142C0001D000F053F800BF80BD00BFF8000020D1
:10143C000038014080B588B000AF07F110030022DE
:10144C001A605A609A60DA601E4B9B691D4A43F021
:10145C00200393611B4B9B6903F02003FB60FB682B
:10146C00184B9B69174A43F004039361154B9B6916
:10147C0003F00403BB60BB68124B9B69114A43F039
:10148C00080393610F4B9B6903F008037B607B6837
:10149C0001224FF400710C4800F0DEFC4FF4007395
:1014AC003B6101237B610023BB610223FB6107F1DC
:1014BC0010031946044800F04BFB00BF2037BD4613
:1014CC0080BD00BF00100240000C014080B400AF92
:1014DC0072B600BF00BFFDE780B485B000AF154BFE
:1014EC009B69144A43F001039361124B9B6903F00F
:1014FC000103BB60BB680F4BDB690E4A43F08053A2
:10150C00D3610C4BDB6903F080537B607B680A4B27
:10151C005B68FB60FB6823F0E063FB60FB6843F0F7
:10152C000073FB60044AFB68536000BF1437BD4670
:10153C0080BC7047001002400000014080B588B0AC
:10154C0000AF786007F1100300221A605A609A60AD
:10155C00DA607B681B681B4A93422FD11A4B9B693C
:10156C00194A43F480539361174B9B6903F48053DE
:10157C00FB60FB68144B9B69134A43F004039361B3
:10158C00114B9B6903F00403BB60BB68A0233B6158
:10159C0002237B610323FB6107F1100319460B48FF
:1015AC0000F0D6FA40233B6100237B610023BB6132
:1015BC0007F110031946054800F0CAFA00BF20379E
:1015CC00BD4680BD003001400010024000080140C3
:1015DC0080B588B000AF786007F1100300221A6064
:1015EC005A609A60DA607B681B681C4A934231D15E
:1015FC001B4B9B691A4A43F480439361184B9B69BC
:10160C0003F48043FB60FB68154B9B69144A43F061
:10161C0004039361124B9B6903F00403BB60BB682A
:10162C004FF400733B6102237B610323FB6107F1E1
:10163C00100319460B4800F08BFA4FF480633B61A2
:10164C0000237B610023BB6107F110031946054899
:10165C0000F07EFA00BF2037BD4680BD0038014047
:10166C00001002400008014080B400AF0D4B1B7805
:10167C00DBB2002B06D00B4B1B78DBB2013BDAB292
:10168C00084B1A70084B1B78DBB2002B06D0064BAC
:10169C001B78DBB2013BDAB2034B1A7000BFBD46BC
:1016AC0080BC7047112200201222002080B400AFB1
:1016BC0000BFFDE780B400AF00BFFDE780B400AF12
:1016CC0000BFFDE780B400AF00BFFDE780B400AF02
:1016DC0000BFFDE780B400AF00BFBD4680BC7047C3
:1016EC0080B400AF00BFBD4680BC704780B400AF73
:1016FC0000BFBD4680BC704780B500AF0A4B1B785D
:10170C00DBB20133DAB2084B1A70074B1B78DBB231
:10171C00092B04D9044B00221A70FFF7A5FF00F027
:10172C0017F900BF80BD00BF1022002080B586B025
:10173C0000AFF860B9607A6000237B610AE0AFF318
:10174C0000800146BB685A1CBA60CAB21A707B6929
:10175C0001337B617A697B689A42F0DB7B681846BF
:10176C001837BD4680BD80B586B000AFF860B96053
:10177C007A6000237B6109E0BB685A1CBA601B7855
:10178C001846FFF7C7FC7B6901337B617A697B687C
:10179C009A42F1DB7B6818461837BD4680BD80B491
:1017AC0083B000AF78604FF0FF3318460C37BD465E
:1017BC0080BC704780B483B000AF786039603B6800
:1017CC004FF400525A60002318460C37BD4680BCBB
:1017DC00704780B483B000AF7860012318460C3793
:1017EC00BD4680BC704780B485B000AFF860B9606E
:1017FC007A60002318461437BD4680BC7047000041
:10180C0080B586B000AF7860144A154BD31A7B6153
:10181C007B693B61134B1B68002B02D1114B124AA5
:10182C001A60104B1A687B6813443A699A4207D2C3
:10183C0005F084FF03460C221A604FF0FF3309E0D9
:10184C00084B1B68FB60074B1A687B681344054AFE
:10185C001360FB6818461837BD4680BD0050002049
:10186C000004000014220020A025002080B400AF4A
:10187C0000BFBD4680BC7047FFF7F8FF0B480C4912
:10188C000C4A002302E0D458C4500433C4188C42D0
:10189C00F9D3094A094C002301E013600432A24237
:1018AC00FBD305F051FFFFF74DFC70470000002003
:1018BC008000002054880008800000209C25002017
:1018CC00FEE7000080B500AF084B1B68074A43F0E9
:1018DC0010031360032000F007F90F2000F008F844
:1018EC00FFF7FAFD0023184680BD00BF0020024020
:1018FC0080B582B000AF7860124B1A68124B1B781F
:10190C0019464FF47A73B3FBF1F3B2FBF3F31846B9
:10191C0000F011F90346002B01D001230EE07B6887
:10192C000F2B0AD8002279684FF0FF3000F0E7F84F
:10193C00064A7B681360002300E001231846083731
:10194C00BD4680BD040000200C00002008000020D3
:10195C0080B400AF054B1B781A46054B1B6813442B
:10196C00034A136000BFBD4680BC70470C000020CA
:10197C001822002080B400AF024B1B681846BD46ED
:10198C0080BC70471822002080B485B000AF78600E
:10199C007B6803F00703FB600C4BDB68BB60BA6829
:1019AC004FF6FF031340BB60FB681A02BB6813437E
:1019BC0043F0BF6343F40033BB60044ABB68D3609D
:1019CC0000BF1437BD4680BC704700BF00ED00E07F
:1019DC0080B400AF044BDB681B0A03F00703184606
:1019EC00BD4680BC704700BF00ED00E080B483B002
:1019FC0000AF03463960FB7197F90730002B0ADB07
:101A0C003B68DAB20C4997F907301201D2B20B4499
:101A1C0083F800230AE03B68DAB20849FB7903F04B
:101A2C000F03043B1201D2B20B441A7600BF0C37E1
:101A3C00BD4680BC704700BF00E100E000ED00E057
:101A4C0080B489B000AFF860B9607A60FB6803F0CD
:101A5C000703FB61FB69C3F10703042B28BF0423B5
:101A6C00BB61FB690433062B02D9FB69033B00E025
:101A7C0000237B614FF0FF32BB6902FA03F3DA43B8
:101A8C00BB681A407B699A404FF0FF317B6901FAC1
:101A9C0003F3D9437B680B40134318462437BD46E8
:101AAC0080BC704780B582B000AF78607B68013B2A
:101ABC00B3F1807F01D301230FE00A4A7B68013B1D
:101ACC0053600F214FF0FF30FFF790FF054B0022C2
:101ADC009A60044B07221A60002318460837BD464B
:101AEC0080BD00BF10E000E080B582B000AF786030
:101AFC007868FFF749FF00BF0837BD4680BD80B549
:101B0C0086B000AF0346B9607A60FB7300237B613B
:101B1C00FFF75EFF78617A68B9687869FFF790FF24
:101B2C00024697F90F3011461846FFF75FFF00BFCA
:101B3C001837BD4680BD80B582B000AF786078683C
:101B4C00FFF7B0FF034618460837BD4680BD0000BE
:101B5C0080B48BB000AF7860396000237B620023C7
:101B6C003B6269E101227B6A02FA03F3FB613B6889
:101B7C001B68FA691340BB61BA69FB699A4240F071
:101B8C0058813B685B689A4A93425ED0984A93426C
:101B9C0075D8984A934258D0964A93426FD8964A31
:101BAC00934252D0944A934269D8944A93424CD06F
:101BBC00924A934263D8924A934246D0904A9342B7
:101BCC005DD8122B2AD8122B59D801A252F823F027
:101BDC00571C0008311C0008431C0008851C000819
:101BEC008B1C00088B1C00088B1C00088B1C00082D
:101BFC008B1C00088B1C00088B1C00088B1C00081D
:101C0C008B1C00088B1C00088B1C00088B1C00080C
:101C1C008B1C0008391C00084D1C0008794A9342A3
:101C2C0013D02CE03B68DB683B6229E03B68DB6847
:101C3C0004333B6224E03B68DB6808333B621FE003
:101C4C003B68DB680C333B621AE03B689B68002BFB
:101C5C0002D104233B6213E03B689B68012B05D146
:101C6C0008233B627B68FA691A6109E008233B622E
:101C7C007B68FA695A6103E000233B6200E000BF15
:101C8C00BB69FF2B01D87B6801E07B6804337B6167
:101C9C00BB69FF2B02D87B6A9B0002E07B6A083B86
:101CAC009B003B617B691A680F213B6901FA03F3C6
:101CBC00DB431A40396A3B6901FA03F31A437B6927
:101CCC001A603B685B6803F08053002B00F0B18016
:101CDC004D4B9B694C4A43F0010393614A4B9B6902
:101CEC0003F00103BB60BB68484A7B6A9B08023364
:101CFC0052F82330FB607B6A03F003039B000F2236
:101D0C0002FA03F3DB43FA681340FB607B68404A3A
:101D1C00934213D07B683F4A93420DD07B683E4A76
:101D2C00934207D07B683D4A934201D1032306E0DE
:101D3C00042304E0022302E0012300E000237A6A7A
:101D4C0002F0030292009340FA681343FB602F49A0
:101D5C007B6A9B080233FA6841F823203B685B6876
:101D6C0003F48013002B06D02D4B9A682C49BB69C9
:101D7C0013438B6006E02A4B9A68BB69DB43284906
:101D8C0013408B603B685B6803F40013002B06D098
:101D9C00234BDA682249BB691343CB6006E0204B26
:101DAC00DA68BB69DB431E491340CB603B685B6858
:101DBC0003F40033002B06D0194B5A681849BB6941
:101DCC0013434B6006E0164B5A68BB69DB4314495E
:101DDC0013404B603B685B6803F48033002B21D0CD
:101DEC000F4B1A680E49BB6913430B6021E000BF0F
:101DFC0000003210000031100000221000002110F1
:101E0C0000001210000011100010024000000140F0
:101E1C0000080140000C014000100140001401407A
:101E2C00000401400B4B1A68BB69DB4309491340A2
:101E3C000B607B6A01337B623B681A687B6A22FA0F
:101E4C0003F3002B7FF48EAE00BF00BF2C37BD46D2
:101E5C0080BC70470004014080B483B000AF786050
:101E6C000B467B8013467B707B78002B03D07A88E3
:101E7C007B681A6103E07B881A047B681A6100BFD7
:101E8C000C37BD4680BC704780B586B000AF78601B
:101E9C007B68002B01D1012372E27B681B6803F085
:101EAC000103002B00F08780924B5B6803F00C035E
:101EBC00042B0CD08F4B5B6803F00C03082B12D156
:101ECC008C4B5B6803F48033B3F5803F0BD1894BAB
:101EDC001B6803F40033002B6CD07B685B68002B11
:101EEC0068D101234CE27B685B68B3F5803F06D177
:101EFC00804B1B687F4A43F4803313602EE07B6871
:101F0C005B68002B0CD17B4B1B687A4A23F4803323
:101F1C001360784B1B68774A23F4802313601DE011
:101F2C007B685B68B3F5A02F0CD1724B1B68714AB0
:101F3C0043F4802313606F4B1B686E4A43F4803369
:101F4C0013600BE06B4B1B686A4A23F480331360FD
:101F5C00684B1B68674A23F4802313607B685B68BB
:101F6C00002B13D0FFF706FD386108E0FFF702FDE8
:101F7C0002463B69D31A642B01D9032300E25D4B63
:101F8C001B6803F40033002BF0D014E0FFF7F2FCD5
:101F9C00386108E0FFF7EEFC02463B69D31A642B6C
:101FAC0001D90323ECE1534B1B6803F40033002BE2
:101FBC00F0D100E000BF7B681B6803F00203002B2C
:101FCC0063D04C4B5B6803F00C03002B0BD0494BDC
:101FDC005B6803F00C03082B1CD1464B5B6803F4C5
:101FEC008033002B16D1434B1B6803F00203002BEC
:101FFC0005D07B681B69012B01D00123C0E13D4B4F
:10200C001B6823F0F8027B685B69DB0039491343DA
:10201C000B603AE07B681B69002B20D0364B012209
:10202C001A60FFF7A7FC386108E0FFF7A3FC024633
:10203C003B69D31A022B01D90323A1E12D4B1B6859
:10204C0003F00203002BF0D02A4B1B6823F0F8029C
:10205C007B685B69DB00274913430B6015E0264B5B
:10206C0000221A60FFF786FC386108E0FFF782FC5B
:10207C0002463B69D31A022B01D9032380E11D4B85
:10208C001B6803F00203002BF0D17B681B6803F084
:10209C000803002B3AD07B689B69002B19D0174B97
:1020AC0001221A60FFF766FC386108E0FFF762FC5A
:1020BC0002463B69D31A022B01D9032360E10D4B75
:1020CC005B6A03F00203002BF0D0012000F0CEFA83
:1020DC001CE00A4B00221A60FFF74CFC38610FE041
:1020EC00FFF748FC02463B69D31A022B08D903239D
:1020FC0046E100BF00100240000042428004424210
:10210C00924B5B6A03F00203002BE9D17B681B68DE
:10211C0003F00403002B00F0A6800023FB758B4B0F
:10212C00DB6903F08053002B0DD1884BDB69874AA8
:10213C0043F08053D361854BDB6903F08053BB6064
:10214C00BB680123FB75824B1B6803F48073002B67
:10215C0018D17F4B1B687E4A43F480731360FFF7E2
:10216C0009FC386108E0FFF705FC02463B69D31A0D
:10217C00642B01D9032303E1754B1B6803F48073B3
:10218C00002BF0D07B68DB68012B06D16F4B1B6AF0
:10219C006E4A43F0010313622DE07B68DB68002B71
:1021AC000CD16A4B1B6A694A23F001031362674B1B
:1021BC001B6A664A23F0040313621CE07B68DB682D
:1021CC00052B0CD1614B1B6A604A43F0040313626C
:1021DC005E4B1B6A5D4A43F0010313620BE05B4BE1
:1021EC001B6A5A4A23F001031362584B1B6A574A65
:1021FC0023F0040313627B68DB68002B15D0FFF718
:10220C00B9FB38610AE0FFF7B5FB02463B69D31A0C
:10221C0041F28832934201D90323B1E04B4B1B6A44
:10222C0003F00203002BEED014E0FFF7A3FB3861A0
:10223C000AE0FFF79FFB02463B69D31A41F2883252
:10224C00934201D903239BE0404B1B6A03F002032A
:10225C00002BEED1FB7D012B05D13C4BDB693B4ABE
:10226C0023F08053D3617B68DB69002B00F08780FF
:10227C00364B5B6803F00C03082B61D07B68DB6981
:10228C00022B46D1334B00221A60FFF773FB3861E7
:10229C0008E0FFF76FFB02463B69D31A022B01D90A
:1022AC0003236DE0294B1B6803F00073002BF0D166
:1022BC007B681B6AB3F5803F08D1244B5B6823F421
:1022CC0000327B689B68214913434B601F4B5B6852
:1022DC0023F474127B68196A7B685B6A0B431B4995
:1022EC0013434B601B4B01221A60FFF743FB386111
:1022FC0008E0FFF73FFB02463B69D31A022B01D9DA
:10230C0003233DE0114B1B6803F00073002BF0D04E
:10231C0035E0104B00221A60FFF72CFB386108E007
:10232C00FFF728FB02463B69D31A022B01D9032382
:10233C0026E0064B1B6803F00073002BF0D11EE067
:10234C007B68DB69012B07D1012319E000100240E7
:10235C0000700040600042420B4B5B68FB60FB6806
:10236C0003F480327B681B6A9A4206D1FB6803F443
:10237C0070127B685B6A9A4201D0012300E0002353
:10238C0018461837BD4680BD0010024080B584B099
:10239C0000AF786039607B68002B01D10123D0E05D
:1023AC006A4B1B6803F007033A689A4210D9674BD3
:1023BC001B6823F0070265493B6813430B60634BB2
:1023CC001B6803F007033A689A4201D00123B8E076
:1023DC007B681B6803F00203002B20D07B681B6812
:1023EC0003F00403002B05D0594B5B68584A43F4A7
:1023FC00E06353607B681B6803F00803002B05D077
:10240C00534B5B68524A43F460535360504B5B68C8
:10241C0023F0F0027B689B684D4913434B607B684B
:10242C001B6803F00103002B40D07B685B68012B19
:10243C0007D1474B1B6803F40033002B15D1012344
:10244C007FE07B685B68022B07D1414B1B6803F074
:10245C000073002B09D1012373E03D4B1B6803F083
:10246C000203002B01D101236BE0394B5B6823F095
:10247C0003027B685B68364913434B60FFF77AFABB
:10248C00F8600AE0FFF776FA0246FB68D31A41F2CD
:10249C008832934201D9032353E02D4B5B6803F040
:1024AC000C027B685B689B009A42EBD1274B1B6844
:1024BC0003F007033A689A4210D2244B1B6823F0AE
:1024CC00070222493B6813430B60204B1B6803F047
:1024DC0007033A689A4201D0012332E07B681B68FB
:1024EC0003F00403002B08D0194B5B6823F4E06263
:1024FC007B68DB68164913434B607B681B6803F0F1
:10250C000803002B09D0124B5B6823F460527B68E4
:10251C001B69DB000E4913434B6000F021F80246A7
:10252C000B4B5B681B0903F00F030A49CB5C22FAC7
:10253C0003F3094A1360094B1B681846FFF7D8F9D7
:10254C00002318461037BD4680BD00BF0020024056
:10255C00001002409C8200080400002008000020AB
:10256C0080B487B000AF0023FB600023BB60002366
:10257C007B6100237B6000233B611E4B5B68FB602F
:10258C00FB6803F00C03042B02D0082B03D027E0CC
:10259C00194B3B6127E0FB689B0C03F00F03174AB8
:1025AC00D35C7B60FB6803F48033002B10D0114BA1
:1025BC005B685B0C03F00103114AD35CBB607B6866
:1025CC000D4A03FB02F2BB68B2FBF3F37B6104E040
:1025DC007B680C4A02FB03F37B617B693B6102E085
:1025EC00054B3B6100BF3B6918461C37BD4680BCA0
:1025FC00704700BF0010024000127A00B48200083D
:10260C00C482000800093D0080B400AF024B1B6877
:10261C001846BD4680BC70470400002080B500AF52
:10262C00FFF7F2FF0246054B5B681B0A03F007033A
:10263C000349CB5C22FA03F3184680BD001002401C
:10264C00AC82000880B500AFFFF7DEFF0246054BF9
:10265C005B68DB0A03F007030349CB5C22FA03F344
:10266C00184680BD00100240AC82000880B485B0D2
:10267C0000AF78600A4B1B680A4AA2FB03235B0A73
:10268C007A6802FB03F3FB6000BFFB685A1EFA601A
:10269C00002BF9D100BF00BF1437BD4680BC70477A
:1026AC0004000020D34D621080B582B000AF78607A
:1026BC007B68002B01D1012376E07B685B6A002BE1
:1026CC0008D17B685B68B3F5827F09D07B680022F8
:1026DC00DA6105E07B6800221A617B6800225A618E
:1026EC007B6800229A627B6893F85130DBB2002B36
:1026FC0006D17B68002283F850207868FEF71EFF15
:10270C007B68022283F851207B681B681A687B68FF
:10271C001B6822F040021A607B685B6803F48272CB
:10272C007B689B6803F404431A437B68DB6803F4FF
:10273C0000631A437B681B6903F002031A437B682E
:10274C005B6903F001031A437B689B6903F4007314
:10275C001A437B68DB6903F038031A437B681B6AF6
:10276C0003F0800342EA03017B689B6A03F4005286
:10277C007B681B680A431A607B689B691A0C7B6830
:10278C001B6802F004025A607B681B68DA697B687C
:10279C001B6822F40062DA617B6800225A657B6850
:1027AC00012283F85120002318460837BD4680BD0E
:1027BC0080B588B000AFF860B9603B601346FB8011
:1027CC00FFF7D8F8F861FB887B83FB6893F85130EE
:1027DC00DBB2012B01D002232AE1BB68002B02D013
:1027EC00FB88002B01D1012322E1FB6893F85030C8
:1027FC00012B01D102231BE1FB68012283F850203D
:10280C00FB68032283F85120FB6800225A65FB68A1
:10281C00BA681A63FB68FA889A86FB68FA88DA86C3
:10282C00FB6800229A63FB6800229A87FB680022EF
:10283C00DA87FB6800225A64FB6800221A64FB6882
:10284C009B68B3F5004F0FD1FB681B681A68FB68D7
:10285C001B6822F040021A60FB681B681A68FB6850
:10286C001B6842F480421A60FB681B681B6803F00B
:10287C004003402B07D0FB681B681A68FB681B6879
:10288C0042F040021A60FB68DB68B3F5006F52D16E
:10289C00FB685B68002B02D07B8B012B45D1FB685E
:1028AC001B6B1A88FB681B68DA60FB681B6B9A1C35
:1028BC00FB681A63FB68DB8E9BB2013B9AB2FB6828
:1028CC00DA8632E0FB681B689B6803F00203022B7C
:1028DC0012D1FB681B6B1A88FB681B68DA60FB68FB
:1028EC001B6B9A1CFB681A63FB68DB8E9BB2013B6B
:1028FC009AB2FB68DA8618E0FFF73CF80246FB69EF
:10290C00D31A3A689A4203D83B68B3F1FF3F02D11D
:10291C003B68002B09D1FB68012283F85120FB682E
:10292C00002283F85020032382E0FB68DB8E9BB2ED
:10293C00002BC7D153E0FB685B68002B02D07B8B6C
:10294C00012B47D1FB681A6BFB681B680C331278A0
:10295C001A70FB681B6B5A1CFB681A63FB68DB8ED6
:10296C009BB2013B9AB2FB68DA8633E0FB681B68CA
:10297C009B6803F00203022B13D1FB681A6BFB68F4
:10298C001B680C3312781A70FB681B6B5A1CFB68A3
:10299C001A63FB68DB8E9BB2013B9AB2FB68DA864A
:1029AC0018E0FEF7E7FF0246FB69D31A3A689A4231
:1029BC0003D83B68B3F1FF3F02D13B68002B09D130
:1029CC00FB68012283F85120FB68002283F8502019
:1029DC0003232DE0FB68DB8E9BB2002BC6D1FA697A
:1029EC003968F86800F066FA0346002B02D0FB68E1
:1029FC0020225A65FB689B68002B0AD100237B615F
:102A0C00FB681B68DB687B61FB681B689B687B61F0
:102A1C007B69FB68012283F85120FB68002283F854
:102A2C005020FB685B6D002B01D0012300E00023DC
:102A3C0018462037BD4680BD80B58AB000AFF8601F
:102A4C00B9607A607B8001237B62FEF793FF38626A
:102A5C00FB6893F85130FB77FB685B68BB617B8844
:102A6C00FB82FB7F012B0CD0BB69B3F5827F06D1B7
:102A7C00FB689B68002B02D1FB7F042B01D0022347
:102A8C007FE1BB68002B05D07B68002B02D07B88D4
:102A9C00002B01D1012374E1FB6893F85030012B1A
:102AAC0001D102236DE1FB68012283F85020FB6801
:102ABC0093F85130DBB2042B03D0FB68052283F86A
:102ACC005120FB6800225A65FB687A689A63FB68A0
:102ADC007A88DA87FB687A889A87FB68BA681A63FF
:102AEC00FB687A88DA86FB687A889A86FB6800220B
:102AFC001A64FB6800225A64FB681B681B6803F0AD
:102B0C004003402B07D0FB681B681A68FB681B68E6
:102B1C0042F040021A60FB68DB68B3F5006F7ED1AF
:102B2C00FB685B68002B02D0FB8A012B6CD1FB6825
:102B3C001B6B1A88FB681B68DA60FB681B6B9A1CA2
:102B4C00FB681A63FB68DB8E9BB2013B9AB2FB6895
:102B5C00DA8659E0FB681B689B6803F00203022BC2
:102B6C001BD1FB68DB8E9BB2002B16D07B6A012B32
:102B7C0013D1FB681B6B1A88FB681B68DA60FB6857
:102B8C001B6B9A1CFB681A63FB68DB8E9BB2013BC8
:102B9C009AB2FB68DA8600237B62FB681B689B6831
:102BAC0003F00103012B19D1FB68DB8F9BB2002BC7
:102BBC0014D0FB681B68DA68FB689B6B92B21A80B6
:102BCC00FB689B6B9A1CFB689A63FB68DB8F9BB260
:102BDC00013B9AB2FB68DA8701237B62FEF7CAFEDF
:102BEC0002463B6AD31A3A6B9A420DD83B6BB3F14F
:102BFC00FF3F09D0FB68012283F85120FB680022BB
:102C0C0083F850200323BCE0FB68DB8E9BB2002BC7
:102C1C00A0D1FB68DB8F9BB2002B9BD182E0FB68C1
:102C2C005B68002B02D0FB8A012B71D1FB681A6BFD
:102C3C00FB681B680C3312781A70FB681B6B5A1CF0
:102C4C00FB681A63FB68DB8E9BB2013B9AB2FB6894
:102C5C00DA865DE0FB681B689B6803F00203022BBD
:102C6C001CD1FB68DB8E9BB2002B17D07B6A012B2F
:102C7C0014D1FB681A6BFB681B680C3312781A7042
:102C8C00FB681B6B5A1CFB681A63FB68DB8E9BB2E0
:102C9C00013B9AB2FB68DA8600237B62FB681B68F7
:102CAC009B6803F00103012B19D1FB68DB8F9BB2EE
:102CBC00002B14D0FB681B68DA68FB689B6BD2B2E4
:102CCC001A70FB689B6B5A1CFB689A63FB68DB8F62
:102CDC009BB2013B9AB2FB68DA8701237B62FEF759
:102CEC0049FE02463B6AD31A3A6B9A4203D83B6BB5
:102CFC00B3F1FF3F02D13B6B002B09D1FB680122E2
:102D0C0083F85120FB68002283F85020032338E01D
:102D1C00FB68DB8E9BB2002B9CD1FB68DB8F9BB2DC
:102D2C00002B97D13A6A396BF86800F0C3F8034668
:102D3C00002B08D0FB6820225A65FB68002283F820
:102D4C00502001231DE0FB689B68002B0AD1002357
:102D5C003B61FB681B68DB683B61FB681B689B681D
:102D6C003B613B69FB68012283F85120FB68002220
:102D7C0083F85020FB685B6D002B01D0012300E031
:102D8C00002318462837BD4680BD80B483B000AF01
:102D9C0078607B6893F85130DBB218460C37BD462F
:102DAC0080BC704780B588B000AFF860B9603B60FC
:102DBC001346FB71FEF7DEFD0246BB6A9B1A3A68AE
:102DCC001344FB61FEF7D6FDB861394B1B685B0100
:102DDC001B0DFA6902FB03F37B6154E03B68B3F112
:102DEC00FF3F50D0FEF7C6FD0246BB69D31AFA6905
:102DFC009A4202D9FB69002B3DD1FB681B685A68CB
:102E0C00FB681B6822F0E0025A60FB685B68B3F554
:102E1C00827F11D1FB689B68B3F5004F04D0FB682F
:102E2C009B68B3F5806F07D1FB681B681A68FB6859
:102E3C001B6822F040021A60FB689B6AB3F5005FC6
:102E4C000FD1FB681B681A68FB681B6822F40052E0
:102E5C001A60FB681B681A68FB681B6842F4005216
:102E6C001A60FB68012283F85120FB68002283F86A
:102E7C005020032317E07B69002B01D10023FB6159
:102E8C007B69013B7B61FB681B689A68BB681340DC
:102E9C00BA689A420CBF01230023DBB21A46FB79B5
:102EAC009A429BD1002318462037BD4680BD00BFF7
:102EBC000400002080B586B002AFF860B9607A607B
:102ECC007B680093BB6801220221F868FFF76AFF58
:102EDC000346002B07D0FB685B6D43F02002FB68B8
:102EEC005A65032313E07B680093BB6800228021A2
:102EFC00F868FFF757FF0346002B07D0FB685B6DA4
:102F0C0043F02002FB685A65032300E000231846B7
:102F1C001037BD4680BD80B582B000AF78607B684D
:102F2C00002B01D1012342E07B6893F84130DBB2E6
:102F3C00002B06D17B68002283F840207868FEF7CE
:102F4C0047FB7B68242283F841207B681B68DA6886
:102F5C007B681B6822F40052DA60786800F072F922
:102F6C007B681B681A697B681B6822F490421A61A3
:102F7C007B681B685A697B681B6822F02A025A61BD
:102F8C007B681B68DA687B681B6842F40052DA6065
:102F9C007B6800225A647B68202283F841207B687E
:102FAC00202283F842207B6800225A6300231846B3
:102FBC000837BD4680BD80B58AB002AFF860B960F5
:102FCC003B601346FB8000237B61FB6893F8413028
:102FDC00DBB2202B75D1BB68002B02D0FB88002BF9
:102FEC0001D101236EE0FB6800225A64FB682122A8
:102FFC0083F84120FEF7BEFC7861FB68FA889A845E
:10300C00FB68FA88DA84FB689B68B3F5805F08D1AB
:10301C00FB681B69002B04D10023FB61BB68BB61FF
:10302C0003E0BB68FB610023BB612EE03B680093AF
:10303C007B6900228021F86800F048F80346002BD9
:10304C0005D0FB68202283F8412003233AE0FB697A
:10305C00002B0BD1BB691B881A46FB681B68C2F39B
:10306C0008025A60BB690233BB6107E0FB691A783E
:10307C00FB681B685A60FB690133FB61FB68DB8CE6
:10308C009BB2013B9AB2FB68DA84FB68DB8C9BB287
:10309C00002BCBD13B6800937B6900224021F86860
:1030AC0000F014F80346002B05D0FB68202283F8AF
:1030BC004120032306E0FB68202283F841200023F3
:1030CC0000E0022318462037BD4680BD80B586B08F
:1030DC0000AFF860B9603B601346FB713BE03B6AA4
:1030EC00B3F1FF3F37D0FEF745FC02463B68D31ADD
:1030FC003A6A9A4202D33B6A002B01D103233AE08D
:10310C00FB681B68DB6803F00403002B23D0BB684F
:10311C00802B20D0BB68402B1DD0FB681B681B6824
:10312C0003F00803082B16D100237B61FB681B6896
:10313C001B687B61FB681B685B687B617B69F8685B
:10314C0000F01DF8FB6808225A64FB68002283F823
:10315C00402001230FE0FB681B681A68BB68134012
:10316C00BA689A420CBF01230023DBB21A46FB79E2
:10317C009A42B4D0002318461837BD4680BD80B49F
:10318C0095B000AF78607B681B680C337B637B6BFE
:10319C0053E8003F3B633B6B23F49073FB647B6809
:1031AC001B680C33FA6C3A64FB63F96B3A6C41E8BC
:1031BC000023BB63BB6B002BE5D17B681B6814330E
:1031CC003B623B6A53E8003FFB61FB6923F0010360
:1031DC00BB647B681B681433BA6CFA62BB62B96A55
:1031EC00FA6A41E800237B627B6A002BE5D17B689D
:1031FC001B6B012B19D17B681B680C33FB60FB68C4
:10320C0053E8003FBB60BB6823F010037B647B6812
:10321C001B680C337A6CBA617B617969BA6941E8D5
:10322C0000233B613B69002BE5D17B68202283F8AE
:10323C0042207B6800221A6300BF5437BD4680BC15
:10324C007047000080B584B000AF78607B681B6865
:10325C001B6923F440517B68DA687B681B680A435E
:10326C001A617B689A687B681B691A437B685B6987
:10327C001343BB607B681B68DB6823F4B05323F0FB
:10328C000C037A681268B9680B43D3607B681B68BF
:10329C005B6923F440717B689A697B681B680A43FD
:1032AC005A617B681B682C4A934203D1FFF7CAF919
:1032BC00F86002E0FFF7B2F9F860FA6813469B0079
:1032CC0013449A001A447B685B689B00B2FBF3F3CF
:1032DC00224AA2FB03235B091901FA6813469B00DF
:1032EC0013449A001A447B685B689B00B2FBF3F2B0
:1032FC001A4BA3FB02035B09642000FB03F3D31AF4
:10330C001B013233154AA2FB03235B0903F0F003C4
:10331C001944FA6813469B0013449A001A447B68BC
:10332C005B689B00B2FBF3F20C4BA3FB02035B0943
:10333C00642000FB03F3D31A1B013233074AA2FBB0
:10334C0003235B0903F00F027B681B680A449A6035
:10335C0000BF1037BD4680BD003801401F85EB51C2
:10336C0080B500AF0449054803F018FF03461A4620
:10337C00034B1A7000BF80BD2022002010000020DB
:10338C001C22002080B400AF00231846BD4680BC30
:10339C00704780B582B000AF0346FB71FB791846CD
:1033AC00FDF78CFB034618460837BD4680BD80B53B
:1033BC0082B000AF0346FB71FB791846FDF768FC41
:1033CC00034618460837BD4680BD80B584B000AFB3
:1033DC00B9607A603B600346FB73F87B3B687A68A4
:1033EC00B968FDF769FC034618461037BD4680BD29
:1033FC0080B584B000AFB9607A603B600346FB7364
:10340C00F87B3B687A68B968FDF7C0FC0346184640
:10341C001037BD4680BD80B582B000AF03463A6020
:10342C00FB710B46BB71B979FB793A681846FDF70D
:10343C0031FD034618460837BD4680BD80B584B0C3
:10344C0000AF0346FB71FB79084A9B0013445B6891
:10345C005B68FA7905490A44127A10469847034684
:10346C00FB73FB7B18461037BD4680BD44240020FF
:10347C0080B584B000AF0346FB710023FB73FB796E
:10348C000D4AD35C002B11D1FB790B4A0121D1548D
:10349C00FB79094A9B0013445B681B68FA7906495F
:1034AC000A44127A104698470346FB73FB7B184676
:1034BC001037BD4680BD00BF4424002090B587B0B6
:1034CC0000AFB9607A603B600346FB73FB7B0A4A32
:1034DC009B0013445B689C68FB7B074A1344187A77
:1034EC003B687A68B968A0470346FB75FB7D1846B4
:1034FC001C37BD4690BD00BF4424002090B587B05A
:10350C0000AFB9607A603B600346FB73FB7B0A4AF1
:10351C009B0013445B68DC68FB7B074A1344187AF6
:10352C003B687A68B968A0470346FB75FB7D184673
:10353C001C37BD4690BD00BF4424002080B584B02C
:10354C0000AF03463A60FB710B46BB71FB79094A2D
:10355C009B0013445B681B69FA7906490A44107A8C
:10356C00B9793A6898470346FB73FB7B18461037CA
:10357C00BD4680BD4424002080B487B000AFF86005
:10358C00B9607A60FB687B61BB683B6107E03A69B4
:10359C00531C3B617B69591C796112781A707B68EA
:1035AC005A1E7A60002BF2D100BF00BF1C37BD46FB
:1035BC0080BC704780B487B000AFF860B9607A60A7
:1035CC00FB687B6105E07B695A1C7A61BA68D2B2F0
:1035DC001A707B685A1E7A60002BF4D100BF00BFB2
:1035EC001C37BD4680BC704780B489B000AFF86012
:1035FC00B9607A60FB68FB61BB68BB6100237B61CF
:10360C0000BF7B685A1E7A60002B0DD0FB695A1CD8
:10361C00FA611B781946BB695A1CBA611B78CB1A24
:10362C007B617B69002BECD07B6918462437BD4647
:10363C0080BC704780B483B000AF7860396002E022
:10364C007B6801337B607B681B78002B05D07B6823
:10365C001B781A463B689342F2D17B681B7818465C
:10366C000C37BD4680BC704780B485B000AF786025
:10367C0039600023BB60BB68FB603BE03149FA68F2
:10368C0013465B0013449B000B441B68002B2CD08F
:10369C002C49FA6813465B0013449B000B441A68D0
:1036AC007B6803F580531B689A4220D12549FA6840
:1036BC0013465B0013449B000B4404331A687B686D
:1036CC0003F580539B689A4211D11E49FA68134640
:1036DC005B0013449B000B4408331A887B6803F58A
:1036EC008053DB889A4202D107E00123BB60FB6860
:1036FC000133FB60FB68012BC0D9FB68022B09D19D
:10370C00BB68002B02D13B68022B01D1002313E0D4
:10371C00122311E03B68002B0BD10A49FA681346BF
:10372C005B0013449B000B440A331B88B3F5807F6A
:10373C0001D1102300E0002318461437BD4680BC8D
:10374C00704700BF2C22002080B483B000AF002350
:10375C007B6002E07B6801337B607B68012B09D8BE
:10376C000A497A6813465B0013449B000B441B68A0
:10377C00002BEFD17B68022B14BF01230023DBB29B
:10378C0018460C37BD4680BC704700BF2C22002069
:10379C0080B485B000AF786039600023FB602EE008
:1037AC005849FA6813465B0013449B000B441A6893
:1037BC007B6803F580531B689A421DD15149FA6806
:1037CC0013465B0013449B000B4404331A687B685C
:1037DC0003F580539B689A420ED14A49FA68134606
:1037EC005B0013449B000B4408331A887B6803F579
:1037FC008053DB889A4206D0FB680133FB60FB6880
:10380C00012BCDD900E000BFFB68022B48D100236F
:10381C00FB6002E0FB680133FB60FB68012B09D8FD
:10382C003849FA6813465B0013449B000B441B6831
:10383C00002BEFD1FB68022B01D100235DE07B68EC
:10384C0003F5805319682F48FA6813465B0013443C
:10385C009B00034419607B6803F5805399682948E1
:10386C00FA6813465B0013449B000344043319604D
:10387C007B6803F58053D8882249FA6813465B00AD
:10388C0013449B000B44083302461A801D49FA6806
:10389C0013465B0013449B000B440A3300221A802E
:1038AC003B68002B0CD01749FA6813465B00134495
:1038BC009B000B440A331B88002B01D000231CE017
:1038CC003B68002B0BD10F49FA6813465B0013447D
:1038DC009B000B440A331B88013399B201E04FF46F
:1038EC0080710848FA6813465B0013449B0003443C
:1038FC000A330A461A80FB68013318461437BD4652
:10390C0080BC70472C22002080B485B000AF78605A
:10391C007B68013B7B607B68012B2ED81B497A6846
:10392C0013465B0013449B000B440A331B88FB813A
:10393C00FB89B3F5807F01D10023FB81FB89002B30
:10394C0002D0FB89013BFB8110497A6813465B006E
:10395C0013449B000B440A33FA891A80FB89002B11
:10396C0008D10A497A6813465B0013449B000B4448
:10397C0000221A6000237B7301E002237B737B7BA4
:10398C0018461437BD4680BC704700BF2C2200205F
:10399C0080B485B000AF78600023FB6016E010495E
:1039AC00FA6813465B0013449B000B441B687A684F
:1039BC009A4208D10A49FA6813465B0013449B00EB
:1039CC000B4400221A60FB680133FB60FB68012B7F
:1039DC00E5D900BF00BF1437BD4680BC704700BF9F
:1039EC002C22002080B586B000AF78600023FB73DA
:1039FC007B6803F580531B79002B40D07B6803F563
:103A0C008053DB6A7B617B6803F580535878796857
:103A1C0001237A69FFF772FD0346002B02D00123C4
:103A2C00FB732CE07B6803F5805300221A717B68D2
:103A3C0003F580531B6A7A69D21A7B6803F58053AD
:103A4C009B699A421BD27B6803F58053DB783B6100
:103A5C0012E07B6803F580539B697A6913447B61A0
:103A6C007B6803F580535878796801237A69FFF7EE
:103A7C0045FD3B69013B3B613B69012BE9D8FB7B75
:103A8C0018461837BD4680BD80B584B000AF78604D
:103A9C0039600023FB737B6803F58053DB6A3A685B
:103AAC009A421ED07868FFF79DFF0346FB73FB7BA1
:103ABC00002B16D17B6803F5805358787968012365
:103ACC003A68FFF7FBFC0346002B04D04FF0FF33A2
:103ADC003B600123FB737B6803F580531A463B68FC
:103AEC00D362FB7B18461037BD4680BD80B584B0D1
:103AFC0000AF78607868FFF775FF0346FB73FB7BBC
:103B0C00002B40F0AD807B6803F580531B78032BB2
:103B1C0040F098807B6803F580535B79012B40F073
:103B2C00918078687B6803F580535B891A46002185
:103B3C00FFF740FD7B68552283F8FE217B68AA22A3
:103B4C0083F8FF217B6852221A707B6852225A70CC
:103B5C007B6861229A707B684122DA707B687222E2
:103B6C0083F8E4217B68722283F8E5217B6841228B
:103B7C0083F8E6217B68612283F8E7217B6803F5F3
:103B8C0080531B69DAB27B6883F8E8217B6803F504
:103B9C0080531B699BB21B0A9BB2DAB27B6883F819
:103BAC00E9217B6803F580531B691B0CDAB27B6837
:103BBC0083F8EA217B6803F580531B691B0EDAB28C
:103BCC007B6883F8EB217B6803F58053DB68DAB202
:103BDC007B6883F8EC217B6803F58053DB689BB230
:103BEC001B0A9BB2DAB27B6883F8ED217B6803F584
:103BFC008053DB681B0CDAB27B6883F8EE217B68A0
:103C0C0003F58053DB681B0EDAB27B6883F8EF2177
:103C1C007B6803F58053DB6901337A6802F58052C7
:103C2C00D3627B6803F58053587879687B6803F519
:103C3C008053DA6A0123FFF761FC7B6803F580533C
:103C4C0000225A717B6803F580535B7800220021B7
:103C5C001846FFF773FC0346002B01D00123FB73BE
:103C6C00FB7B18461037BD4680BD80B483B000AFD7
:103C7C00786039603B68023B3B607B6803F580539E
:103C8C005B69023B3A689A4201D300230CE07B68E3
:103C9C0003F580539B781A463B6803FB02F27B6862
:103CAC0003F580539B6A134418460C37BD4680BC01
:103CBC00704780B586B000AF786039603B68012BE7
:103CCC0006D97B6803F580535B693A689A4202D344
:103CDC0001237B61E3E04FF0FF337B617B6803F5ED
:103CEC0080531B78032B00F09780032B00F3CD80BF
:103CFC00012B02D0022B5ED0C7E03B68FB60FB6857
:103D0C005B08FA681344FB607B6803F580531A6AFE
:103D1C007B6803F580535B891946FB68B3FBF1F3B1
:103D2C00134419467868FFF7AFFE0346002B40F0AA
:103D3C00AF80FB685A1CFA607A6802F5805252898F
:103D4C00B3FBF2F101FB02F29B1A7A68D35CBB6005
:103D5C007B6803F580531A6A7B6803F580535B8993
:103D6C001946FB68B3FBF1F3134419467868FFF767
:103D7C008BFE0346002B40F08D807B6803F580534F
:103D8C005B891A46FB68B3FBF2F101FB02F29B1A4A
:103D9C007A68D35C1B02BA681343BB603B6803F0C0
:103DAC000103002B02D0BB681B0902E0BB68C3F304
:103DBC000B037B6173E07B6803F580531A6A7B68A5
:103DCC0003F580535B895B089BB219463B68B3FBD8
:103DDC00F1F3134419467868FFF756FE0346002B9F
:103DEC005AD13B685B007A6802F580525289B3FB6A
:103DFC00F2F101FB02F29B1A7A6813443B613B69B6
:103E0C0001331B781B021AB23B691B781BB213439C
:103E1C001BB29BB27B6142E07B6803F580531A6A4C
:103E2C007B6803F580535B899B089BB219463B6802
:103E3C00B3FBF1F3134419467868FFF725FE0346EC
:103E4C00002B2BD13B689B007A6802F5805252897B
:103E5C00B3FBF2F101FB02F29B1A7A6813443B614B
:103E6C003B6903331B781A063B6902331B781B042E
:103E7C001A433B6901331B781B0213433A691278CE
:103E8C00134323F070437B6109E001237B6106E05F
:103E9C0000BF04E000BF02E000BF00E000BF7B6990
:103EAC0018461837BD4680BD80B588B000AFF860A5
:103EBC00B9607A60BB68012B06D9FB6803F58053A7
:103ECC005B69BA689A4202D30223FB773AE1FB683A
:103EDC0003F580531B78032B00F0D080032B00F3E9
:103EEC002781012B03D0022B00F08F8020E1BB68CF
:103EFC007B617B695B087A6913447B61FB6803F522
:103F0C0080531A6AFB6803F580535B8919467B69F9
:103F1C00B3FBF1F313441946F868FFF7B5FD0346FC
:103F2C00FB77FB7F002B40F006817B695A1C7A6182
:103F3C00FA6802F580525289B3FBF2F101FB02F2EE
:103F4C009B1AFA681344BB61BB6803F00103002B96
:103F5C000DD0BB691B785BB203F00F035AB27B68C0
:103F6C00DBB21B015BB213435BB2DBB201E07B68DB
:103F7C00DBB2BA691370FB6803F5805301221A7126
:103F8C00FB6803F580531A6AFB6803F580535B8961
:103F9C0019467B69B3FBF1F313441946F868FFF734
:103FAC0073FD0346FB77FB7F002B40F0C680FB685C
:103FBC0003F580535B891A467B69B3FBF2F101FB75
:103FCC0002F29B1AFA681344BB61BB6803F001034D
:103FDC00002B03D07B681B09DBB20EE0BB691B789E
:103FEC005BB223F00F035AB27B681B0A5BB203F07F
:103FFC000F035BB213435BB2DBB2BA691370FB689D
:10400C0003F5805301221A719CE0FB6803F5805381
:10401C001A6AFB6803F580535B895B089BB21946EF
:10402C00BB68B3FBF1F313441946F868FFF72CFD9A
:10403C000346FB77FB7F002B40F08180BB685B0065
:10404C00FA6802F580525289B3FBF2F101FB02F2DD
:10405C009B1AFA681344BB617B68DAB2BB691A70AD
:10406C007B689BB21B0A9AB2BB690133D2B21A703D
:10407C00FB6803F5805301221A7163E0FB6803F5BA
:10408C0080531A6AFB6803F580535B899B089BB2CB
:10409C001946BB68B3FBF1F313441946F868FFF7F4
:1040AC00F3FC0346FB77FB7F002B4AD1BB689B00DC
:1040BC00FA6802F580525289B3FBF2F101FB02F26D
:1040CC009B1AFA681344BB61BB6903331B781A064D
:1040DC00BB6902331B781B041A43BB6901331B7881
:1040EC001B021343BA691278134303F070437A68C6
:1040FC0013437B607B68DAB2BB691A707B689BB236
:10410C001B0A9AB2BB690133D2B21A707B681A0CC3
:10411C00BB690233D2B21A707B681A0EBB690333C7
:10412C00D2B21A70FB6803F5805301221A7109E0B0
:10413C000223FB7706E000BF04E000BF02E000BFF3
:10414C0000E000BFFB7F18462037BD4680BD80B520
:10415C0084B000AF786039603B68012B06D97B686E
:10416C0003F580535B693A689A4202D30223FB73CE
:10417C0049E00023FB733BE039687868FFF799FD51
:10418C00B860BB68002B3BD0BB68012B02D102236B
:10419C00FB7338E0BB68B3F1FF3F02D10123FB7323
:1041AC0031E0002239687868FFF77EFE0346FB7326
:1041BC00FB7B002B26D17B6803F580531B69B3F185
:1041CC00FF3F13D07B6803F580531B6901337A687A
:1041DC0002F5805213617B6803F580535B7943F0E1
:1041EC000103DAB27B6803F580535A71BB683B60FC
:1041FC007B6803F580535B693A689A42BCD302E052
:10420C0000BF00E000BFFB7B18461037BD4680BDE9
:10421C0080B586B000AF786039603B68002B11D157
:10422C007B6803F58053DB683B613B69002B06D050
:10423C007B6803F580535B693A699A421DD301236D
:10424C003B611AE039687868FFF733FDB860BB68EA
:10425C00012B01D801237FE0BB68B3F1FF3F01D1F3
:10426C00BB6879E07B6803F580535B69BA689A4256
:10427C0001D2BB6870E03B683B613B697B617B6949
:10428C0001337B617B6803F580535B697A699A42E1
:10429C0007D302237B617A693B699A4201D90023D7
:1042AC005AE079697868FFF704FDB860BB68002BA9
:1042BC000ED0BB68B3F1FF3F02D0BB68012B01D11C
:1042CC00BB6849E07A693B699A42D8D1002343E044
:1042DC0000BF6FF0704279697868FFF7E5FD03461F
:1042EC00FB73FB7B002B09D13B68002B06D07A6952
:1042FC0039687868FFF7D8FD0346FB73FB7B002B0E
:10430C0021D17B6803F580531A467B69D3607B68A7
:10431C0003F580531B69B3F1FF3F1CD07B6803F599
:10432C0080531B69013B7A6802F5805213617B68EC
:10433C0003F580535B7943F00103DAB27B6803F534
:10434C0080535A7107E0FB7B012B02D14FF0FF33F6
:10435C0000E001237B617B6918461837BD4680BDA0
:10436C0080B487B000AF786039607B6803F5805308
:10437C005B6A04333B617B6803F580531B6803F570
:10438C0080535B891A463B68B3FBF2F37A6802F5FB
:10439C008052126802F580529278B3FBF2F37B6183
:1043AC003B691A1D3A611B68FB60FB68002B01D14D
:1043BC00002310E07A69FB689A4207D37A69FB689C
:1043CC00D31A7B613B6904333B61E9E700BF3B696E
:1043DC001A687B69134418461C37BD4680BC70476D
:1043EC0080B586B000AF786039603B689AB27B6864
:1043FC0003F58053DA807B6803F580539B687B61FF
:10440C007B69012B09D07B6803F580531B6803F58E
:10441C0080535B697A699A4201D30223AAE07B69D3
:10442C00002B10D17B6803F580531B6803F5805378
:10443C001B78032B07D17B6803F580531B6803F5AE
:10444C0080535B6A7B617B69002B15D17B6803F51C
:10445C0080531B6803F580531B891A463B689342B3
:10446C0001D3022386E07B6803F580531B6803F5B8
:10447C0080535B6A3B6143E07B6803F580531B68A8
:10448C0003F580535B895B099BB21A467B6803F585
:10449C0080531B6803F580539B7802FB03F3FB608E
:1044AC0021E07B6803F580531B6879691846FFF798
:1044BC0000FC78617B69B3F1FF3F01D1012359E026
:1044CC007B69012B09D97B6803F580531B6803F5C5
:1044DC0080535B697A699A4201D302234AE03A68B5
:1044EC00FB68D31A3B603A68FB689A42D9D27B6866
:1044FC0003F580531B6879691846FFF7B6FB3861E2
:10450C007B6803F580531A467B69D3603B69002BAB
:10451C0001D102232EE07B6803F580531B6803F561
:10452C0080535B895B099BB21A463B68B3FBF2F282
:10453C003B6913447A6802F5805213617B6803F57A
:10454C0080531B6818467B6803F580531B6803F582
:10455C0080535B895B099BB21A463B68B3FBF2F153
:10456C0001FB02F29B1A5B0103447A6802F580524C
:10457C005361002318461837BD4680BD90B587B0EF
:10458C0000AF786039607B6803F58053DB880133BA
:10459C00FB60FB689BB2002B05D07B6803F5805356
:1045AC001B69002B01D104232EE17B6803F580539A
:1045BC001B6803F580535B895B099BB21A46FB6849
:1045CC00B3FBF2F101FB02F29B1A002B40F0FA80D4
:1045DC007B6803F580531B6901337A6802F58052BE
:1045EC0013617B6803F58053DB68002B0DD17B686E
:1045FC0003F580531B6803F580531B891A46FB682F
:10460C009342C0F0DF800423FEE07B6803F5805307
:10461C001B6803F580535B895B099BB21A46FB68E8
:10462C00B3FBF2F37A6802F58052126802F58052FD
:10463C009278013A1340002B40F0C4807B6803F55C
:10464C0080531A687B6803F58053DB681946104663
:10465C00FFF72FFB78617B69012B01D80223D3E094
:10466C007B69B3F1FF3F01D10123CDE07B6803F5FA
:10467C0080531B6803F580535B697A699A42C0F0DA
:10468C008E803B68002B01D10423BDE07B6803F5D1
:10469C0080531A687B6803F58053DB681946104613
:1046AC00FFF7B6FD78617B69002B01D10723ABE0E6
:1046BC007B69012B01D10223A6E07B69B3F1FF3F9B
:1046CC0001D10123A0E07B6803F580531B681846D9
:1046DC00FFF788F90346002B01D0012394E07B6897
:1046EC0003F580531B6818467B6803F580531B68E1
:1046FC0003F580535B891A460021FEF75BFF7B684C
:10470C0003F580531A687B6803F580531C6879693C
:10471C001046FFF7AAFA034604F58052D362002331
:10472C003B6121E07B6803F580531B6803F58053E4
:10473C0001221A717B6803F580531B681846FFF73A
:10474C0051F90346002B01D001235DE07B6803F592
:10475C0080531B6803F58052D26A013203F58053F3
:10476C00DA623B6901333B617B6803F580531B685C
:10477C0003F580539B781A463B699342D2D37B68EE
:10478C0003F580531B6803F58053D96A7B6803F5E6
:10479C0080531A683B69CB1A02F58052D3627B684E
:1047AC0003F580531A467B69D3607B6803F580530D
:1047BC001B6879691846FFF758FA02467B6803F5BF
:1047CC0080531A61FB689AB27B6803F58053DA80D8
:1047DC007B6803F580531B6818467B6803F5805390
:1047EC001B6803F580535B895B099BB21A46FB6817
:1047FC00B3FBF2F101FB02F29B1A5B0103447A68F2
:10480C0002F580525361002318461C37BD4690BDFB
:10481C0080B584B000AF7860396000217868FFF70C
:10482C00DFFD0346FB73FB7B002B35D10023BB6004
:10483C007B6803F580531A687B6803F580531B690A
:10484C0019461046FFF720F90346FB73FB7B002B40
:10485C0021D17B6803F580535B691B78E52B06D06F
:10486C007B6803F580535B691B78002B07D1BB6811
:10487C000133BB60BA683B689A4202D10CE000235A
:10488C00BB6001217868FFF779FE0346FB73FB7B65
:10489C00002BCDD000E000BFFB7B042B01D1072304
:1048AC00FB73FB7B18461037BD4680BD80B485B0CA
:1048BC0000AF786039603B681B331B781B021AB25F
:1048CC003B681A331B781BB213431BB29BB2FB60C1
:1048DC007B6803F580531B78032B0FD13B68153392
:1048EC001B781B021AB23B6814331B781BB21343A0
:1048FC001BB29BB21B04FA681343FB60FB6818469F
:10490C001437BD4680BC704780B483B000AF78606C
:10491C0039607B681A333A68D2B21A703B689BB222
:10492C001B0A9AB27B681B33D2B21A703B681A0C02
:10493C007B681433D2B21A703B681B0C9BB21B0AF7
:10494C009AB27B681533D2B21A7000BF0C37BD46D1
:10495C0080BC704780B586B000AF786039603B682A
:10496C001B7823F040035A1E13465B0013449B0034
:10497C0013447B6100233B610123FB812B4A3B6980
:10498C0013441B7801333A6813441B781B021AB288
:10499C0026493B690B441B7819463B680B441B7832
:1049AC001BB213431BB2BB81FB89002B19D0BB89F3
:1049BC00184602F03DFC0346FB817B69FE2B0ED8AA
:1049CC007B695A1C7A615B007A6813441B88184611
:1049DC0002F02EFC03461A46FB89934208D00023B2
:1049EC001FE0BB894FF6FF72934201D0002318E001
:1049FC003B6901333B613B690C2BBFD93B681B788E
:104A0C0003F04003002B0BD0FB89002B08D07B69F3
:104A1C005B007A6813441B88002B01D0002300E054
:104A2C00012318461837BD4680BD00BF48830008D7
:104A3C0080B489B000AFF860B96011461A460B46D5
:104A4C00FB711346BB71BB680D33BA791A70BB6826
:104A5C000B330F221A70BB680C3300221A70BB6820
:104A6C001A3300221A70BB681B3300221A70FB79B0
:104A7C005A1E13465B0013449B001344FB61002336
:104A8C00FB820023BB61FB8A4FF6FF72934207D077
:104A9C00FB695A1CFA615B00FA6813441B88FB82A1
:104AAC001C4ABB6913441B781A46BB681344FA8A28
:104ABC00D2B21A70FB8A1B0A99B2164ABB6913440C
:104ACC001B780133BA681344CAB21A70FB8A002BE4
:104ADC0002D14FF6FF73FB82BB690133BB61BB692B
:104AEC000C2BD0D9FB8A4FF6FF72934206D0FB6990
:104AFC005B00FA6813441B88002B03D1FB7943F04D
:104B0C004003FB71BB68FA791A7000BF2437BD46AD
:104B1C0080BC70474883000880B58CB000AFF8604B
:104B2C00B9607A603B600B22B968F868FEF724FD27
:104B3C003B68052B2BD93B68FB6122E07B689A1CF8
:104B4C007A601B887B840023BB6217E0FB695A00E8
:104B5C007B8C03F001031344FB617B8C5B087B842F
:104B6C00FB6903F48033002B05D0FB6983F4883395
:104B7C0083F02103FB61BB6A0133BB62BB6A0F2B61
:104B8C00E4D97B681B88002BD8D1FB693B600723D9
:104B9C00BB623B68DBB203F00F03DBB2303387F848
:104BAC002F3097F82F30392B04D997F82F30073343
:104BBC0087F82F30BB6A5A1EBA6230333B4497F8E1
:104BCC002F2003F81C2C3B681B093B603B68002B17
:104BDC00DFD107F11402BB6A13447E221A70002342
:104BEC007B6202E07B6A01337B627A6ABB6A9A421F
:104BFC0005D2FA687B6A13441B78202BF2D1BB6A6E
:104C0C00072B07D8BB6A5A1CBA6230333B4413F8E3
:104C1C001C1C00E020217B6A5A1C7A62FA6813443F
:104C2C000A461A707B6A072BE9D900BF00BF3037E0
:104C3C00BD4680BD80B485B000AF78600023FB73A7
:104C4C000B23BB60FB7BDAB25208DB011343DAB2F5
:104C5C007B68591C79601B781344FB73BB68013B60
:104C6C00BB60BB68002BEDD1FB7B18461437BD46EF
:104C7C0080BC704780B586B000AF78600021786842
:104C8C00FFF7AEFB0346FB75FB7D002B01D0FB7DD4
:104C9C00B8E0FF233B753B7D7B757B6803F5805348
:104CAC004FF6FF729A847B6803F580531A687B6811
:104CBC0003F580531B6919461046FEF7E5FE0346C3
:104CCC00FB75FB7D002B40F097807B6803F58053D0
:104CDC005B693B613B691B78BB75BB7D002B02D1CB
:104CEC000423FB758DE03B690B331B7803F03F030A
:104CFC00FB73BB7DE52B07D0FB7B03F00803002B7C
:104D0C000BD0FB7B0F2B08D0FF237B757B6803F547
:104D1C0080534FF6FF729A8463E0FB7B0F2B37D1E5
:104D2C007B6803F580531B6A002B5AD0BB7D03F0C4
:104D3C004003002B10D03B695B7B3B75BB7D23F0A4
:104D4C004003BB75BB7D7B757B6803F58053DA88AC
:104D5C007B6803F580539A84BA7D7B7D9A4214D18B
:104D6C003B690D331B783A7D9A420ED17B6803F573
:104D7C0080531B6A39691846FFF7ECFD0346002B7C
:104D8C0003D07B7D013BDBB200E0FF237B7528E089
:104D9C007B7D002B07D13869FFF74CFF03461A4681
:104DAC003B7D93422AD07B6803F580539B690B3380
:104DBC001B7803F00103002B0BD17B6803F58053A8
:104DCC009B690B2219463869FEF70EFC0346002B33
:104DDC0016D0FF237B757B6803F580534FF6FF726B
:104DEC009A8400217868FFF7C9FB0346FB75FB7DAD
:104DFC00002B3FF458AF04E000BF02E000BF00E01E
:104E0C0000BFFB7D18461837BD4680BD80B58CB001
:104E1C0000AF78607B6803F580539B693B627B68CD
:104E2C0003F580531B6AFB6107F10C030C22396AF2
:104E3C001846FEF7A1FBFB7D03F00103002B3BD0D2
:104E4C003B6A0B3300221A707B6803F580531A46B9
:104E5C00002313620123BB6213E007F10C01BB6A50
:104E6C00FA69386AFFF758FE7868FFF703FF0346C4
:104E7C0087F82F3097F82F30002B06D1BB6A0133FF
:104E8C00BB62BB6A632BE8D900E000BFBB6A642B32
:104E9C0001D10723D8E097F82F30042B02D097F8D4
:104EAC002F30D1E03B6A0B33FA7D1A707B6803F527
:104EBC0080531A46FB691362FB7D03F00203002B3F
:104ECC0014D00023BB6202E0BB6A0133BB62BB6A35
:104EDC005B00FA6913441B88002BF5D1BB6A1933AC
:104EEC005B4AA2FB03239B087B6201E001237B62EC
:104EFC00796A7868FFF78CFC034687F82F3097F8AF
:104F0C002F30002B5BD17B6A013B7B627B6A002BD1
:104F1C0055D07B6803F58053DB881A467B6AD31A1D
:104F2C0019467868FFF75CFA034687F82F3097F834
:104F3C002F30002B43D17B6803F580539B691846B7
:104F4C00FFF778FE0346FB767B6803F580531A68FF
:104F5C007B6803F580531B6919461046FEF794FDD8
:104F6C00034687F82F3097F82F30002B26D17B681B
:104F7C0003F58053186A7B6803F5805359697B6A83
:104F8C00DAB2FB7EFFF754FD7B6803F580531B6898
:104F9C0003F5805301221A7100217868FFF7EEFAAD
:104FAC00034687F82F3097F82F30002B07D17B6AF8
:104FBC00013B7B627B6A002BC6D100E000BF97F8F7
:104FCC002F30002B3ED17B6803F580531A687B6829
:104FDC0003F580531B6919461046FEF755FD034631
:104FEC0087F82F3097F82F30002B2BD17B6803F5E7
:104FFC0080535B69202200211846FEF7DBFA7B68A0
:10500C0003F5805358697B6803F580539B690B2229
:10501C001946FEF7B1FA7B6803F580539B690B3395
:10502C001A787B6803F580535B690C3302F0180225
:10503C00D2B21A707B6803F580531B6803F580535A
:10504C0001221A7197F82F3018463037BD4680BDB3
:10505C004FECC44E80B58AB000AF786039603B68C5
:10506C001B683B6102E03B6901333B613B691B7888
:10507C002F2BF8D03B691B785C2BF4D07B6803F5A5
:10508C0080531B6AFB6000237B617B69BB61BB693E
:10509C005A1CBA613A6913441B78BB84BB8C1F2B16
:1050AC002FD9BB8C2F2B2CD0BB8C5C2B29D07B69A4
:1050BC00FE2B01D9062386E1BB8CDBB2BB84BB8CF7
:1050CC000121184602F07AF80346BB84BB8C002BF6
:1050DC0001D1062377E1BB8C7F2B09D8BB8C1946F9
:1050EC008E48FEF7A7FA0346002B01D006236AE18F
:1050FC007B695A1C7A615B00FA681344BA8C1A807B
:10510C00C5E73A69BB691A443B681A60BB8C1F2B14
:10511C0001D8042300E0002387F8273011E07B69D5
:10512C0003F10043013B5B00FA6813441B88BB840A
:10513C00BB8C202B02D0BB8C2E2B06D17B69013B68
:10514C007B617B69002BEAD100E000BF7B69002BFF
:10515C0001D1062337E17B695B00FA681344002216
:10516C001A807B6803F580539B690B22202118461B
:10517C00FEF720FA0023BB6102E0BB690133BB617F
:10518C00BB695B00FA6813441B88202BF5D0BB6904
:10519C005B00FA6813441B882E2BEED0BB69002BE6
:1051AC0009D097F8273043F0030387F8273002E043
:1051BC007B69013B7B617B69002B09D07B6903F127
:1051CC000043013B5B00FA6813441B882E2BEFD184
:1051DC0000233B62002387F826300823FB61BB6960
:1051EC005A1CBA615B00FA6813441B88BB84BB8CE5
:1051FC00002B00F09180BB8C202B06D0BB8C2E2B6F
:10520C000AD1BA697B699A4206D097F8273043F0E5
:10521C00030387F827307EE03A6AFB699A4203D28F
:10522C00BA697B699A4223D1FB690B2B06D197F89B
:10523C00273043F0030387F8273076E0BA697B699F
:10524C009A4205D097F8273043F0030387F82730AC
:10525C00BA697B699A4267D87B69BB6108233B6258
:10526C000B23FB6197F826309B0087F8263052E021
:10527C00BB8C7F2B14D9BB8C0021184601F09EFFF0
:10528C000346BB84BB8C002B04D0BB8C803B244AD4
:10529C00D35CBB8497F8273043F0020387F82730A0
:1052AC00BB8C002B07D0BB8C19461E48FEF7C2F9ED
:1052BC000346002B08D05F23BB8497F8273043F0BC
:1052CC00030387F827301BE0BB8C402B09D9BB8C20
:1052DC005A2B06D897F8263043F0020387F826306D
:1052EC000EE0BB8C602B0BD9BB8C7A2B08D897F8B3
:1052FC00263043F0010387F82630BB8C203BBB845F
:10530C007B6803F580539A693B6A591C39621344D4
:10531C00BA8CD2B21A7062E700BF06E05482000861
:10532C00C88200086082000800BF7B6803F58053C8
:10533C009B691B78E52B05D17B6803F580539B6932
:10534C0005221A70FB69082B04D197F826309B00B4
:10535C0087F8263097F8263003F00C030C2B05D079
:10536C0097F8263003F00303032B05D197F8273069
:10537C0043F0020387F8273097F8273003F0020335
:10538C00002B17D197F8263003F00303012B05D11E
:10539C0097F8273043F0100387F8273097F826301A
:1053AC0003F00C03042B05D197F8273043F00803C6
:1053BC0087F827307B6803F580539B690B3397F88C
:1053CC0027201A70002318462837BD4680BD00BF21
:1053DC0080B584B000AF786039603B681B782F2BA8
:1053EC0003D03B681B785C2B02D13B6801333B60DC
:1053FC007B6803F580531A46002393603B681B7847
:10540C001F2B0CD800217868FEF7EAFF0346FB73CC
:10541C007B6803F580531A460023536149E03B46F1
:10542C0019467868FFF716FE0346FB73FB7B002BCF
:10543C003AD17868FFF71EFC0346FB737B6803F5D3
:10544C0080539B69DB7ABB73FB7B002B0AD0FB7B05
:10545C00042B2BD1BB7B03F00403002B26D105239B
:10546C00FB7323E0BB7B03F00403002B20D17B6890
:10547C0003F580535B69BB60BB680B331B7803F08F
:10548C001003002B02D10523FB7312E07B6803F59C
:10549C0080531B68B9681846FFF708FA02467B6808
:1054AC0003F580539A60BAE700BF02E000BF00E04A
:1054BC0000BFFB7B18461037BD4680BD80B487B05B
:1054CC0000AF78604FF0FF333B617B681B68002BAB
:1054DC0031D07B681B687B6102E07B6901337B61A7
:1054EC007B691B781F2B03D97B691B783A2BF4D172
:1054FC007B691B783A2B1CD17B681B68FB60FB68B3
:10550C005A1CFA601B78303BBB60BB68092B0ED869
:10551C00FA687B699A420AD1BB68002B07D1BB6839
:10552C003B617B6901337B617B687A691A603B69FB
:10553C0002E000233B613B6918461C37BD4680BC2A
:10554C007047000080B582B000AF786039607B682E
:10555C0003F5805300221A717B6803F580531A46B9
:10556C004FF0FF33D36239687868FEF78DFA034643
:10557C00002B01D003234AE07B6803F5FF73013352
:10558C001B781B021AB27B6893F8FE311BB21343D3
:10559C001BB2214A934201D0022338E07B68363398
:1055AC0003331B781A067B68363302331B781B04D3
:1055BC001A437B68363301331B781B0213437A681A
:1055CC0092F83620134323F07F43144A934201D1BF
:1055DC0000231CE07B68523303331B781A067B686C
:1055EC00523302331B781B041A437B68523301334A
:1055FC001B781B0213437A6892F85220134323F052
:10560C007F43064A934201D1002300E00123184650
:10561C000837BD4680BD00BF55AAFFFF4641540068
:10562C0080B596B000AFF860B9601346FB71FB68AB
:10563C0000221A60B868FFF741FFF863FB6B002B80
:10564C0001DA0B2311E3984AFB6B52F82330BB634E
:10565C00BB6B002B01D10C2307E3FB68BA6B1A6000
:10566C00BB6B03F580531B78002B1CD0BB6B03F575
:10567C0080535B781846FDF7E1FE034687F8373018
:10568C0097F8373003F00103002B0CD1FB79002B7A
:10569C0007D097F8373003F00403002B01D00A230E
:1056AC00E3E20023E1E2BB6B03F5805300221A70A6
:1056BC00FB6BDAB2BB6B03F580535A70BB6B03F513
:1056CC0080535B781846FDF7D3FE034687F83730D6
:1056DC0097F8373003F00103002B01D00323C4E209
:1056EC00FB79002B07D097F8373003F00403002B1D
:1056FC0001D00A23B9E2BB6B03F580535878BB6B1E
:10570C0003F580530A331A460221FDF717FF0346AF
:10571C00002B0DD1BB6B03F580535B89B3F5007F78
:10572C0006D3BB6B03F580535B89B3F5805F01D95E
:10573C0001239AE200233B65396DB86BFFF702FF3A
:10574C00034687F8573097F85730012B53D1002375
:10575C003B6428E0BA6B3B6C1B0103F5DF7313440D
:10576C003B633B6B04331B78002B12D03B6B0B332E
:10577C001B781A063B6B0A331B781B041A433B6BD2
:10578C0009331B781B0213433A6B083212781A4305
:10579C0000E000223B6C9B0058333B4443F8442C04
:1057AC003B6C01333B643B6C032BD3D900233B6430
:1057BC003B6C002B02D03B6C013B3B643B6C9B0075
:1057CC0058333B4453F8443C3B653B6D002B05D0B0
:1057DC00396DB86BFFF7B6FE034600E0022387F87D
:1057EC00573097F85730002B05D03B6C01333B6496
:1057FC003B6C032BE2D997F85730032B01D10123D3
:10580C0033E297F85730002B01D00D232DE2BB6B00
:10581C001B7B1B021AB2BB6BDB7A1BB213431AB293
:10582C00BB6B03F580535B891BB29A4201D00D23ED
:10583C001BE2BB6BDB7D1B021AB2BB6B9B7D1BB2ED
:10584C0013431BB29BB2FB64FB6C002B12D1BB6BE2
:10585C0093F827301A06BB6B93F826301B041A43B7
:10586C00BB6B93F825301B021343BA6B92F82420C0
:10587C001343FB64BB6B03F580531A46FB6C9361BB
:10588C00BB6B1A7CBB6B03F58053DA70BB6B03F5F7
:10589C008053DB78012B09D0BB6B03F58053DB788D
:1058AC00022B03D00D23E0E124220020BB6B03F577
:1058BC008053DB781A46FB6C02FB03F3FB64BB6B77
:1058CC005A7BBB6B03F580539A70BB6B03F580530B
:1058DC009B78002B0CD0BB6B03F580539B781A463E
:1058EC00BB6B03F580539B78013B1340002B01D01D
:1058FC000D23BAE1BB6B9B7C1B021AB2BB6B5B7CAE
:10590C001BB213431BB29AB2BB6B03F580531A81C3
:10591C00BB6B03F580531B89BA6B02F5805252891D
:10592C00520992B2B3FBF2F101FB02F29B1A9BB249
:10593C00002B01D00D2398E1BB6B1B7D1B021AB20F
:10594C00BB6BDB7C1BB213431BB29BB2BB64BB6C4B
:10595C00002B12D1BB6B93F823301A06BB6B93F858
:10596C0022301B041A43BB6B93F821301B021343E8
:10597C00BA6B92F820201343BB64BB6BDB7B1B021E
:10598C001AB2BB6B9B7B1BB213431BB2FB85FB8D0B
:10599C00002B01D10D2368E1FA8DFB6C1344BA6B1B
:1059AC0002F580521189BA6B02F580525289520964
:1059BC0092B2B1FBF2F292B21344BB62BA6CBB6A04
:1059CC009A4201D20D2350E1BA6CBB6AD31ABA6B5E
:1059DC0002F580529278B3FBF2F37B627B6A002B68
:1059EC0001D10D2341E1012387F857307B6A40F642
:1059FC00F572934202D9022387F857307B6A4FF62F
:105A0C00F572934202D9032387F857307B6A02332D
:105A1C00BA6B02F580525361BB6B03F580531A4687
:105A2C003B6DD361FA8D3B6D1344BA6B02F580521A
:105A3C0013623A6DBB6A1344BA6B02F580529362DF
:105A4C0097F85730032B24D1BB6B03F580531B897C
:105A5C00002B01D00D2308E1BB6B93F82F301A06F5
:105A6C00BB6B93F82E301B041A43BB6B93F82D3091
:105A7C001B021343BA6B92F82C201343BA6B02F53A
:105A8C0080525362BB6B03F580535B699B007B6454
:105A9C002BE0BB6B03F580531B89002B01D10D232D
:105AAC00E3E0BB6B03F580531A6AFB6C1344BA6BCF
:105ABC0002F58052536297F85730022B05D1BB6B1D
:105ACC0003F580535B695B000EE0BB6B03F5805301
