:020000040800F2
:1000000000500020710D0008F90A0008010B0008DB
:10001000090B0008110B0008190B00080000000074
:10002000000000000000000000000000210B00089C
:100030002D0B000800000000390B0008450B0008DC
:10004000B90D0008B90D0008B90D0008B90D000878
:10005000B90D0008B90D0008B90D0008B90D000868
:10006000B90D0008B90D0008B90D0008B90D000858
:10007000B90D0008B90D0008B90D0008B90D000848
:10008000B90D0008B90D0008B90D0008B90D000838
:10009000510B0008B90D0008B90D0008B90D000892
:1000A000B90D0008B90D0008B90D0008B90D000818
:1000B000B90D0008B90D0008B90D0008B90D000808
:1000C000B90D0008B90D0008B90D0008B90D0008F8
:1000D000B90D0008650B0008B90D0008B90D00083E
:1000E000B90D0008B90D0008B90D000800000000A6
:1000F0000000000000000000000000000000000000
:0C01000000000000000000005FF808F1A3
:10010C0010B5054C237833B9044B13B10448AFF345
:10011C0000800123237010BD680000200000000047
:10012C00B854000808B5034B1BB103490348AFF39F
:10013C00008008BD000000006C000020B8540008CE
:10014C0080B500AF01220349034803F088FC00BFCF
:10015C0080BD00BF840000209409002080B500AF52
:10016C0000F07EFE0346184680BD80B584B000AF1B
:10017C00786000F075FEF860FA687B689A4203D3E9
:10018C00FA687B68D31A05E0FA687B68D31A03F522
:10019C007F43FF3318461037BD4680BD80B582B013
:1001AC0000AF7860391D4FF6FF730122034803F04E
:1001BC00CBFB7B6818460837BD4680BD94090020F0
:1001CC0080B582B000AF78607B681B680E4A9342A2
:1001DC0015D10E4B1B889BB21A460D4B19780D4B43
:1001EC0099540A4B1B889BB201339BB2DBB29AB277
:1001FC00064B1A8001220649074803F030FC00BF69
:10020C000837BD4680BD00BF003801408801002082
:10021C0084000020880000209409002080B582B062
:10022C0000AF78601A4B1B78DBB21A461346DB0022
:10023C0013449B00174A1A44154B1B78DBB2194622
:10024C000B46DB000B449B00183312490B44043360
:10025C000021786801F0F7FA0346002B11D10C4B02
:10026C001B78DBB201330C4A82FB03121111DA1733
:10027C008A1A322101FB02F29A1AD2B2044B1A707A
:10028C0002E0064804F0A4FA00BF0837BD4680BD62
:10029C00940800208C0100201F85EB51D0540008DD
:1002AC0080B500AF4FF40041024802F06DF900BF79
:1002BC0080BD00BF000C014080B500AF084B1B682F
:1002CC001846FFF752FF0346B3F5FA7F06D300F04A
:1002DC00C7FD0346024A1360FFF7E2FF00BF80BD73
:1002EC009808002080B500AFFFF7E6FF00BF80BD87
:1002FC0080B500AF00F05CFD00F011F800F0B6F92D
:10030C0000F0A4F800F088F900F0F8F800F060F8BC
:10031C0000F02AF900F0D0FC00F0DCFCFCE780B522
:10032C0094B000AF07F1280328220021184604F0EE
:10033C002FFB07F1140300221A605A609A60DA60EE
:10034C001A613B1D00221A605A609A60DA60012320
:10035C00BB624FF48033FB6200233B630123BB631E
:10036C0002237B644FF48033BB640023FB6407F1EE
:10037C002803184602F022F90346002B01D000F0A6
:10038C00EFF90F237B610223BB610023FB614FF468
:10039C0080633B6200237B6207F114030021184643
:1003AC0002F08EFB0346002B01D000F0D9F902239A
:1003BC007B600023FB603B1D184602F00FFD0346DB
:1003CC00002B01D000F0CCF900BF5037BD4680BDEA
:1003DC0080B584B000AF3B1D00221A605A609A6051
:1003EC00184B194A1A60174B00229A60154B0122C0
:1003FC001A73144B00221A75124B4FF46022DA61F7
:10040C00104B00225A600F4B01221A610D4800F06C
:10041C0031FD0346002B01D000F0A2F901237B60D3
:10042C000123BB600723FB603B1D1946054800F008
:10043C00B3FE0346002B01D000F092F900BF103739
:10044C00BD4680BD9C0800200024014080B58AB0C8
:10045C0000AF284B284A1A60264B04225A60254BC1
:10046C0000229A60234B0022DA60224B4FF4602268
:10047C001A61204B4FF480125A611E4B00221A76DF
:10048C001C4B00225A761B4B00229A76194B0022E9
:10049C00DA76184B00221A77164B00225A77154839
:1004AC0001F00DF80346002B01D000F059F90023A0
:1004BC007B610023BB610123FB6100233B600023B4
:1004CC007B600023BB600023FB6000233B610123A6
:1004DC003B620E237B623B461946064801F0EAF864
:1004EC000346002B01D000F03BF900BF2837BD4676
:1004FC0080BD00BFCC0800200064004080B500AF78
:10050C00174B184A1A60164B4FF482725A60144BF0
:10051C0000229A60124B0022DA60114B00221A6101
:10052C000F4B00225A610E4B4FF400729A610C4B28
:10053C003022DA610A4B00221A62094B00225A62FD
:10054C00074B00229A62064B0A22DA62044802F038
:10055C00FBFC0346002B01D000F002F900BF80BD6C
:10056C00F40800200030014080B58AB000AF07F1DC
:10057C00200300221A605A603B1D00221A605A6048
:10058C009A60DA601A615A619A61224B4FF080428C
:10059C001A60204B0F225A601E4B00229A601D4B92
:1005AC0040F2E732DA601B4B00221A61194B002231
:1005BC009A61184802F04CFD0346002B01D000F064
:1005CC00CFF800233B6200237B6207F1200319461E
:1005DC00104803F00BF90346002B01D000F0C0F8D3
:1005EC0060237B600023BB600023FB6000237B61E6
:1005FC003B1D00221946074802F01CFE0346002B47
:10060C0001D000F0ADF8034800F0ECF900BF28373A
:10061C00BD4680BD4C09002080B500AF114B124A7D
:10062C001A60104B4FF4E1325A600E4B00229A6064
:10063C000C4B0022DA600B4B00221A61094B0C2286
:10064C005A61084B00229A61064B0022DA61054878
:10065C0003F02AF90346002B01D000F081F800BF0B
:10066C0080BD00BF940900200038014080B588B0DF
:10067C0000AF07F1100300221A605A609A60DA602A
:10068C00344B9B69334A43F020039361314B9B6994
:10069C0003F02003FB60FB682E4B9B692D4A43F053
:1006AC00040393612B4B9B6903F00403BB60BB6891
:1006BC00284B9B69274A43F008039361254B9B69A0
:1006CC0003F008037B607B6800221821224801F0AC
:1006DC0043FF00224FF44041204801F03DFF182316
:1006EC003B6101237B610023BB610223FB6107F1AA
:1006FC0010031946184801F0ABFD4FF480533B61D1
:10070C0000237B610123BB6107F1100319461348D9
:10071C0001F09EFD4FF402533B6100237B610023EB
:10072C00BB6107F1100319460C4801F091FD4FF421
:10073C0040433B6101237B610023BB610223FB61CE
:10074C0007F110031946054801F082FD00BF203760
:10075C00BD4680BD0010024000080140000C014065
:10076C0080B400AF72B600BF00BFFDE780B485B0A7
:10077C0000AF154B9B69144A43F001039361124B74
:10078C009B6903F00103BB60BB680F4BDB690E4A2E
:10079C0043F08053D3610C4BDB6903F080537B60D7
:1007AC007B680A4B5B68FB60FB6823F0E063FB60D3
:1007BC00FB6843F00073FB60044AFB68536000BFA6
:1007CC001437BD4680BC7047001002400000014049
:1007DC0080B588B000AF786007F1100300221A6072
:1007EC005A609A60DA607B681B68144A934221D184
:1007FC00134B9B69124A43F400739361104B9B6932
:10080C0003F40073FB60FB680D4B9B690C4A43F0CF
:10081C00040393610A4B9B6903F00403BB60BB6840
:10082C0002233B6103237B6107F110031946054842
:10083C0001F00EFD00BF2037BD4680BD00240140F5
:10084C00001002400008014080B58AB000AF78600B
:10085C0007F1140300221A605A609A60DA607B6810
:10086C001B68294A93424BD1284BDB69274A43F03A
:10087C000073D361254BDB6903F000733B613B696B
:10088C00224B9B69214A43F0080393611F4B9B69E0
:10089C0003F00803FB60FB684FF480737B6100235B
:1008AC00BB610023FB6107F114031946184801F0E2
:1008BC00CFFC4FF400737B610223BB6103233B62CB
:1008CC0007F114031946124801F0C2FC114B5B6886
:1008DC007B627B6A23F4C0437B627B6A43F0E063F8
:1008EC007B627B6A43F480437B620A4A7B6A536077
:1008FC0000220021142001F0C2FB142001F0DBFBCC
:10090C0000BF2837BD4680BD006400400010024087
:10091C00000C01400000014080B588B000AF786049
:10092C0007F1100300221A605A609A60DA607B6843
:10093C001B681B4A93422FD11A4B9B69194A43F4EB
:10094C0080539361174B9B6903F48053FB60FB68E6
:10095C00144B9B69134A43F004039361114B9B693D
:10096C0003F00403BB60BB68A0233B6102237B61E3
:10097C000323FB6107F1100319460B4801F068FCD7
:10098C0040233B6100237B610023BB6107F1100313
:10099C001946054801F05CFC00BF2037BD4680BD00
:1009AC0000300140001002400008014080B485B0C6
:1009BC0000AF78607B681B68B3F1804F0BD1084B9C
:1009CC00DB69074A43F00103D361054BDB6903F094
:1009DC000103FB60FB6800BF1437BD4680BC704749
:1009EC000010024080B588B000AF786007F11003AA
:1009FC0000221A605A609A60DA607B681B68B3F157
:100A0C00804F17D10D4B9B690C4A43F00403936143
:100A1C000A4B9B6903F00403FB60FB6801233B61F9
:100A2C0002237B610223FB6107F110031946044882
:100A3C0001F00EFC00BF2037BD4680BD0010024007
:100A4C000008014080B588B000AF786007F1100352
:100A5C0000221A605A609A60DA607B681B68204A30
:100A6C00934239D11F4B9B691E4A43F480439361D7
:100A7C001C4B9B6903F48043FB60FB68194B9B691F
:100A8C00184A43F004039361164B9B6903F004036B
:100A9C00BB60BB684FF400733B6102237B61032393
:100AAC00FB6107F1100319460F4801F0D1FB4FF41D
:100ABC0080633B6100237B610023BB6107F1100362
:100ACC001946094801F0C4FB00220021252001F041
:100ADC00D6FA252001F0EFFA00BF2037BD4680BDC5
:100AEC0000380140001002400008014080B400AF03
:100AFC0000BFFDE780B400AF00BFFDE780B400AFDE
:100B0C0000BFFDE780B400AF00BFFDE780B400AFCD
:100B1C0000BFFDE780B400AF00BFBD4680BC70478E
:100B2C0080B400AF00BFBD4680BC704780B400AF3E
:100B3C0000BFBD4680BC704780B500AF00F07EF9A9
:100B4C0000BF80BD80B500AF024800F09DFF00BF24
:100B5C0080BD00BFCC08002080B500AF024802F079
:100B6C00A3FF00BF80BD00BF9409002080B586B0F4
:100B7C0000AFF860B9607A6000237B610AE0AFF3E4
:100B8C0000800146BB685A1CBA60CAB21A707B69F5
:100B9C0001337B617A697B689A42F0DB7B6818468B
:100BAC001837BD4680BD80B586B000AFF860B9601F
:100BBC007A6000237B6109E0BB685A1CBA601B7821
:100BCC001846FFF7EBFA7B6901337B617A697B6826
:100BDC009A42F1DB7B6818461837BD4680BD80B45D
:100BEC0083B000AF78604FF0FF3318460C37BD462A
:100BFC0080BC704780B483B000AF786039603B68CC
:100C0C004FF400525A60002318460C37BD4680BC86
:100C1C00704780B483B000AF7860012318460C375E
:100C2C00BD4680BC704780B485B000AFF860B96039
:100C3C007A60002318461437BD4680BC704700000C
:100C4C0080B586B000AF7860144A154BD31A7B611F
:100C5C007B693B61134B1B68002B02D1114B124A71
:100C6C001A60104B1A687B6813443A699A4207D28F
:100C7C0003F0DCFE03460C221A604FF0FF3309E050
:100C8C00084B1B68FB60074B1A687B681344054ACA
:100C9C001360FB6818461837BD4680BD0050002015
:100CAC0000040000DC090020380B002080B400AFE9
:100CBC0000BFBD4680BC704780B500AFFFF740FA5F
:100CCC0000F010F8024803F083FD00BF80BD00BFA8
:100CDC00F454000880B500AFFFF704FB00F012F8E5
:100CEC0000BF80BD80B500AF044800F09BF9002127
:100CFC00034802F0FDF900BF80BD00BF9C08002036
:100D0C004C09002080B582B000AF124B1B6818460E
:100D1C00FFF72BFA0346B3F5FA7F17D3FFF71EFA4A
:100D2C0003460C4A13600C4800F02AFA7860796884
:100D3C000A4803F0E5FC0A4B1B680A225A63084B6D
:100D4C001B687A68DA62064A7B68D36000BF083792
:100D5C00BD4680BDE00900209C080020FC54000822
:100D6C004C090020FFF7A2FF0B480C490C4A00234A
:100D7C0002E0D458C4500433C4188C42F9D3094A45
:100D8C00094C002301E013600432A242FBD303F0B0
:100D9C0053FEFFF7ADFA70470000002068000020FA
:100DAC007055000868000020340B0020FEE700009E
:100DBC0080B500AF084B1B68074A43F01003136063
:100DCC00032001F051F90F2000F008F8FFF7CEFCDA
:100DDC000023184680BD00BF0020024080B582B0C1
:100DEC0000AF7860124B1A68124B1B7819464FF4FF
:100DFC007A73B3FBF1F3B2FBF3F3184601F069F924
:100E0C000346002B01D001230EE07B680F2B0AD880
:100E1C00002279684FF0FF3001F031F9064A7B6807
:100E2C001360002300E0012318460837BD4680BD3F
:100E3C0000000020080000200400002080B400AF57
:100E4C00054B1B781A46054B1B681344034A136069
:100E5C0000BFBD4680BC704708000020E40900209C
:100E6C0080B400AF024B1B681846BD4680BC70476F
:100E7C00E409002080B586B000AF78600023FB75D4
:100E8C0000233B610023BB600023FB607B68002BCD
:100E9C0001D10123BEE07B689B68002B7B689B6AB9
:100EAC00002B09D17B680022DA627B68002283F870
:100EBC0024207868FFF78CFC786800F0BFFA0346B2
:100ECC00FB757B689B6A03F01003002B40F0998044
:100EDC00FB7D002B40F095807B689B6A23F4885344
:100EEC0023F0020343F002027B689A627B685A6823
:100EFC007B68DB691A437B681B7B5B001343BA6816
:100F0C001343BB607B689B68B3F5807F03D07B6821
:100F1C009B68012B02D14FF4807300E000233A69E7
:100F2C0013433B617B681B7D012B19D17B681B7BB9
:100F3C00002B09D17B689B69013B5A033B69134326
:100F4C0043F400633B610BE07B689B6A43F0200237
:100F5C007B689A627B68DB6A43F001027B68DA6229
:100F6C007B681B685B6823F469417B681B683A6982
:100F7C000A435A607B681B689A68284B13407A684E
:100F8C001268B9680B4393607B689B68B3F5807FEC
:100F9C0003D07B689B68012B04D17B681B69013BE8
:100FAC001B05FB607B681B68DB6A23F470017B68A4
:100FBC001B68FA680A43DA627B681B689A68184BEC
:100FCC001340BA689A420BD17B680022DA627B68C4
:100FDC009B6A23F0030343F001027B689A6218E0DA
:100FEC007B689B6A23F0120343F010027B689A62C1
:100FFC007B68DB6A43F001027B68DA620123FB75D4
:10100C0007E07B689B6A43F010027B689A620123BD
:10101C00FB75FB7D18461837BD4680BDFDF7E1FF1B
:10102C00FE0E1FFF80B584B000AF78600023FB7309
:10103C007B6893F82430012B01D1022398E07B6864
:10104C00012283F82420786800F09EF90346FB7394
:10105C00FB7B002B40F087807B689B6A23F44073FA
:10106C0023F0010343F480727B689A627B681B68EF
:10107C00414A934205D1414B5B6803F47023002B2A
:10108C0015D17B689B6A23F480127B689A627B681B
:10109C001B685B6803F48063002B26D07B689B6A1B
:1010AC0023F4405343F480527B689A621DE07B68C2
:1010BC009B6A43F480127B689A627B681B682F4A98
:1010CC00934204D07B681B682B4A93420DD12B4B67
:1010DC005B6803F48063002B07D07B689B6A23F466
:1010EC00405343F480527B689A627B689B6A03F49A
:1010FC008053002B06D07B68DB6A23F006027B68EA
:10110C00DA6202E07B680022DA627B68002283F8F4
:10111C0024207B681B686FF002021A607B681B68D6
:10112C009B6803F46023B3F5602F13D17B681B68B5
:10113C00114A934205D1114B5B6803F47023002BC9
:10114C0008D17B681B689A687B681B6842F4A00214
:10115C009A600CE07B681B689A687B681B6842F499
:10116C0080129A6003E07B68002283F82420FB7BCA
:10117C0018461037BD4680BD0028014000240140B0
:10118C0080B483B000AF78607B681B68DB6C18465A
:10119C000C37BD4680BC704780B485B000AF78601A
:1011AC0039600023FB730023BB607B6893F8243009
:1011BC00012B01D10223DCE07B68012283F824207F
:1011CC003B685B68062B1CD87B681B68596B3B68BB
:1011DC005A6813469B001344053B1F2202FA03F383
:1011EC00DB4319403B6818683B685A6813469B0000
:1011FC001344053B00FA03F27B681B680A435A63ED
:10120C003CE03B685B680C2B1CD87B681B68196B3B
:10121C003B685A6813469B001344233B1F2202FA77
:10122C0003F3DB4319403B6818683B685A68134664
:10123C009B001344233B00FA03F27B681B680A43B0
:10124C001A631BE07B681B68D96A3B685A681346B3
:10125C009B001344413B1F2202FA03F3DB4319406A
:10126C003B6818683B685A6813469B001344413B23
:10127C0000FA03F27B681B680A43DA623B681B685E
:10128C00092B1CD97B681B68D9683B681A68134604
:10129C005B0013441E3B072202FA03F3DB431940A5
:1012AC003B6898683B681A6813465B0013441E3B06
:1012BC0000FA03F27B681B680A43DA6019E07B686A
:1012CC001B6819693B681A6813465B0013440722B4
:1012DC0002FA03F3DB4319403B6898683B681A68D1
:1012EC0013465B00134400FA03F27B681B680A4345
:1012FC001A613B681B68102B03D03B681B68112BD1
:10130C0032D17B681B681D4A934225D17B681B68D0
:10131C009B6803F40003002B26D17B681B689A683A
:10132C007B681B6842F400029A603B681B68102BB8
:10133C001AD1134B1B68134AA2FB03239A0C1346B6
:10134C009B0013445B00BB6002E0BB68013BBB60CD
:10135C00BB68002BF9D107E07B689B6A43F0200245
:10136C007B689A620123FB737B68002283F824203C
:10137C00FB7B18461437BD4680BC704700240140E7
:10138C000000002083DE1B4380B584B000AF786082
:10139C000023FB600023BB607B681B689B6803F029
:1013AC000103012B40D07B681B689A687B681B6823
:1013BC0042F001029A601F4B1B681F4AA2FB0323D9
:1013CC009B0CBB6002E0BB68013BBB60BB68002BA5
:1013DC00F9D1FFF745FDF8601FE0FFF741FD02462C
:1013EC00FB68D31A022B18D97B681B689B6803F027
:1013FC000103012B11D07B689B6A43F010027B68C0
:10140C009A627B68DB6A43F001027B68DA627B6874
:10141C00002283F82420012307E07B681B689B686B
:10142C0003F00103012BD8D1002318461037BD4619
:10143C0080BD00BF0000002083DE1B4380B584B05C
:10144C0000AF78600023FB607B681B689B6803F02F
:10145C000103012B2ED17B681B689A687B681B6883
:10146C0022F001029A60FFF7FBFCF8601BE0FFF72B
:10147C00F7FC0246FB68D31A022B14D97B681B6855
:10148C009B6803F00103012B0DD17B689B6A43F031
:10149C0010027B689A627B68DB6A43F001027B680E
:1014AC00DA62012307E07B681B689B6803F0010389
:1014BC00012BDCD0002318461037BD4680BD80B50B
:1014CC0084B000AF78607B68002B01D10123EDE084
:1014DC007B6893F82030DBB2002B02D17868FFF7E1
:1014EC00B3F97B681B681A687B681B6842F00102C1
:1014FC001A60FFF7B5FCF86012E0FFF7B1FC02468A
:10150C00FB68D31A0A2B0BD97B685B6A43F4003255
:10151C007B685A627B68052283F820200123C5E092
:10152C007B681B685B6803F00103002BE5D07B68CC
:10153C001B681A687B681B6822F002021A60FFF7AE
:10154C008FFCF86012E0FFF78BFC0246FB68D31AA5
:10155C000A2B0BD97B685B6A43F400327B685A62B6
:10156C007B68052283F8202001239FE07B681B68A1
:10157C005B6803F00203002BE5D17B681B7E012B1B
:10158C0008D17B681B681A687B681B6842F0800274
:10159C001A6007E07B681B681A687B681B6822F07E
:1015AC0080021A607B685B7E012B08D17B681B680C
:1015BC001A687B681B6842F040021A6007E07B687F
:1015CC001B681A687B681B6822F040021A607B68F3
:1015DC009B7E012B08D17B681B681A687B681B6893
:1015EC0042F020021A6007E07B681B681A687B686F
:1015FC001B6822F020021A607B68DB7E012B08D16D
:10160C007B681B681A687B681B6822F010021A60E2
:10161C0007E07B681B681A687B681B6842F0100245
:10162C001A607B681B7F012B08D17B681B681A68CA
:10163C007B681B6842F008021A6007E07B681B6835
:10164C001A687B681B6822F008021A607B685B7F53
:10165C00012B08D17B681B681A687B681B6842F0F9
:10166C0004021A6007E07B681B681A687B681B68B9
:10167C0022F004021A607B689A687B68DB681A4364
:10168C007B681B691A437B685B6942EA03017B68D0
:10169C005B685A1E7B681B680A43DA617B68002210
:1016AC005A627B68012283F82020002318461037E9
:1016BC00BD4680BD80B487B000AF786039607B6870
:1016CC001B687B617B6893F82030FB74FB7C012BDF
:1016DC0003D0FB7C022B40F0AA807B69D3F800324C
:1016EC0043F001027B69C3F800223B685B6903F09D
:1016FC001F03012202FA03F3FB607B69D3F81C225F
:10170C00FB68DB431A407B69C3F81C223B68DB692E
:10171C00002B23D17B69D3F80C22FB68DB431A40E6
:10172C007B69C3F80C223B68DB6819043B685B6877
:10173C009BB23A68526919437B69483243F83210BC
:10174C003B689B6819043B681B689AB23B685B69F1
:10175C000A4379694833DB000B445A603B68DB6908
:10176C00012B22D17B69D3F80C22FB681A437B69CD
:10177C00C3F80C223B681B6819043B685B689BB27E
:10178C003A68526919437B69483243F832103B6816
:10179C009B6819043B68DB689AB23B685B690A4337
:1017AC0079694833DB000B445A603B689B69002B1A
:1017BC0009D17B69D3F80422FB68DB431A407B69AF
:1017CC00C3F8042207E07B69D3F80422FB681A43B0
:1017DC007B69C3F804223B681B69002B09D17B6928
:1017EC00D3F81422FB68DB431A407B69C3F814223C
:1017FC0007E07B69D3F81422FB681A437B69C3F8B2
:10180C0014223B681B6A012B07D17B69D3F81C227D
:10181C00FB681A437B69C3F81C227B69D3F800323E
:10182C0023F001027B69C3F80022002306E07B68E9
:10183C005B6A43F480227B685A62012318461C378A
:10184C00BD4680BC704780B487B000AFF860B9600B
:10185C007A603B60FB6893F82030FB75FB7D012BB5
:10186C0003D0FB7D022B40F00381BB68002B0ED113
:10187C00FB681B68DB6803F00303002B16D1FB68C5
:10188C005B6A43F40012FB685A620123F7E0FB68C1
:10189C001B681B6903F00303002B07D1FB685B6A11
:1018AC0043F40012FB685A620123E8E0FB681A68F3
:1018BC00BB681B331B0113441B6803F004027B68D9
:1018CC009A607B689B68002B0CD1FB681A68BB681C
:1018DC001B331B0113441B685B0DC3F30A027B68AB
:1018EC001A600BE0FB681A68BB681B331B011344BE
:1018FC001B68DB0823F060427B685A60FB681A683F
:10190C00BB681B331B0113441B6803F002027B688A
:10191C00DA60FB681A68BB681B331B011344043381
:10192C001B6803F00803002B03D07B6808221A61A4
:10193C000BE0FB681A68BB681B331B0113440433B0
:10194C001B6803F00F027B681A61FB681A68BB689E
:10195C001B331B01134404331B681B0ADAB27B686C
:10196C009A61FB681A68BB681B331B011344043370
:10197C001B681B0C9AB27B685A61FB681A68BB68BF
:10198C001B01134403F5DC731B68DAB23B681A7055
:10199C00FB681A68BB681B01134403F5DC731B68F6
:1019AC001A0A3B680133D2B21A70FB681A68BB681A
:1019BC001B01134403F5DC731B681A0C3B680233E0
:1019CC00D2B21A70FB681A68BB681B01134403F58A
:1019DC00DC731B681A0E3B680333D2B21A70FB68B7
:1019EC001A68BB681B01134403F5DE731A683B6865
:1019FC000433D2B21A70FB681A68BB681B0113441B
:101A0C0003F5DE731B681A0A3B680533D2B21A70F1
:101A1C00FB681A68BB681B01134403F5DE731B6873
:101A2C001A0C3B680633D2B21A70FB681A68BB6892
:101A3C001B01134403F5DE731B681A0E3B68073356
:101A4C00D2B21A70BB68002B08D1FB681B68DA682D
:101A5C00FB681B6842F02002DA6007E0FB681B6839
:101A6C001A69FB681B6842F020021A61002306E029
:101A7C00FB685B6A43F48022FB685A6201231846B8
:101A8C001C37BD4680BC704780B58AB000AF78600B
:101A9C0000237B627B681B685B693B627B681B680D
:101AAC005B68FB617B681B689B68BB617B681B6820
:101ABC00DB687B617B681B681B693B617B681B680F
:101ACC009B69FB603B6A03F00103002B7CD0BB6974
:101ADC0003F00103002B23D07B681B6801229A6062
:101AEC00BB6903F00203002B03D0786800F083F984
:101AFC0016E0BB6903F00403002B04D07B6A43F4AB
:101B0C0000637B620CE0BB6903F00803002B04D07C
:101B1C007B6A43F480537B6202E0786800F086F9BC
:101B2C00BB6903F48073002B24D07B681B684FF4D3
:101B3C0080729A60BB6903F40073002B03D0786841
:101B4C0000F062F916E0BB6903F48063002B04D04B
:101B5C007B6A43F400537B620CE0BB6903F40063C3
:101B6C00002B04D07B6A43F480437B6202E07868EC
:101B7C0000F065F9BB6903F48033002B24D07B683B
:101B8C001B684FF480329A60BB6903F40033002B5E
:101B9C0003D0786800F041F916E0BB6903F48023A8
:101BAC00002B04D07B6A43F400437B620CE0BB69DE
:101BBC0003F40023002B04D07B6A43F480337B6254
:101BCC0002E0786800F044F93B6A03F00803002B4C
:101BDC000CD07B6903F01003002B07D07B6A43F415
:101BEC0000737B627B681B681022DA603B6A03F02F
:101BFC000403002B0BD07B6903F00803002B06D0E9
:101C0C007B681B680822DA60786800F02AF93B6A66
:101C1C0003F00203002B09D07B681B68DB6803F020
:101C2C000303002B02D07868FEF7F8FA3B6A03F046
:101C3C004003002B0CD03B6903F01003002B07D0A2
:101C4C007B6A43F480637B627B681B6810221A6199
:101C5C003B6A03F02003002B0BD03B6903F0080315
:101C6C00002B06D07B681B6808221A61786800F08C
:101C7C000AF93B6A03F01003002B09D07B681B6840
:101C8C001B6903F00303002B02D0786800F0F2F814
:101C9C003B6A03F40033002B0BD0FB6903F01003F9
:101CAC00002B06D07B681B6810225A60786800F005
:101CBC00F3F83B6A03F48033002B0BD0FB6903F081
:101CCC000803002B06D07B681B6808225A607868D2
:101CDC0000F0EBF83B6A03F40043002B7BD0FB696C
:101CEC0003F00403002B72D03B6A03F48073002BC7
:101CFC0008D0FB6803F00103002B03D07B6A43F090
:101D0C0001037B623B6A03F40073002B08D0FB6871
:101D1C0003F00203002B03D07B6A43F002037B62C7
:101D2C003B6A03F48063002B08D0FB6803F00403C8
:101D3C00002B03D07B6A43F004037B623B6A03F401
:101D4C000063002B43D0FB6803F07003002B3ED0E4
:101D5C00FB6803F07003602B2BD0602B2ED8502B1C
:101D6C0022D0502B2AD8402B19D0402B26D8302BE0
:101D7C0010D0302B22D8102B02D0202B05D01DE0F8
:101D8C007B6A43F008037B6219E07B6A43F0100323
:101D9C007B6214E07B6A43F020037B620FE07B6A7A
:101DAC0043F040037B620AE07B6A43F080037B6272
:101DBC0005E07B6A43F480737B6200E000BF7B68C4
:101DCC001B689A697B681B6822F070029A617B68B9
:101DDC001B6804225A607B6A002B08D07B685A6A05
:101DEC007B6A1A437B685A62786800F067F800BF18
:101DFC002837BD4680BD80B483B000AF786000BF8B
:101E0C000C37BD4680BC704780B483B000AF78609F
:101E1C0000BF0C37BD4680BC704780B483B000AFA8
:101E2C00786000BF0C37BD4680BC704780B483B06F
:101E3C0000AF786000BF0C37BD4680BC704780B4E3
:101E4C0083B000AF786000BF0C37BD4680BC7047D4
:101E5C0080B483B000AF786000BF0C37BD4680BC47
:101E6C00704780B483B000AF786000BF0C37BD46BC
:101E7C0080BC704780B483B000AF786000BF0C3773
:101E8C00BD4680BC704780B483B000AF786000BFA3
:101E9C000C37BD4680BC704780B483B000AF78600F
:101EAC0000BF0C37BD4680BC704780B483B000AF18
:101EBC00786000BF0C37BD4680BC704780B483B0DF
:101ECC0000AF786000BF0C37BD4680BC7047000087
:101EDC0080B485B000AF78607B6803F00703FB60CB
:101EEC000C4BDB68BB60BA684FF6FF031340BB605A
:101EFC00FB681A02BB68134343F0BF6343F400331F
:101F0C00BB60044ABB68D36000BF1437BD4680BCBD
:101F1C00704700BF00ED00E080B400AF044BDB68FD
:101F2C001B0A03F007031846BD4680BC704700BF70
:101F3C0000ED00E080B483B000AF0346FB7197F96D
:101F4C000730002B0BDBFB7903F01F02064997F9D6
:101F5C0007305B09012000FA02F241F8232000BF90
:101F6C000C37BD4680BC704700E100E080B483B004
:101F7C0000AF03463960FB7197F90730002B0ADB81
:101F8C003B68DAB20C4997F907301201D2B20B4414
:101F9C0083F800230AE03B68DAB20849FB7903F0C6
:101FAC000F03043B1201D2B20B441A7600BF0C375C
:101FBC00BD4680BC704700BF00E100E000ED00E0D2
:101FCC0080B489B000AFF860B9607A60FB6803F048
:101FDC000703FB61FB69C3F10703042B28BF042330
:101FEC00BB61FB690433062B02D9FB69033B00E0A0
:101FFC0000237B614FF0FF32BB6902FA03F3DA4333
:10200C00BB681A407B699A404FF0FF317B6901FA3B
:10201C0003F3D9437B680B40134318462437BD4662
:10202C0080BC704780B582B000AF78607B68013BA4
:10203C00B3F1807F01D301230FE00A4A7B68013B97
:10204C0053600F214FF0FF30FFF790FF054B00223C
:10205C009A60044B07221A60002318460837BD46C5
:10206C0080BD00BF10E000E080B582B000AF7860AA
:10207C007868FFF72DFF00BF0837BD4680BD80B5DF
:10208C0086B000AF0346B9607A60FB7300237B61B6
:10209C00FFF742FF78617A68B9687869FFF790FFBB
:1020AC00024697F90F3011461846FFF75FFF00BF45
:1020BC001837BD4680BD80B582B000AF0346FB71BA
:1020CC0097F907301846FFF735FF00BF0837BD46B4
:1020DC0080BD80B582B000AF78607868FFF7A2FF52
:1020EC00034618460837BD4680BD80B485B000AFA6
:1020FC0078600023FB737B6893F82130DBB2022BF2
:10210C0008D07B6804229A637B68002283F8202025
:10211C00012320E07B681B681A687B681B6822F02F
:10212C000E021A607B681B681A687B681B6822F0B9
:10213C0001021A607B681A6C7B68DB6B012101FA67
:10214C0002F25A607B68012283F821207B6800220E
:10215C0083F82020FB7B18461437BD4680BC7047A3
:10216C0080B584B000AF78600023FB737B6893F874
:10217C002130DBB2022B05D07B6804229A63012349
:10218C00FB7351E07B681B681A687B681B6822F044
:10219C000E021A607B681B681A687B681B6822F049
:1021AC0001021A607B681B68224A934229D07B6823
:1021BC001B68214A934222D07B681B681F4A9342BA
:1021CC001AD07B681B681E4A934212D07B681B682E
:1021DC001C4A93420AD07B681B681B4A934202D16B
:1021EC004FF480130EE04FF080730BE04FF480330C
:1021FC0008E04FF4805305E04FF4807302E01023A5
:10220C0000E00123114A53607B68012283F82120EE
:10221C007B68002283F820207B685B6B002B03D04B
:10222C007B685B6B78689847FB7B18461037BD461C
:10223C0080BD00BF080002401C000240300002407C
:10224C0044000240580002406C0002400000024072
:10225C0080B48BB000AF7860396000237B620023C0
:10226C003B6269E101227B6A02FA03F3FB613B6882
:10227C001B68FA691340BB61BA69FB699A4240F06A
:10228C0058813B685B689A4A93425ED0984A934265
:10229C0075D8984A934258D0964A93426FD8964A2A
:1022AC00934252D0944A934269D8944A93424CD068
:1022BC00924A934263D8924A934246D0904A9342B0
:1022CC005DD8122B2AD8122B59D801A252F823F020
:1022DC0057230008312300084323000885230008F6
:1022EC008B2300088B2300088B2300088B2300080A
:1022FC008B2300088B2300088B2300088B230008FA
:10230C008B2300088B2300088B2300088B230008E9
:10231C008B230008392300084D230008794A934287
:10232C0013D02CE03B68DB683B6229E03B68DB6840
:10233C0004333B6224E03B68DB6808333B621FE0FC
:10234C003B68DB680C333B621AE03B689B68002BF4
:10235C0002D104233B6213E03B689B68012B05D13F
:10236C0008233B627B68FA691A6109E008233B6227
:10237C007B68FA695A6103E000233B6200E000BF0E
:10238C00BB69FF2B01D87B6801E07B6804337B6160
:10239C00BB69FF2B02D87B6A9B0002E07B6A083B7F
:1023AC009B003B617B691A680F213B6901FA03F3BF
:1023BC00DB431A40396A3B6901FA03F31A437B6920
:1023CC001A603B685B6803F08053002B00F0B1800F
:1023DC004D4B9B694C4A43F0010393614A4B9B69FB
:1023EC0003F00103BB60BB68484A7B6A9B0802335D
:1023FC0052F82330FB607B6A03F003039B000F222F
:10240C0002FA03F3DB43FA681340FB607B68404A33
:10241C00934213D07B683F4A93420DD07B683E4A6F
:10242C00934207D07B683D4A934201D1032306E0D7
:10243C00042304E0022302E0012300E000237A6A73
:10244C0002F0030292009340FA681343FB602F4999
:10245C007B6A9B080233FA6841F823203B685B686F
:10246C0003F48013002B06D02D4B9A682C49BB69C2
:10247C0013438B6006E02A4B9A68BB69DB432849FF
:10248C0013408B603B685B6803F40013002B06D091
:10249C00234BDA682249BB691343CB6006E0204B1F
:1024AC00DA68BB69DB431E491340CB603B685B6851
:1024BC0003F40033002B06D0194B5A681849BB693A
:1024CC0013434B6006E0164B5A68BB69DB43144957
:1024DC0013404B603B685B6803F48033002B21D0C6
:1024EC000F4B1A680E49BB6913430B6021E000BF08
:1024FC0000003210000031100000221000002110EA
:10250C0000001210000011100010024000000140E9
:10251C0000080140000C0140001001400014014073
:10252C00000401400B4B1A68BB69DB43094913409B
:10253C000B607B6A01337B623B681A687B6A22FA08
:10254C0003F3002B7FF48EAE00BF00BF2C37BD46CB
:10255C0080BC70470004014080B483B000AF786049
:10256C000B467B8013467B707B78002B03D07A88DC
:10257C007B681A6103E07B881A047B681A6100BFD0
:10258C000C37BD4680BC704780B485B000AF786016
:10259C000B467B807B68DB68FB607A88FB681340AA
:1025AC001A04FB68D9437B880B401A437B681A6179
:1025BC0000BF1437BD4680BC7047000080B586B0A4
:1025CC0000AF78607B68002B01D1012372E27B683D
:1025DC001B6803F00103002B00F08780924B5B68B3
:1025EC0003F00C03042B0CD08F4B5B6803F00C0333
:1025FC00082B12D18C4B5B6803F48033B3F5803F0E
:10260C000BD1894B1B6803F40033002B6CD07B6817
:10261C005B68002B68D101234CE27B685B68B3F5E7
:10262C00803F06D1804B1B687F4A43F48033136094
:10263C002EE07B685B68002B0CD17B4B1B687A4AC5
:10264C0023F480331360784B1B68774A23F4802380
:10265C0013601DE07B685B68B3F5A02F0CD1724B47
:10266C001B68714A43F4802313606F4B1B686E4ADE
:10267C0043F4803313600BE06B4B1B686A4A23F402
:10268C0080331360684B1B68674A23F48023136004
:10269C007B685B68002B13D0FEF7E2FB386108E027
:1026AC00FEF7DEFB02463B69D31A642B01D90323E8
:1026BC0000E25D4B1B6803F40033002BF0D014E0F8
:1026CC00FEF7CEFB386108E0FEF7CAFB02463B6919
:1026DC00D31A642B01D90323ECE1534B1B6803F48D
:1026EC000033002BF0D100E000BF7B681B6803F0C7
:1026FC000203002B63D04C4B5B6803F00C03002BE4
:10270C000BD0494B5B6803F00C03082B1CD1464BD8
:10271C005B6803F48033002B16D1434B1B6803F02A
:10272C000203002B05D07B681B69012B01D0012310
:10273C00C0E13D4B1B6823F0F8027B685B69DB0052
:10274C00394913430B603AE07B681B69002B20D09E
:10275C00364B01221A60FEF783FB386108E0FEF766
:10276C007FFB02463B69D31A022B01D90323A1E15B
:10277C002D4B1B6803F00203002BF0D02A4B1B6877
:10278C0023F0F8027B685B69DB00274913430B607D
:10279C0015E0264B00221A60FEF762FB386108E058
:1027AC00FEF75EFB02463B69D31A022B01D90323C9
:1027BC0080E11D4B1B6803F00203002BF0D17B68FA
:1027CC001B6803F00803002B3AD07B689B69002B35
:1027DC0019D0174B01221A60FEF742FB386108E052
:1027EC00FEF73EFB02463B69D31A022B01D90323A9
:1027FC0060E10D4B5B6A03F00203002BF0D001206B
:10280C0000F0CEFA1CE00A4B00221A60FEF728FBFF
:10281C0038610FE0FEF724FB02463B69D31A022B0A
:10282C0008D9032346E100BF0010024000004242D9
:10283C0080044242924B5B6A03F00203002BE9D105
:10284C007B681B6803F00403002B00F0A6800023B8
:10285C00FB758B4BDB6903F08053002B0DD1884B40
:10286C00DB69874A43F08053D361854BDB6903F006
:10287C008053BB60BB680123FB75824B1B6803F460
:10288C008073002B18D17F4B1B687E4A43F48073F6
:10289C001360FEF7E5FA386108E0FEF7E1FA02464C
:1028AC003B69D31A642B01D9032303E1754B1B68D5
:1028BC0003F48073002BF0D07B68DB68012B06D10E
:1028CC006F4B1B6A6E4A43F0010313622DE07B6869
:1028DC00DB68002B0CD16A4B1B6A694A23F001039D
:1028EC001362674B1B6A664A23F0040313621CE0F5
:1028FC007B68DB68052B0CD1614B1B6A604A43F08B
:10290C00040313625E4B1B6A5D4A43F001031362BE
:10291C000BE05B4B1B6A5A4A23F001031362584BC2
:10292C001B6A574A23F0040313627B68DB68002B95
:10293C0015D0FEF795FA38610AE0FEF791FA0246D7
:10294C003B69D31A41F28832934201D90323B1E097
:10295C004B4B1B6A03F00203002BEED014E0FEF786
:10296C007FFA38610AE0FEF77BFA02463B69D31A1C
:10297C0041F28832934201D903239BE0404B1B6AFE
:10298C0003F00203002BEED1FB7D012B05D13C4B58
:10299C00DB693B4A23F08053D3617B68DB69002BF6
:1029AC0000F08780364B5B6803F00C03082B61D07A
:1029BC007B68DB69022B46D1334B00221A60FEF791
:1029CC004FFA386108E0FEF74BFA02463B69D31A1E
:1029DC00022B01D903236DE0294B1B6803F0007314
:1029EC00002BF0D17B681B6AB3F5803F08D1244BD8
:1029FC005B6823F400327B689B68214913434B606E
:102A0C001F4B5B6823F474127B68196A7B685B6AE2
:102A1C000B431B4913434B601B4B01221A60FEF7FF
:102A2C001FFA386108E0FEF71BFA02463B69D31A1D
:102A3C00022B01D903233DE0114B1B6803F00073FB
:102A4C00002BF0D035E0104B00221A60FEF708FA8C
:102A5C00386108E0FEF704FA02463B69D31A022BF0
:102A6C0001D9032326E0064B1B6803F00073002BEF
:102A7C00F0D11EE07B68DB69012B07D1012319E043
:102A8C000010024000700040600042420B4B5B683B
:102A9C00FB60FB6803F480327B681B6A9A4206D1A8
:102AAC00FB6803F470127B685B6A9A4201D00123C5
:102ABC0000E0002318461837BD4680BD00100240C8
:102ACC0080B584B000AF786039607B68002B01D191
:102ADC000123D0E06A4B1B6803F007033A689A4263
:102AEC0010D9674B1B6823F0070265493B681343F9
:102AFC000B60634B1B6803F007033A689A4201D0E2
:102B0C000123B8E07B681B6803F00203002B20D084
:102B1C007B681B6803F00403002B05D0594B5B68E2
:102B2C00584A43F4E06353607B681B6803F0080366
:102B3C00002B05D0534B5B68524A43F460535360EF
:102B4C00504B5B6823F0F0027B689B684D49134344
:102B5C004B607B681B6803F00103002B40D07B6843
:102B6C005B68012B07D1474B1B6803F40033002B28
:102B7C0015D101237FE07B685B68022B07D1414BA9
:102B8C001B6803F00073002B09D1012373E03D4B4C
:102B9C001B6803F00203002B01D101236BE0394BBE
:102BAC005B6823F003027B685B68364913434B6018
:102BBC00FEF756F9F8600AE0FEF752F90246FB6898
:102BCC00D31A41F28832934201D9032353E02D4B9F
:102BDC005B6803F00C027B685B689B009A42EBD14C
:102BEC00274B1B6803F007033A689A4210D2244B18
:102BFC001B6823F0070222493B6813430B60204BF0
:102C0C001B6803F007033A689A4201D0012332E0B3
:102C1C007B681B6803F00403002B08D0194B5B681E
:102C2C0023F4E0627B68DB68164913434B607B68D6
:102C3C001B6803F00803002B09D0124B5B6823F4CC
:102C4C0060527B681B69DB000E4913434B6000F03C
:102C5C0021F802460B4B5B681B0903F00F030A4972
:102C6C00CB5C22FA03F3094A1360094B1B68184624
:102C7C00FEF7B4F8002318461037BD4680BD00BFE0
:102C8C0000200240001002400855000800000020FF
:102C9C000400002080B487B000AF0023FB60002349
:102CAC00BB6000237B6100237B6000233B611E4BD8
:102CBC005B68FB60FB6803F00C03042B02D0082B51
:102CCC0003D027E0194B3B6127E0FB689B0C03F01A
:102CDC000F03174AD35C7B60FB6803F48033002B33
:102CEC0010D0114B5B685B0C03F00103114AD35CF1
:102CFC00BB607B680D4A03FB02F2BB68B2FBF3F3CB
:102D0C007B6104E07B680C4A02FB03F37B617B690B
:102D1C003B6102E0054B3B6100BF3B6918461C3729
:102D2C00BD4680BC704700BF0010024000127A0004
:102D3C00205500083055000800093D0080B400AF54
:102D4C00024B1B681846BD4680BC70470000002033
:102D5C0080B500AFFFF7F2FF0246054B5B681B0A1C
:102D6C0003F007030349CB5C22FA03F3184680BD3A
:102D7C00001002401855000880B500AFFFF7DEFFC9
:102D8C000246054B5B68DB0A03F007030349CB5C87
:102D9C0022FA03F3184680BD0010024018550008B3
:102DAC0080B485B000AF78600A4B1B680A4AA2FB5E
:102DBC0003235B0A7A6802FB03F3FB6000BFFB682A
:102DCC005A1EFA60002BF9D100BF00BF1437BD4664
:102DDC0080BC704700000020D34D621080B586B0D7
:102DEC0000AF786000233B610023FB607B681B68AD
:102DFC0003F00103002B7DD00023FB754F4BDB69E7
:102E0C0003F08053002B0DD14C4BDB694B4A43F044
:102E1C008053D361494BDB6903F08053BB60BB68C3
:102E2C000123FB75464B1B6803F48073002B18D1F0
:102E3C00434B1B68424A43F480731360FEF710F84F
:102E4C00386108E0FEF70CF802463B69D31A642B94
:102E5C0001D903236DE03A4B1B6803F48073002BFC
:102E6C00F0D0364B1B6A03F44073FB60FB68002BFD
:102E7C002ED07B685B6803F44073FA689A4227D0C3
:102E8C002E4B1B6A23F44073FB602E4B01221A60FD
:102E9C002C4B00221A60294AFB681362FB6803F072
:102EAC000103002B14D0FDF7DBFF38610AE0FDF7BE
:102EBC00D7FF02463B69D31A41F28832934201D9BB
:102ECC00032336E01D4B1B6A03F00203002BEED0EC
:102EDC001A4B1B6A23F440727B685B6817491343D7
:102EEC000B62FB7D012B05D1144BDB69134A23F0DC
:102EFC008053D3617B681B6803F00203002B08D05E
:102F0C000E4B5B6823F440427B689B680B49134370
:102F1C004B607B681B6803F01003002B08D0074B39
:102F2C005B6823F480027B68DB68044913434B60C5
:102F3C00002318461837BD4680BD00BF0010024064
:102F4C00007000404004424280B582B000AF78600F
:102F5C007B68002B01D1012376E07B685B6A002B38
:102F6C0008D17B685B68B3F5827F09D07B6800224F
:102F7C00DA6105E07B6800221A617B6800225A61E5
:102F8C007B6800229A627B6893F85130DBB2002B8D
:102F9C0006D17B68002283F850207868FDF7BCFCD2
:102FAC007B68022283F851207B681B681A687B6857
:102FBC001B6822F040021A607B685B6803F4827223
:102FCC007B689B6803F404431A437B68DB6803F457
:102FDC0000631A437B681B6903F002031A437B6886
:102FEC005B6903F001031A437B689B6903F400736C
:102FFC001A437B68DB6903F038031A437B681B6A4E
:10300C0003F0800342EA03017B689B6A03F40052DD
:10301C007B681B680A431A607B689B691A0C7B6887
:10302C001B6802F004025A607B681B68DA697B68D3
:10303C001B6822F40062DA617B6800225A657B68A7
:10304C00012283F85120002318460837BD4680BD65
:10305C0080B582B000AF78607B68002B01D1012372
:10306C0041E07B6893F83D30DBB2002B06D17B68E6
:10307C00002283F83C207868FDF798FC7B680222DC
:10308C0083F83D207B681A687B6804331946104628
:10309C0000F092F97B68012283F846207B680122BC
:1030AC0083F83E207B68012283F83F207B68012255
:1030BC0083F840207B68012283F841207B68012241
:1030CC0083F842207B68012283F843207B6801222D
:1030DC0083F844207B68012283F845207B68012219
:1030EC0083F83D20002318460837BD4680BD0000FC
:1030FC0080B584B000AF786039603B68002B09D193
:10310C007B6893F83E30DBB2012B14BF0123002304
:10311C00DBB222E03B68042B09D17B6893F83F308B
:10312C00DBB2012B14BF01230023DBB215E03B689B
:10313C00082B09D17B6893F84030DBB2012B14BF0C
:10314C0001230023DBB208E07B6893F84130DBB24B
:10315C00012B14BF01230023DBB2002B01D0012370
:10316C005EE03B68002B04D17B68022283F83E2092
:10317C0013E03B68042B04D17B68022283F83F20C8
:10318C000BE03B68082B04D17B68022283F84020BB
:10319C0003E07B68022283F841207B681B680122D4
:1031AC003968184600F0FEFA7B681B681E4A934289
:1031BC0007D17B681B685A6C7B681B6842F4004221
:1031CC005A647B681B68184A93420ED07B681B6854
:1031DC00B3F1804F09D07B681B68144A934204D02A
:1031EC007B681B68124A934211D17B681B689B68F1
:1031FC0003F00703FB60FB68062B10D07B681B6891
:10320C001A687B681B6842F001021A6007E07B6851
:10321C001B681A687B681B6842F001021A60002365
:10322C0018461037BD4680BD002C014000040040FC
:10323C000008004080B586B000AFF860B9607A60D5
:10324C000023FB75FB6893F83C30012B01D1022362
:10325C00AEE0FB68012283F83C207B680C2B00F26B
:10326C009F8001A252F823F0A9320008AD33000868
:10327C00AD330008AD330008E9320008AD33000867
:10328C00AD330008AD3300082B330008AD33000814
:10329C00AD330008AD3300086B330008FB681B68C6
:1032AC00B968184600F0F6F8FB681B689A69FB6869
:1032BC001B6842F008029A61FB681B689A69FB68FC
:1032CC001B6822F004029A61FB681B689969BB6851
:1032DC001A69FB681B680A439A6164E0FB681B6807
:1032EC00B968184600F03CF9FB681B689A69FB68E2
:1032FC001B6842F400629A61FB681B689A69FB6860
:10330C001B6822F480629A61FB681B689969BB6830
:10331C001B691A02FB681B680A439A6143E0FB684D
:10332C001B68B968184600F085F9FB681B68DA69F8
:10333C00FB681B6842F00802DA61FB681B68DA69FB
:10334C00FB681B6822F00402DA61FB681B68D96910
:10335C00BB681A69FB681B680A43DA6123E0FB68E7
:10336C001B68B968184600F0CFF9FB681B68DA696E
:10337C00FB681B6842F40062DA61FB681B68DA695F
:10338C00FB681B6822F48062DA61FB681B68D969F0
:10339C00BB681B691A02FB681B680A43DA6102E00E
:1033AC000123FB7500BFFB68002283F83C20FB7DEA
:1033BC0018461837BD4680BD80B485B000AF786024
:1033CC0039607B681B68FB607B682F4A93420BD08B
:1033DC007B68B3F1804F07D07B682C4A934203D0B3
:1033EC007B682B4A934208D1FB6823F07003FB6087
:1033FC003B685B68FA681343FB607B68224A934224
:10340C000BD07B68B3F1804F07D07B681F4A934287
:10341C0003D07B681E4A934208D1FB6823F44073A7
:10342C00FB603B68DB68FA681343FB60FB6823F0C6
:10343C0080023B685B691343FB607B68FA681A6027
:10344C003B689A687B68DA623B681A687B689A62A8
:10345C007B680D4A934203D13B681A697B681A63F7
:10346C007B6801225A617B681B6903F00103002B06
:10347C0005D07B681B6923F001027B681A6100BFD1
:10348C001437BD4680BC7047002C0140000400403E
:10349C000008004080B487B000AF786039607B686A
:1034AC001B6A7B617B681B6A23F001027B681A62D2
:1034BC007B685B683B617B689B69FB60FB6823F006
:1034CC007003FB60FB6823F00303FB603B681B6825
:1034DC00FA681343FB607B6923F002037B613B6852
:1034EC009B687A6913437B617B681C4A93420CD1BD
:1034FC007B6923F008037B613B68DB687A691343C3
:10350C007B617B6923F004037B617B68134A9342E4
:10351C0011D13B6923F480733B613B6923F4007345
:10352C003B613B685B693A6913433B613B689B6950
:10353C003A6913433B617B683A695A607B68FA6865
:10354C009A613B685A687B685A637B687A691A622D
:10355C0000BF1C37BD4680BC704700BF002C01402B
:10356C0080B487B000AF786039607B681B6A7B6180
:10357C007B681B6A23F010027B681A627B685B68AD
:10358C003B617B689B69FB60FB6823F4E043FB6059
:10359C00FB6823F44073FB603B681B681B02FA68F2
:1035AC001343FB607B6923F020037B613B689B68C2
:1035BC001B017A6913437B617B681D4A93420DD1D1
:1035CC007B6923F080037B613B68DB681B017A69B4
:1035DC0013437B617B6923F040037B617B68144A56
:1035EC00934213D13B6923F480633B613B6923F421
:1035FC0000633B613B685B699B003A6913433B6129
:10360C003B689B699B003A6913433B617B683A6951
:10361C005A607B68FA689A613B685A687B689A635F
:10362C007B687A691A6200BF1C37BD4680BC704744
:10363C00002C014080B487B000AF786039607B68A3
:10364C001B6A7B617B681B6A23F480727B681A623D
:10365C007B685B683B617B68DB69FB60FB6823F024
:10366C007003FB60FB6823F00303FB603B681B6883
:10367C00FA681343FB607B6923F400737B613B683E
:10368C009B681B027A6913437B617B681D4A9342DA
:10369C000DD17B6923F400637B613B68DB681B0203
:1036AC007A6913437B617B6923F480637B617B685C
:1036BC00144A934213D13B6923F480533B613B6919
:1036CC0023F400533B613B685B691B013A6913436C
:1036DC003B613B689B691B013A6913433B617B6807
:1036EC003A695A607B68FA68DA613B685A687B68A9
:1036FC00DA637B687A691A6200BF1C37BD4680BCEE
:10370C00704700BF002C014080B487B000AF7860D8
:10371C0039607B681B6A3B617B681B6A23F48052AF
:10372C007B681A627B685B687B617B68DB69FB602A
:10373C00FB6823F4E043FB60FB6823F44073FB60FD
:10374C003B681B681B02FA681343FB603B6923F45C
:10375C0000533B613B689B681B033A6913433B6115
:10376C007B680F4A934209D17B6923F480437B61C8
:10377C003B685B699B017A6913437B617B687A695F
:10378C005A607B68FA68DA613B685A687B681A642D
:10379C007B683A691A6200BF1C37BD4680BC704713
:1037AC00002C014080B487B000AFF860B9607A603B
:1037BC00BB6803F01F03012202FA03F37B61FB6871
:1037CC001A6A7B69DB431A40FB681A62FB681A6A47
:1037DC00BB6803F01F03796801FA03F31A43FB6813
:1037EC001A6200BF1C37BD4680BC704780B485B0E0
:1037FC0000AF786039607B6893F83C30012B01D1C5
:10380C00022346E07B68012283F83C207B6802227D
:10381C0083F83D207B681B685B68FB607B681B68DA
:10382C009B68BB60FB6823F07003FB603B681B6804
:10383C00FA681343FB607B681B68FA685A607B6804
:10384C001B68164A93420ED07B681B68B3F1804FFD
:10385C0009D07B681B68124A934204D07B681B68B2
:10386C00104A93420CD1BB6823F08003BB603B68C9
:10387C005B68BA681343BB607B681B68BA689A6064
:10388C007B68012283F83D207B68002283F83C2072
:10389C00002318461437BD4680BC7047002C0140ED
:1038AC00000400400008004080B582B000AF786092
:1038BC007B68002B01D1012342E07B6893F84130F7
:1038CC00DBB2002B06D17B68002283F8402078689D
:1038DC00FDF7B8F87B68242283F841207B681B68CD
:1038EC00DA687B681B6822F40052DA60786800F0B2
:1038FC00B7FD7B681B681A697B681B6822F49042D1
:10390C001A617B681B685A697B681B6822F02A0263
:10391C005A617B681B68DA687B681B6842F400524A
:10392C00DA607B6800225A647B68202283F841208D
:10393C007B68202283F842207B6800225A63002394
:10394C0018460837BD4680BD80B58AB002AFF86016
:10395C00B9603B601346FB8000237B61FB6893F8E6
:10396C004130DBB2202B75D1BB68002B02D0FB8819
:10397C00002B01D101236EE0FB6800225A64FB6826
:10398C00212283F84120FDF76BFA7861FB68FA88F5
:10399C009A84FB68FA88DA84FB689B68B3F5805FCD
:1039AC0008D1FB681B69002B04D10023FB61BB68A9
:1039BC00BB6103E0BB68FB610023BB612EE03B688D
:1039CC0000937B6900228021F86800F01CFB034601
:1039DC00002B05D0FB68202283F8412003233AE01A
:1039EC00FB69002B0BD1BB691B881A46FB681B6853
:1039FC00C2F308025A60BB690233BB6107E0FB6982
:103A0C001A78FB681B685A60FB690133FB61FB6821
:103A1C00DB8C9BB2013B9AB2FB68DA84FB68DB8CD3
:103A2C009BB2002BCBD13B6800937B6900224021D9
:103A3C00F86800F0E8FA0346002B05D0FB6820225A
:103A4C0083F84120032306E0FB68202283F8412001
:103A5C00002300E0022318462037BD4680BD80B508
:103A6C0084B000AFF860B9601346FB80FB6893F834
:103A7C004230DBB2202B12D1BB68002B02D0FB886A
:103A8C00002B01D101230BE0FB6800221A63FB8899
:103A9C001A46B968F86800F00FFB034600E00223F1
:103AAC0018461037BD4680BD80B5BAB000AF7860FF
:103ABC007B681B681B68C7F8E4307B681B68DB6895
:103ACC00C7F8E0307B681B685B69C7F8DC30002303
:103ADC00C7F8D8300023C7F8D430D7F8E43003F057
:103AEC000F03C7F8D830D7F8D830002B0FD1D7F840
:103AFC00E43003F02003002B09D0D7F8E03003F0BA
:103B0C002003002B03D0786800F0ECFB5BE2D7F8C5
:103B1C00D830002B00F0DE80D7F8DC3003F0010346
:103B2C00002B06D1D7F8E03003F49073002B00F093
:103B3C00D180D7F8E43003F00103002B0BD0D7F879
:103B4C00E03003F48073002B05D07B685B6C43F092
:103B5C0001027B685A64D7F8E43003F00403002BAD
:103B6C000BD0D7F8DC3003F00103002B05D07B68B9
:103B7C005B6C43F002027B685A64D7F8E43003F0C4
:103B8C000203002B0BD0D7F8DC3003F00103002B21
:103B9C0005D07B685B6C43F004027B685A64D7F8F1
:103BAC00E43003F00803002B11D0D7F8E03003F019
:103BBC002003002B05D1D7F8DC3003F00103002BD8
:103BCC0005D07B685B6C43F008027B685A647B68A9
:103BDC005B6C002B00F0F281D7F8E43003F020038B
:103BEC00002B08D0D7F8E03003F02003002B02D0D4
:103BFC00786800F077FB7B681B685B6903F0400317
:103C0C00002B14BF01230023DBB2C7F8D4307B6830
:103C1C005B6C03F00803002B03D1D7F8D430002BD6
:103C2C004FD0786800F081FA7B681B685B6903F001
:103C3C004003002B41D07B681B681433C7F89C30C1
:103C4C00D7F89C3053E8003FC7F89830D7F8983035
:103C5C0023F04003C7F8D0307B681B681433D7F8C7
:103C6C00D020C7F8A820C7F8A430D7F8A410D7F8EC
:103C7C00A82041E80023C7F8A030D7F8A030002BCB
:103C8C00D9D17B68DB6B002B13D07B68DB6B7E4A56
:103C9C005A637B68DB6B1846FEF762FA0346002B0F
:103CAC0016D07B68DB6B5B6B7A68D26B10469847DF
:103CBC000EE0786800F093F90AE0786800F08FF96C
:103CCC0006E0786800F08BF97B6800225A6475E195
:103CDC0000BF73E17B681B6B012B40F04F81D7F861
:103CEC00E43003F01003002B00F04881D7F8E030EB
:103CFC0003F01003002B00F041810023BB607B68B4
:103D0C001B681B68BB607B681B685B68BB60BB681F
:103D1C007B681B685B6903F04003002B00F0B680E6
:103D2C007B68DB6B1B685B68A7F8BE30B7F8BE30EE
:103D3C00002B00F045817B689B8DB7F8BE209A4222
:103D4C0080F03E817B68B7F8BE20DA857B68DB6B40
:103D5C009B69202B00F088807B681B680C33C7F8AC
:103D6C008830D7F8883053E8003FC7F88430D7F84C
:103D7C00843023F48073C7F8B8307B681B680C332D
:103D8C00D7F8B820C7F89420C7F89030D7F890101F
:103D9C00D7F8942041E80023C7F88C30D7F88C3042
:103DAC00002BD9D17B681B6814337B677B6F53E87E
:103DBC00003F3B673B6F23F00103C7F8B4307B68CF
:103DCC001B681433D7F8B420C7F88020FB67F96F51
:103DDC00D7F8802041E80023BB67BB6F002BE1D1F3
:103DEC007B681B6814333B663B6E53E8003FFB65F6
:103DFC00FB6D23F04003C7F8B0307B681B681433AD
:103E0C00D7F8B020FA66BB66B96EFA6E41E80023AB
:103E1C007B667B6E002BE3D17B68202283F84220EB
:103E2C007B6800221A637B681B680C33FB64FB6C99
:103E3C0053E8003FBB64BB6C23F01003C7F8AC30F5
:103E4C007B681B680C33D7F8AC20BA657B65796D41
:103E5C00BA6D41E800233B653B6D002BE3D17B68D9
:103E6C00DB6B1846FEF741F97B6802225A637B68CC
:103E7C009A8D7B68DB8D9BB2D31A9BB219467868FE
:103E8C0000F0B6F89CE000BFFB4100087B689A8DFF
:103E9C007B68DB8D9BB2D31AA7F8CE307B68DB8DA9
:103EAC009BB2002B00F08E80B7F8CE30002B00F0C8
:103EBC0089807B681B680C33BB63BB6B53E8003F8A
:103ECC007B637B6B23F49073C7F8C8307B681B68EB
:103EDC000C33D7F8C8207A643B64396C7A6C41E8AF
:103EEC000023FB63FB6B002BE3D17B681B68143353
:103EFC007B627B6A53E8003F3B623B6A23F0010321
:103F0C00C7F8C4307B681B681433D7F8C4203A63F5
:103F1C00FB62F96A3A6B41E80023BB62BB6A002B77
:103F2C00E3D17B68202283F842207B6800221A634D
:103F3C007B681B680C333B613B6953E8003FFB60BB
:103F4C00FB6823F01003C7F8C0307B681B680C3388
:103F5C00D7F8C020FA61BB61B969FA6941E800235E
:103F6C007B617B69002BE3D17B6802225A63B7F833
:103F7C00CE301946786800F03BF823E0D7F8E430EF
:103F8C0003F08003002B09D0D7F8E03003F0800356
:103F9C00002B03D0786800F03EF914E0D7F8E43039
:103FAC0003F04003002B0ED0D7F8E03003F04003B1
:103FBC00002B08D0786800F07DF904E000BF02E027
:103FCC0000BF00E000BFE837BD4680BD80B483B0C1
:103FDC0000AF786000BF0C37BD4680BC704780B422
:103FEC0083B000AF786000BF0C37BD4680BC704713
:103FFC0080B483B000AF78600B467B8000BF0C3779
:10400C00BD4680BC704780B586B000AFF860B96023
:10401C003B601346FB713BE03B6AB3F1FF3F37D08B
:10402C00FCF71EFF02463B68D31A3A6A9A4202D347
:10403C003B6A002B01D103233AE0FB681B68DB6869
:10404C0003F00403002B23D0BB68802B20D0BB686B
:10405C00402B1DD0FB681B681B6803F00803082B62
:10406C0016D100237B61FB681B681B687B61FB68B6
:10407C001B685B687B617B69F86800F056F8FB682D
:10408C0008225A64FB68002283F8402001230FE0C9
:10409C00FB681B681A68BB681340BA689A420CBF6D
:1040AC0001230023DBB21A46FB799A42B4D00023D9
:1040BC0018461837BD4680BD80B485B000AFF86097
:1040CC00B9601346FB80FB68BA689A62FB68FA8891
:1040DC009A85FB68FA88DA85FB6800225A64FB68CB
:1040EC00222283F84220FB681B69002B07D0FB6857
:1040FC001B68DA68FB681B6842F48072DA60FB6844
:10410C001B685A69FB681B6842F001025A61FB6824
:10411C001B68DA68FB681B6842F02002DA60002337
:10412C0018461437BD4680BC704780B495B000AFBC
:10413C0078607B681B680C337B637B6B53E8003FB8
:10414C003B633B6B23F49073FB647B681B680C3301
:10415C00FA6C3A64FB63F96B3A6C41E80023BB637D
:10416C00BB6B002BE5D17B681B6814333B623B6A4D
:10417C0053E8003FFB61FB6923F00103BB647B68E0
:10418C001B681433BA6CFA62BB62B96AFA6A41E80A
:10419C0000237B627B6A002BE5D17B681B6B012BB8
:1041AC0019D17B681B680C33FB60FB6853E8003F3C
:1041BC00BB60BB6823F010037B647B681B680C330B
:1041CC007A6CBA617B617969BA6941E800233B6119
:1041DC003B69002BE5D17B68202283F842207B6869
:1041EC0000221A6300BF5437BD4680BC704780B5AF
:1041FC0084B000AF78607B685B6AFB60FB68002270
:10420C00DA85FB680022DA84F868FFF7E8FE00BF65
:10421C001037BD4680BD80B485B000AF78607B6838
:10422C0093F84130DBB2212B3ED17B689B68B3F510
:10423C00805F14D17B681B69002B10D17B681B6AD3
:10424C00FB60FB681B881A467B681B68C2F308027C
:10425C005A607B681B6A9A1C7B681A6208E07B6850
:10426C001B6A591C7A6811621A787B681B685A6041
:10427C007B68DB8C9BB2013B9BB27A681946D1847C
:10428C00002B0FD17B681B68DA687B681B6822F0F7
:10429C008002DA607B681B68DA687B681B6842F016
:1042AC004002DA60002300E0022318461437BD46B2
:1042BC0080BC704780B582B000AF78607B681B68AB
:1042CC00DA687B681B6822F04002DA607B68202287
:1042DC0083F841207868FFF779FE002318460837E9
:1042EC00BD4680BD80B58CB000AF78607B6893F81C
:1042FC004230DBB2222B40F0AE807B689B68B3F57A
:10430C00805F17D17B681B69002B13D10023FB62E4
:10431C007B689B6ABB627B681B685B689BB2C3F360
:10432C0008039AB2BB6A1A807B689B6A9A1C7B68EA
:10433C009A6226E07B689B6AFB620023BB627B6807
:10434C009B68B3F5805F07D07B689B68002B0AD114
:10435C007B681B69002B06D17B681B685B68DAB233
:10436C00FB6A1A7008E07B681B685B68DBB203F0C1
:10437C007F03DAB2FB6A1A707B689B6A5A1C7B68F3
:10438C009A627B68DB8D9BB2013B9BB27A681946C3
:10439C00D185002B5DD17B681B68DA687B681B6854
:1043AC0022F02002DA607B681B68DA687B681B6885
:1043BC0022F48072DA607B681B685A697B681B6820
:1043CC0022F001025A617B68202283F842207B682C
:1043DC0000225A637B681B6B012B35D17B68002252
:1043EC001A637B681B680C337B617B6953E8003F65
:1043FC003B613B6923F010037B627B681B680C33C9
:10440C007A6A3A62FB61F9693A6A41E80023BB6156
:10441C00BB69002BE5D17B681B681B6803F010039C
:10442C00102B0AD10023FB607B681B681B68FB60A8
:10443C007B681B685B68FB60FB687B689B8D19461F
:10444C007868FFF7D5FD02E07868FBF7B9FE00232A
:10445C0002E0002300E0022318463037BD4680BD41
:10446C0080B584B000AF78607B681B681B6923F44F
:10447C0040517B68DA687B681B680A431A617B6869
:10448C009A687B681B691A437B685B691343BB6042
:10449C007B681B68DB6823F4B05323F00C037A6849
:1044AC001268B9680B43D3607B681B685B6923F4A3
:1044BC0040717B689A697B681B680A435A617B6808
:1044CC001B682C4A934203D1FEF756FCF86002E0BD
:1044DC00FEF73EFCF860FA6813469B0013449A0002
:1044EC001A447B685B689B00B2FBF3F3224AA2FB85
:1044FC0003235B091901FA6813469B0013449A00C5
:10450C001A447B685B689B00B2FBF3F21A4BA3FB6B
:10451C0002035B09642000FB03F3D31A1B01323343
:10452C00154AA2FB03235B0903F0F0031944FA6854
:10453C0013469B0013449A001A447B685B689B00EB
:10454C00B2FBF3F20C4BA3FB02035B09642000FBF0
:10455C0003F3D31A1B013233074AA2FB03235B0973
:10456C0003F00F027B681B680A449A6000BF103787
:10457C00BD4680BD003801401F85EB51002310B5AE
:10458C000446C0E90033C0E904338360818143668B
:10459C00C2818361194608225C3000F0F9F90D4B99
:1045AC00246263620C4BA3620C4BE3620C4B2363DF
:1045BC000C4B9C4206D003F16802944202D0D033DB
:1045CC009C4205D104F15800BDE8104000F058BAE7
:1045DC0010BD00BFED4700080F4800084748000811
:1045EC006B480008E8090020024A0349034800F020
:1045FC0069B800BF0C000020255300081C000020E7
:10460C0041680C4B10B59942044601D000F084FE71
:10461C00A168094B994202D0204600F07DFEE1686A
:10462C00064B994204D02046BDE8104000F074BE01
:10463C0010BD00BFE8090020500A0020B80A002075
:10464C0010B50B4B0B4C0C4A20461A60042100226F
:10465C00FFF794FF04F1680001220921FFF78EFF98
:10466C0004F1D0000222BDE810401221FFF786BFF2
:10467C00200B0020E8090020F5450008014800F057
:10468C0000BA00BF290B0020014800F0FBB900BFA5
:10469C00290B002010B50446FFF7F0FF236A1BB16D
:1046AC00BDE81040FFF7F0BF044B2362044B1B68BE
:1046BC00002BF5D1FFF7C4FFF2E700BF0D46000851
:1046CC00200B00202DE9F8430746884614460026A7
:1046DC00D4E90195B9F1010905D52468002CF7D16D
:1046EC003046BDE8F883AB89012B07D9B5F90E30FC
:1046FC00013303D029463846C04706436835E9E7FD
:10470C000FB407B5064904AB086853F8042B81684D
:10471C00019300F0D7FA03B05DF804EB04B07047D6
:10472C0018000020036A70B505460E4684680BB964
:10473C00FFF7B0FF636EDB0705D4A389980502D49D
:10474C00A06D00F09EF9A389190702D52369002BEF
:10475C0035D12146284600F0C5F880B34FF0FF351F
:10476C00636EDA0705D4A3899B0502D4A06D00F013
:10477C0089F9284670BD002B04DAA2699A4217DC2D
:10478C000A2915D023685A1C22601970A36816F8E0
:10479C00011F013BA3600029EDD1002B11DA224649
:1047AC000A21284600F05FF80130D7D00A25D7E758
:1047BC002246284600F057F80130E7D1CEE7013EFB
:1047CC00E4E723685A1C22600A221A70EEE7000004
:1047DC00024B01461868FFF7A5BF00BF1800002068
:1047EC0010B50C46B1F90E1000F0FCF80028ABBF68
:1047FC00636DA3891B1823F48053ACBF6365A3813D
:10480C0010BD2DE9F0411F468B890546DB050C4692
:10481C00164605D502230022B1F90E1000F0D0F88F
:10482C00A389324623F48053A38128463B46B4F92E
:10483C000E10BDE8F04100F0E7B810B50C46B1F928
:10484C000E1000F0BDF8431CA38915BF606523F45E
:10485C00805343F48053A38118BFA38110BDB1F9D9
:10486C000E1000F09DB8F8B50E461446054618B16A
:10487C00036A0BB9FFF70EFFA369A360A3891A079C
:10488C0001D5236943B92146284600F02BF818B10D
:10489C004FF0FF373846F8BD23682269F6B2981AF4
:1048AC0063693746834205DC2146284600F034FD17
:1048BC000028EDD1A368013BA36023685A1C226039
:1048CC001E706269431C9A4204D0A389DB07E1D5B0
:1048DC000A2EDFD12146284600F01EFD0028D9D033
:1048EC00D6E7000038B5294B054618680C4618B1B8
:1048FC00036A0BB9FFF7CEFEB4F90C30190722D4BA
:10490C00DA0607D409222A6043F040034FF0FF3047
:10491C00A38133E0580712D5616B41B104F1440314
:10492C00994202D0284600F0AFF800236363A389B4
:10493C0023F02403A3810023636023692360A389EC
:10494C0043F00803A38123694BB9A38903F42073B3
:10495C00B3F5007F03D02146284600F02AFDB4F9B8
:10496C000C3013F001020AD00022A260626952429C
:10497C00A261226942B913F08000C5D138BD9907F4
:10498C0058BF6269A260F4E70020F7E71800002026
:10499C0003460244934200D1704703F8011BF9E728
:1049AC0038B50023054D044608462B60FCF717F973
:1049BC00431C02D12B6803B1236038BD240B0020AB
:1049CC0038B50446084611460022054D2A601A46A1
:1049DC00FCF729F9431C02D12B6803B1236038BDC5
:1049EC00240B002038B50446084611460022054D1C
:1049FC002A601A46FCF7BAF8431C02D12B6803B1A3
:104A0C00236038BD240B002038B5044608461146F7
:104A1C000022054D2A601A46FCF7C5F8431C02D14A
:104A2C002B6803B1236038BD240B0020014B1868A0
:104A3C00704700BF1800002070B500260C4D0D4CBF
:104A4C00641BA410A64209D100F030FD00260A4DCB
:104A5C000A4C641BA410A64205D170BD55F8043B4A
:104A6C0098470136EEE755F8043B98470136F2E7D4
:104A7C006855000868550008685500086C55000812
:104A8C00704770477047000038B50546002940D084
:104A9C0051F8043C0C1F002BB8BFE41800F0DEF8F2
:104AAC001C4A136833B9636014602846BDE838406B
:104ABC0000F0DAB8A34208D9206821188B4201BF54
:104ACC0019685B6809182160EDE71A465B680BB141
:104ADC00A342FAD911685018A0420BD120680144A6
:104AEC00501883421160E0D118685B68084410606C
:104AFC005360DAE702D90C232B60D6E72068211823
:104B0C008B4201BF19685B680918216063605460AF
:104B1C00CBE738BD300B002070B50F4E0C4631681A
:104B2C00054611B900F0A4FC30602146284600F07F
:104B3C009FFC431C03D14FF0FF34204670BDC41CB6
:104B4C0024F00304A042F8D0211A284600F090FC6F
:104B5C000130F2D1EFE700BF2C0B00202DE9F84318
:104B6C00CD1C25F0030508350C2D38BF0C25002D68
:104B7C00064601DBA94204D90C2333600020BDE8B2
:104B8C00F883DFF8D48000F069F8D8F800301C46C0
:104B9C0044BB29463046FFF7BFFF431C044658D19F
:104BAC00D8F800402746002F43D1002C4BD0236867
:104BBC003946304604EB030900F05AFC814542D1DA
:104BCC00216830466D1A2946FFF7A6FF01303AD00E
:104BDC0023682B442360D8F800305A6862BBC8F8AD
:104BEC0000700FE02268521B20D40B2A17D96119D0
:104BFC00A342256018BF5960636808BFC8F800104D
:104C0C0062514B60304600F02FF804F10B00231D6D
:104C1C0020F00700C21A1CBF1B1AA350AFE7626832
:104C2C00A3420CBFC8F800205A60EBE72346646827
:104C3C00AEE73C467F68B6E71A465B68A342FBD1F9
:104C4C0000235360DEE70C233046336000F00CF891
:104C5C0094E70560D6E700BF300B00200148FFF752
:104C6C0010BF00BF280B00200148FFF70BBF00BF8F
:104C7C00280B0020936810B4013B002B936007DADB
:104C8C009469A34201DB0A2902D110BCFFF7EBBDEA
:104C9C001368581C10601970084610BC7047F8B5A2
:104CAC0006460F461446D518AC4201D1002007E049
:104CBC003A46304614F8011BFFF7DCFF431CF3D1D6
:104CCC00F8BD00002DE9F04F0D46144698460646F7
:104CDC009DB018B1036A0BB9FFF7DCFC6B6ED907FA
:104CEC0005D4AB899A0502D4A86DFFF7CAFEAB892F
:104CFC001B0701D52B699BB929463046FFF7F2FDFE
:104D0C0070B16B6EDC0704D54FF0FF301DB0BDE801
:104D1C00F08FAB899805F7D4A86DFFF7B3FEF3E7D6
:104D2C000023099320238DF8293030234FF00109FB
:104D3C00CDF80C80DFF8A8818DF82A3023469A46EE
:104D4C0013F8012B0AB1252AF9D1BAEB040B0BD0BD
:104D5C005B46224629463046FFF7A1FF013000F0A2
:104D6C00A780099A5A4409929AF80030002B00F057
:104D7C009F8000234FF0FF32CDE905230AF1010A91
:104D8C00049307938DF853301A935446052214F864
:104D9C00011B534800F07CFB049AD8B9D10644BFE0
:104DAC0020238DF85330130744BF2B238DF8533039
:104DBC009AF800302A2B15D0544600204FF00A0CDC
:104DCC00079A214611F8013B303B092B4BD9B0B166
:104DDC00079214E0A0EB080309FA03F31343A2466D
:104DEC000493D2E7039B191D1B680391002BBBBFD7
:104DFC005B4242F0020207930793B8BF04922378F8
:104E0C002E2B0AD163782A2B32D1039B02341A1D24
:104E1C001B68039243EAE3730593DFF8C8A00322EF
:104E2C005046217800F034FB38B14022049BA0EBB3
:104E3C000A00824013430134049314F8011B062228
:104E4C0029488DF8281000F023FB00283FD0274B71
:104E5C001BBB039B073323F0070308330393099B06
:104E6C003B4409936AE70C4601200CFB0232A8E78D
:104E7C0000234FF00A0C194601340593204610F814
:104E8C00012B303A092A03D9002BC6D00591C4E76F
:104E9C00044601230CFB0121F0E703AB00932A46E7
:104EAC003046134B04A9AFF300800746781CD6D1CB
:104EBC006B6ED90705D4AB899A0502D4A86DFFF7A0
:104ECC00E1FDAB895B063FF51FAF09981EE703AB0D
:104EDC0000932A463046064B04A900F07DF8E4E71F
:104EEC0032550008385500083C55000800000000F9
:104EFC00AB4C00082DE9F047164698468A680B69BA
:104F0C0007469342B8BF1346336091F843200C46D2
:104F1C00DDF820900AB1013333602368990642BF53
:104F2C00336802333360256815F0060506D104F1A9
:104F3C00190AE36832689B1AAB422BDC94F84330B5
:104F4C002268003B18BF0123920630D441463846F4
:104F5C0004F14302C847013023D02368226903F0CF
:104F6C000603042B14BF002533684FF0000608BF5E
:104F7C00E56804F11A0408BFED1A54F8123C08BF96
:104F8C0025EAE5759342C4BF9B1AED18B5421AD1B8
:104F9C00002008E00123524641463846C8470130FC
:104FAC0003D14FF0FF30BDE8F0870135C1E7302069
:104FBC00E11881F843005A1C94F84510224402333E
:104FCC0082F84310C2E70123224641463846C847BF
:104FDC000130E6D00136D9E72DE9FF470F7E914627
:104FEC00782F80460C469A460C9E01F1430207D856
:104FFC00622F0AD8002F00F0D380582F00F0BA800F
:10500C0004F1420684F842703AE0A7F16303152BD1
:10501C00F6D801A151F823F07D50000891500008FA
:10502C000D5000080D5000080D5000080D500008E0
:10503C00915000080D5000080D5000080D5000084C
:10504C000D50000893510008BB5000084D5100084A
:10505C000D5000080D500008B55100080D50000807
:10506C00BB5000080D5000080D50000855510008A9
:10507C0033681A1D1B68326004F1420684F8423012
:10508C0001239EE033682068191D3160060601D5A6
:10509C001D6803E04506FBD5B3F90050002D03DA7B
:1050AC002D236D4284F843300A23594811E02168BE
:1050BC003368080653F8045B02D4490648BFADB206
:1050CC006F2F336014BF0A2308235148002184F842
:1050DC0043106668002EA8BF2168A660A4BF21F00B
:1050EC00040121600DB9002E4BD01646B5FBF3F12F
:1050FC0003FB1157C75D06F8017D2F46BB420D46D9
:10510C00F4D9082B0BD12368DF0708D52369616814
:10511C009942DEBF302306F8013C06F1FF36921BA4
:10512C0022614B4621464046CDF800A003AAFFF76A
:10513C00E1FE01304AD14FF0FF3004B0BDE8F087FA
:10514C00236843F0200323607827324884F84570A5
:10515C00236831681F0651F8045B02D45F0648BF10
:10516C00ADB23160D90744BF43F0200323601DB1B9
:10517C001023ABE72648E9E7236823F020032360DC
:10518C00F6E71646BDE733682568181D616930607F
:10519C002E061B6801D5196002E06806FBD5198044
:1051AC00002316462361BCE7336800211A1D3260C8
:1051BC001E686268304600F06BF908B1801B6060B5
:1051CC0063682361002384F84330AAE732464946DA
:1051DC0040462369D0470130ADD023689B0713D4D8
:1051EC00E068039B9842B8BF1846A6E701233246F5
:1051FC0049464046D04701309DD00135E3680399BC
:10520C005B1AAB42F2DCEBE7002504F11906F5E77B
:10521C004355000854550008B1F90C20F8B5160791
:10522C0005460C4654D44B68002B02DC0B6C002B4F
:10523C0048DDE66A002E45D0002312F480522F6818
:10524C00216A2B6030D0626DA389590705D563683C
:10525C00D21A636B0BB1236CD21A00232846E66A70
:10526C00216AB047431CA38906D129681D292BD874
:10527C00284A0A41D60727D4002262602269D90441
:10528C00226004D5421C01D12B6803B96065616BA7
:10529C002F60B9B104F14403994202D02846FFF7BC
:1052AC00F3FB002363630DE001232846B04702465D
:1052BC00501CC9D12B68002BC6D01D2B01D0162B2E
:1052CC001DD12F60002021E043F040031BB21AE0F7
:1052DC000F69002FF6D0930718BF00230E6808BF84
:1052EC004B69F61B0F608B60002EEBDD33463A46A4
:1052FC002846216AD4F828C0E047002807DCB4F916
:10530C000C3043F040034FF0FF30A381F8BD07444D
:10531C00361AE9E7FEFFBFDF38B50B6905460C46C8
:10532C0013B90025284638BD18B1036A0BB9FFF72D
:10533C00B1F9B4F90C30002BF3D0626ED00704D461
:10534C00990502D4A06DFFF79CFB28462146FFF778
:10535C0063FF636E0546DA07E4D4A3899B05E1D4A9
:10536C00A06DFFF78FFBDDE770B50C46B1F90E10A1
:10537C00154600291E4696B00CDAA389002113F0BD
:10538C00800F14BF40234FF48063002031602B60EA
:10539C0016B070BD6A4600F049F80028EDDB0199A3
:1053AC0001F47041A1F50053594259414FF4806307
:1053BC00EBE78B89F7B59D0706460C4607D504F13C
:1053CC004703236023610123636103B0F0BD6A4688
:1053DC0001ABFFF7C9FF009F054639463046FFF782
:1053EC00BDFB48B9B4F90C309A05EED423F0030395
:1053FC0043F00203A381E2E7A389C4E9040743F065
:10540C008003A381019B20605BB13046B4F90E1080
:10541C0000F01EF828B1A38923F0030343F0010325
:10542C00A381A3891D43A581CFE7000038B50023D4
:10543C00064D0446084611462B60FBF7DBFB431C6C
:10544C0002D12B6803B1236038BD00BF240B0020B0
:10545C0038B50023054D044608462B60FBF7D9FBF5
:10546C00431C02D12B6803B1236038BD240B0020F0
:10547C0038B50023054D044608462B60FBF7E0FBCE
:10548C00431C02D12B6803B1236038BD240B0020D0
:10549C00034610B5C9B202449342184601D100200C
:1054AC0003E0047801338C42F6D110BDF8B500BF8F
:1054BC00F8BC08BC9E467047F8B500BFF8BC08BCE9
:0454CC009E46704741
:1054D00043414E205258204572726F720D000000F9
:1054E00043414E2041637469766174652045727250
:1054F0006F720D0053746172740000004144433AAE
:10550000256C640A0000000000000000000000009C
:105510000102030406070809000000000102030459
:1055200002030405060708090A0B0C0D0E0F1010E4
:105530000102232D302B2000686C4C006566674506
:1055400046470030313233343536373839414243FB
:1055500044454600303132333435363738396162AC
:085560006364656600000000B1
:045568003101000805
:04556C000D01000825
:105570000024F40010000000010000000000000002
:1055800003000000E80900201C00002000000000CB
:10559000E8090020500A0020B80A0020000000009E
:1055A00000000000000000000000000000000000FB
:1055B00000000000000000000000000000000000EB
:1055C00000000000000000000000000000000000DB
:0855D0000000000000000000D3
:0400000508000D7171
:00000001FF
