:020000040800F2
:1000000000500020B1160008B5140008BD14000807
:10001000C5140008CD140008D51400080000000025
:10002000000000000000000000000000DD140008D7
:10003000E914000800000000F5140008011500088C
:10004000F9160008F9160008F9160008F916000854
:10005000F9160008F9160008F9160008F916000844
:10006000F9160008F9160008F9160008F916000834
:10007000F9160008F9160008F9160008F916000824
:10008000F9160008F9160008F9160008F916000814
:100090000D150008F9160008F9160008F9160008F1
:1000A000F9160008F9160008F9160008F9160008F4
:1000B000F9160008F9160008F9160008F9160008E4
:1000C000F9160008F9160008F9160008F9160008D4
:1000D000F916000821150008F9160008F91600089D
:1000E000F9160008F9160008F916000800000000CB
:1000F0000000000000000000000000000000000000
:0C01000000000000000000005FF808F1A3
:10010C0010B5054C237833B9044B13B10448AFF345
:10011C0000800123237010BD680000200000000047
:10012C009C53000808B5034B1BB103490348AFF3BC
:10013C00008008BD000000006C0000209C530008EB
:10014C0080B500AF01220349034803F0BDFB00BF9B
:10015C0080BD00BF840000202C09002080B584B035
:10016C0000AF786001F01CFBF860FA687B689A427B
:10017C0003D3FA687B68D31A05E0FA687B68D31A54
:10018C0003F57F43FF3318461037BD4680BD000092
:10019C0080B582B000AF7860391D4FF6FF73012235
:1001AC00034803F006FB7B6818460837BD4680BD44
:1001BC002C09002080B582B000AF78607B681B688A
:1001CC000E4A934215D10E4B1B889BB21A460D4B0F
:1001DC0019780D4B99540A4B1B889BB201339BB277
:1001EC00DBB29AB2064B1A8001220649074803F08B
:1001FC006BFB00BF0837BD4680BD00BF0038014017
:10020C008801002084000020880000202C09002098
:10021C0080B500AF3C4B1B681846FFF79FFF0346A9
:10022C00092B33D901F0BCFA0346374A13604FF45B
:10023C008051364802F02EFB03461A46344B1A7096
:10024C00344B1A78324B1B789A4207D0304B1A78C1
:10025C00304B1A70304B03221A7017E02E4B1B7860
:10026C00002B13D02C4B1B78013BDAB22A4B1A70A3
:10027C00294B1B78002B09D1254B1B78002B05D162
:10028C00264B01221A70264804F0E0F9254B1B6816
:10029C001846FFF763FF0346092B33D901F080FAA8
:1002AC000346204A13604FF40051184802F0F2FA4A
:1002BC0003461A461C4B1A701C4B1A781A4B1B78A7
:1002CC009A4207D0184B1A78184B1A70184B032205
:1002DC001A7017E0164B1B78002B13D0144B1B789D
:1002EC00013BDAB2124B1A70114B1B78002B09D15F
:1002FC000D4B1B78002B05D10E4B01221A700E48AA
:10030C0004F0A4F900BF80BD8C010020000C01405A
:10031C009201002090010020910100208A01002010
:10032C00B4530008940100209A0100209801002089
:10033C00990100208B010020C453000880B500AF48
:10034C00FFF766FF00BF80BD80B582B000AF78605C
:10035C001A4B1B78DBB21A461346DB0013449B0086
:10036C00174A1A44154B1B78DBB219460B46DB00B7
:10037C000B449B00183312490B440433002178685A
:10038C0001F000FC0346002B11D10C4B1B78DBB2A7
:10039C0001330C4A82FB03121111DA178A1A32212B
:1003AC0001FB02F29A1AD2B2044B1A7002E0064810
:1003BC0004F04CF900BF0837BD4680BDA4080020EE
:1003CC009C0100201F85EB51D853000880B500AF6D
:1003DC004FF40041024802F08CFA00BF80BD00BF10
:1003EC00000C014080B500AF084B1B681846FFF7A6
:1003FC00B5FE0346B3F5FA7F06D301F0D1F90346F7
:10040C00024A1360FFF7E2FF00BF80BDA80800207E
:10041C0080B500AFFFF7E6FF00BF80BD80B500AF31
:10042C0001F066F900F00DF800F008F900F04EF854
:10043C0000F0DAF800F0A2F801F01CF901F028F94C
:10044C00FCE780B590B000AF07F11803282200211B
:10045C00184604F0DBF93B1D00221A605A609A60C2
:10046C00DA601A610123BB614FF48033FB61002316
:10047C003B620123BB6202237B634FF48033BB637B
:10048C004FF4E013FB6307F11803184602F04AFA25
:10049C000346002B01D000F04BF90F237B600223A5
:1004AC00BB600023FB604FF480633B6100237B61E6
:1004BC003B1D0221184602F0B7FC0346002B01D06D
:1004CC0000F036F900BF4037BD4680BD80B58AB01C
:1004DC0000AF284B284A1A60264B04225A60254B41
:1004EC0000229A60234B0022DA60224B4FF46022E8
:1004FC001A61204B4FF480125A611E4B00221A765F
:10050C001C4B00225A761B4B00229A76194B002268
:10051C00DA76184B00221A77164B00225A771548B8
:10052C0001F06CF90346002B01D000F001F9002317
:10053C007B610023BB610123FB6100233B60002333
:10054C007B600023BB600023FB6000233B61012325
:10055C003B620E237B623B461946064801F049FA82
:10056C000346002B01D000F0E3F800BF2837BD464E
:10057C0080BD00BFAC0800200064004080B500AF17
:10058C00174B184A1A60164B4FF482725A60144B70
:10059C0000229A60124B0022DA60114B00221A6181
:1005AC000F4B00225A610E4B4FF400729A610C4BA8
:1005BC003022DA610A4B80221A62094B00225A62FD
:1005CC00074B00229A62064B0A22DA62044802F0B8
:1005DC00B9FD0346002B01D000F0AAF800BF80BD86
:1005EC00D40800200030014080B500AF114B124AF6
:1005FC001A60104B4FF4E1325A600E4B00229A6095
:10060C000C4B0022DA600B4B00221A61094B0C22B6
:10061C005A61084B00229A61064B0022DA610548A8
:10062C0003F077F80346002B01D000F081F800BFEF
:10063C0080BD00BF2C0900200038014080B588B077
:10064C0000AF07F1100300221A605A609A60DA605A
:10065C00344B9B69334A43F020039361314B9B69C4
:10066C0003F02003FB60FB682E4B9B692D4A43F083
:10067C00040393612B4B9B6903F00403BB60BB68C1
:10068C00284B9B69274A43F008039361254B9B69D0
:10069C0003F008037B607B6800221821224802F0DB
:1006AC0010F900224FF44041204802F00AF91823B7
:1006BC003B6101237B610023BB610223FB6107F1DA
:1006CC0010031946184801F061FF4FF480533B6149
:1006DC0000237B610123BB6107F11003194613480A
:1006EC0001F054FF4FF400533B6100237B61002366
:1006FC00BB6107F1100319460C4801F047FF4FF49A
:10070C0040433B6101237B610023BB610223FB61FE
:10071C0007F110031946054801F038FF00BF2037D8
:10072C00BD4680BD0010024000080140000C014095
:10073C0080B400AF72B600BF00BFFDE780B5C8B093
:10074C0000AF07F59073A3F58A73186007F59073E3
:10075C00A3F58C73196007F59073A3F58D731A804C
:10076C0007F59073A3F58D731B88FF2B06D807F53F
:10077C009073A3F58D731B88002B02D14FF0FF33C0
:10078C00AAE0002387F81F3107F59073A3F5867351
:10079C0000221A7007F59073A3F5867300225A7025
:1007AC0007F59073A3F58673FF229A70002387F8E0
:1007BC001E3110E097F81E3107F59072A2F5867283
:1007CC00D25C97F81F31134487F81F3197F81E310C
:1007DC00013387F81E3197F81E31022BEAD907F541
:1007EC009073A3F58D731B88DAB207F59073A3F59C
:1007FC008673DA7007F59073A3F58D731B88DBB2E3
:10080C005B42DAB207F59073A3F586731A71002375
:10081C0087F81D3123E097F81D3107F59072A2F58A
:10082C008C7212681A4497F81D310533117807F54C
:10083C009072A2F58672D15497F81D3107F590721B
:10084C00A2F58C72126813441A7897F81F3113446E
:10085C0087F81F3197F81D31013387F81D3197F850
:10086C001D319BB207F59072A2F58D7212889A42D7
:10087C00D1D807F59073A3F58D731B88053397F8C2
:10088C001F21D243D1B207F59072A2F58672D154D2
:10089C0007F59073A3F58D731B88063307F59072DB
:1008AC00A2F586720021D15407F59073A3F58A73D3
:1008BC001B689B6807F59072A2F58D72128807323F
:1008CC0091B207F11402104698470346002B02D050
:1008DC004FF0FF3300E00023184607F59077BD4634
:1008EC0080BD000080B5C8B000AF07F59073A3F5CC
:1008FC008A73186007F59073A3F58C73196007F56C
:10090C009073A3F58D731A80002387F81F3107F5B8
:10091C009073A3F58A731B685B6807F59072A2F558
:10092C008D721288073291B207F114021046984763
:10093C00002387F81E3119E097F81E31013387F830
:10094C001E3107F59073A3F58D731B88DA1D97F88C
:10095C001E319A420ADA07F59073A3F58A731B6865
:10096C005B695B4898474FF0FF33ABE097F81E315B
:10097C0007F59072A2F58672D35C002BDCD097F849
:10098C001E3107F59072A2F58672D35CFF2B0AD04C
:10099C0007F59073A3F58A731B685B694C489847FD
:1009AC004FF0FF338EE097F81E31013387F81E317C
:1009BC0007F59073A3F58D731B88DA1D97F81E311C
:1009CC009A420ADA07F59073A3F58A731B685B6980
:1009DC00404898474FF0FF3374E097F81E3107F505
:1009EC009072A2F58672D35C87F81B3197F81E3192
:1009FC00013307F59072A2F58672D25C97F81B3121
:100A0C001344DBB2002B0AD007F59073A3F58A735D
:100A1C001B685B69304898474FF0FF3352E0002366
:100A2C0087F81D3114E097F81E319A1C97F81D3188
:100A3C00134407F59072A2F58672D25C97F81F31B9
:100A4C00134487F81F3197F81D31013387F81D3196
:100A5C0097F81B2197F81D319A42E4D297F81F3171
:100A6C00002B0AD007F59073A3F58A731B685B699A
:100A7C001A4898474FF0FF3324E0002387F81C31C5
:100A8C0018E097F81E319A1C97F81C311A4497F805
:100A9C001C3107F59071A1F58C7109680B4407F5B1
:100AAC009071A1F586718A5C1A7097F81C3101332C
:100ABC0087F81C3197F81C2197F81B319A42E0D328
:100ACC0097F81B31184607F59077BD4680BD00BFDF
:100ADC00FC530008305400084C5400087C540008A7
:100AEC0090B5C7B000AF07F58C74A4F58674206080
:100AFC00084607F58C71A1F58A710A60194607F54D
:100B0C008C73A3F20D1302461A7007F58C73A3F5C0
:100B1C0088730A461A8007F58C73A3F58473D42264
:100B2C001A7007F58C73A3F5847307F58C72A2F217
:100B3C000D1212785A70002387F8173112E097F8CB
:100B4C001731D7F828211A4497F817310233117846
:100B5C0007F58C72A2F58472D15497F817310133D2
:100B6C0087F8173197F817319BB2B7F82C219A42B6
:100B7C00E5D8B7F82C3102339AB207F1100107F51A
:100B8C008C73A3F586731868FFF7D8FD0346002B0A
:100B9C0011D007F58C73A3F586731B681B699847F6
:100BAC0007F58C73A3F586731B685B695B489847E4
:100BBC004FF0FF33ACE007F58C73A3F586731B681D
:100BCC00DB68D7F830019847034683F00103DBB2AA
:100BDC00002B02D04FF0FF339AE007F58C73A3F58E
:100BEC0086731B685B6807F1100206211046984754
:100BFC00002387F816311CE097F81631484AD25C6E
:100C0C0097F8163107F58C71A1F58471CB5C9A427B
:100C1C000AD007F58C73A3F586731B685B69414892
:100C2C0098474FF0FF3373E097F81631013387F88C
:100C3C00163197F81631052BDED907F58C73A3F511
:100C4C0086731B68DB68D7F830019847034683F03E
:100C5C000103DBB2002B02D04FF0FF3358E007F555
:100C6C008C73A3F588731B8802339AB207F11001B9
:100C7C0007F58C73A3F586731868FFF733FEC7F876
:100C8C00100107F58C73A3F584731B78D52B0DD14C
:100C9C0007F58C73A3F584735B781A4607F58C7390
:100CAC00A3F20D131B7801339A420AD007F58C730B
:100CBC00A3F586731B685B691B4898474FF0FF339D
:100CCC0026E0002387F8153115E097F815319A1CAA
:100CDC0097F8153107F58C71A1F58A7109680B44E9
:100CEC0007F58C71A1F584718A5C1A7097F815312F
:100CFC00013387F8153197F815319BB207F58C72D3
:100D0C00A2F5887212889A42DFD8D7F81031023BCC
:100D1C00184607F58E77BD4690BD00BFB05400084D
:100D2C0008560008C4540008F054000880B586B07A
:100D3C0004AF786039604FF4FA7302930023019387
:100D4C000023009304233A6802217868FFF7C8FE59
:100D5C000346B3F1FF3F06D17B685B6904489847B3
:100D6C004FF0FF3300E0002318460837BD4680BD26
:100D7C001855000880B588B004AF78600D4A07F1AB
:100D8C000C031268114619800233120C1A704FF4BE
:100D9C007A7302930323019307F10C03009300234E
:100DAC00002214217868FFF79BFE002318461037A9
:100DBC00BD4680BD3455000880B590B004AFF860D6
:100DCC00B9603B601346FB71012387F82430FB7933
:100DDC0087F8253007F110023B6802930223019338
:100DEC0007F12403009313234A21F868FFF778FED8
:100DFC00B862BB6A002B02DA4FF0FF332EE03B7C6B
:100E0C00012B06D0FB685B69164898474FF0FF33FF
:100E1C0024E07B7D072B06D9FB685B691248984759
:100E2C004FF0FF331AE0002387F82F3010E097F8CB
:100E3C002F309A1D97F82F30B9680B4430323A4452
:100E4C0012F8202C1A7097F82F30013387F82F30B6
:100E5C007B7D97F82F209A42E9D37B7D184630375B
:100E6C00BD4680BD385500085855000880B500AF08
:100E7C00012208210C4801F024FD642000F09AFCAA
:100E8C0000220821084801F01CFD4FF4FA7000F014
:100E9C0091FC01220821044801F013FD642000F0AC
:100EAC0089FC0023184680BD0008014080B582B043
:100EBC0000AF78607968034803F058FB00BF08372F
:100ECC00BD4680BD8055000880B584B002AF786007
:100EDC000B46FB70002210210D4801F0F2FC0120A2
:100EEC0000F068FCFB789BB20A2200927A68796861
:100EFC00084802F0ABF9012000F05CFC0122102143
:100F0C00034801F0DEFC00BF0837BD4680BD00BFC2
:100F1C0000080140D40800202DE9F04387B000AF51
:100F2C0078600B467B806B461E467B88591C4B1E9B
:100F3C003B610A460023904699464FF000024FF061
:100F4C0000034FEAC90343EA58734FEAC8020A4642
:100F5C00002314461D464FF000024FF00003EB0037
:100F6C0043EA5473E2000B460733DB08DB00ADEBBE
:100F7C00030D6B460033FB60FB6803221A700520DF
:100F8C0000F018FC7B88DBB20133DBB21946F86841
:100F9C00FFF79AFF0023FB750AE0FB7D5A1CFB7DD3
:100FAC0079680B44F9688A5C1A70FB7D0133FB7518
:100FBC00FB7D9BB27A889A42EFD80023B54618463F
:100FCC001C37BD46BDE8F0832DE9F04387B000AF78
:100FDC0078600B467B806B461E467B88591C4B1EEB
:100FEC003B610A460023904699464FF000024FF0B1
:100FFC0000034FEAC90343EA58734FEAC8020A4692
:10100C00002314461D464FF000024FF00003EB0086
:10101C0043EA5473E2000B460733DB08DB00ADEB0D
:10102C00030D6B460033FB60FB6801221A70002332
:10103C00FB750AE0FB7D7A681A44FB7D013311785D
:10104C00FA68D154FB7D0133FB75FB7D9BB27A882A
:10105C009A42EFD87B88DBB20133DBB21946F868D1
:10106C00FFF732FF0023B54618461C37BD46BDE8D6
:10107C00F08380B584B000AF786002233B8100F030
:10108C008FFBF86010E00A2000F094FB07F10803D6
:10109C0002211846FFF718FF7B7A012B01D101239F
:1010AC000BE0052000F086FB00F07AFB0246FB68A3
:1010BC00D31A7A689A42E6D8002318461037BD46F0
:1010CC0080BD000080B582B000AF00233B714FF4AF
:1010DC007A7000F06FFB002210210A4801F0F1FB3E
:1010EC00022000F067FB3B1D01211846FFF7ECFEC8
:1010FC004FF47A7000F05EFB002318460837BD46AB
:10110C0080BD00BF0008014080B582B000AF7860A0
:10111C007B680C4A1A607B680B4A5A607B680B4AE6
:10112C009A607B680A4ADA607B680A4A1A617B68B3
:10113C00094A5A617B681B69984700BF0837BD464E
:10114C0080BD00BF790E0008250F0008D50F0008E0
:10115C007F100008D1100008B90E000880B500AF50
:10116C00114803F073FA1148FFF7CEFF10490F48EE
:10117C00FFF7DCFD0E490D48FFF7D8FD0346002BA9
:10118C000FD10B4B5B781946094B9B781A460948D3
:10119C0003F0ECF90548FFF7EDFD074803F056FAAC
:1011AC0000E000BF80BD00BF885500087409002016
:1011BC008C09002090550008BC55000880B582B001
:1011CC0000AF4FF47A73002215491648FFF7F4FD6F
:1011DC000346154A1360144B1B68B3F1FF3F03D150
:1011EC002E2003F0D5F917E0104803F0BFF90023C7
:1011FC00FB7109E0FB790A4AD35C19460C4803F0F1
:10120C00B5F9FB790133FB71FA79074B1B689A42EC
:10121C00F0DB084803F01AFA00BF0837BD4680BD62
:10122C008C0A002074090020980A0020DC55000864
:10123C00F4550008FC55000880B485B000AF154B80
:10124C009B69144A43F001039361124B9B6903F0B1
:10125C000103BB60BB680F4BDB690E4A43F0805344
:10126C00D3610C4BDB6903F080537B607B680A4BCA
:10127C005B68FB60FB6823F0E063FB60FB6843F09A
:10128C000073FB60044AFB68536000BF1437BD4613
:10129C0080BC7047001002400000014080B58AB04D
:1012AC0000AF786007F1140300221A605A609A604C
:1012BC00DA607B681B68294A93424BD1284BDB6967
:1012CC00274A43F00073D361254BDB6903F00073AD
:1012DC003B613B69224B9B69214A43F008039361B4
:1012EC001F4B9B6903F00803FB60FB684FF4807392
:1012FC007B610023BB610023FB6107F114031946DA
:10130C00184801F043F94FF400737B610223BB6171
:10131C0003233B6207F114031946124801F036F916
:10132C00114B5B687B627B6A23F4C0437B627B6AF4
:10133C0043F0E0637B627B6A43F480437B620A4A3E
:10134C007B6A536000220021142001F036F814202F
:10135C0001F04FF800BF2837BD4680BD0064004047
:10136C0000100240000C01400000014080B588B024
:10137C0000AF786007F1100300221A605A609A607F
:10138C00DA607B681B681B4A93422FD11A4B9B690E
:10139C00194A43F480539361174B9B6903F48053B0
:1013AC00FB60FB68144B9B69134A43F00403936185
:1013BC00114B9B6903F00403BB60BB68A0233B612A
:1013CC0002237B610323FB6107F1100319460B48D1
:1013DC0001F0DCF840233B6100237B610023BB61FF
:1013EC0007F110031946054801F0D0F800BF20376B
:1013FC00BD4680BD00300140001002400008014095
:10140C0080B588B000AF786007F1100300221A6035
:10141C005A609A60DA607B681B68204A934239D123
:10142C001F4B9B691E4A43F4804393611C4B9B6981
:10143C0003F48043FB60FB68194B9B69184A43F02B
:10144C0004039361164B9B6903F00403BB60BB68F8
:10145C004FF400733B6102237B610323FB6107F1B3
:10146C00100319460F4801F091F84FF480633B616B
:10147C0000237B610023BB6107F110031946094867
:10148C0001F084F800220021252000F096FF252091
:10149C0000F0AFFF00BF2037BD4680BD00380140D3
:1014AC00001002400008014080B400AF00BFFDE70F
:1014BC0080B400AF00BFFDE780B400AF00BFFDE714
:1014CC0080B400AF00BFFDE780B400AF00BFFDE704
:1014DC0080B400AF00BFBD4680BC704780B400AF85
:1014EC0000BFBD4680BC704780B400AF00BFBD4696
:1014FC0080BC704780B500AF00F040F900BF80BDE4
:10150C0080B500AF024800F05EFC00BF80BD00BF9C
:10151C00AC08002080B500AF024802F0FBF900BF18
:10152C0080BD00BF2C09002080B586B000AFF860EC
:10153C00B9607A6000237B610AE0AFF3008001465A
:10154C00BB685A1CBA60CAB21A707B6901337B61E2
:10155C007A697B689A42F0DB7B6818461837BD467F
:10156C0080BD80B586B000AFF860B9607A600023AA
:10157C007B6109E0BB685A1CBA601B781846FEF701
:10158C0007FE7B6901337B617A697B689A42F1DBE8
:10159C007B6818461837BD4680BD80B483B000AF59
:1015AC0078604FF0FF3318460C37BD4680BC70474F
:1015BC0080B483B000AF786039603B684FF4005260
:1015CC005A60002318460C37BD4680BC704780B467
:1015DC0083B000AF7860012318460C37BD4680BC41
:1015EC00704780B485B000AFF860B9607A600023B2
:1015FC0018461437BD4680BC7047000080B586B0D5
:10160C0000AF7860144A154BD31A7B617B693B6140
:10161C00134B1B68002B02D1114B124A1A60104B52
:10162C001A687B6813443A699A4207D203F03CF972
:10163C0003460C221A604FF0FF3309E0084B1B687D
:10164C00FB60074B1A687B681344054A1360FB6800
:10165C0018461837BD4680BD00500020000400001D
:10166C009C0A0020F00B002080B400AF00BFBD46E8
:10167C0080BC704780B500AFFEF762FDFFF76EFDD2
:10168C00024802F0E3FF00BF80BD00BF0056000817
:10169C0080B500AFFEF7BCFEFEF750FEFFF78EFDE7
:1016AC0000BF80BDFFF7E0FF0B480C490C4A00233C
:1016BC0002E0D458C4500433C4188C42F9D3094AFC
:1016CC00094C002301E013600432A242FBD303F067
:1016DC00F1F8FEF7A3FE7047000000206800002020
:1016EC007856000868000020F00B0020FEE7000090
:1016FC0080B500AF084B1B68074A43F0100313601A
:10170C00032000F04FFE0F2000F008F8FFF794FDC7
:10171C000023184680BD00BF0020024080B582B077
:10172C0000AF7860124B1A68124B1B7819464FF4B5
:10173C007A73B3FBF1F3B2FBF3F3184600F067FED8
:10174C000346002B01D001230EE07B680F2B0AD837
:10175C00002279684FF0FF3000F02FFE064A7B68BC
:10176C001360002300E0012318460837BD4680BDF6
:10177C0000000020080000200400002080B400AF0E
:10178C00054B1B781A46054B1B681344034A136020
:10179C0000BFBD4680BC704708000020A00A002096
:1017AC0080B400AF024B1B681846BD4680BC704726
:1017BC00A00A002080B584B000AF7860FFF7F0FF7E
:1017CC00B8607B68FB60FB68B3F1FF3F05D00A4B48
:1017DC001B781A46FB681344FB6000BFFFF7E0FF61
:1017EC000246BB68D31AFA689A42F7D800BF00BF0A
:1017FC001037BD4680BD00BF0800002080B584B006
:10180C0000AF78607B68002B01D10123EDE07B6891
:10181C0093F82030DBB2002B02D17868FFF73EFD45
:10182C007B681B681A687B681B6842F001021A60AF
:10183C00FFF7B6FFF86012E0FFF7B2FF0246FB6855
:10184C00D31A0A2B0BD97B685B6A43F400327B6892
:10185C005A627B68052283F820200123C5E07B684F
:10186C001B685B6803F00103002BE5D07B681B68E9
:10187C001A687B681B6822F002021A60FFF790FF5F
:10188C00F86012E0FFF78CFF0246FB68D31A0A2BB4
:10189C000BD97B685B6A43F400327B685A627B68C5
:1018AC00052283F8202001239FE07B681B685B687E
:1018BC0003F00203002BE5D17B681B7E012B08D1C2
:1018CC007B681B681A687B681B6842F080021A6090
:1018DC0007E07B681B681A687B681B6822F0800233
:1018EC001A607B685B7E012B08D17B681B681A68C9
:1018FC007B681B6842F040021A6007E07B681B683B
:10190C001A687B681B6822F040021A607B689B7E19
:10191C00012B08D17B681B681A687B681B6842F036
:10192C0020021A6007E07B681B681A687B681B68DA
:10193C0022F020021A607B68DB7E012B08D17B68C9
:10194C001B681A687B681B6822F010021A6007E09B
:10195C007B681B681A687B681B6842F010021A606F
:10196C007B681B7F012B08D17B681B681A687B681E
:10197C001B6842F008021A6007E07B681B681A6853
:10198C007B681B6822F008021A607B685B7F012B66
:10199C0008D17B681B681A687B681B6842F00402DC
:1019AC001A6007E07B681B681A687B681B6822F06A
:1019BC0004021A607B689A687B68DB681A437B6850
:1019CC001B691A437B685B6942EA03017B685B68AD
:1019DC005A1E7B681B680A43DA617B6800225A62D4
:1019EC007B68012283F82020002318461037BD465F
:1019FC0080BD80B487B000AF786039607B681B68AD
:101A0C007B617B6893F82030FB74FB7C012B03D04B
:101A1C00FB7C022B40F0AA807B69D3F8003243F0A8
:101A2C0001027B69C3F800223B685B6903F01F036A
:101A3C00012202FA03F3FB607B69D3F81C22FB68DA
:101A4C00DB431A407B69C3F81C223B68DB69002B23
:101A5C0023D17B69D3F80C22FB68DB431A407B69EA
:101A6C00C3F80C223B68DB6819043B685B689BB2CB
:101A7C003A68526919437B69483243F832103B6823
:101A8C009B6819043B681B689AB23B685B690A4304
:101A9C0079694833DB000B445A603B68DB69012BE6
:101AAC0022D17B69D3F80C22FB681A437B69C3F8FB
:101ABC000C223B681B6819043B685B689BB23A6854
:101ACC00526919437B69483243F832103B689B6872
:101ADC0019043B68DB689AB23B685B690A43796915
:101AEC004833DB000B445A603B689B69002B09D1DF
:101AFC007B69D3F80422FB68DB431A407B69C3F88B
:101B0C00042207E07B69D3F80422FB681A437B6943
:101B1C00C3F804223B681B69002B09D17B69D3F8FD
:101B2C001422FB68DB431A407B69C3F8142207E0DC
:101B3C007B69D3F81422FB681A437B69C3F814221F
:101B4C003B681B6A012B07D17B69D3F81C22FB680D
:101B5C001A437B69C3F81C227B69D3F8003223F04B
:101B6C0001027B69C3F80022002306E07B685B6AF4
:101B7C0043F480227B685A62012318461C37BD4609
:101B8C0080BC704780B487B000AFF860B9607A60F1
:101B9C003B60FB6893F82030FB75FB7D012B03D079
:101BAC00FB7D022B40F00381BB68002B0ED1FB6840
:101BBC001B68DB6803F00303002B16D1FB685B6A20
:101BCC0043F40012FB685A620123F7E0FB681B68C0
:101BDC001B6903F00303002B07D1FB685B6A43F41A
:101BEC000012FB685A620123E8E0FB681A68BB68C4
:101BFC001B331B0113441B6803F004027B689A60BF
:101C0C007B689B68002B0CD1FB681A68BB681B3384
:101C1C001B0113441B685B0DC3F30A027B681A603B
:101C2C000BE0FB681A68BB681B331B0113441B6871
:101C3C00DB0823F060427B685A60FB681A68BB685B
:101C4C001B331B0113441B6803F002027B68DA6030
:101C5C00FB681A68BB681B331B01134404331B68F5
:101C6C0003F00803002B03D07B6808221A610BE0F9
:101C7C00FB681A68BB681B331B01134404331B68D5
:101C8C0003F00F027B681A61FB681A68BB681B3390
:101C9C001B01134404331B681B0ADAB27B689A617C
:101CAC00FB681A68BB681B331B01134404331B68A5
:101CBC001B0C9AB27B685A61FB681A68BB681B01E3
:101CCC00134403F5DC731B68DAB23B681A70FB68CB
:101CDC001A68BB681B01134403F5DC731B681A0AF2
:101CEC003B680133D2B21A70FB681A68BB681B01DF
:101CFC00134403F5DC731B681A0C3B680233D2B235
:101D0C001A70FB681A68BB681B01134403F5DC737B
:101D1C001B681A0E3B680333D2B21A70FB681A6840
:101D2C00BB681B01134403F5DE731A683B6804336C
:101D3C00D2B21A70FB681A68BB681B01134403F516
:101D4C00DE731B681A0A3B680533D2B21A70FB6843
:101D5C001A68BB681B01134403F5DE731B681A0C6D
:101D6C003B680633D2B21A70FB681A68BB681B0159
:101D7C00134403F5DE731B681A0E3B680733D2B2AB
:101D8C001A70BB68002B08D1FB681B68DA68FB680B
:101D9C001B6842F02002DA6007E0FB681B681A69D6
:101DAC00FB681B6842F020021A61002306E0FB6806
:101DBC005B6A43F48022FB685A62012318461C3785
:101DCC00BD4680BC704780B58AB000AF78600023F8
:101DDC007B627B681B685B693B627B681B685B682A
:101DEC00FB617B681B689B68BB617B681B68DB685D
:101DFC007B617B681B681B693B617B681B689B690B
:101E0C00FB603B6A03F00103002B7CD0BB6903F041
:101E1C000103002B23D07B681B6801229A60BB69ED
:101E2C0003F00203002B03D0786800F083F916E06E
:101E3C00BB6903F00403002B04D07B6A43F40063FA
:101E4C007B620CE0BB6903F00803002B04D07B6AB7
:101E5C0043F480537B6202E0786800F086F9BB693A
:101E6C0003F48073002B24D07B681B684FF48072C2
:101E7C009A60BB6903F40073002B03D0786800F000
:101E8C0062F916E0BB6903F48063002B04D07B6A13
:101E9C0043F400537B620CE0BB6903F40063002B3A
:101EAC0004D07B6A43F480437B6202E0786800F0E4
:101EBC0065F9BB6903F48033002B24D07B681B6865
:101ECC004FF480329A60BB6903F40033002B03D0CB
:101EDC00786800F041F916E0BB6903F48023002B0D
:101EEC0004D07B6A43F400437B620CE0BB6903F4CF
:101EFC000023002B04D07B6A43F480337B6202E026
:101F0C00786800F044F93B6A03F00803002B0CD00E
:101F1C007B6903F01003002B07D07B6A43F400733A
:101F2C007B627B681B681022DA603B6A03F0040357
:101F3C00002B0BD07B6903F00803002B06D07B68C9
:101F4C001B680822DA60786800F02AF93B6A03F013
:101F5C000203002B09D07B681B68DB6803F00303CA
:101F6C00002B02D07868FEF7EFF93B6A03F04003D0
:101F7C00002B0CD03B6903F01003002B07D07B6ABD
:101F8C0043F480637B627B681B6810221A613B6A96
:101F9C0003F02003002B0BD03B6903F00803002B4C
:101FAC0006D07B681B6808221A61786800F00AF971
:101FBC003B6A03F01003002B09D07B681B681B697C
:101FCC0003F00303002B02D0786800F0F2F83B6AB0
:101FDC0003F40033002B0BD0FB6903F01003002B30
:101FEC0006D07B681B6810225A60786800F0F3F802
:101FFC003B6A03F48033002B0BD0FB6903F008031E
:10200C00002B06D07B681B6808225A60786800F0A9
:10201C00EBF83B6A03F40043002B7BD0FB6903F025
:10202C000403002B72D03B6A03F48073002B08D09E
:10203C00FB6803F00103002B03D07B6A43F0010320
:10204C007B623B6A03F40073002B08D0FB6803F03F
:10205C000203002B03D07B6A43F002037B623B6AD2
:10206C0003F48063002B08D0FB6803F00403002BFF
:10207C0003D07B6A43F004037B623B6A03F4006386
:10208C00002B43D0FB6803F07003002B3ED0FB68A1
:10209C0003F07003602B2BD0602B2ED8502B22D04A
:1020AC00502B2AD8402B19D0402B26D8302B10D0AF
:1020BC00302B22D8102B02D0202B05D01DE07B6AB0
:1020CC0043F008037B6219E07B6A43F010037B62E8
:1020DC0014E07B6A43F020037B620FE07B6A43F0E1
:1020EC0040037B620AE07B6A43F080037B6205E07D
:1020FC007B6A43F480737B6200E000BF7B681B68E3
:10210C009A697B681B6822F070029A617B681B6875
:10211C0004225A607B6A002B08D07B685A6A7B6A5F
:10212C001A437B685A62786800F067F800BF28375A
:10213C00BD4680BD80B483B000AF786000BF0C3763
:10214C00BD4680BC704780B483B000AF786000BFE0
:10215C000C37BD4680BC704780B483B000AF78604C
:10216C0000BF0C37BD4680BC704780B483B000AF55
:10217C00786000BF0C37BD4680BC704780B483B01C
:10218C0000AF786000BF0C37BD4680BC704780B490
:10219C0083B000AF786000BF0C37BD4680BC704781
:1021AC0080B483B000AF786000BF0C37BD4680BCF4
:1021BC00704780B483B000AF786000BF0C37BD4669
:1021CC0080BC704780B483B000AF786000BF0C3720
:1021DC00BD4680BC704780B483B000AF786000BF50
:1021EC000C37BD4680BC704780B483B000AF7860BC
:1021FC0000BF0C37BD4680BC704780B483B000AFC5
:10220C00786000BF0C37BD4680BC704780B485B089
:10221C0000AF78607B6803F00703FB600C4BDB6856
:10222C00BB60BA684FF6FF031340BB60FB681A0231
:10223C00BB68134343F0BF6343F40033BB60044AF1
:10224C00BB68D36000BF1437BD4680BC704700BF6D
:10225C0000ED00E080B400AF044BDB681B0A03F018
:10226C0007031846BD4680BC704700BF00ED00E078
:10227C0080B483B000AF0346FB7197F90730002B95
:10228C000BDBFB7903F01F02064997F907305B095A
:10229C00012000FA02F241F8232000BF0C37BD46A2
:1022AC0080BC704700E100E080B483B000AF03460F
:1022BC003960FB7197F90730002B0ADB3B68DAB207
:1022CC000C4997F907301201D2B20B4483F8002362
:1022DC000AE03B68DAB20849FB7903F00F03043BD0
:1022EC001201D2B20B441A7600BF0C37BD4680BC2B
:1022FC00704700BF00E100E000ED00E080B489B061
:10230C0000AFF860B9607A60FB6803F00703FB610B
:10231C00FB69C3F10703042B28BF0423BB61FB69D2
:10232C000433062B02D9FB69033B00E000237B61DD
:10233C004FF0FF32BB6902FA03F3DA43BB681A4071
:10234C007B699A404FF0FF317B6901FA03F3D94363
:10235C007B680B40134318462437BD4680BC70473E
:10236C0080B582B000AF78607B68013BB3F1807FB1
:10237C0001D301230FE00A4A7B68013B53600F2114
:10238C004FF0FF30FFF790FF054B00229A60044B93
:10239C0007221A60002318460837BD4680BD00BFCF
:1023AC0010E000E080B582B000AF78607868FFF78D
:1023BC002DFF00BF0837BD4680BD80B586B000AF8D
:1023CC000346B9607A60FB7300237B61FFF742FF21
:1023DC0078617A68B9687869FFF790FF024697F9D7
:1023EC000F3011461846FFF75FFF00BF1837BD4688
:1023FC0080BD80B582B000AF0346FB7197F9073002
:10240C001846FFF735FF00BF0837BD4680BD80B5C5
:10241C0082B000AF78607868FFF7A2FF03461846D9
:10242C000837BD4680BD80B485B000AF786000230E
:10243C00FB737B6893F82130DBB2022B08D07B68EE
:10244C0004229A637B68002283F82020012320E079
:10245C007B681B681A687B681B6822F00E021A6086
:10246C007B681B681A687B681B6822F001021A6083
:10247C007B681A6C7B68DB6B012101FA02F25A60F3
:10248C007B68012283F821207B68002283F82020BE
:10249C00FB7B18461437BD4680BC704780B584B0B2
:1024AC0000AF78600023FB737B6893F82130DBB2BC
:1024BC00022B05D07B6804229A630123FB7351E045
:1024CC007B681B681A687B681B6822F00E021A6016
:1024DC007B681B681A687B681B6822F001021A6013
:1024EC007B681B68224A934229D07B681B68214A6F
:1024FC00934222D07B681B681F4A93421AD07B6898
:10250C001B681E4A934212D07B681B681C4A93427C
:10251C000AD07B681B681B4A934202D14FF480138C
:10252C000EE04FF080730BE04FF4803308E04FF473
:10253C00805305E04FF4807302E0102300E0012388
:10254C00114A53607B68012283F821207B680022AA
:10255C0083F820207B685B6B002B03D07B685B6B64
:10256C0078689847FB7B18461037BD4680BD00BF86
:10257C00080002401C0002403000024044000240AF
:10258C00580002406C0002400000024080B48BB046
:10259C0000AF7860396000237B6200233B6269E105
:1025AC0001227B6A02FA03F3FB613B681B68FA6940
:1025BC001340BB61BA69FB699A4240F058813B6891
:1025CC005B689A4A93425ED0984A934275D8984A6F
:1025DC00934258D0964A93426FD8964A934252D01F
:1025EC00944A934269D8944A93424CD0924A93426B
:1025FC0063D8924A934246D0904A93425DD8122BAC
:10260C002AD8122B59D801A252F823F0932600088D
:10261C006D2600087F260008C1260008C726000882
:10262C00C7260008C7260008C7260008C7260008CA
:10263C00C7260008C7260008C7260008C7260008BA
:10264C00C7260008C7260008C7260008C7260008AA
:10265C007526000889260008794A934213D02CE08D
:10266C003B68DB683B6229E03B68DB6804333B6218
:10267C0024E03B68DB6808333B621FE03B68DB68A7
:10268C000C333B621AE03B689B68002B02D104239D
:10269C003B6213E03B689B68012B05D108233B622E
:1026AC007B68FA691A6109E008233B627B68FA6966
:1026BC005A6103E000233B6200E000BFBB69FF2BC3
:1026CC0001D87B6801E07B6804337B61BB69FF2B1D
:1026DC0002D87B6A9B0002E07B6A083B9B003B6153
:1026EC007B691A680F213B6901FA03F3DB431A403B
:1026FC00396A3B6901FA03F31A437B691A603B6838
:10270C005B6803F08053002B00F0B1804D4B9B694C
:10271C004C4A43F0010393614A4B9B6903F001035C
:10272C00BB60BB68484A7B6A9B08023352F8233073
:10273C00FB607B6A03F003039B000F2202FA03F396
:10274C00DB43FA681340FB607B68404A934213D02A
:10275C007B683F4A93420DD07B683E4A934207D038
:10276C007B683D4A934201D1032306E0042304E035
:10277C00022302E0012300E000237A6A02F0030244
:10278C0092009340FA681343FB602F497B6A9B08C5
:10279C000233FA6841F823203B685B6803F480132A
:1027AC00002B06D02D4B9A682C49BB6913438B60C8
:1027BC0006E02A4B9A68BB69DB43284913408B60BF
:1027CC003B685B6803F40013002B06D0234BDA68DC
:1027DC002249BB691343CB6006E0204BDA68BB6926
:1027EC00DB431E491340CB603B685B6803F400334A
:1027FC00002B06D0194B5A681849BB6913434B6020
:10280C0006E0164B5A68BB69DB43144913404B6016
:10281C003B685B6803F48033002B21D00F4B1A68A4
:10282C000E49BB6913430B6021E000BF000032105E
:10283C0000003110000022100000211000001210C6
:10284C00000011100010024000000140000801407F
:10285C00000C014000100140001401400004014034
:10286C000B4B1A68BB69DB43094913400B607B6A4D
:10287C0001337B623B681A687B6A22FA03F3002BF4
:10288C007FF48EAE00BF00BF2C37BD4680BC7047B6
:10289C000004014080B485B000AF78600B467B80AB
:1028AC007B689A687B881340002B02D00123FB7352
:1028BC0001E00023FB73FB7B18461437BD4680BC3C
:1028CC00704780B483B000AF78600B467B801346B2
:1028DC007B707B78002B03D07A887B681A6103E0CD
:1028EC007B881A047B681A6100BF0C37BD4680BC1C
:1028FC00704780B485B000AF78600B467B807B68F6
:10290C00DB68FB607A88FB6813401A04FB68D943C8
:10291C007B880B401A437B681A6100BF1437BD4695
:10292C0080BC704780B586B000AF78607B68002BA8
:10293C0001D1012372E27B681B6803F00103002BB9
:10294C0000F08780924B5B6803F00C03042B0CD0D7
:10295C008F4B5B6803F00C03082B12D18C4B5B681C
:10296C0003F48033B3F5803F0BD1894B1B6803F420
:10297C000033002B6CD07B685B68002B68D1012383
:10298C004CE27B685B68B3F5803F06D1804B1B68DB
:10299C007F4A43F4803313602EE07B685B68002B26
:1029AC000CD17B4B1B687A4A23F480331360784B31
:1029BC001B68774A23F4802313601DE07B685B68F7
:1029CC00B3F5A02F0CD1724B1B68714A43F48023D2
:1029DC0013606F4B1B686E4A43F4803313600BE03B
:1029EC006B4B1B686A4A23F480331360684B1B687B
:1029FC00674A23F4802313607B685B68002B13D039
:102A0C00FEF7CEFE386108E0FEF7CAFE02463B69CF
:102A1C00D31A642B01D9032300E25D4B1B6803F42A
:102A2C000033002BF0D014E0FEF7BAFE386108E05A
:102A3C00FEF7B6FE02463B69D31A642B01D9032379
:102A4C00ECE1534B1B6803F40033002BF0D100E096
:102A5C0000BF7B681B6803F00203002B63D04C4B58
:102A6C005B6803F00C03002B0BD0494B5B6803F045
:102A7C000C03082B1CD1464B5B6803F48033002BF2
:102A8C0016D1434B1B6803F00203002B05D07B6867
:102A9C001B69012B01D00123C0E13D4B1B6823F0C6
:102AAC00F8027B685B69DB00394913430B603AE041
:102ABC007B681B69002B20D0364B01221A60FEF775
:102ACC006FFE386108E0FEF76BFE02463B69D31AD5
:102ADC00022B01D90323A1E12D4B1B6803F0020348
:102AEC00002BF0D02A4B1B6823F0F8027B685B6943
:102AFC00DB00274913430B6015E0264B00221A60BC
:102B0C00FEF74EFE386108E0FEF74AFE02463B69CE
:102B1C00D31A022B01D9032380E11D4B1B6803F050
:102B2C000203002BF0D17B681B6803F00803002B19
:102B3C003AD07B689B69002B19D0174B01221A6085
:102B4C00FEF72EFE386108E0FEF72AFE02463B69CE
:102B5C00D31A022B01D9032360E10D4B5B6A03F0FE
:102B6C000203002BF0D0012000F0CEFA1CE00A4B3F
:102B7C0000221A60FEF714FE38610FE0FEF710FE1B
:102B8C0002463B69D31A022B08D9032346E100BF46
:102B9C00001002400000424280044242924B5B6AA9
:102BAC0003F00203002BE9D17B681B6803F00403DC
:102BBC00002B00F0A6800023FB758B4BDB6903F028
:102BCC008053002B0DD1884BDB69874A43F080532F
:102BDC00D361854BDB6903F08053BB60BB68012379
:102BEC00FB75824B1B6803F48073002B18D17F4B51
:102BFC001B687E4A43F480731360FEF7D1FD386185
:102C0C0008E0FEF7CDFD02463B69D31A642B01D9CF
:102C1C00032303E1754B1B6803F48073002BF0D086
:102C2C007B68DB68012B06D16F4B1B6A6E4A43F045
:102C3C00010313622DE07B68DB68002B0CD16A4B1F
:102C4C001B6A694A23F001031362674B1B6A664ACD
:102C5C0023F0040313621CE07B68DB68052B0CD1AA
:102C6C00614B1B6A604A43F0040313625E4B1B6AA0
:102C7C005D4A43F0010313620BE05B4B1B6A5A4A3B
:102C8C0023F001031362584B1B6A574A23F00403C9
:102C9C0013627B68DB68002B15D0FEF781FD386171
:102CAC000AE0FEF77DFD02463B69D31A41F28832F9
:102CBC00934201D90323B1E04B4B1B6A03F002038F
:102CCC00002BEED014E0FEF76BFD38610AE0FEF746
:102CDC0067FD02463B69D31A41F28832934201D90F
:102CEC0003239BE0404B1B6A03F00203002BEED145
:102CFC00FB7D012B05D13C4BDB693B4A23F0805318
:102D0C00D3617B68DB69002B00F08780364B5B68F6
:102D1C0003F00C03082B61D07B68DB69022B46D1D6
:102D2C00334B00221A60FEF73BFD386108E0FEF7DA
:102D3C0037FD02463B69D31A022B01D903236DE000
:102D4C00294B1B6803F00073002BF0D17B681B6AC6
:102D5C00B3F5803F08D1244B5B6823F400327B68C9
:102D6C009B68214913434B601F4B5B6823F474121F
:102D7C007B68196A7B685B6A0B431B4913434B6086
:102D8C001B4B01221A60FEF70BFD386108E0FEF7C1
:102D9C0007FD02463B69D31A022B01D903233DE000
:102DAC00114B1B6803F00073002BF0D035E0104B77
:102DBC0000221A60FEF7F4FC386108E0FEF7F0FC24
:102DCC0002463B69D31A022B01D9032326E0064B9A
:102DDC001B6803F00073002BF0D11EE07B68DB69ED
:102DEC00012B07D1012319E00010024000700040B4
:102DFC00600042420B4B5B68FB60FB6803F4803263
:102E0C007B681B6A9A4206D1FB6803F470127B68DC
:102E1C005B6A9A4201D0012300E000231846183760
:102E2C00BD4680BD0010024080B584B000AF786014
:102E3C0039607B68002B01D10123D0E06A4B1B6801
:102E4C0003F007033A689A4210D9674B1B6823F0CA
:102E5C00070265493B6813430B60634B1B6803F027
:102E6C0007033A689A4201D00123B8E07B681B68DB
:102E7C0003F00203002B20D07B681B6803F00403D3
:102E8C00002B05D0594B5B68584A43F4E063536000
:102E9C007B681B6803F00803002B05D0534B5B6861
:102EAC00524A43F460535360504B5B6823F0F0027A
:102EBC007B689B684D4913434B607B681B6803F030
:102ECC000103002B40D07B685B68012B07D1474B7B
:102EDC001B6803F40033002B15D101237FE07B68C2
:102EEC005B68022B07D1414B1B6803F00073002B6E
:102EFC0009D1012373E03D4B1B6803F00203002B47
:102F0C0001D101236BE0394B5B6823F003027B6832
:102F1C005B68364913434B60FEF742FCF8600AE0ED
:102F2C00FEF73EFC0246FB68D31A41F2883293420C
:102F3C0001D9032353E02D4B5B6803F00C027B6833
:102F4C005B689B009A42EBD1274B1B6803F007038D
:102F5C003A689A4210D2244B1B6823F0070222498C
:102F6C003B6813430B60204B1B6803F007033A6864
:102F7C009A4201D0012332E07B681B6803F0040302
:102F8C00002B08D0194B5B6823F4E0627B68DB688C
:102F9C00164913434B607B681B6803F00803002B36
:102FAC0009D0124B5B6823F460527B681B69DB0011
:102FBC000E4913434B6000F021F802460B4B5B6843
:102FCC001B0903F00F030A49CB5C22FA03F3094AED
:102FDC001360094B1B681846FEF7A0FB002318462C
:102FEC001037BD4680BD00BF0020024000100240DB
:102FFC0010560008000000200400002080B487B0A8
:10300C0000AF0023FB600023BB6000237B61002327
:10301C007B6000233B611E4B5B68FB60FB6803F02D
:10302C000C03042B02D0082B03D027E0194B3B6177
:10303C0027E0FB689B0C03F00F03174AD35C7B6003
:10304C00FB6803F48033002B10D0114B5B685B0CD6
:10305C0003F00103114AD35CBB607B680D4A03FB90
:10306C0002F2BB68B2FBF3F37B6104E07B680C4AB1
:10307C0002FB03F37B617B693B6102E0054B3B6127
:10308C0000BF3B6918461C37BD4680BC704700BF6B
:10309C000010024000127A0028560008385600082A
:1030AC0000093D0080B400AF024B1B681846BD46BA
:1030BC0080BC70470000002080B500AFFFF7F2FF26
:1030CC000246054B5B681B0A03F007030349CB5C04
:1030DC0022FA03F3184680BD001002402056000867
:1030EC0080B500AFFFF7DEFF0246054B5B68DB0ADD
:1030FC0003F007030349CB5C22FA03F3184680BDA7
:10310C00001002402056000880B485B000AF7860F3
:10311C000A4B1B680A4AA2FB03235B0A7A6802FB70
:10312C0003F3FB6000BFFB685A1EFA60002BF9D159
:10313C0000BF00BF1437BD4680BC704700000020A4
:10314C00D34D621080B582B000AF78607B68002BE5
:10315C0001D1012376E07B685B6A002B08D17B6888
:10316C005B68B3F5827F09D07B680022DA6105E0E9
:10317C007B6800221A617B6800225A617B680022FE
:10318C009A627B6893F85130DBB2002B06D17B68D6
:10319C00002283F850207868FEF7E8F87B6802225A
:1031AC0083F851207B681B681A687B681B6822F0C7
:1031BC0040021A607B685B6803F482727B689B68D0
:1031CC0003F404431A437B68DB6803F400631A437B
:1031DC007B681B6903F002031A437B685B6903F08D
:1031EC0001031A437B689B6903F400731A437B68E1
:1031FC00DB6903F038031A437B681B6A03F0800316
:10320C0042EA03017B689B6A03F400527B681B68EB
:10321C000A431A607B689B691A0C7B681B6802F076
:10322C0004025A607B681B68DA697B681B6822F4AD
:10323C000062DA617B6800225A657B68012283F8A0
:10324C005120002318460837BD4680BD80B58AB092
:10325C0000AFF860B9607A607B8001237B62FEF777
:10326C009FFA3862FB6893F85130FB77FB685B6818
:10327C00BB617B88FB82FB7F012B0CD0BB69B3F558
:10328C00827F06D1FB689B68002B02D1FB7F042B4D
:10329C0001D002237FE1BB68002B05D07B68002B9B
:1032AC0002D07B88002B01D1012374E1FB6893F8D9
:1032BC005030012B01D102236DE1FB68012283F810
:1032CC005020FB6893F85130DBB2042B03D0FB6821
:1032DC00052283F85120FB6800225A65FB687A6846
:1032EC009A63FB687A88DA87FB687A889A87FB6826
:1032FC00BA681A63FB687A88DA86FB687A889A86D9
:10330C00FB6800221A64FB6800225A64FB681B6885
:10331C001B6803F04003402B07D0FB681B681A683E
:10332C00FB681B6842F040021A60FB68DB68B3F56F
:10333C00006F7ED1FB685B68002B02D0FB8A012BEF
:10334C006CD1FB681B6B1A88FB681B68DA60FB6826
:10335C001B6B9A1CFB681A63FB68DB8E9BB2013BF0
:10336C009AB2FB68DA8659E0FB681B689B6803F02D
:10337C000203022B1BD1FB68DB8E9BB2002B16D0F9
:10338C007B6A012B13D1FB681B6B1A88FB681B68CB
:10339C00DA60FB681B6B9A1CFB681A63FB68DB8E9C
:1033AC009BB2013B9AB2FB68DA8600237B62FB6816
:1033BC001B689B6803F00103012B19D1FB68DB8FA1
:1033CC009BB2002B14D0FB681B68DA68FB689B6B04
:1033DC0092B21A80FB689B6B9A1CFB689A63FB6821
:1033EC00DB8F9BB2013B9AB2FB68DA8701237B62CD
:1033FC00FEF7D6F902463B6AD31A3A6B9A420DD8BD
:10340C003B6BB3F1FF3F09D0FB68012283F85120DD
:10341C00FB68002283F850200323BCE0FB68DB8EA2
:10342C009BB2002BA0D1FB68DB8F9BB2002B9BD1F6
:10343C0082E0FB685B68002B02D0FB8A012B71D108
:10344C00FB681A6BFB681B680C3312781A70FB68EC
:10345C001B6B5A1CFB681A63FB68DB8E9BB2013B2F
:10346C009AB2FB68DA865DE0FB681B689B6803F028
:10347C000203022B1CD1FB68DB8E9BB2002B17D0F6
:10348C007B6A012B14D1FB681A6BFB681B680C332D
:10349C0012781A70FB681B6B5A1CFB681A63FB686A
:1034AC00DB8E9BB2013B9AB2FB68DA8600237B620F
:1034BC00FB681B689B6803F00103012B19D1FB68A7
:1034CC00DB8F9BB2002B14D0FB681B68DA68FB689F
:1034DC009B6BD2B21A70FB689B6B5A1CFB689A638D
:1034EC00FB68DB8F9BB2013B9AB2FB68DA87012346
:1034FC007B62FEF755F902463B6AD31A3A6B9A4245
:10350C0003D83B6BB3F1FF3F02D13B6B002B09D1CE
:10351C00FB68012283F85120FB68002283F85020BD
:10352C00032338E0FB68DB8E9BB2002B9CD1FB683D
:10353C00DB8F9BB2002B97D13A6A396BF86800F09D
:10354C00B7F80346002B08D0FB6820225A65FB68AD
:10355C00002283F8502001231DE0FB689B68002BA0
:10356C000AD100233B61FB681B68DB683B61FB688D
:10357C001B689B683B613B69FB68012283F8512007
:10358C00FB68002283F85020FB685B6D002B01D098
:10359C00012300E0002318462837BD4680BD0000FB
:1035AC0080B588B000AFF860B9603B601346FB7122
:1035BC00FEF7F6F80246BB6A9B1A3A681344FB61A5
:1035CC00FEF7EEF8B861394B1B685B011B0DFA690D
:1035DC0002FB03F37B6154E03B68B3F1FF3F50D037
:1035EC00FEF7DEF80246BB69D31AFA699A4202D991
:1035FC00FB69002B3DD1FB681B685A68FB681B6894
:10360C0022F0E0025A60FB685B68B3F5827F11D14F
:10361C00FB689B68B3F5004F04D0FB689B68B3F55F
:10362C00806F07D1FB681B681A68FB681B6822F067
:10363C0040021A60FB689B6AB3F5005F0FD1FB6810
:10364C001B681A68FB681B6822F400521A60FB683E
:10365C001B681A68FB681B6842F400521A60FB680E
:10366C00012283F85120FB68002283F850200323A9
:10367C0017E07B69002B01D10023FB617B69013BC7
:10368C007B61FB681B689A68BB681340BA689A42F6
:10369C000CBF01230023DBB21A46FB799A429BD163
:1036AC00002318462037BD4680BD00BF0000002017
:1036BC0080B586B002AFF860B9607A607B68009321
:1036CC00BB6801220221F868FFF76AFF0346002B52
:1036DC0007D0FB685B6D43F02002FB685A6503233F
:1036EC0013E07B680093BB6800228021F868FFF729
:1036FC0057FF0346002B07D0FB685B6D43F020029D
:10370C00FB685A65032300E0002318461037BD46BA
:10371C0080BD80B582B000AF78607B68002B01D192
:10372C00012342E07B6893F84130DBB2002B06D1D9
:10373C007B68002283F840207868FDF761FE7B6887
:10374C00242283F841207B681B68DA687B681B683D
:10375C0022F40052DA60786800F0B8FD7B681B68D0
:10376C001A697B681B6822F490421A617B681B689B
:10377C005A697B681B6822F02A025A617B681B68B5
:10378C00DA687B681B6842F40052DA607B680022BE
:10379C005A647B68202283F841207B68202283F8BE
:1037AC0042207B6800225A63002318460837BD4626
:1037BC0080BD80B58AB002AFF860B9603B6013463B
:1037CC00FB8000237B61FB6893F84130DBB2202B3C
:1037DC0075D1BB68002B02D0FB88002B01D10123D3
:1037EC006EE0FB6800225A64FB68212283F84120BA
:1037FC00FDF7D6FF7861FB68FA889A84FB68FA8833
:10380C00DA84FB689B68B3F5805F08D1FB681B69A1
:10381C00002B04D10023FB61BB68BB6103E0BB68D8
:10382C00FB610023BB612EE03B6800937B690022A7
:10383C008021F86800F01DFB0346002B05D0FB68C7
:10384C00202283F8412003233AE0FB69002B0BD1A3
:10385C00BB691B881A46FB681B68C2F308025A60D6
:10386C00BB690233BB6107E0FB691A78FB681B6814
:10387C005A60FB690133FB61FB68DB8C9BB2013B3B
:10388C009AB2FB68DA84FB68DB8C9BB2002BCBD141
:10389C003B6800937B6900224021F86800F0E9FA4C
:1038AC000346002B05D0FB68202283F8412003231C
:1038BC0006E0FB68202283F84120002300E002236D
:1038CC0018462037BD4680BD80B584B000AFF86087
:1038DC00B9601346FB80FB6893F84230DBB2202BB7
:1038EC0012D1BB68002B02D0FB88002B01D1012325
:1038FC000BE0FB6800221A63FB881A46B968F8686B
:10390C0000F010FB034600E0022318461037BD46BA
:10391C0080BD000080B5BAB000AF78607B681B68D2
:10392C001B68C7F8E4307B681B68DB68C7F8E030BD
:10393C007B681B685B69C7F8DC300023C7F8D8309C
:10394C000023C7F8D430D7F8E43003F00F03C7F8DE
:10395C00D830D7F8D830002B0FD1D7F8E43003F09B
:10396C002003002B09D0D7F8E03003F02003002B04
:10397C0003D0786800F0ECFB5BE2D7F8D830002B72
:10398C0000F0DE80D7F8DC3003F00103002B06D109
:10399C00D7F8E03003F49073002B00F0D180D7F807
:1039AC00E43003F00103002B0BD0D7F8E03003F424
:1039BC008073002B05D07B685B6C43F001027B6845
:1039CC005A64D7F8E43003F00403002B0BD0D7F87B
:1039DC00DC3003F00103002B05D07B685B6C43F0FB
:1039EC0002027B685A64D7F8E43003F00203002B20
:1039FC000BD0D7F8DC3003F00103002B05D07B682B
:103A0C005B6C43F004027B685A64D7F8E43003F033
:103A1C000803002B11D0D7F8E03003F02003002B63
:103A2C0005D1D7F8DC3003F00103002B05D07B68FF
:103A3C005B6C43F008027B685A647B685B6C002B00
:103A4C0000F0F281D7F8E43003F02003002B08D00B
:103A5C00D7F8E03003F02003002B02D0786800F098
:103A6C0077FB7B681B685B6903F04003002B14BF7A
:103A7C0001230023DBB2C7F8D4307B685B6C03F006
:103A8C000803002B03D1D7F8D430002B4FD0786823
:103A9C0000F081FA7B681B685B6903F04003002B24
:103AAC0041D07B681B681433C7F89C30D7F89C3026
:103ABC0053E8003FC7F89830D7F8983023F040030C
:103ACC00C7F8D0307B681B681433D7F8D020C7F800
:103ADC00A820C7F8A430D7F8A410D7F8A82041E83C
:103AEC000023C7F8A030D7F8A030002BD9D17B68C1
:103AFC00DB6B002B13D07B68DB6B7E4A5A637B68D5
:103B0C00DB6B1846FEF7CAFC0346002B16D07B680D
:103B1C00DB6B5B6B7A68D26B104698470EE078686B
:103B2C0000F093F90AE0786800F08FF906E0786805
:103B3C0000F08BF97B6800225A6475E100BF73E1D9
:103B4C007B681B6B012B40F04F81D7F8E43003F0FE
:103B5C001003002B00F04881D7F8E03003F010037D
:103B6C00002B00F041810023BB607B681B681B6845
:103B7C00BB607B681B685B68BB60BB687B681B6851
:103B8C005B6903F04003002B00F0B6807B68DB6BB5
:103B9C001B685B68A7F8BE30B7F8BE30002B00F08E
:103BAC0045817B689B8DB7F8BE209A4280F03E81A0
:103BBC007B68B7F8BE20DA857B68DB6B9B69202BB2
:103BCC0000F088807B681B680C33C7F88830D7F806
:103BDC00883053E8003FC7F88430D7F8843023F49A
:103BEC008073C7F8B8307B681B680C33D7F8B820E3
:103BFC00C7F89420C7F89030D7F89010D7F89420D5
:103C0C0041E80023C7F88C30D7F88C30002BD9D181
:103C1C007B681B6814337B677B6F53E8003F3B6703
:103C2C003B6F23F00103C7F8B4307B681B68143377
:103C3C00D7F8B420C7F88020FB67F96FD7F880203D
:103C4C0041E80023BB67BB6F002BE1D17B681B688D
:103C5C0014333B663B6E53E8003FFB65FB6D23F072
:103C6C004003C7F8B0307B681B681433D7F8B0201A
:103C7C00FA66BB66B96EFA6E41E800237B667B6E12
:103C8C00002BE3D17B68202283F842207B68002242
:103C9C001A637B681B680C33FB64FB6C53E8003FB6
:103CAC00BB64BB6C23F01003C7F8AC307B681B689B
:103CBC000C33D7F8AC20BA657B65796DBA6D41E8E9
:103CCC0000233B653B6D002BE3D17B68DB6B184617
:103CDC00FEF7A9FB7B6802225A637B689A8D7B688E
:103CEC00DB8D9BB2D31A9BB21946786800F0B6F8FC
:103CFC009CE000BF674000087B689A8D7B68DB8D79
:103D0C009BB2D31AA7F8CE307B68DB8D9BB2002B0D
:103D1C0000F08E80B7F8CE30002B00F089807B68E5
:103D2C001B680C33BB63BB6B53E8003F7B637B6B43
:103D3C0023F49073C7F8C8307B681B680C33D7F832
:103D4C00C8207A643B64396C7A6C41E80023FB63CD
:103D5C00FB6B002BE3D17B681B6814337B627B6AA3
:103D6C0053E8003F3B623B6A23F00103C7F8C430C1
:103D7C007B681B681433D7F8C4203A63FB62F96A7A
:103D8C003A6B41E80023BB62BB6A002BE3D17B6832
:103D9C00202283F842207B6800221A637B681B6810
:103DAC000C333B613B6953E8003FFB60FB6823F03D
:103DBC001003C7F8C0307B681B680C33D7F8C020E1
:103DCC00FA61BB61B969FA6941E800237B617B69DF
:103DDC00002BE3D17B6802225A63B7F8CE30194628
:103DEC00786800F03BF823E0D7F8E43003F0800368
:103DFC00002B09D0D7F8E03003F08003002B03D060
:103E0C00786800F03EF914E0D7F8E43003F0400392
:103E1C00002B0ED0D7F8E03003F04003002B08D075
:103E2C00786800F07DF904E000BF02E000BF00E01C
:103E3C0000BFE837BD4680BD80B483B000AF78606A
:103E4C0000BF0C37BD4680BC704780B483B000AF58
:103E5C00786000BF0C37BD4680BC704780B483B01F
:103E6C0000AF78600B467B8000BF0C37BD4680BC32
:103E7C00704780B586B000AFF860B9603B60134600
:103E8C00FB713BE03B6AB3F1FF3F37D0FDF788FC99
:103E9C0002463B68D31A3A6A9A4202D33B6A002B19
:103EAC0001D103233AE0FB681B68DB6803F00403D1
:103EBC00002B23D0BB68802B20D0BB68402B1DD09F
:103ECC00FB681B681B6803F00803082B16D1002342
:103EDC007B61FB681B681B687B61FB681B685B680C
:103EEC007B617B69F86800F056F8FB6808225A641D
:103EFC00FB68002283F8402001230FE0FB681B685D
:103F0C001A68BB681340BA689A420CBF012300239D
:103F1C00DBB21A46FB799A42B4D000231846183704
:103F2C00BD4680BD80B485B000AFF860B960134663
:103F3C00FB80FB68BA689A62FB68FA889A85FB6812
:103F4C00FA88DA85FB6800225A64FB68222283F81F
:103F5C004220FB681B69002B07D0FB681B68DA68E2
:103F6C00FB681B6842F48072DA60FB681B685A6954
:103F7C00FB681B6842F001025A61FB681B68DA6837
:103F8C00FB681B6842F02002DA60002318461437E5
:103F9C00BD4680BC704780B495B000AF78607B683C
:103FAC001B680C337B637B6B53E8003F3B633B6BC1
:103FBC0023F49073FB647B681B680C33FA6C3A64D3
:103FCC00FB63F96B3A6C41E80023BB63BB6B002BC2
:103FDC00E5D17B681B6814333B623B6A53E8003FB6
:103FEC00FB61FB6923F00103BB647B681B68143322
:103FFC00BA6CFA62BB62B96AFA6A41E800237B6266
:10400C007B6A002BE5D17B681B6B012B19D17B687C
:10401C001B680C33FB60FB6853E8003FBB60BB685C
:10402C0023F010037B647B681B680C337A6CBA61D9
:10403C007B617969BA6941E800233B613B69002BDC
:10404C00E5D17B68202283F842207B6800221A632A
:10405C0000BF5437BD4680BC704780B584B000AFFC
:10406C0078607B685B6AFB60FB680022DA85FB6822
:10407C000022DA84F868FFF7E8FE00BF1037BD466F
:10408C0080BD80B485B000AF78607B6893F8413018
:10409C00DBB2212B3ED17B689B68B3F5805F14D1DA
:1040AC007B681B69002B10D17B681B6AFB60FB686B
:1040BC001B881A467B681B68C2F308025A607B682F
:1040CC001B6A9A1C7B681A6208E07B681B6A591C85
:1040DC007A6811621A787B681B685A607B68DB8C83
:1040EC009BB2013B9BB27A681946D184002B0FD14D
:1040FC007B681B68DA687B681B6822F08002DA60D8
:10410C007B681B68DA687B681B6842F04002DA60E7
:10411C00002300E0022318461437BD4680BC7047CC
:10412C0080B582B000AF78607B681B68DA687B680A
:10413C001B6822F04002DA607B68202283F8412061
:10414C007868FFF779FE002318460837BD4680BD16
:10415C0080B58CB000AF78607B6893F84230DBB2EE
:10416C00222B40F0AE807B689B68B3F5805F17D143
:10417C007B681B69002B13D10023FB627B689B6A55
:10418C00BB627B681B685B689BB2C3F308039AB283
:10419C00BB6A1A807B689B6A9A1C7B689A6226E0D1
:1041AC007B689B6AFB620023BB627B689B68B3F5F0
:1041BC00805F07D07B689B68002B0AD17B681B69EA
:1041CC00002B06D17B681B685B68DAB2FB6A1A703D
:1041DC0008E07B681B685B68DBB203F07F03DAB234
:1041EC00FB6A1A707B689B6A5A1C7B689A627B68B4
:1041FC00DB8D9BB2013B9BB27A681946D185002BB3
:10420C005DD17B681B68DA687B681B6822F0200232
:10421C00DA607B681B68DA687B681B6822F4807242
:10422C00DA607B681B685A697B681B6822F00102A4
:10423C005A617B68202283F842207B6800225A63F3
:10424C007B681B6B012B35D17B6800221A637B6862
:10425C001B680C337B617B6953E8003F3B613B6916
:10426C0023F010037B627B681B680C337A6A3A621A
:10427C00FB61F9693A6A41E80023BB61BB69002B19
:10428C00E5D17B681B681B6803F01003102B0AD167
:10429C000023FB607B681B681B68FB607B681B68EA
:1042AC005B68FB60FB687B689B8D19467868FFF741
:1042BC00D5FD02E07868FBF77DFF002302E00023C8
:1042CC0000E0022318463037BD4680BD80B584B06F
:1042DC0000AF78607B681B681B6923F440517B68D6
:1042EC00DA687B681B680A431A617B689A687B688A
:1042FC001B691A437B685B691343BB607B681B6853
:10430C00DB6823F4B05323F00C037A681268B968A5
:10431C000B43D3607B681B685B6923F440717B683B
:10432C009A697B681B680A435A617B681B682C4A34
:10433C00934203D1FEF7D4FEF86002E0FEF7BCFE18
:10434C00F860FA6813469B0013449A001A447B6881
:10435C005B689B00B2FBF3F3224AA2FB03235B09CD
:10436C001901FA6813469B0013449A001A447B689F
:10437C005B689B00B2FBF3F21A4BA3FB02035B09D5
:10438C00642000FB03F3D31A1B013233154AA2FB42
:10439C0003235B0903F0F0031944FA6813469B00EE
:1043AC0013449A001A447B685B689B00B2FBF3F2DF
:1043BC000C4BA3FB02035B09642000FB03F3D31A31
:1043CC001B013233074AA2FB03235B0903F00F02E4
:1043DC007B681B680A449A6000BF1037BD4680BDDD
:1043EC00003801401F85EB51002310B50446C0E98D
:1043FC000033C0E90433836081814366C2818361E9
:10440C00194608225C3000F001FA0D4B24626362FD
:10441C000C4BA3620C4BE3620C4B23630C4B9C4286
:10442C0006D003F16802944202D0D0339C4205D1ED
:10443C0004F15800BDE8104000F060BA10BD00BF98
:10444C00694600088B460008C3460008E74600088A
:10445C00A40A0020024A0349034800F069B800BFCF
:10446C000C000020A15100081C00002041680C4BDE
:10447C0010B59942044601D000F08CFEA168094B9E
:10448C00994202D0204600F085FEE168064B994225
:10449C0004D02046BDE8104000F07CBE10BD00BF2B
:1044AC00A40A00200C0B0020740B002010B50B4B41
:1044BC000B4C0C4A20461A6004210022FFF794FF93
:1044CC0004F1680001220921FFF78EFF04F1D000EE
:1044DC000222BDE810401221FFF786BFDC0B002042
:1044EC00A40A002061440008014800F008BA00BF8B
:1044FC00E50B0020014800F003BA00BFE50B0020DB
:10450C0010B50446FFF7F0FF236A1BB1BDE810405D
:10451C00FFF7F0BF044B2362044B1B68002BF5D153
:10452C00FFF7C4FFF2E700BF79440008DC0B002062
:10453C002DE9F8430746884614460026D4E9019530
:10454C00B9F1010905D52468002CF7D13046BDE836
:10455C00F883AB89012B07D9B5F90E30013303D0A1
:10456C0029463846C04706436835E9E70FB407B516
:10457C00064904AB086853F8042B8168019300F0DA
:10458C00DFFA03B05DF804EB04B0704718000020AC
:10459C00024B01461868826800F085BE18000020A6
:1045AC00036A70B505460E4684680BB9FFF7A8FF81
:1045BC00636EDB0705D4A389980502D4A06D00F0C7
:1045CC009EF9A389190702D52369002B35D1214601
:1045DC00284600F0C5F880B34FF0FF35636EDA075C
:1045EC0005D4A3899B0502D4A06D00F089F9284657
:1045FC0070BD002B04DAA2699A4217DC0A2915D087
:10460C0023685A1C22601970A36816F8011F013B1D
:10461C00A3600029EDD1002B11DA22460A2128468D
:10462C0000F05FF80130D7D00A25D7E7224628469C
:10463C0000F057F80130E7D1CEE7013EE4E72368FC
:10464C005A1C22600A221A70EEE70000024B014647
:10465C001868FFF7A5BF00BF1800002010B50C4666
:10466C00B1F90E1000F0FCF80028ABBF636DA38904
:10467C001B1823F48053ACBF6365A38110BD2DE9D7
:10468C00F0411F468B890546DB050C46164605D5C1
:10469C0002230022B1F90E1000F0D0F8A3893246A3
:1046AC0023F48053A38128463B46B4F90E10BDE891
:1046BC00F04100F0E7B810B50C46B1F90E1000F05F
:1046CC00BDF8431CA38915BF606523F4805343F4E4
:1046DC008053A38118BFA38110BDB1F90E1000F057
:1046EC009DB8F8B50E461446054618B1036A0BB9C9
:1046FC00FFF706FFA369A360A3891A0701D52369F5
:10470C0043B92146284600F02BF818B14FF0FF377B
:10471C003846F8BD23682269F6B2981A63693746A1
:10472C00834205DC2146284600F034FD0028EDD1FB
:10473C00A368013BA36023685A1C22601E70626947
:10474C00431C9A4204D0A389DB07E1D50A2EDFD1A2
:10475C002146284600F01EFD0028D9D0D6E70000DF
:10476C0038B5294B054618680C4618B1036A0BB9C5
:10477C00FFF7C6FEB4F90C30190722D4DA0607D4B9
:10478C0009222A6043F040034FF0FF30A38133E04D
:10479C00580712D5616B41B104F14403994202D020
:1047AC00284600F0AFF800236363A38923F02403A9
:1047BC00A3810023636023692360A38943F008036A
:1047CC00A38123694BB9A38903F42073B3F5007F4C
:1047DC0003D02146284600F02AFDB4F90C3013F022
:1047EC0001020AD00022A26062695242A2612269CF
:1047FC0042B913F08000C5D138BD990758BF626922
:10480C00A260F4E70020F7E71800002003460244FA
:10481C00934200D1704703F8011BF9E738B5002328
:10482C00054D044608462B60FCF7B7FE431C02D12D
:10483C002B6803B1236038BDE00B002038B504466B
:10484C00084611460022054D2A601A46FCF7C9FE9F
:10485C00431C02D12B6803B1236038BDE00B002050
:10486C0038B50446084611460022054D2A601A4602
:10487C00FCF75AFE431C02D12B6803B1236038BDF0
:10488C00E00B002038B50446084611460022054DC1
:10489C002A601A46FCF765FE431C02D12B6803B153
:1048AC00236038BDE00B0020014B1868704700BF37
:1048BC001800002070B500260C4D0D4C641BA41084
:1048CC00A64209D100F064FD00260A4D0A4C641B77
:1048DC00A410A64205D170BD55F8043B984701368B
:1048EC00EEE755F8043B98470136F2E7705600089E
:1048FC0070560008705600087456000870477047D0
:10490C007047000038B50546002940D051F8043CEA
:10491C000C1F002BB8BFE41800F0DEF81C4A13681B
:10492C0033B9636014602846BDE8384000F0DAB84B
:10493C00A34208D9206821188B4201BF19685B6813
:10494C0009182160EDE71A465B680BB1A342FAD94E
:10495C0011685018A0420BD12068014450188342B2
:10496C001160E0D118685B68084410605360DAE7A6
:10497C0002D90C232B60D6E7206821188B4201BF8B
:10498C0019685B680918216063605460CBE738BD17
:10499C00EC0B002070B50F4E0C463168054611B972
:1049AC0000F0D8FC30602146284600F0D3FC431CB4
:1049BC0003D14FF0FF34204670BDC41C24F0030417
:1049CC00A042F8D0211A284600F0C4FC0130F2D1E4
:1049DC00EFE700BFE80B00202DE9F843CD1C25F0D4
:1049EC00030508350C2D38BF0C25002D064601DBC0
:1049FC00A94204D90C2333600020BDE8F883DFF80A
:104A0C00D48000F069F8D8F800301C4644BB294625
:104A1C003046FFF7BFFF431C044658D1D8F800407E
:104A2C002746002F43D1002C4BD023683946304603
:104A3C0004EB030900F08EFC814542D1216830461D
:104A4C006D1A2946FFF7A6FF01303AD023682B4494
:104A5C002360D8F800305A6862BBC8F800700FE0C9
:104A6C002268521B20D40B2A17D96119A342256046
:104A7C0018BF5960636808BFC8F8001062514B60DA
:104A8C00304600F02FF804F10B00231D20F0070036
:104A9C00C21A1CBF1B1AA350AFE76268A3420CBF1B
:104AAC00C8F800205A60EBE723466468AEE73C4642
:104ABC007F68B6E71A465B68A342FBD100235360BC
:104ACC00DEE70C233046336000F00CF894E7056009
:104ADC00D6E700BFEC0B00200148FFF710BF00BF6A
:104AEC00E40B00200148FFF70BBF00BFE40B0020D4
:104AFC00936810B4013B002B936007DA9469A342CE
:104B0C0001DB0A2902D110BCFFF7EBBD1368581C5E
:104B1C0010601970084610BC7047F8B506460F4671
:104B2C001446D518AC4201D1002007E03A46304675
:104B3C0014F8011BFFF7DCFF431CF3D1F8BD000098
:104B4C002DE9F04F0D461446984606469DB018B117
:104B5C00036A0BB9FFF7D4FC6B6ED90705D4AB898C
:104B6C009A0502D4A86DFFF7CAFEAB891B0701D5C5
:104B7C002B699BB929463046FFF7F2FD70B16B6E7D
:104B8C00DC0704D54FF0FF301DB0BDE8F08FAB89CA
:104B9C009805F7D4A86DFFF7B3FEF3E7002309934C
:104BAC0020238DF8293030234FF00109CDF80C80EB
:104BBC00DFF8A8818DF82A3023469A4613F8012B8A
:104BCC000AB1252AF9D1BAEB040B0BD05B4622466D
:104BDC0029463046FFF7A1FF013000F0A780099A63
:104BEC005A4409929AF80030002B00F09F80002361
:104BFC004FF0FF32CDE905230AF1010A0493079324
:104C0C008DF853301A935446052214F8011B53485F
:104C1C0000F0B0FB049AD8B9D10644BF20238DF81C
:104C2C005330130744BF2B238DF853309AF80030C0
:104C3C002A2B15D0544600204FF00A0C079A214617
:104C4C0011F8013B303B092B4BD9B0B1079214E062
:104C5C00A0EB080309FA03F31343A2460493D2E72B
:104C6C00039B191D1B680391002BBBBF5B4242F0D9
:104C7C00020207930793B8BF049223782E2B0AD114
:104C8C0063782A2B32D1039B02341A1D1B680392C2
:104C9C0043EAE3730593DFF8C8A00322504621785A
:104CAC0000F068FB38B14022049BA0EB0A00824064
:104CBC0013430134049314F8011B062229488DF880
:104CCC00281000F057FB00283FD0274B1BBB039B41
:104CDC00073323F0070308330393099B3B440993E1
:104CEC006AE70C4601200CFB0232A8E700234FF0C8
:104CFC000A0C194601340593204610F8012B303A62
:104D0C00092A03D9002BC6D00591C4E70446012318
:104D1C000CFB0121F0E703AB00932A463046134B02
:104D2C0004A9AFF300800746781CD6D16B6ED90767
:104D3C0005D4AB899A0502D4A86DFFF7E1FDAB89C8
:104D4C005B063FF51FAF09981EE703AB00932A469D
:104D5C003046064B04A900F07DF8E4E73A5600080B
:104D6C00405600084456000800000000274B00087D
:104D7C002DE9F047164698468A680B690746934218
:104D8C00B8BF1346336091F843200C46DDF82090F1
:104D9C000AB1013333602368990642BF336802338A
:104DAC003360256815F0060506D104F1190AE3688D
:104DBC0032689B1AAB422BDC94F843302268003BE0
:104DCC0018BF0123920630D44146384604F1430201
:104DDC00C847013023D02368226903F00603042B53
:104DEC0014BF002533684FF0000608BFE56804F1D6
:104DFC001A0408BFED1A54F8123C08BF25EAE575F1
:104E0C009342C4BF9B1AED18B5421AD1002008E09A
:104E1C000123524641463846C847013003D14FF072
:104E2C00FF30BDE8F0870135C1E73020E11881F88B
:104E3C0043005A1C94F845102244023382F8431064
:104E4C00C2E70123224641463846C8470130E6D026
:104E5C000136D9E72DE9FF470F7E9146782F804622
:104E6C000C469A460C9E01F1430207D8622F0AD8D1
:104E7C00002F00F0D380582F00F0BA8004F14206C6
:104E8C0084F842703AE0A7F16303152BF6D801A120
:104E9C0051F823F0F94E00080D4F0008894E000818
:104EAC00894E0008894E0008894E00080D4F0008F5
:104EBC00894E0008894E0008894E0008894E00086A
:104ECC000F500008374F0008C94F0008894E0008E2
:104EDC00894E000831500008894E0008374F0008F1
:104EEC00894E0008894E0008D14F000833681A1DFE
:104EFC001B68326004F1420684F8423001239EE0C4
:104F0C0033682068191D3160060601D51D6803E061
:104F1C004506FBD5B3F90050002D03DA2D236D4265
:104F2C0084F843300A23594811E021683368080695
:104F3C0053F8045B02D4490648BFADB26F2F3360FF
:104F4C0014BF0A2308235148002184F843106668D3
:104F5C00002EA8BF2168A660A4BF21F00401216027
:104F6C000DB9002E4BD01646B5FBF3F103FB1157D0
:104F7C00C75D06F8017D2F46BB420D46F4D9082BC0
:104F8C000BD12368DF0708D5236961689942DEBF1E
:104F9C00302306F8013C06F1FF36921B22614B468A
:104FAC0021464046CDF800A003AAFFF7E1FE0130F0
:104FBC004AD14FF0FF3004B0BDE8F087236843F0CE
:104FCC00200323607827324884F8457023683168C1
:104FDC001F0651F8045B02D45F0648BFADB23160C6
:104FEC00D90744BF43F0200323601DB11023ABE766
:104FFC002648E9E7236823F020032360F6E71646EA
:10500C00BDE733682568181D616930602E061B6882
:10501C0001D5196002E06806FBD5198000231646FD
:10502C002361BCE7336800211A1D32601E68626878
:10503C00304600F09FF908B1801B60606368236103
:10504C00002384F84330AAE7324649464046236998
:10505C00D0470130ADD023689B0713D4E068039B85
:10506C009842B8BF1846A6E7012332464946404647
:10507C00D04701309DD00135E36803995B1AAB42F0
:10508C00F2DCEBE7002504F11906F5E74B560008B6
:10509C005C560008B1F90C20F8B5160705460C460D
:1050AC0054D44B68002B02DC0B6C002B48DDE66AF9
:1050BC00002E45D0002312F480522F68216A2B60F9
:1050CC0030D0626DA389590705D56368D21A636B1A
:1050DC000BB1236CD21A00232846E66A216AB0472A
:1050EC00431CA38906D129681D292BD8284A0A41BB
:1050FC00D60727D4002262602269D904226004D525
:10510C00421C01D12B6803B96065616B2F60B9B18A
:10511C0004F14403994202D02846FFF7F3FB002325
:10512C0063630DE001232846B0470246501CC9D1E9
:10513C002B68002BC6D01D2B01D0162B1DD12F6038
:10514C00002021E043F040031BB21AE00F69002F4E
:10515C00F6D0930718BF00230E6808BF4B69F61BE7
:10516C000F608B60002EEBDD33463A462846216AF1
:10517C00D4F828C0E047002807DCB4F90C3043F021
:10518C0040034FF0FF30A381F8BD0744361AE9E71E
:10519C00FEFFBFDF38B50B6905460C4613B9002579
:1051AC00284638BD18B1036A0BB9FFF7A9F9B4F951
:1051BC000C30002BF3D0626ED00704D4990502D4C6
:1051CC00A06DFFF79CFB28462146FFF763FF636E3B
:1051DC000546DA07E4D4A3899B05E1D4A06DFFF75B
:1051EC008FFBDDE770B50C46B1F90E1015460029A2
:1051FC001E4696B00CDAA389002113F0800F14BF61
:10520C0040234FF48063002031602B6016B070BDDA
:10521C006A4600F07DF80028EDDB019901F470413D
:10522C00A1F50053594259414FF48063EBE78B8948
:10523C00F7B59D0706460C4607D504F147032360D6
:10524C0023610123636103B0F0BD6A4601ABFFF734
:10525C00C9FF009F054639463046FFF7BDFB48B9EC
:10526C00B4F90C309A05EED423F0030343F0020397
:10527C00A381E2E7A389C4E9040743F08003A38177
:10528C00019B20605BB13046B4F90E1000F052F86F
:10529C0028B1A38923F0030343F00103A381A3895D
:1052AC001D43A581CFE770B50D461446064618B1CF
:1052BC00036A0BB9FFF724F9636ED80705D4A389E9
:1052CC00990502D4A06DFFF71AFBA368013B002BD4
:1052DC00A36005DAA269934212DBEBB20A2B0FD062
:1052EC0023685A1C22601D70EDB2636EDA0705D478
:1052FC00A3899B0502D4A06DFFF702FB284670BD65
:10530C00294622463046FFF7ECF90546EDE700004A
:10531C0038B50023064D0446084611462B60FCF7B1
:10532C0047F9431C02D12B6803B1236038BD00BF81
:10533C00E00B002038B50023054D044608462B60D1
:10534C00FCF745F9431C02D12B6803B1236038BD2F
:10535C00E00B002038B50023054D044608462B60B1
:10536C00FCF74CF9431C02D12B6803B1236038BD08
:10537C00E00B0020034610B5C9B202449342184614
:10538C0001D1002003E0047801338C42F6D110BD2A
:10539C00F8B500BFF8BC08BC9E467047F8B500BF16
:0853AC00F8BC08BC9E467047E6
:1053B400427574746F6E31207075736865640D0086
:1053C40042627574746F6E32207075736865640D13
:1053D4000000000043414E205258204572726F7203
:1053E4000D00000043414E20416374697661746589
:1053F400204572726F720D00526573706F6E736523
:10540400206672616D6520707265616D626C6520E5
:10541400646F6573206E6F7420636F6E7461696E60
:105424002030783030464621000000005265737009
:105434006F6E736520636F6E7461696E73206E6F37
:105444002064617461210000526573706F6E73652E
:10545400206C656E67746820636865636B73756D33
:1054640020646964206E6F74206D61746368206CBD
:10547400656E677468210000526573706F6E7365A2
:1054840020636865636B73756D20646964206E6F57
:1054940074206D61746368206578706563746564F5
:1054A40020636865636B73756D00000054727969DD
:1054B4006E6720746F2077616B6575700000000063
:1054C400446964206E6F7420726563656976652033
:1054D40065787065637465642041434B2066726F20
:1054E4006D20504E35333221000000005265636553
:1054F4006976656420756E6578706563746564208B
:10550400636F6D6D616E6420726573706F6E736529
:10551400210000004661696C656420746F20646535
:10552400746563742074686520504E35333200000E
:10553400011401004D6F7265207468616E206F6EF6
:1055440065206361726420646574656374656421B5
:1055540000000000466F756E6420636172642077FA
:1055640069746820756E65787065637465646C79B8
:10557400206C6F6E672055494421000025730D0A85
:105584000000000048656C6C6F210D00466F756E5D
:105594006420504E3533322077697468206669720E
:1055A4006D776172652076657273696F6E3A202536
:1055B400642E25640D0A000057616974696E6720C2
:1055C400666F7220524649442F4E464320636172EF
:1055D400642E2E2E0D000000466F756E64206361EC
:1055E40072642077697468205549443A20000000A9
:1055F40025303278200000000D00000053746172E1
:10560400740000000000FF00FF0000000000000024
:10561400000000000102030406070809000000005E
:105624000102030402030405060708090A0B0C0D12
:105634000E0F10100102232D302B2000686C4C003B
:10564400656667454647003031323334353637387E
:1056540039414243444546003031323334353637DC
:0C56640038396162636465660000000074
:0456700031010008FC
:045674000D0100081C
:105678000024F400100000000100000000000000F9
:1056880003000000A40A00201C0000200000000005
:10569800A40A00200C0B0020740B0020000000005E
:1056A80000000000000000000000000000000000F2
:1056B80000000000000000000000000000000000E2
:1056C80000000000000000000000000000000000D2
:0856D8000000000000000000CA
:04000005080016B128
:00000001FF
